:100000000C94E4020C940C030C940C030C940C035D
:100010000C940C030C940C030C940C030C940C0324
:100020000C940C030C940C030C940C030C940C0314
:100030000C940C030C940C030C940C030C940C0304
:100040000C940E0F0C940C030C94DC0E0C94B60E56
:100050000C940C030C940C030C940C030C940C03E4
:100060000C94970D0C940C03000000002400270052
:100070002A0000000000250028002B00456E746552
:100080007220636F6D6D616E6473206F72202748FC
:10009000454C50270053656E642027592720746F04
:1000A000207365742074686520636C6F636B2C200B
:1000B00073656E6420274E2720746F2073746172FD
:1000C0007420616761696E3A2000456E74657265DF
:1000D000642054696D657374616D703A2000456EDB
:1000E00074657220446179204F66205765656B20E6
:1000F00028312064696769742C20312D372C2061E8
:1001000072626974726172696C792031203D204D90
:100110006F6E2C2037203D2053756E293A20004504
:100120006E746572205365636F6E6420283220649C
:1001300069676974732C2030302D3539293A2000D5
:10014000456E746572204D696E7574652028322085
:100150006469676974732C2030302D3539293A2051
:1001600000456E74657220486F75722028322064D5
:1001700069676974732C20323420686F757220634C
:100180006C6F636B2C2030302D3233293A200045C0
:100190006E74657220596561722028322064696727
:1001A0006974732C2030302D3939293A2000456E7E
:1001B000746572204D6F6E74682028322064696700
:1001C0006974732C2030312D3132293A2000456E6C
:1001D00074657220446179206F66204D6F6E74687B
:1001E000202832206469676974732C2030312D33E4
:1001F00031293A2000436C6F636B2069732073656B
:1002000074207768656E20616C6C20646174612075
:10021000697320656E746572656420616E6420790F
:100220006F752073656E642027592720746F2063D3
:100230006F6E6669726D2E00496E76616C6964201E
:10024000636F6D6D616E642C207479706520484514
:100250004C5000496E76616C696420636F6D6D610E
:100260006E642C20747970652048454C5000496EAE
:1002700076616C696420636F6D6D616E642C2074AF
:100280007970652048454C5000496E76616C696410
:1002900020636F6D6D616E642C20747970652048E9
:1002A000454C5000496E76616C696420636F6D6DDA
:1002B000616E642C20747970652048454C5000496B
:1002C0006E76616C696420636F6D6D616E642C2065
:1002D000747970652048454C50004C454420526567
:1002E00064004C454420477265656E004C454420CF
:1002F0006F666600426C696E6B696E6720626F7430
:1003000068206F6E206475616C204C454400426C1F
:10031000696E6B696E672072656400426C696E6B12
:10032000696E6720677265656E00443133206F6EB9
:1003300000443133206F666600426C696E6B696EF3
:10034000672044313300496E76616C696420636FC5
:100350006D6D616E642C20747970652048454C5039
:10036000005254432052454144207C2052544320A3
:100370005752495445207C2028757064617465206B
:100380002F20726561642074696D65290A0A0D5613
:10039000455253494F4E207C202863757272656E1A
:1003A000742076657273696F6E290A0D2D2D2D2DBF
:1003B0002D2D2D2D2D2D2D2D2D2D2D2D2D2D2D2D6D
:1003C0002D2D2D2D2D004448542043555252454E7D
:1003D00054207C20444854205341564544207C20DE
:1003E0004448542045585452454D45207C2028739C
:1003F000686F77207468652063757272656E742CFF
:100400002073617665642C2065787472656D652053
:1004100074656D70202F2068756D69646974792921
:100420000A0041444420582059207C2028616464FB
:10043000205820616E6420592C20696E74656765B0
:100440007273206F6E6C79290A00290A0A0D5354C1
:1004500041545553204C454453207C202873686FE9
:1004600077206C656420737461747573290A005376
:10047000455420424C494E4B2058207C202873651F
:1004800074207468652064656C617920746F2058ED
:10049000206D732C206D696E696D756D20004C4563
:1004A0004420475245454E207C204C45442052452F
:1004B00044207C204C4544204F4646207C204C451F
:1004C0004420424C494E4B207C204C45442044550E
:1004D000414C20424C494E4B207C2028636F6E7467
:1004E000726F6C20746865206475616C20636F6C3A
:1004F0006F72204C4544290A00443133204F4E206E
:100500007C20443133204F4646207C204431332028
:10051000424C494E4B207C2028636F6E74726F6C86
:100520002070696E203133204C4544290A000D2D7E
:100530002D2D2D2D2D2D2D2D2D2D2D2D2D2D2D2DEB
:100540002D2D2D2D2D2D2D2D0A0D417661696C61DE
:10055000626C6520636F6D6D616E64733A00566501
:100560007273696F6E3A200052652D656E74657204
:100570002074686520636F6D6D616E64000000001B
:1005800000230026002900040404040404040402D7
:100590000202020202030303030303010204081020
:1005A00020408001020408102001020408102000ED
:1005B0000000080002010000030407000000000022
:1005C000000000323000171011241FBECFEFD8E01A
:1005D000DEBFCDBF24E0ACE5B2E001C01D92A63085
:1005E000B207E1F712E0A0E0B1E0EAE1F6E302C011
:1005F00005900D92AC35B107D9F712E0C4EED2E008
:1006000004C02197FE010E94051BC33ED107C9F714
:100610000E941F100C9490180C940000813208F076
:1006200041C0909148039111FCCF91E09093480311
:10063000909347032FEF2093460310924503280F12
:10064000209344039093430390914303906D9093C0
:100650004303909142039130F9F410924203909138
:1006600043039093BB009091BC0093FDF8CF95ECB1
:100670009093BC00909148039130E1F39091450331
:10068000981710F480914503A2E2B3E0E9E4F3E0A7
:1006900090E0981303C0089595EEEACF2D91219331
:1006A0009F5FF7CF80E00895613208F048C09091D5
:1006B00048039111FCCF92E0909348034093470385
:1006C0009FEF909346031092450360934403A2E08A
:1006D000B3E0E2E2F3E090E069132BC01092430331
:1006E00090914303880F892B8093430380914203A9
:1006F000813019F510924203809143038093BB002F
:100700008091BC0083FDF8CF85EC8093BC00809184
:1007100048038230E1F3809146038F3F91F080914E
:100720004603803281F080914603803371F084E08B
:1007300008952D9121939F5FCFCF85EEE6CF81E085
:10074000089580E0089582E0089583E00895482F99
:1007500060910103809100030E9454031092FF02F4
:10076000109201031092FE020895E091F202F091BE
:10077000F3020190F081E02D682F82EF92E009945E
:1007800087EC93E09093EF028093EE020895089532
:100790008FEC93E09093ED028093EC02089508951E
:1007A00085ED8093BC008091BC0084FDFCCF10924D
:1007B000480308952091C902260F3327331F2132A1
:1007C0003105ECF420914803FC0190E080E02430F6
:1007D00069F082E00895A091C9022191AC014755CA
:1007E0005D4FA40FB52FB11D2C930196861798F37A
:1007F0008091C902680F6093C90280E0089581E08A
:1008000008950895E091F1028091F002E81730F424
:10081000F0E0E75BFC4F808190E008958FEF9FEF61
:1008200008959091F1028091F0022FEF3FEF981719
:1008300048F4E92FF0E0E75BFC4F208130E09F5F58
:100840009093F102C90108958091F0029091F10214
:10085000891B990B0895CF92DF92EF92FF920F932D
:100860001F93CF93DF937C01CB018A012091FE027D
:10087000222389F0EB016B01C40ED51ECC15DD05DA
:1008800069F06991D701ED91FC910190F081E02D23
:10089000C7010995F3CF642F0E94DA03C801DF91E5
:1008A000CF911F910F91FF90EF90DF90CF9008951F
:1008B000CF93DF931F92CDB7DEB769832091FE02FD
:1008C0002223F9F020910103203258F021E030E09A
:1008D000FC013383228390E080E00F90DF91CF9181
:1008E00008958091FF02E82FF0E0EE5FFC4F9981C0
:1008F00090838F5F8093FF028093010381E090E0FB
:10090000ECCF61E0CE0101960E94DA03F7CF6F923F
:100910007F928F929F92AF92BF92CF92DF92EF928F
:10092000FF920F931F93CF93DF93CDB7DEB7AC97B2
:100930000FB6F894DEBF0FBECDBFDC011696ED9169
:10094000FC91319609F48BC059013A016B018C017D
:10095000FE0131964F0188E2DF011D928A95E9F789
:10096000D801ED91FC910484F585E02DB401C80116
:1009700009957C01892B09F05CC01AA619A61CA652
:100980001BA6D801ED91FC910684F785E02D9E0110
:10099000255D3F4FAE01475D5F4FB401C80109952A
:1009A0007C01892B09F045C0A114B10439F088E21B
:1009B000F401D50101900D928A95E1F7C114D1049B
:1009C00009F189A59AA521E030E097FF02C02FEF39
:1009D0003FEF9F77829FB001839F700D929F700DB4
:1009E0001124072E000C880B990B0E949D1820E003
:1009F00030E040E251E40E942F1AF60160837183D7
:100A00008283938361147104A1F06BA57CA5072EEA
:100A1000000C880B990B0E949D1820E030E040E20A
:100A200051E40E942F1AD3016D937D938D939C9373
:100A30001397C701AC960FB6F894DEBF0FBECDBFBB
:100A4000DF91CF911F910F91FF90EF90DF90CF90AA
:100A5000BF90AF909F908F907F906F90089587E1A7
:100A6000E82EF12CE6CF8F929F92AF92BF92CF9259
:100A7000DF92EF92FF920F931F93CF93DF93EC01DE
:100A80008B016A017901E881F9810284F385E02D07
:100A90000995B82EB801685F7F4FE881F98102841B
:100AA000F385E02DCE010995982EB801605F7F4F48
:100AB000E881F9810284F385E02DCE010995A82E05
:100AC000B801685E7F4FE881F9810284F385E02DEB
:100AD000CE010995882EB801605E7F4FE881F981CB
:100AE0000284F385E02DCE0109959B2D990D9A0D79
:100AF000980D891319C09A2D882DF6019183808352
:100B00009B2D892DF7019183808390E080E0DF9118
:100B1000CF911F910F91FF90EF90DF90CF90BF90FA
:100B2000AF909F908F90089585E190E0F0CF47E0DF
:100B300050E080E0FB012191BF01042E01C0220F93
:100B40000A94EAF7820F41505109A0F70895DC0199
:100B500017967C936E931697FB01E556FA4FE49136
:100B60001896EC93189769577A4FFB016491199680
:100B70006C930895CF92DF92EF92FF920F931F93A1
:100B8000CF93DF93EC017A0169010E94A705E88108
:100B9000F9810480F581E02D9801A601B701CE010D
:100BA000DF91CF911F910F91FF90EF90DF90CF9049
:100BB0000994CF92DF92EF92FF920F931F93CF93FE
:100BC000DF93EC017A0169010E94A705E881F981B0
:100BD0000190F081E02D9801A601B701CE01DF91CF
:100BE000CF911F910F91FF90EF90DF90CF900994DC
:100BF000CF92DF92EF92FF920F931F93CF93DF93E9
:100C0000CDB7DEB728970FB6F894DEBF0FBECDBFC5
:100C1000DC011696ED91FC91319609F440C08A01F1
:100C20007B0119821A821B821C821D821E821F82F6
:100C30001886DC01ED91FC910480F581E02DAE0178
:100C40004B5F5F4FBE016F5F7F4F09956C01892B32
:100C5000B1F4E114F10441F069817A818B819C81C6
:100C60000E94A11AF70160830115110541F06D8101
:100C70007E818F8198850E94A11AD8016C93C6014C
:100C800028960FB6F894DEBF0FBECDBFDF91CF918F
:100C90001F910F91FF90EF90DF90CF90089587E123
:100CA000C82ED12CECCFCF93C62F91E09093FE02AB
:100CB00098E6909300031092FF0210920103682FB0
:100CC00082EF92E00E9458046C2F82EF92E00E9423
:100CD000580481E0CF910C94A70391E09093FE0219
:100CE00098E6909300031092FF0210920103682F80
:100CF00082EF92E00E94580481E00C94A7036AE01E
:100D00000E94D71A292F30E1839FC0011124822B22
:100D10000895982F92959F708F702AE0929F800D72
:100D200011240895FC01538D448D252F30E0842F2C
:100D300090E0821B930B541710F0CF960895019703
:100D40000895FC01918D828D981761F0A28DAE0FF0
:100D5000BF2FB11D5D968C91928D9F5F9F73928F77
:100D600090E008958FEF9FEF0895FC01918D828DA3
:100D7000981731F0828DE80FF11D858D90E0089570
:100D80008FEF9FEF0895FC01918D228D892F90E0C8
:100D9000805C9F4F821B91098F7399270895FC01F6
:100DA000A48DA80FB92FB11DA35ABF4F2C91848DCC
:100DB00090E001968F739927848FA689B7892C9329
:100DC000A089B1898C91837080648C93938D848D7C
:100DD000981306C00288F389E02D80818F7D80837F
:100DE0000895EF92FF920F931F93CF93DF93EC013F
:100DF00081E0888F9B8D8C8D98131AC0E889F989C2
:100E0000808185FF15C09FB7F894EE89FF896083C4
:100E1000E889F98980818370806480839FBF81E045
:100E200090E0DF91CF911F910F91FF90EF90089587
:100E3000F62E0B8D10E00F5F1F4F0F731127E02E62
:100E40008C8D8E110CC00FB607FCFACFE889F9899A
:100E5000808185FFF5CFCE010E94CF06F1CFEB8DCB
:100E6000EC0FFD2FF11DE35AFF4FF0829FB7F8946E
:100E70000B8FEA89FB8980818062CFCFCF93DF938C
:100E8000EC01888D8823B9F0AA89BB89E889F989A2
:100E90008C9185FD03C0808186FD0DC00FB607FCD7
:100EA000F7CF8C9185FFF2CF808185FFEDCFCE010A
:100EB0000E94CF06E9CFDF91CF91089589E693E0B4
:100EC0000E94C30621E0892B09F420E0822F0895B7
:100ED00080E090E0892B29F00E945E0781110C943C
:100EE00000000895DC01ED91FC910190F081E02D6E
:100EF0000994EF92FF920F931F93CF93DF938C018E
:100F00007B01D0E0C0E0F701EC0FFD1F6491662388
:100F100061F0D801ED91FC910190F081E02DC801C4
:100F20000995892B11F02196EECFCE01DF91CF915B
:100F30001F910F91FF90EF900895AF92BF92CF92C3
:100F4000DF92EF92FF920F931F93CF93DF936C0189
:100F50007B018B01040F151FEB015E01AE18BF086A
:100F6000C017D10759F06991D601ED91FC9101901C
:100F7000F081E02DC6010995892B79F7C501DF9134
:100F8000CF911F910F91FF90EF90DF90CF90BF9086
:100F9000AF90089590E080E00895833081F028F4C8
:100FA000813099F08230A9F008958730A9F0883017
:100FB000C9F08430B1F4809180008F7D03C08091AE
:100FC00080008F7780938000089584B58F7784BDEB
:100FD000089584B58F7DFBCF8091B0008F7780938B
:100FE000B00008958091B0008F7DF9CFCF93DF934B
:100FF000ECEBF5E08491E8EAF5E0D491E4E9F5E082
:10100000C491CC23A1F081110E94CD07EC2FF0E018
:10101000EE0FFF1FE358FA4FA591B491EC91ED2329
:1010200081E090E009F480E0DF91CF91089580E0C5
:1010300090E0FACF1F93CF93DF93282F30E0F90190
:10104000E155FA4F8491F901E556FA4FD491F9012F
:10105000E957FA4FC491CC23A9F0162F81110E94B1
:10106000CD07EC2FF0E0EE0FFF1FEE58FF4FA591DC
:10107000B4918FB7F894EC91111108C0D095DE238C
:10108000DC938FBFDF91CF911F910895DE2BF8CFB6
:101090001092480381E0809347031092420361E07D
:1010A00082E10E941A0861E083E10E941A08E9EBDC
:1010B000F0E080818E7F808380818D7F808388E4D3
:1010C0008093B80085E48093BC000895CF93DF93AC
:1010D00090E0FC01E556FA4F249189579A4FFC01A4
:1010E00084918823D1F090E0880F991FFC01E85982
:1010F000FF4FA591B491FC01EE58FF4FC591D491DB
:1011000061110EC09FB7F8948C91E22FE0958E2369
:101110008C932881E223E8839FBFDF91CF910895CC
:101120008FB7F894EC91E22BEC938FBFF6CF7894C5
:1011300084B5826084BD84B5816084BD85B58260DC
:1011400085BD85B5816085BDEEE6F0E0808181607A
:101150008083E1E8F0E0108280818260808380817A
:1011600081608083E0E8F0E0808181608083E1EB52
:10117000F0E0808184608083E0EBF0E0808181603A
:101180008083EAE7F0E080818460808380818260F0
:1011900080838081816080838081806880831092D9
:1011A000C10008958130910539F0880F991F880F8B
:1011B000991F05970197F1F708953FB7F89480912B
:1011C000610290916202A0916302B091640226B51F
:1011D000A89B05C02F3F19F00196A11DB11D3FBF6F
:1011E000BA2FA92F982F8827BC01CD01620F711D3E
:1011F000811D911D42E0660F771F881F991F4A9538
:10120000D1F708957F928F929F92AF92BF92CF9223
:10121000DF92EF92FF920F931F93CF93DF93EC0136
:10122000162F7A0169010E94DD084B015C01712CC7
:101230001111788410E000E060E070E0CB012A81B9
:101240003B814C815D812617370748075907F4F029
:101250000115110561F5C7011E141F0464F10E94F8
:10126000DD08681979098A099B09E985F0E0EE0F24
:10127000FF1FE358FA4FA591B4912C910F5F1F4FB8
:1012800038852323271105C097FFD9CF6FEF7FEF54
:10129000CB01DF91CF911F910F91FF90EF90DF90E5
:1012A000CF90BF90AF909F908F907F9008951C1427
:1012B0001D04ACF6C6010E94D208D1CF2FB7F89416
:1012C00060915D0270915E0280915F029091600278
:1012D0002FBF08958F929F92AF92BF92EF92FF928D
:1012E0000F931F93CF93DF937B018C01D0E0C0E07D
:1012F0000E945E096093710370937203809373037D
:1013000090937403E0916903F0916A030284F3857A
:10131000E02D89E693E0099597FF27C00E945E09BA
:101320008090710390907203A0907303B090740347
:10133000681979098A099B0980906D0390906E0362
:10134000A0906F03B0907003681579058A059B051E
:10135000C8F2CE01DF91CF911F910F91FF90EF90D6
:10136000BF90AF909F908F900895F80181938F0167
:101370002196EC16FD0609F0BBCFEBCF86E08093FB
:10138000040180938D0261E084E00E941A0860E00D
:1013900085E00C941A0881110AC010928D0260E059
:1013A00084E00E941A0860E085E00C941A088630F8
:1013B00011F40C94BE0987E08093040180938D02A0
:1013C00060E084E00E941A0861E0EECFBF92CF9205
:1013D000DF92EF92FF920F931F93CF93DF9300D092
:1013E00000D000D01F92CDB7DEB780E00E946D061E
:1013F00087E00E940E031092F1028093F002873082
:10140000E1F582EF92E00E9411040E948906B82E55
:1014100082EF92E00E9411040E948906C82E82EF9A
:1014200092E00E941104182F86FF3EC08F710E9427
:1014300089060CE015FD00E0080F82EF92E00E94A3
:1014400011040E948906D82E82EF92E00E941104B6
:101450000E948906E82E82EF92E00E94110410E0BB
:1014600087FD14E68F770E948906F82E82EF92E0BE
:101470000E9411040E948906180F2B2D3C2D402F2D
:101480005D2DB701812F90E027960FB6F894DEBF4F
:101490000FBECDBFDF91CF911F910F91FF90EF90C5
:1014A000DF90CF90BF9008958F730E948906082F18
:1014B000C4CFCF93DF93EB010E946D0681E00E94C1
:1014C0000E031092F1028093F00282EF92E00E94EC
:1014D0001104888381E0DF91CF910895EF92FF920C
:1014E0001F93CF93DF931F92CDB7DEB77C01162FEA
:1014F000BE016F5F7F4F8EE00E94590A811108C0C4
:1015000080E00F90DF91CF911F91FF90EF900895B1
:1015100081E08093FE0288E6809300031092FF0230
:1015200010920103113089F587E090E00E94B50325
:10153000F70180810E947F0690E00E94B5038981B7
:1015400085608983F70181810E947F0690E00E9477
:10155000B503F70182810E947F0690E00E94B503E7
:10156000F70184810E947F0690E00E94B50381E02C
:101570000E94A7038111C4CF69818EE00E945306A7
:101580008111BECF812F8770BCCF8BE090E00E948D
:10159000B50389818660D5CF0E94AC19EF92FF9286
:1015A0000F931F93CF93DF93EC018B0188E2FB0134
:1015B00011928A95E9F761E08E810E94660860E0E9
:1015C0008E810E941A0888EE93E00E94D20861E0A2
:1015D0008E810E941A0860E08E810E94660888E26F
:1015E00090E00E94D208E881F9810084F185E02D25
:1015F00026E030E04AE050E060E0CE0109956E312F
:101600007105810591056CF4982F872F762F662739
:101610006061CB01DF91CF911F910F91FF90EF900F
:101620000895E881F9810084F185E02D26E030E01D
:101630004AE050E061E0CE0109957801F8E2EF0E52
:10164000F11C623371058105910534F4982F872FC1
:10165000762F66276161DDCFE881F9810084F1850D
:10166000E02D26E030E04AE050E060E0CE01099550
:10167000683171058105910534F4982F872F762FF5
:1016800066276261C6CFE881F9810084F185E02D8B
:1016900026E030E04AE050E061E0CE0109956B3091
:1016A00071058105910534F4982F872F762F6627D1
:1016B0006361AFCF21E069327105810591050CF4BA
:1016C00020E0F80121938F01EE16FF0629F6E8814C
:1016D000F9810084F185E02D26E030E04AE050E019
:1016E00060E0CE010995683171058105910534F4FA
:1016F000982F872F762F662764618BCF70E060E08C
:1017000088CFFF920F931F93CF93DF93EC018B0150
:10171000FB01F0800E949619F81621F06F2DCE0182
:101720000E949E19F801F1802196CE010E9496191F
:10173000F81621F06F2DCE010E949E19C801DF918D
:10174000CF911F910F91FF900895FB010190002010
:10175000E9F73197AF01461B570BDC01ED91FC9186
:101760000280F381E02D09948F929F92AF92BF92F5
:10177000EF92FF920F931F93CF93DF93CDB7DEB716
:10178000A1970FB6F894DEBF0FBECDBF7C01FA0162
:10179000CB0119A2223008F42AE08E010F5D1F4F01
:1017A000822E912CB12CA12CBF01A50194010E9485
:1017B000E31AF901CA016A300CF5605DD8016E9335
:1017C0008D01232B242B252B79F790E080E01097B7
:1017D00021F0BD01C7010E94A50BA1960FB6F89498
:1017E000DEBF0FBECDBFDF91CF911F910F91FF9054
:1017F000EF90BF90AF909F908F900895695CDECF7F
:10180000462F50E070E060E02AE00C94B40BCF93D8
:10181000C82F8A3028F460E389E693E00E947207BB
:101820006C2F89E693E0CF910C94000CCF93DF935B
:10183000EC018E818536D0F062E389E693E00E9468
:1018400072078E810E94070C6DE289E693E00E9488
:1018500072078D810E94070C6DE289E693E00E9479
:1018600072078C81DF91CF910C94070C63EC75E0CB
:1018700089E693E00E947907E4CFCF93DF93EC01F0
:101880008A810E94070C6AE389E693E00E9472074E
:1018900089810E94070C6AE389E693E00E9472073F
:1018A0008881DF91CF910C94070CCF92DF92EF9259
:1018B000FF92CF93DF936C01990FEE08FF08F7FEBC
:1018C0001BC06DE289E693E00E947207EC01442799
:1018D0005527BA014C195D096E097F092AE089E68E
:1018E00093E00E94B40B8C0F9D1FDF91CF91FF906E
:1018F000EF90DF90CF9008952AE0B701A60189E626
:1019000093E0DF91CF91FF90EF90DF90CF900C9418
:10191000B40BBC0189E693E00C94A50B63E571E080
:101920000C94A50BCF93DF93BC0189E693E00E9452
:10193000A50BEC0189E693E00E948E0C8C0F9D1F95
:10194000DF91CF9108956F927F928F929F92AF9285
:10195000BF92CF92DF92EF92FF920F931F93CF939C
:10196000DF93CDB7DEB729970FB6F894DEBF0FBE71
:10197000CDBF209175023091760221153105C1F459
:1019800086E591E029960FB6F894DEBF0FBECDBF75
:10199000DF91CF911F910F91FF90EF90DF90CF904B
:1019A000BF90AF909F908F907F906F900C94920C0F
:1019B00060907302709074028C01281739070CF440
:1019C0008901D12CC12CC016D1060CF089C053015D
:1019D000730189E0E81AF1083701FE0131964F01E1
:1019E000C7010E949619F40181934F01FFEFEF1A8E
:1019F000FF0AAE14BF04A1F78FEFC81AD80AC601B8
:101A00000E94550C8EE591E00E94890C6F8189E659
:101A100093E00E94000C80E691E00E94890C6E81A8
:101A200089E693E00E94000C80E691E00E94890C18
:101A30006D8189E693E00E94000C8BE691E00E94A4
:101A4000890C6B8189E693E00E94000C82E691E0AC
:101A50000E94890C6A8189E693E00E94000C82E66C
:101A600091E00E94890C698189E693E00E94000C54
:101A70008BE691E00E94890CF8848F2D0F2C000CCE
:101A8000990B0E94550C84E691E00E94890C6F2D01
:101A9000FF0C770B880B990B0E949D1826E636E603
:101AA00046EE5FE30E94D81820E030E040E052E4C8
:101AB0000E94C3190E94A11A862F660F990B0E94DB
:101AC000550C88E691E00E94890C8985082E000C4F
:101AD000990B0E94550C8DE691E00E94920C73CFF9
:101AE00029960FB6F894DEBF0FBECDBFDF91CF9120
:101AF0001F910F91FF90EF90DF90CF90BF90AF902C
:101B00009F908F907F906F9008950F931F93CF9326
:101B1000DF93EC010E9479078C01CE010E948E0CAC
:101B2000800F911FDF91CF911F910F9108951F9208
:101B30000F920FB60F9211242F933F934F935F9301
:101B40006F937F938F939F93AF93BF93EF93FF9385
:101B50008091B900887F803609F44AC0F0F5883258
:101B600009F4A7C018F5803109F49BC0B8F48823A4
:101B700009F4F9C0883009F494C0FF91EF91BF9146
:101B8000AF919F918F917F916F915F914F913F9115
:101B90002F910F900FBE0F901F901895883109F468
:101BA00088C0803251F78093460314C0803409F412
:101BB0009DC040F48033B9F38833F9F6809346032F
:101BC00085ECB0C0803509F485C0883509F496C02D
:101BD000883499F60E94D003D0CF883909F48CC09C
:101BE00038F5883729F050F4883611F0803729F617
:101BF00083E0809348031092EB0257C0883809F4C1
:101C00007BC0803919F0803809F0B7CF8091EB02A2
:101C1000803208F071C0E091EB0281E08E0F80937A
:101C2000EB028091BB00F0E0E553FD4F80833DC0A7
:101C3000803B39F0E0F4803A09F479C0883A09F041
:101C40009CCF84E0809348031092CA021092C9028C
:101C5000E091EC02F091ED0209958091C9028111A9
:101C60000FC081E08093C9021092A90209C0803C94
:101C700009F4A6CF883C09F4A3CF883B09F07DCFB7
:101C8000E091CA0281E08E0F8093CA02F0E0E7552E
:101C9000FD4F80818093BB009091CA028091C90260
:101CA00029C0809143038093BB0085EC8093BC00E6
:101CB00064CF9091450380914403981758F5E091C3
:101CC000450381E08E0F80934503F0E0EE5DFC4F0D
:101CD0008081E9CFE091450381E08E0F8093450339
:101CE0008091BB00F0E0EE5DFC4F80839091450356
:101CF000809144039817C8F285E8D8CFE091450356
:101D000081E08E0F809345038091BB00F0E0EE5D93
:101D1000FC4F80838091470381115CCF81E08093E9
:101D2000420384EA8093BC001092480326CF85ECDE
:101D30008093BC00109248038091EB02803230F413
:101D4000E091EB02F0E0E553FD4F10826091EB0271
:101D500070E0E091EE02F091EF028BEC92E00995D9
:101D60001092EB020ACF1092460334CF1F920F92CB
:101D70000FB60F9211242F933F934F935F936F935E
:101D80007F938F939F93AF93BF93EF93FF9389E6D6
:101D900093E00E94CF06FF91EF91BF91AF919F9189
:101DA0008F917F916F915F914F913F912F910F9004
:101DB0000FBE0F901F9018951F920F920FB60F92A3
:101DC00011242F938F939F93EF93FF93E0917903C7
:101DD000F0917A038081E0917F03F091800382FD8E
:101DE0001BC09081809182038F5F8F73209183034A
:101DF000821741F0E0918203F0E0E759FC4F958FA4
:101E000080938203FF91EF919F918F912F910F907B
:101E10000FBE0F901F9018958081F4CF1F920F92E4
:101E20000FB60F9211242F933F938F939F93AF93ED
:101E3000BF9380915D0290915E02A0915F02B0918C
:101E4000600230915C0223E0230F2D3758F5019694
:101E5000A11DB11D20935C0280935D0290935E02F0
:101E6000A0935F02B0936002809161029091620240
:101E7000A0916302B09164020196A11DB11D8093EF
:101E8000610290936202A0936302B0936402BF91D7
:101E9000AF919F918F913F912F910F900FBE0F9017
:101EA0001F90189526E8230F0296A11DB11DD2CFD1
:101EB000E2EFF2E01382128288EE93E0A0E0B0E05D
:101EC00084839583A683B78385E491E0918380839F
:101ED0000895E9E6F3E01382128288EE93E0A0E031
:101EE000B0E084839583A683B78383E391E09183F5
:101EF000808385EC90E09587848784EC90E09787D9
:101F0000868780EC90E0918B808B81EC90E0938BC6
:101F1000828B82EC90E0958B848B86EC90E0978BA3
:101F2000868B118E128E138E148E0895CF93DF93AD
:101F3000C5E6D2E08BE091E09983888380E49BE45E
:101F4000ACE4B0E08A839B83AC83BD838FEF9FEFCB
:101F50009F838E838887898762E070E0CE010E942C
:101F6000A7058FE191E099838883DF91CF91089550
:101F7000CF93DF9300D000D0CDB7DEB710927002C0
:101F800010926F028FEF93E0909372028093710230
:101F900010927402109273021092760210927502DF
:101FA000BE016D5F7F4F90E080E00E940310BE0194
:101FB0006F5F7F4F82E090E00E9403102B813C8195
:101FC000309374022093730289819A8190937602F0
:101FD000809375021092790280916F029091700245
:101FE000069690937802809377022817390724F495
:101FF00090937402809373020F900F900F900F9044
:10200000DF91CF9108950F931F93CF93DF938C01AE
:10201000EB010E9496198883C80101960E949619C7
:102020008983CE01DF91CF911F910F9108950E9476
:10203000580F0E94690F0E94960F0C94B80FCF930F
:10204000DF93CDB7DEB764970FB6F894DEBF0FBE4F
:10205000CDBF0E949708E0917903F0917A0312E0D6
:102060001083E0917503F09176031082E09177037D
:10207000F09178038FEC808310928103E0917D03CF
:10208000F0917E0386E08083E0917B03F0917C03F6
:10209000808180618083E0917B03F0917C0380816B
:1020A00088608083E0917B03F0917C03808180686D
:1020B0008083E0917B03F0917C0380818F7D80831E
:1020C0001092F1021092F0021092FF02109201039E
:1020D0000E9448080E94C8030E94C00360E08EE08E
:1020E0000E9453060E94E60929833A834B835C834E
:1020F0008F838FE18D831E8362E0CE0101960E9463
:102100006E0A61E0CE0101960E946E0A1C8A1A8650
:10211000BE01665F7F4F8FE00E94590A6A85862F55
:10212000837021F06C7F8FE00E9453068C89882396
:1021300069F0BE016C5E7F4F8EE00E94590A8823D1
:1021400029F06C896F778EE00E94530610929502F9
:1021500061E08DE00E94660861E084E00E9466080C
:1021600061E085E00E9466086CE770E089E693E034
:102170000E94850D8E010F5E1F4F3E0122E1620E0F
:10218000711C412C60E8562E53E0352E0E945E09EA
:102190007093A8026093A702209185023091860275
:1021A000621B730B68387341E0F130E020E04BE8CC
:1021B00052E06CE872E085E692E00E94F8057C014E
:1021C000892B59F08FE691E00E94890CC7010E948B
:1021D000550C89E693E00E948E0C80918C029091C0
:1021E0000101891714F4809301019091030198175C
:1021F00014F48093030180918B0290910001891760
:1022000014F48093000190910201981714F48093C4
:1022100002018091A7029091A80290938602809378
:1022200085022091A7023091A802809183029091AB
:102230008402A901481B590B4838534120F4281740
:10224000390708F07BC00E94E60920937A02309398
:102250007B0240937C0250937D0260937E027093D8
:102260007F028093800280918C0280938102809112
:102270008B028093820289E0EAE7F2E0DE011196A8
:1022800001900D928A95E1F780907302909074020C
:10229000CE0101966C01F12CE12CF60121906F0129
:1022A0005401AE0CBF1CC5010E949619281621F0DE
:1022B000622DC5010E949E19FFEFEF1AFF0A29E067
:1022C000E216F10451F780917902811109C08091E1
:1022D0007502909176020196909376028093750232
:1022E0008091730290917402099690937402809386
:1022F000730220917102309172022950310928171E
:10230000390740F48091770290917802909374029B
:102310008093730263E772E090E080E00E94810B9B
:1023200065E772E082E090E00E94810B8091A70255
:102330009091A80290938402809383028091A602D8
:10234000882319F1E090A702F090A80280918702FB
:10235000909188029701281B390B8091050190917B
:1023600006012817390788F00E94F60761E0892BDB
:1023700029F00E94F607019721F460E08DE00E94A9
:102380001A08F0928802E09287028091A5028111DA
:1023900004C08091A402882301F1E090A702F0908C
:1023A000A8028091890290918A029701281B390B1B
:1023B00080910501909106012817390770F08091EE
:1023C00004019091A402992379F1873039F50E9494
:1023D000BE09F0928A02E092890289E693E00E94A7
:1023E000C306892B71F089E693E00E94A1060E9442
:1023F000B1198093A302803201F59091A20291114C
:102400003BC080E090E0892B09F4C0CE0E945E07BB
:10241000882309F4B9CE0E940000B6CE8630C9F6F2
:1024200087E00E94CB09D5CF90918D02981302C00E
:1024300080E0F7CF9111CDCFF4CF8F37E9F489E663
:1024400093E00E948E0C68E675E089E693E00E94B6
:10245000850D109295021092A20210929002109295
:102460008F02109292021092910210929402109296
:10247000930210928E02C5CF682F89E693E00E94E6
:102480007207C090A302E091A20230E2C31619F0D5
:102490004DE0C41216C6F0E0EB56FD4F1082E090FE
:1024A0008E0262E06E1508F459C080918F029091FF
:1024B00090028431910541F00197C9F58091910214
:1024C000909192020B9799F530919502E5E9F2E02F
:1024D00020E08191882369F03D3211F4222331F00C
:1024E000082E000C990BC0970A97A0F42F5F2C3090
:1024F00081F785E992E00E94721821E02E0D209369
:102500008E02EE2DF0E0EE0FFF1FE157FD4F91839D
:10251000808324C081E08E0D80938E02EE2DF0E04A
:10252000EE0FFF1FE157FD4F5182408217C067E851
:1025300071E085E992E00E94B919DD24D394DE0CA4
:10254000F12CEE0CFF1CF701E157FD4F7F01892BA9
:1025500009F030C0D0928E02118210821092950242
:102560001092A202FDE0CF124CCF89E693E00E94C8
:102570008E0CE0918F02F0919002E531F10508F0A8
:102580009DC5EB53FD4E0C94051BBC14421457140F
:10259000E4130D145E185E185E185E185E185E185F
:1025A0005E189E145E185E18F91485175E185E1882
:1025B0005E1846186BE871E085E992E00E94B9194F
:1025C000892B31F4D0928E0288E090E0F7019FCF02
:1025D00060E971E085E992E00E94B919892B29F43C
:1025E000D0928E0281E090E0F1CF64E971E085E95C
:1025F00092E00E94B919892B29F4D0928E0282E0D0
:1026000090E0E4CF6BE971E085E992E00E94B919AE
:10261000892B29F4D0928E0283E090E0D7CF63EA31
:1026200071E085E992E00E94B919892B29F4D092D2
:102630008E0284E090E0CACF60EA71E085E992E022
:102640000E94B919892B29F4D0928E0289E090E07A
:10265000BDCF68EA71E085E992E00E94B919892B43
:1026600029F4D0928E028AE090E0B0CF6CEA71E05B
:1026700085E992E00E94B919892B29F4D0928E0243
:102680008BE090E0A3CF62EB71E085E992E00E94DD
:10269000B919892B29F4D0928E0285E090E096CF6B
:1026A00067EB71E085E992E00E94B919892B29F462
:1026B000D0928E0287E090E089CF6BEB71E085E9E4
:1026C00092E00E94B919892B29F4D0928E0286E0FB
:1026D00090E07CCF61EC71E085E992E00E94B9194D
:1026E000892B29F4D0928E028DE090E06FCF67ECB9
:1026F00071E085E992E00E94B919892B29F4D09202
:102700008E028EE090E062CF6CEC71E085E992E0A1
:102710000E94B919892B29F4D0928E028FE090E0A3
:1027200055CF60ED71E085E992E00E94B919892BDF
:1027300029F4D0928E0280E190E048CF64ED71E000
:1027400085E992E00E94B919892B41F4D0928E025A
:1027500021E130E0F7013183208300CF6CED71E09F
:1027600085E992E00E94B919892B29F4D0928E0252
:1027700022E130E0EFCF62EE71E085E992E00E9465
:10278000B919892B29F4D0928E0223E130E0E2CFEF
:102790006AEE71E085E992E00E94B919892B29F46B
:1027A000D0928E0224E130E0D5CF6EEE71E085E963
:1027B00092E00E94B919D0928E02F701892B09F09C
:1027C000B3CE2CE030E0C6CF6EE575E089E693E04D
:1027D0000E9479072AE042E050E060E070E089E67C
:1027E00093E00E94B40B6EE289E693E00E947207C8
:1027F0002AE040E050E0BA0189E693E00E94B40B81
:102800002AE040E050E0BA0189E693E00E94B40B70
:1028100089E693E00E948E0C20CE6EE275E089E698
:1028200093E00E94850D69EF74E089E693E00E94D1
:10283000850D6EE974E089E693E00E94850D6FE6F0
:1028400074E089E693E00E94790782E390E00E94B9
:10285000550C6AE474E089E693E00E94850D62E21B
:1028600074E089E693E00E94850D66EC73E089E6EA
:1028700093E00E94850D61E673E089E693E00E9493
:10288000850DEBCD80919102909192020B9761F4AE
:102890008091930290919402823391052CF0909351
:1028A000060180930501D9CD66E473E0E6CF8091FF
:1028B000910290919202059709F0CFCD8091A602E6
:1028C00069E373E0811108C00E94F60761E373E0D9
:1028D000892B11F06AE273E089E693E00E94850D8E
:1028E0008091A4029091A502911102C08823B9F0B1
:1028F00090910401963041F46BE173E0882309F470
:10290000BCCF64EF72E0B9CF973029F46EE073E08A
:102910008111F7CFB2CF882309F49FCDF2CF8091F8
:102920008D026CEE72E0882309F4A7CF62EE72E0AC
:10293000863009F4A2CF6AED72E09FCF80919102B8
:10294000909192028A30910579F08B30910581F057
:102950006FEB72E0099709F090CF1092A60261E048
:102960008DE00E941A0879CD1092A60260E0F8CF9F
:1029700081E08093A60271CD8091910290919202A4
:102980008830910519F144F486309105C1F007971C
:1029900071F064EA72E071CF8A30910521F10B97F2
:1029A000C1F781E08093A5021092A40256CD109247
:1029B000A4021092A50287E00E94CB094ECD10928E
:1029C000A4021092A5020E94BE0947CD80919302F5
:1029D000909194020B9709F040CD1092A50281E0EE
:1029E0008093A4023ACD1092A4021092A50280E036
:1029F000E3CF80919102909192028D30910531F058
:102A00000E9709F462C269E872E037CF198A1A8A10
:102A10001B8A65EF71E089E693E00E94850DF8015D
:102A2000232D11922A95E9F789E693E00E948E0CF6
:102A30006EEC71E089E693E00E947907E09169030A
:102A4000F0916A030084F185E02D89E693E0099511
:102A5000892BA1F362E070E0C8010E946A09E0914D
:102A60006903F0916A030084F185E02D89E693E023
:102A70000995892B59F0E0916903F0916A0302846A
:102A8000F385E02D89E693E00995E9CF89898033C4
:102A9000D9F5C3010E9472188E87F801232D119277
:102AA0002A95E9F789E693E00E948E0C6EEA71E0C0
:102AB00089E693E00E947907E0916903F0916A0347
:102AC0000084F185E02D89E693E00995892BA1F337
:102AD00062E070E0C8010E946A09E0916903F09128
:102AE0006A030084F185E02D89E693E00995892B3E
:102AF00069F0E0916903F0916A030284F385E02DA7
:102B000089E693E00995E9CFC801C4CF898980336C
:102B1000D9F5C3010E9472188F87F801232D1192F5
:102B20002A95E9F789E693E00E948E0C6FE871E040
:102B300089E693E00E947907E0916903F0916A03C6
:102B40000084F185E02D89E693E00995892BA1F3B6
:102B500062E070E0C8010E946A09E0916903F091A7
:102B60006A030084F185E02D89E693E00995892BBD
:102B700069F0E0916903F0916A030284F385E02D26
:102B800089E693E00995E9CFC801C4CF89898033EC
:102B9000D9F5C3010E947218888BF801232D119278
:102BA0002A95E9F789E693E00E948E0C61E671E0D0
:102BB00089E693E00E947907E0916903F0916A0346
:102BC0000084F185E02D89E693E00995892BA1F336
:102BD00062E070E0C8010E946A09E0916903F09127
:102BE0006A030084F185E02D89E693E00995892B3D
:102BF00069F0E0916903F0916A030284F385E02DA6
:102C000089E693E00995E9CFC801C4CF898980336B
:102C1000D9F5C3010E9472188C87F801232D1192F7
:102C20002A95E9F789E693E00E948E0C60E471E052
:102C300089E693E00E947907E0916903F0916A03C5
:102C40000084F185E02D89E693E00995892BA1F3B5
:102C500062E070E0C8010E946A09E0916903F091A6
:102C60006A030084F185E02D89E693E00995892BBC
:102C700069F0E0916903F0916A030284F385E02D25
:102C800089E693E00995E9CFC801C4CF89898033EB
:102C9000D9F5C3010E9472188B87F801232D119278
:102CA0002A95E9F789E693E00E948E0C6FE171E0C6
:102CB00089E693E00E947907E0916903F0916A0345
:102CC0000084F185E02D89E693E00995892BA1F335
:102CD00062E070E0C8010E946A09E0916903F09126
:102CE0006A030084F185E02D89E693E00995892B3C
:102CF00069F0E0916903F0916A030284F385E02DA5
:102D000089E693E00995E9CFC801C4CF898980336A
:102D1000D9F5C3010E9472188A87F801232D1192F8
:102D20002A95E9F789E693E00E948E0C6EED70E03B
:102D300089E693E00E94850DE0916903F0916A03B2
:102D40000084F185E02D89E693E00995892BA1F3B4
:102D500061E070E0C8010E946A09E0916903F091A6
:102D60006A030084F185E02D89E693E00995892BBB
:102D700069F0E0916903F0916A030284F385E02D24
:102D800089E693E00995E9CFC801C4CFC8010E9444
:102D900072188D8789E693E00E948E0C6AEC70E0D1
:102DA00089E693E00E947907CE010A960E94160CEC
:102DB00064E589E693E00E947207CE010A960E94BC
:102DC0003D0C89E693E00E948E0C65E970E089E68F
:102DD00093E00E947907E0916903F0916A0300840F
:102DE000F185E02D89E693E00995892BA1F361E057
:102DF00070E0C8010E946A09E0916903F0916A03DA
:102E00000084F185E02D89E693E00995892B59F03E
:102E1000E0916903F0916A030284F385E02D89E66D
:102E200093E00995E9CF89898F7D893509F0F7CD40
:102E300081E08093FE0288E6809300031092FF02F7
:102E40001092010390E080E00E94B5038A850E9401
:102E50007F06682F82EF92E00E9458048B850E94C3
:102E60007F06682F82EF92E00E9458048C850E94B2
:102E70007F06682F82EF92E00E9458048D858111B1
:102E800001C081E00E947F06682F82EF92E00E94DD
:102E900058048E850E947F06682F82EF92E00E9480
:102EA00058048F850E947F06682F82EF92E00E946F
:102EB000580488890E947F06682F82EF92E00E9462
:102EC000580481E00E94A703C8CA0E94E6092A8725
:102ED0003B874C875D876E877F87888BCE010A96FC
:102EE0000E94160C60E289E693E00E9472070E943D
:102EF000E6092A873B874C875D876E877F87888BAB
:102F0000CE010A960E943D0C83CC80919102909153
:102F100092028231910509F444C08331910509F48C
:102F20004DC06EE672E0419709F0A7CC82EF91E0C8
:102F30000E94890C80918C02082E000C990B0E9433
:102F4000550C84E691E00E94890C60918C02062E5B
:102F5000000C770B880B990B0E949D1826E636E62D
:102F600046EE5FE30E94D81820E030E040E052E4F3
:102F70000E94C3190E94A11A862F660F990B0E9406
:102F8000550C88E691E00E94890C80918B02082EF6
:102F9000000C990B0E94550C8DE691E00E94920C5A
:102FA0005CCA8091930290919402181619061CF441
:102FB0000E94A30C52CA8AE090E0FACF8EE092E021
:102FC0000E94890C80910301082E000C990B0E942D
:102FD000550C84E691E00E94890C60910301062E55
:102FE000000C770B880B990B0E949D1826E636E69D
:102FF00046EE5FE30E94D81820E030E040E052E463
:103000000E94C3190E94A11A862F660F990B0E9475
:10301000550C88E691E00E94890C80910201082EEF
:10302000000C990B0E94550C83E392E00E94890CDE
:1030300080910101082E000C990B0E94550C84E62A
:1030400091E00E94890C60910101062E000C770B23
:10305000880B990B0E949D1826E636E646EE5FE344
:103060000E94D81820E030E040E052E40E94C319EA
:103070000E94A11A862F660F990B0E94550C88E6B4
:1030800091E00E94890C8091000181CF20919102F2
:1030900030919202211540E8340769F08091930243
:1030A00090919402811560E8960729F0820F931F92
:1030B0000E94550CADCB63E572E0DFCB68E372E0B4
:1030C000DCCBEC3008F09DC981E08E0F8093A2022A
:1030D000F0E0EB56FD4FC082E82FF0E0EB56FD4FDD
:1030E00010828FC9FC0188279927E894219120320A
:1030F000E9F3293010F02E30C8F32B3241F02D3295
:1031000039F4689404C00E949318820F911D219194
:1031100020532A30C0F31EF4909581959F4F089557
:10312000F8940C940B1B7AE0979F902D879F802D2D
:10313000910D11240895E89409C097FB3EF49095F1
:103140008095709561957F4F8F4F9F4F9923A9F080
:10315000F92F96E9BB279395F6958795779567950F
:10316000B795F111F8CFFAF4BB0F11F460FF1BC053
:103170006F5F7F4F8F4F9F4F16C0882311F096E9E6
:1031800011C0772321F09EE8872F762F05C0662394
:1031900071F096E8862F70E060E02AF09A95660F4D
:1031A000771F881FDAF7880F9695879597F9089506
:1031B0000E94EB180C945C190E944E1938F00E9482
:1031C000551920F0952311F00C9445190C944B19C6
:1031D00011240C9490190E946D1970F3959FC1F3FE
:1031E000950F50E0551F629FF001729FBB27F00DB5
:1031F000B11D639FAA27F00DB11DAA1F649F66270A
:10320000B00DA11D661F829F2227B00DA11D621F58
:10321000739FB00DA11D621F839FA00D611D221F12
:10322000749F3327A00D611D231F849F600D211DF6
:10323000822F762F6A2F11249F5750409AF0F1F079
:1032400088234AF0EE0FFF1FBB1F661F771F881FE2
:1032500091505040A9F79E3F510580F00C944519BC
:103260000C9490195F3FE4F3983ED4F386957795DC
:103270006795B795F795E7959F5FC1F7FE2B880F88
:10328000911D9695879597F9089597F99F6780E81E
:1032900070E060E008959FEF80EC089500240A94A8
:1032A0001616170618060906089500240A94121621
:1032B0001306140605060895092E0394000C11F454
:1032C000882352F0BB0F40F4BF2B11F460FF04C001
:1032D0006F5F7F4F8F4F9F4F089557FD9058440F5A
:1032E000551F59F05F3F71F04795880F97FB991F65
:1032F00061F09F3F79F08795089512161306140622
:10330000551FF2CF4695F1DF08C0161617061806AE
:10331000991FF1CF86957105610508940895E89489
:10332000BB2766277727CB0197F90895F999FECF38
:1033300092BD81BDF89A992780B50895262FF999F5
:10334000FECF1FBA92BD81BD20BD0FB6F894FA9A88
:10335000F99A0FBE0196089581E090E0F8940C94DC
:103360000B1B9111089581568A5108F4805285589B
:103370000895FB01DC018D91019080190110D9F3B2
:10338000990B08955058BB27AA270E94DA190C946C
:103390005C190E944E1938F00E94551920F039F43A
:1033A0009F3F19F426F40C944B190EF4E095E7FBBB
:1033B0000C944519E92F0E946D1958F3BA1762074A
:1033C00073078407950720F079F4A6F50C948F19FC
:1033D0000EF4E0950B2EBA2FA02D0B01B901900130
:1033E0000C01CA01A0011124FF27591B99F0593F74
:1033F00050F4503E68F11A16F040A22F232F342FBC
:103400004427585FF3CF469537952795A795F04009
:103410005395C9F77EF41F16BA0B620B730B840B1E
:10342000BAF09150A1F0FF0FBB1F661F771F881FD6
:10343000C2F70EC0BA0F621F731F841F48F487952E
:1034400077956795B795F7959E3F08F0B0CF939520
:10345000880F08F09927EE0F9795879508950E9499
:10346000431A0C945C190E94551958F00E944E1989
:1034700040F029F45F3F29F00C94451951110C9448
:1034800090190C944B190E946D1968F39923B1F3AC
:10349000552391F3951B550BBB27AA27621773077A
:1034A000840738F09F5F5F4F220F331F441FAA1F0E
:1034B000A9F335D00E2E3AF0E0E832D091505040CA
:1034C000E695001CCAF72BD0FE2F29D0660F771F78
:1034D000881FBB1F261737074807AB07B0E809F05E
:1034E000BB0B802DBF01FF2793585F4F3AF09E3FE3
:1034F000510578F00C9445190C9490195F3FE4F352
:10350000983ED4F3869577956795B795F7959F5F25
:10351000C9F7880F911D9695879597F90895E1E071
:10352000660F771F881FBB1F621773078407BA07D0
:1035300020F0621B730B840BBA0BEE1F88F7E0952B
:1035400008950E94A81A6894B1110C9490190895D6
:103550000E94751988F09F5798F0B92F9927B75195
:10356000B0F0E1F0660F771F881F991F1AF0BA9527
:10357000C9F714C0B13091F00E948F19B1E00895DD
:103580000C948F19672F782F8827B85F39F0B93FCF
:10359000CCF3869577956795B395D9F73EF49095DA
:1035A0008095709561957F4F8F4F9F4F0895991B20
:1035B00079E004C0991F961708F0961B881F7A952A
:1035C000C9F780950895A1E21A2EAA1BBB1BFD0125
:1035D0000DC0AA1FBB1FEE1FFF1FA217B307E407F2
:1035E000F50720F0A21BB30BE40BF50B661F771F4A
:1035F000881F991F1A9469F760957095809590952A
:103600009B01AC01BD01CF010895EE0FFF1F059096
:0A361000F491E02D0994F894FFCF27
:10361A007F7F808007F40100000000F805D905CCFF
:10362A000ACC0A02099705CC0A330500000000F803
:10363A0005D9058704BA0502099705CE0A3305009C
:10364A00000000F1069D0792063E07C306A106B5D3
:10365A00060000000058042B04CA070104240411C0
:10366A000402040D0A004E6F2064617461000900AF
:10367A002F003A004320280046292C20002500521A
:10368A00656164204448543232206661696C65641D
:10369A002C206572723D004C4544004455414C0053
:1036AA0053455400535441545553005645525349B7
:1036BA004F4E0048454C50004F464600424C494E3A
:1036CA004B004C4544530052454400475245454E31
:1036DA000057524954450052454144005254430050
:1036EA004448540043555252454E5400534156459E
:1036FA00440045585452454D450041444400443124
:10370A00330043757272656E742074656D70202F74
:10371A002068756D696469747920697320004D6148
:10372A0078696D756D207265636F72646564207463
:10373A00656D70202F2068756D69646974792069D8
:10374A00732000250A0D4D696D696D756D207265CE
:10375A00636F726465642074656D70202F206875CC
:0C376A006D6964697479206973200000A7
:00000001FF
