:100000000C947F030C94A7030C94A7030C94A703F0
:100010000C94A7030C94A7030C94A7030C94A703B8
:100020000C94A7030C94A7030C94A7030C94A703A8
:100030000C94A7030C94A7030C94A7030C94A70398
:100040000C9423140C94A7030C94F1130C94CB136D
:100050000C94A7030C94A7030C94A7030C94A70378
:100060000C94AC120C94A70300000000240027009D
:100070002A0000000000250028002B00456E746552
:100080007220636F6D6D616E6473206F72202748FC
:10009000454C50270053656E642027592720746F04
:1000A000207365742074686520636C6F636B2C200B
:1000B00073656E6420274E2720746F2073746172FD
:1000C0007420616761696E3A2000456E74657265DF
:1000D000642054696D657374616D703A2000456EDB
:1000E00074657220446179204F66205765656B20E6
:1000F00028312064696769742C20312D372C2061E8
:1001000072626974726172696C792031203D204D90
:100110006F6E2C2037203D2053756E293A20004504
:100120006E746572205365636F6E6420283220649C
:1001300069676974732C2030302D3539293A2000D5
:10014000456E746572204D696E7574652028322085
:100150006469676974732C2030302D3539293A2051
:1001600000456E74657220486F75722028322064D5
:1001700069676974732C20323420686F757220634C
:100180006C6F636B2C2030302D3233293A200045C0
:100190006E74657220596561722028322064696727
:1001A0006974732C2030302D3939293A2000456E7E
:1001B000746572204D6F6E74682028322064696700
:1001C0006974732C2030312D3132293A2000456E6C
:1001D00074657220446179206F66204D6F6E74687B
:1001E000202832206469676974732C2030312D33E4
:1001F00031293A2000436C6F636B2069732073656B
:1002000074207768656E20616C6C20646174612075
:10021000697320656E746572656420616E6420790F
:100220006F752073656E642027592720746F2063D3
:100230006F6E6669726D2E00496E76616C6964201E
:10024000636F6D6D616E642C207479706520484514
:100250004C5000496E76616C696420636F6D6D610E
:100260006E642C20747970652048454C5000496EAE
:1002700076616C696420636F6D6D616E642C2074AF
:100280007970652048454C5000496E76616C696410
:1002900020636F6D6D616E642C20747970652048E9
:1002A000454C5000496E76616C696420636F6D6DDA
:1002B000616E642C20747970652048454C5000496B
:1002C0006E76616C696420636F6D6D616E642C2065
:1002D000747970652048454C5000496E76616C69B0
:1002E0006420636F6D6D616E642C2074797065207D
:1002F00048454C50004C454420526564004C4544F0
:1003000020477265656E004C4544206F666600426A
:100310006C696E6B696E6720626F7468206F6E2007
:100320006475616C204C454400426C696E6B696E6B
:10033000672072656400426C696E6B696E67206746
:100340007265656E00443133206F6E004431332096
:100350006F666600426C696E6B696E67204431336C
:1003600000496E76616C696420636F6D6D616E64C7
:100370002C20747970652048454C5000E2949CE232
:100380009480E2948020414444205820590A0DE290
:10039000949CE29480E29480204431330A0DE294EC
:1003A00082C2A0C2A020E2949CE29480E2948020C9
:1003B000424C494E4B0A0DE29482C2A0C2A020E2F8
:1003C000949CE29480E29480204F46460A0DE29489
:1003D00082C2A0C2A020E29494E29480E2948020A1
:1003E0004F4E0A0DE2949CE29480E29480205247A2
:1003F000420A0DE29482C2A0C2A020E2949CE29440
:1004000080E2948020312052204720422028524709
:100410004220636F6C6F72203120302D32353529C8
:100420000A0DE29482C2A0C2A020E2949CE29480D1
:10043000E294802032205220472042202852474216
:1004400020636F6C6F72203220302D3235350A0DEB
:10045000E29482C2A0C2A020E29494E29480E2944A
:10046000802053455420424C494E4B20582028644C
:10047000656C617920696E206D73290A0DE2949C88
:10048000E29480E2948020444854202874656D7082
:100490006572617475726520616E642068756D693E
:1004A000646974792073656E736F7273290A0DE243
:1004B0009482C2A0C2A020E2949CE29480E2948044
:1004C0002043555252454E540A0DE29482C2A0C2B6
:1004D000A020E2949CE29480E294802045585452FB
:1004E000454D450A0DE29482C2A0C2A020E2949C30
:1004F000E29480E2948020534156454420582028BD
:1005000058206973206F7074696F6E616C2C20685D
:100510006F77206D616E79206461746120706F69FE
:100520006E747320746F207072696E74290A0DE204
:100530009482C2A0C2A020E29494E29480E29480CB
:100540002052455345540A0DE2949CE29480E29473
:1005500080204C45440A0DE29482C2A0C2A020E251
:10056000949CE29480E2948020424C494E4B0A0DC8
:10057000E29482C2A0C2A020E29482C2A0C2A020C3
:10058000E2949CE29480E29480204455414C0A0D10
:10059000E29482C2A0C2A020E29482C2A0C2A020A3
:1005A000E2949CE29480E2948020475245454E0AB2
:1005B0000DE29482C2A0C2A020E29482C2A0C2A096
:1005C00020E29494E29480E29480205245440A0D03
:1005D000E29482C2A0C2A020E2949CE29480E294C1
:1005E0008020475245454E0A0DE29482C2A0C2A027
:1005F00020E2949CE29480E29480204F46460A0DCB
:10060000E29482C2A0C2A020E29494E29480E29498
:1006100080205245440A0DE2949CE29480E294804A
:1006200020525443202874696D6520636C6F636B9E
:10063000290A0DE29482C2A0C2A020E2949CE29416
:1006400080E2948020524541440A0DE29482C2A087
:10065000C2A020E29494E29480E294802057524910
:1006600054450A0DE2949CE29480E2948020534524
:100670005420424C494E4B205820287365747320F7
:10068000666F7220616C6C204C4544732C206D6940
:100690006E200056657273696F6E3A200052652DA8
:1006A000656E7465722074686520636F6D6D616E30
:1006B0006400000000002300260029000404040454
:1006C00004040404020202020202030303030303FC
:1006D00001020408102040800102040810200102D9
:1006E00004081020000000080002010000030407B5
:1006F0000000000000000000323000004915112405
:100700001FBECFEFD8E0DEBFCDBF24E0ACECB2E03F
:1007100001C01D92AA3BB207E1F712E0A0E0B1E0F0
:10072000ECEFF4E402C005900D92AC3CB107D9F7B0
:1007300013E0CFE7D3E004C02197FE010E946F22AF
:10074000CE37D107C9F70E9453150C94891F0C941A
:100750000000813208F041C09091FC039111FCCF60
:1007600091E09093FC039093FB032FEF2093FA0307
:100770001092F903280F2093F8039093F7039091B8
:10078000F703906D9093F7039091F6039130F9F48D
:100790001092F6039091F7039093BB009091BC00E8
:1007A00093FDF8CF95EC9093BC009091FC039130B1
:1007B000E1F39091F903981710F48091F903A6EDF5
:1007C000B3E0EDEFF3E090E0981303C0089595EEE9
:1007D000EACF2D9121939F5FF7CF80E0089561329A
:1007E00008F048C09091FC039111FCCF92E09093E7
:1007F000FC034093FB039FEF9093FA031092F903DD
:100800006093F803A6EBB3E0E6EDF3E090E0691344
:100810002BC01092F7039091F703880F892B8093D8
:10082000F7038091F603813019F51092F603809159
:10083000F7038093BB008091BC0083FDF8CF85EC6B
:100840008093BC008091FC038230E1F38091FA0335
:100850008F3F91F08091FA03803281F08091FA030A
:10086000803371F084E008952D9121939F5FCFCF65
:1008700085EEE6CF81E0089580E0089582E0089556
:1008800083E00895482F6091B5038091B4030E94DE
:10089000EF031092B3031092B5031092B2030895C0
:1008A000E091A603F091A7030190F081E02D682F5D
:1008B00086EA93E0099482E694E090938A03809319
:1008C0008903089508958AE694E0909388038093BD
:1008D00087030895089585ED8093BC008091BC0046
:1008E00084FDFCCF1092FC03089520916403260F31
:1008F0003327331F21323105ECF42091FC03FC0136
:1009000090E080E0243069F082E00895A0916403D3
:100910002191AC014C5B5C4FA40FB52FB11D2C9302
:100920000196861798F380916403680F60936403BF
:1009300080E0089581E008950895E091A5038091F5
:10094000A403E81730F4F0E0E350FC4F808190E01E
:1009500008958FEF9FEF08959091A5038091A403D0
:100960002FEF3FEF981748F4E92FF0E0E350FC4FEA
:10097000208130E09F5F9093A503C9010895809185
:10098000A4039091A503891B990B0895CF92DF9240
:10099000EF92FF920F931F93CF93DF937C01CB01D4
:1009A0008A012091B203222389F0EB016B01C40E6E
:1009B000D51ECC15DD0569F06991D701ED91FC914B
:1009C0000190F081E02DC7010995F3CF642F0E94BB
:1009D0007504C801DF91CF911F910F91FF90EF90A7
:1009E000DF90CF900895CF93DF931F92CDB7DEB7FE
:1009F00069832091B2032223F9F02091B5032032BC
:100A000058F021E030E0FC013383228390E080E065
:100A10000F90DF91CF9108958091B303E82FF0E01C
:100A2000EA54FC4F998190838F5F8093B303809346
:100A3000B50381E090E0ECCF61E0CE0101960E9429
:100A40007504F7CF6F927F928F929F92AF92BF9271
:100A5000CF92DF92EF92FF920F931F93CF93DF938A
:100A6000CDB7DEB7AC970FB6F894DEBF0FBECDBFE3
:100A7000DC011696ED91FC91319609F48BC0590179
:100A80003A016B018C01FE0131964F0188E2DF01D2
:100A90001D928A95E9F7D801ED91FC910484F585C2
:100AA000E02DB401C80109957C01892B09F05CC0D7
:100AB0001AA619A61CA61BA6D801ED91FC910684C6
:100AC000F785E02D9E01255D3F4FAE01475D5F4FED
:100AD000B401C80109957C01892B09F045C0A11416
:100AE000B10439F088E2F401D50101900D928A95A4
:100AF000E1F7C114D10409F189A59AA521E030E0FC
:100B000097FF02C02FEF3FEF9F77829FB001839F37
:100B1000700D929F700D1124072E000C880B990BFD
:100B20000E94961F20E030E040E251E40E94422102
:100B3000F601608371838283938361147104A1F051
:100B40006BA57CA5072E000C880B990B0E94961FA5
:100B500020E030E040E251E40E944221D3016D9355
:100B60007D938D939C931397C701AC960FB6F89421
:100B7000DEBF0FBECDBFDF91CF911F910F91FF90D0
:100B8000EF90DF90CF90BF90AF909F908F907F902D
:100B90006F90089587E1E82EF12CE6CF8F929F9217
:100BA000AF92BF92CF92DF92EF92FF920F931F937B
:100BB000CF93DF93EC018B016A017901E881F98120
:100BC0000284F385E02D0995B82EB801685F7F4F48
:100BD000E881F9810284F385E02DCE010995982EF4
:100BE000B801605F7F4FE881F9810284F385E02DD1
:100BF000CE010995A82EB801685E7F4FE881F98182
:100C00000284F385E02DCE010995882EB801605E3F
:100C10007F4FE881F9810284F385E02DCE010995AB
:100C20009B2D990D9A0D980D891319C09A2D882D19
:100C3000F601918380839B2D892DF7019183808319
:100C400090E080E0DF91CF911F910F91FF90EF90A6
:100C5000DF90CF90BF90AF909F908F90089585E1E7
:100C600090E0F0CF47E050E080E0FB012191BF0130
:100C7000042E01C0220F0A94EAF7820F4150510955
:100C8000A0F70895DC0117967C936E931697FB01ED
:100C9000E053F94FE4911896EC9318976454794F08
:100CA000FB01649119966C930895CF92DF92EF92B5
:100CB000FF920F931F93CF93DF93EC017A016901A9
:100CC0000E944206E881F9810480F581E02D9801B7
:100CD000A601B701CE01DF91CF911F910F91FF9037
:100CE000EF90DF90CF900994CF92DF92EF92FF9236
:100CF0000F931F93CF93DF93EC017A0169010E9458
:100D00004206E881F9810190F081E02D9801A60169
:100D1000B701CE01DF91CF911F910F91FF90EF901E
:100D2000DF90CF900994CF92DF92EF92FF920F93D2
:100D30001F93CF93DF93CDB7DEB728970FB6F89404
:100D4000DEBF0FBECDBFDC011696ED91FC91319652
:100D500009F440C08A017B0119821A821B821C821D
:100D60001D821E821F821886DC01ED91FC91048099
:100D7000F581E02DAE014B5F5F4FBE016F5F7F4F8E
:100D800009956C01892BB1F4E114F10441F06981FA
:100D90007A818B819C810E94B421F70160830115C7
:100DA000110541F06D817E818F8198850E94B4216B
:100DB000D8016C93C60128960FB6F894DEBF0FBE1B
:100DC000CDBFDF91CF911F910F91FF90EF90DF90FA
:100DD000CF90089587E1C82ED12CECCFCF93C62FAA
:100DE00091E09093B20398E69093B4031092B3030A
:100DF0001092B503682F86EA93E00E94F3046C2FEB
:100E000086EA93E00E94F30481E0CF910C944204BF
:100E100091E09093B20398E69093B4031092B303D9
:100E20001092B503682F86EA93E00E94F30481E0F4
:100E30000C9442046AE00E94FA21292F30E1839F3A
:100E4000C0011124822B0895982F92959F708F7066
:100E50002AE0929F800D11240895FC01538D448D4A
:100E6000252F30E0842F90E0821B930B541710F055
:100E7000CF96089501970895FC01918D828D981762
:100E800061F0A28DAE0FBF2FB11D5D968C91928D3A
:100E90009F5F9F73928F90E008958FEF9FEF08956B
:100EA000FC01918D828D981731F0828DE80FF11D34
:100EB000858D90E008958FEF9FEF0895FC01918D4F
:100EC000228D892F90E0805C9F4F821B91098F7348
:100ED00099270895FC01A48DA80FB92FB11DA35A1D
:100EE000BF4F2C91848D90E001968F739927848F4A
:100EF000A689B7892C93A089B1898C91837080646D
:100F00008C93938D848D981306C00288F389E02D0D
:100F100080818F7D80830895EF92FF920F931F93BE
:100F2000CF93DF93EC0181E0888F9B8D8C8D98139C
:100F30001AC0E889F989808185FF15C09FB7F894A8
:100F4000EE89FF896083E889F989808183708064F4
:100F500080839FBF81E090E0DF91CF911F910F913F
:100F6000FF90EF900895F62E0B8D10E00F5F1F4F4E
:100F70000F731127E02E8C8D8E110CC00FB607FC5D
:100F8000FACFE889F989808185FFF5CFCE010E94EB
:100F90006A07F1CFEB8DEC0FFD2FF11DE35AFF4FE8
:100FA000F0829FB7F8940B8FEA89FB898081806279
:100FB000CFCFCF93DF93EC01888D8823B9F0AA8936
:100FC000BB89E889F9898C9185FD03C0808186FD04
:100FD0000DC00FB607FCF7CF8C9185FFF2CF808153
:100FE00085FFEDCFCE010E946A07E9CFDF91CF9157
:100FF00008958DE194E00E945E0721E0892B09F4B9
:1010000020E0822F089580E090E0892B29F00E9453
:10101000F90781110C9400000895DC01ED91FC9119
:101020000190F081E02D0994EF92FF920F931F93AE
:10103000CF93DF938C017B01D0E0C0E0F701EC0F90
:10104000FD1F6491662361F0D801ED91FC91019040
:10105000F081E02DC8010995892B11F02196EECF82
:10106000CE01DF91CF911F910F91FF90EF900895E6
:10107000AF92BF92CF92DF92EF92FF920F931F93A6
:10108000CF93DF936C017B018B01040F151FEB01E4
:101090005E01AE18BF08C017D10759F06991D6019B
:1010A000ED91FC910190F081E02DC6010995892B0D
:1010B00079F7C501DF91CF911F910F91FF90EF90CC
:1010C000DF90CF90BF90AF90089590E080E00895BA
:1010D000833081F028F4813099F08230A9F00895AE
:1010E0008730A9F08830C9F08430B1F48091800055
:1010F0008F7D03C0809180008F778093800008955A
:1011000084B58F7784BD089584B58F7DFBCF8091A2
:10111000B0008F778093B00008958091B0008F7DEC
:10112000F9CFCF93DF93E1EFF6E08491EDEDF6E0B8
:10113000D491E9ECF6E0C491CC23A1F081110E9496
:101140006808EC2FF0E0EE0FFF1FEE54F94FA59169
:10115000B491EC91ED2381E090E009F480E0DF911F
:10116000CF91089580E090E0FACF1F93CF93DF9363
:10117000282F30E0F901EC51F94F8491F901E05347
:10118000F94FD491F901E454F94FC491CC23A9F05B
:10119000162F81110E946808EC2FF0E0EE0FFF1F60
:1011A000EE58FF4FA591B4918FB7F894EC911111BF
:1011B00008C0D095DE23DC938FBFDF91CF911F91C4
:1011C0000895DE2BF8CF1092FC0381E08093FB039F
:1011D0001092F60361E082E10E94B50861E083E1CC
:1011E0000E94B508E9EBF0E080818E7F80838081EA
:1011F0008D7F808388E48093B80085E48093BC0071
:101200000895CF93DF9390E0FC01E053F94F2491D0
:101210008454994FFC0184918823D1F090E0880F89
:10122000991FFC01E859FF4FA591B491FC01EE58BC
:10123000FF4FC591D49161110EC09FB7F8948C9166
:10124000E22FE0958E238C932881E223E8839FBFD1
:10125000DF91CF9108958FB7F894EC91E22BEC9346
:101260008FBFF6CF789484B5826084BD84B58160E9
:1012700084BD85B5826085BD85B5816085BDEEE69E
:10128000F0E0808181608083E1E8F0E0108280817D
:1012900082608083808181608083E0E8F0E08081EB
:1012A00081608083E1EBF0E0808184608083E0EB0B
:1012B000F0E0808181608083EAE7F0E080818460F3
:1012C000808380818260808380818160808380814F
:1012D000806880831092C10008958130910539F0B3
:1012E000880F991F880F991F05970197F1F70895A7
:1012F0003FB7F8948091D3029091D402A091D50287
:10130000B091D60226B5A89B05C02F3F19F00196D3
:10131000A11DB11D3FBFBA2FA92F982F8827BC014F
:10132000CD01620F711D811D911D42E0660F771F77
:10133000881F991F4A95D1F708957F928F929F92A7
:10134000AF92BF92CF92DF92EF92FF920F931F93D3
:10135000CF93DF93EC01162F7A0169010E9478097F
:101360004B015C01712C1111788410E000E060E009
:1013700070E0CB012A813B814C815D8126173707C4
:1013800048075907F4F00115110561F5C7011E144E
:101390001F0464F10E947809681979098A099B0978
:1013A000E985F0E0EE0FFF1FEE54F94FA591B491DF
:1013B0002C910F5F1F4F38852323271105C097FFFE
:1013C000D9CF6FEF7FEFCB01DF91CF911F910F91BD
:1013D000FF90EF90DF90CF90BF90AF909F908F9055
:1013E0007F9008951C141D04ACF6C6010E946D097F
:1013F000D1CF2FB7F8946091CF027091D002809135
:10140000D1029091D2022FBF08958F929F92AF92F6
:10141000BF92EF92FF920F931F93CF93DF937B01C5
:101420008C01D0E0C0E00E94F9096093250470931C
:1014300026048093270490932804E0911D04F091E2
:101440001E040284F385E02D8DE194E0099597FF59
:1014500027C00E94F9098090250490902604A0904E
:101460002704B0902804681979098A099B0980909B
:10147000210490902204A0902304B09024046815C5
:1014800079058A059B05C8F2CE01DF91CF911F91A6
:101490000F91FF90EF90BF90AF909F908F90089525
:1014A000F80181938F012196EC16FD0609F0BBCF60
:1014B000EBCF4F925F926F927F929F92AF92BF92CB
:1014C000CF92DF92EF92FF920F931F93CF93DF9310
:1014D00000D01F92CDB7DEB7F82E80919403909183
:1014E0009503A0919603B0919703892B8A2B8B2BA0
:1014F000D9F00E9478090091A0031091A1032091D6
:10150000A2033091A303601B710B820B930B00911C
:1015100094031091950320919603309197036017DF
:10152000710782079307C8F20E9478096093A003AD
:101530007093A1038093A2039093A303E0919C0373
:10154000F0919D03309759F0409198035091990381
:1015500060919A0370919B038F2D0995F82E00914D
:101560009E0310919F034F2C512C712C612C01155F
:10157000110509F45EC0D8011C96EC901C9780916F
:101580009203909193038436910510F41C961C925B
:10159000D801ED91FC91A280B38019821A821B823E
:1015A000FF2089F1F8013696D12CC12C21912223FC
:1015B00019F19280992001F130E050E040E02F5F76
:1015C0003F4F4F4F5F4FC301B2010E94EA219B0181
:1015D000AC01892D90E0B0E0A0E0BC01CD016F5FCF
:1015E0007F4F8F4F9F4F0E94EA21A1E0B0E0AC0FE8
:1015F000BD1FAC0DBD1D8C93BFEFCB1ADB0A83E082
:10160000C816D10499F6D8011D964D915C911E978C
:1016100012966D917C919E012F5F3F4FC801F5019D
:101620000995D8011C96EC921C9714960D911C916B
:101630009ECF80918F03909190038C010F5F1F4F7D
:101640001093900300938F034997B4F10E94F90916
:10165000C0908B03D0908C03E0908D03F0908E03AC
:101660009B01AC012C193D094E095F0921F421E0D1
:1016700030E040E050E088EE93E0089FB001099F21
:10168000700D189F700D1124072E000C880B990BFC
:101690000E942E2230939303209392031092900382
:1016A00010928F030E94F90960938B0370938C034F
:1016B00080938D0390938E030F900F900F90DF9186
:1016C000CF911F910F91FF90EF90DF90CF90BF903F
:1016D000AF909F907F906F905F904F9008950F9381
:1016E0001F93CF93DF932091CD022F5F322F37705E
:1016F0003093CD0220FF2BC020E831FD20643470F0
:1017000009F02062205FFC01EC01239600E011E06B
:101710006485662329F070E0C8010E941A226F5F79
:101720006187322F369F030E30E0311D11243111B5
:1017300010C01682662311F0615061873196EC1754
:10174000FD0731F7DF91CF911F910F91089520E0B0
:10175000D4CF31503683EECF4F925F926F927F920B
:101760008F92AF92BF92CF92DF92EF920F931F931F
:10177000CF93DF933C01EB010E947809F3012785A9
:101780003089621B730B6A307105B0F3F894E881FD
:10179000F9817BB170646BB16F7B6BB9CA848F8147
:1017A0002C2D281B822F2F83BF844A805B801D85B0
:1017B0000C85DE841F5F0F5FD3949E813885A984DA
:1017C000EB844181D20120E0C32F522F322F31818F
:1017D000442788943111380F08F43FEF819588949D
:1017E00010FD430F4795889411FD430F479588944A
:1017F00012FD430F4795889413FD430F4795889436
:1018000014FD430F4795889415FD430F4795889421
:1018100016FD430F4795889417FD430F479588940D
:10182000232F1111242F8C0D422F002C7BB900C0C7
:1018300047FF6BB930812227889400C000C0002C7C
:101840006BB93111390F00C0002C7BB900C046FFC5
:101850006BB908F43FEF9195889400C000C0002C4C
:101860006BB900FD230F00C0002C7BB900C045FF01
:101870006BB92795889401FD230F00C000C0002C90
:101880006BB92795889400C0002C7BB900C044FF39
:101890006BB902FD230F2795889400C000C0002C6F
:1018A0006BB903FD230F00C0002C7BB900C043FFC0
:1018B0006BB92795889404FD230F00C000C0002C4D
:1018C0006BB92795889400C0002C7BB900C042FFFB
:1018D0006BB905FD230F2795889400C000C0002C2C
:1018E0006BB906FD230F00C0002C7BB900C041FF7F
:1018F0006BB92795889407FD230F00C000C0002C0A
:101900006BB92795889400C0002C7BB900C040FFBC
:101910006BB9432F0111422F9A0D00C000C0002C5B
:101920006BB900C000C0002C7BB900C047FF6BB989
:1019300032812227889400C000C0002C6BB931117D
:101940003C0F00C0002C7BB900C046FF6BB908F407
:101950003FEFEB0DF11D00C000C0002C6BB9D0FCB7
:10196000230F00C0002C7BB900C045FF6BB9279541
:101970008894D1FC230F00C000C0002C6BB92795C0
:10198000889400C0002C7BB900C044FF6BB9D2FC26
:10199000230F2795889400C000C0002C6BB9D3FC9E
:1019A000230F00C0002C7BB900C043FF6BB9279503
:1019B0008894D4FC230F00C000C0002C6BB927957D
:1019C000889400C0002C7BB900C042FF6BB9D5FCE5
:1019D000230F2795889400C000C0002C6BB9D6FC5B
:1019E000230F00C0002C7BB900C041FF6BB92795C5
:1019F0008894D7FC230F00C000C0002C6BB927953A
:101A0000889400C0002C7BB900C040FF6BB9432F05
:101A1000D110422FC19500C000C0002C6BB9CE0D73
:101A200000C000C07BB900C047FF6BB931812227DD
:101A3000889400C000C0002C6BB93111380F00C071
:101A4000002C7BB900C046FF6BB908F43FEF8195CD
:101A5000889400C000C0002C6BB910FD230F00C09B
:101A6000002C7BB900C045FF6BB92795889411FD08
:101A7000230F00C000C0002C6BB92795889400C0CC
:101A8000002C7BB900C044FF6BB912FD230F2795D2
:101A9000889400C000C0002C6BB913FD230F00C058
:101AA000002C7BB900C043FF6BB92795889414FDC7
:101AB000230F00C000C0002C6BB92795889400C08C
:101AC000002C7BB900C042FF6BB915FD230F279591
:101AD000889400C000C0002C6BB916FD230F00C015
:101AE000002C7BB900C041FF6BB92795889417FD86
:101AF000230F00C000C0002C6BB92795889400C04C
:101B0000002C7BB900C040FF6BB9432F1111422F4D
:101B10008C0D00C000C0002C6BB9119709F086CE67
:101B200020EE31E0D2010E947522DC01CB01F4E00D
:101B3000B695A79597958795FA95D1F730E020E06F
:101B4000B901EAE94E9E040C611D5E9E600D711D97
:101B50001124650D711D860F971FA11DB11D893EB2
:101B600043E09407A105B10508F434C0885E9340B2
:101B7000A109B10942E0B695A795979587954A9531
:101B8000D1F747E0849F080E211D949F200D311D41
:101B90001124290F311D6091CC0270E0860F971F30
:101BA000820F931F4091CF025091D0026091D102D9
:101BB0007091D202292F3327420F531F611D711DCF
:101BC0004093CF025093D0026093D1027093D2021F
:101BD0008093CC0278940E947809F301708B678718
:101BE000DF91CF911F910F91EF90DF90CF90BF9039
:101BF000AF908F907F906F905F904F90089580E9A5
:101C000091E00895569A08950F931F93CF93DF9311
:101C1000CDB7DEB762970FB6F894DEBF0FBECDBF6B
:101C20008C01F901DC011C968C917A8369835C83B9
:101C30004B835E834D8390819D8791819E879281A6
:101C40009F878130F1F4CE0101960E946F0B83E0F3
:101C5000888B1A8A198AD801ED91FC910484F58544
:101C6000E02DBE016F5F7F4FC801099562960FB6E8
:101C7000F894DEBF0FBECDBFDF91CF911F910F91C2
:101C800008951C861B861A86198618861F82DFCF48
:101C90000F931F93CF93DF93CDB7DEB762970FB645
:101CA000F894DEBF0FBECDBF8C01F901DC011C969C
:101CB0008C917A8369835C834B835E834D839081AF
:101CC0009D8791819E8792819F878130E9F4CE0123
:101CD00001960E946F0B188A1A8A198AD801ED9111
:101CE000FC910484F585E02DBE016F5F7F4FC80134
:101CF000099562960FB6F894DEBF0FBECDBFDF9197
:101D0000CF911F910F9108951C861B861A86198604
:101D100018861F82E0CF90E080E00895FC01858561
:101D200096850895CF93DF9300D000D000D0CDB733
:101D3000DEB7AB011C821D821E82DC01ED91FC919D
:101D40000190F081E02D19821A821B829E012F5F83
:101D50003F4FBE016C5F7F4F099526960FB6F894F2
:101D6000DEBF0FBECDBFDF91CF910895BF92CF925E
:101D7000DF92EF92FF920F931F93CF93DF9300D0E8
:101D800000D000D01F92CDB7DEB780E00E940807D8
:101D900087E00E94A9031092A5038093A4038730D3
:101DA000E1F586EA93E00E94AC040E942407B82E75
:101DB00086EA93E00E94AC040E942407C82E86EABB
:101DC00093E00E94AC04182F86FF3EC08F710E94E2
:101DD00024070CE015FD00E0080F86EA93E00E945E
:101DE000AC040E942407D82E86EA93E00E94AC043B
:101DF0000E942407E82E86EA93E00E94AC0410E0DB
:101E000087FD14E68F770E942407F82E86EA93E078
:101E10000E94AC040E942407180F2B2D3C2D402F4C
:101E20005D2DB701812F90E027960FB6F894DEBFA5
:101E30000FBECDBFDF91CF911F910F91FF90EF901B
:101E4000DF90CF90BF9008958F730E942407082FD2
:101E5000C4CFCF93DF93EB010E94080781E00E947B
:101E6000A9031092A5038093A40386EA93E00E943D
:101E7000AC04888381E0DF91CF910895EF92FF92C7
:101E80001F93CF93DF931F92CDB7DEB77C01162F40
:101E9000BE016F5F7F4F8EE00E94290F811108C045
:101EA00080E00F90DF91CF911F91FF90EF90089508
:101EB00081E08093B20388E68093B4031092B30369
:101EC0001092B503113089F587E090E00E9450042C
:101ED000F70180810E941A0790E00E9450048981D6
:101EE00085608983F70181810E941A0790E00E9432
:101EF0005004F70182810E941A0790E00E9450046A
:101F0000F70184810E941A0790E00E94500481E04A
:101F10000E9442048111C4CF69818EE00E94EE06C6
:101F20008111BECF812F8770BCCF8BE090E00E94E3
:101F3000500489818660D5CFEF92FF920F931F9353
:101F4000CF93DF93EC018B0188E2FB0111928A951C
:101F5000E9F761E08E810E94010960E08E810E94B4
:101F6000B50888EE93E00E946D0961E08E810E94C1
:101F7000B50860E08E810E94010988E290E00E942D
:101F80006D09E881F9810084F185E02D26E030E0DB
:101F90004AE050E060E0CE0109956E31710581059F
:101FA00091056CF4982F872F762F66276061CB01FF
:101FB000DF91CF911F910F91FF90EF900895E881ED
:101FC000F9810084F185E02D26E030E04AE050E020
:101FD00061E0CE0109957801F8E2EF0EF11C623361
:101FE00071058105910534F4982F872F762F662788
:101FF0006161DDCFE881F9810084F185E02D26E083
:1020000030E04AE050E060E0CE01099568317105AA
:102010008105910534F4982F872F762F662762610A
:10202000C6CFE881F9810084F185E02D26E030E01B
:102030004AE050E061E0CE0109956B307105810501
:10204000910534F4982F872F762F66276361AFCFE1
:1020500021E069327105810591050CF420E0F80159
:1020600021938F01EE16FF0629F6E881F98100849D
:10207000F185E02D26E030E04AE050E060E0CE015E
:102080000995683171058105910534F4982F872FE2
:10209000762F662764618BCF70E060E088CFFF9277
:1020A0000F931F93CF93DF93EC018B01FB01F08023
:1020B0000E94A920F81621F06F2DCE010E94B120B8
:1020C000F801F1802196CE010E94A920F81621F096
:1020D0006F2DCE010E94B120C801DF91CF911F91D9
:1020E0000F91FF900895FB0101900020E9F73197CF
:1020F000AF01461B570BDC01ED91FC910280F3818F
:10210000E02D09948F929F92AF92BF92EF92FF922F
:102110000F931F93CF93DF93CDB7DEB7A1970FB681
:10212000F894DEBF0FBECDBF7C01FA01CB0119A22E
:10213000223008F42AE08E010F5D1F4F822E912C71
:10214000B12CA12CBF01A50194010E942E22F901FE
:10215000CA016A300CF5605DD8016E938D01232BA6
:10216000242B252B79F790E080E0109721F0BD011A
:10217000C7010E947310A1960FB6F894DEBF0FBE80
:10218000CDBFDF91CF911F910F91FF90EF90BF9046
:10219000AF909F908F900895695CDECF462F50E0FE
:1021A00070E060E02AE00C948210CF93C82F8A3050
:1021B00028F460E38DE194E00E940D086C2F8DE11E
:1021C00094E0CF910C94CE10CF93DF93EC018E81ED
:1021D0008536D0F062E38DE194E00E940D088E8197
:1021E0000E94D5106DE28DE194E00E940D088D8172
:1021F0000E94D5106DE28DE194E00E940D088C8163
:10220000DF91CF910C94D51068EF76E08DE194E0EA
:102210000E941408E4CFCF93DF93EC018A810E94DF
:10222000D5106AE38DE194E00E940D0889810E9437
:10223000D5106AE38DE194E00E940D088881DF915A
:10224000CF910C94D510CF92DF92EF92FF92CF9363
:10225000DF936C01990FEE08FF08F7FE1BC06DE2DB
:102260008DE194E00E940D08EC0144275527BA0146
:102270004C195D096E097F092AE08DE194E00E9406
:1022800082108C0F9D1FDF91CF91FF90EF90DF9018
:10229000CF9008952AE0B701A6018DE194E0DF9187
:1022A000CF91FF90EF90DF90CF900C948210BC0103
:1022B0008DE194E00C94731068E771E00C94731056
:1022C000CF93DF930E942311EC018DE194E00E94F3
:1022D0005C118C0F9D1FDF91CF910895CF93DF93F9
:1022E000BC018DE194E00E947310EC018DE194E05B
:1022F0000E945C118C0F9D1FDF91CF9108952F924A
:102300003F924F925F926F927F928F929F92AF9285
:10231000BF92CF92DF92EF92FF920F931F93CF93D2
:10232000DF93CDB7DEB729970FB6F894DEBF0FBEA7
:10233000CDBF7C018091190390911A030097E1F4BD
:102340008BE791E029960FB6F894DEBF0FBECDBFA4
:10235000DF91CF911F910F91FF90EF90DF90CF9081
:10236000BF90AF909F908F907F906F905F904F90B5
:102370003F902F900C946E11009117031091180349
:102380000E94231183E891E00E946E1181E991E09F
:102390000E94571180911703909118030E946011B9
:1023A000A0901903B0901A03EA14FB040CF457012F
:1023B000F12CE12C89E0282E312CCE0101963C0134
:1023C0002E019AE0490E511CEA14FB040CF097C050
:1023D0000950110920911B0330911C0302171307A8
:1023E0005CF48091150390911603821B930BB1014D
:1023F0000E940622060F171F6301480186189708DE
:10240000C4018C0D9D1D0E94A920F60181936F01CE
:102410004E165F06A9F7FFEFEF1AFF0AC7010E94E9
:10242000231183EA91E00E9457116F818DE194E0BE
:102430000E94CE1085EA91E00E9457116E818DE1D5
:1024400094E00E94CE1085EA91E00E9457116D81C0
:102450008DE194E00E94CE1080EB91E00E94571134
:102460006B818DE194E00E94CE1087EA91E00E949A
:1024700057116A818DE194E00E94CE1087EA91E0C5
:102480000E94571169818DE194E00E94CE1080EB8B
:1024900091E00E945711D8848D2D0D2C000C990BC2
:1024A0000E94231189EA91E00E9457116D2DDD0CE5
:1024B000770B880B990B0E94961F26E636E646EEB0
:1024C0005FE30E94D11F20E030E040E052E40E9430
:1024D000D6200E94B421862F660F990B0E942311EB
:1024E0008DEA91E00E9457118985082E000C990B06
:1024F0000E94231182EB91E00E946E1165CF299614
:102500000FB6F894DEBF0FBECDBFDF91CF911F9104
:102510000F91FF90EF90DF90CF90BF90AF909F9082
:102520008F907F906F905F904F903F902F90089585
:102530000F931F93CF93DF93EC010E9414088C013B
:10254000CE010E945C11800F911FDF91CF911F91EE
:102550000F9108950E94BF201F920F920FB60F9205
:1025600011242F933F934F935F936F937F938F9398
:102570009F93AF93BF93EF93FF938091B900887FB0
:10258000803609F44AC0F0F5883209F4A7C018F57E
:10259000803109F49BC0B8F4882309F4F9C088306D
:1025A00009F494C0FF91EF91BF91AF919F918F91EA
:1025B0007F916F915F914F913F912F910F900FBE3F
:1025C0000F901F901895883109F488C0803251F718
:1025D0008093FA0314C0803409F49DC040F4803322
:1025E000B9F38833F9F68093FA0385ECB0C08035EF
:1025F00009F485C0883509F496C0883499F60E949C
:102600006B04D0CF883909F48CC038F5883729F0AD
:1026100050F4883611F0803729F683E08093FC036C
:102620001092860357C0883809F47BC0803919F0AE
:10263000803809F0B7CF80918603803208F071C0EE
:10264000E091860381E08E0F809386038091BB002A
:10265000F0E0EA59FC4F80833DC0803B39F0E0F464
:10266000803A09F479C0883A09F09CCF84E08093DD
:10267000FC031092650310926403E0918703F091CC
:10268000880309958091640381110FC081E08093D4
:1026900064031092440309C0803C09F4A6CF883C2F
:1026A00009F4A3CF883B09F07DCFE091650381E079
:1026B0008E0F80936503F0E0EC5BFC4F808180938C
:1026C000BB00909165038091640329C08091F7035A
:1026D0008093BB0085EC8093BC0064CF9091F9039C
:1026E0008091F803981758F5E091F90381E08E0F77
:1026F0008093F903F0E0EA52FC4F8081E9CFE0914A
:10270000F90381E08E0F8093F9038091BB00F0E024
:10271000EA52FC4F80839091F9038091F803981757
:10272000C8F285E8D8CFE091F90381E08E0F80935D
:10273000F9038091BB00F0E0EA52FC4F8083809166
:10274000FB0381115CCF81E08093F60384EA8093E0
:10275000BC001092FC0326CF85EC8093BC00109245
:10276000FC0380918603803230F4E0918603F0E030
:10277000EA59FC4F10826091860370E0E091890372
:10278000F0918A0386E693E00995109286030ACFBA
:102790001092FA0334CF1F920F920FB60F921124AA
:1027A0002F933F934F935F936F937F938F939F9359
:1027B000AF93BF93EF93FF938DE194E00E946A077C
:1027C000FF91EF91BF91AF919F918F917F916F9109
:1027D0005F914F913F912F910F900FBE0F901F90DF
:1027E00018951F920F920FB60F9211242F938F936B
:1027F0009F93EF93FF93E0912D04F0912E0480813D
:10280000E0913304F091340482FD1BC090818091EB
:1028100036048F5F8F7320913704821741F0E09167
:102820003604F0E0E35EFB4F958F80933604FF9112
:10283000EF919F918F912F910F900FBE0F901F904E
:1028400018958081F4CF1F920F920FB60F9211242A
:102850002F933F938F939F93AF93BF938091CF021A
:102860009091D002A091D102B091D2023091CE02CB
:1028700023E0230F2D3758F50196A11DB11D20939C
:10288000CE028093CF029093D002A093D102B09356
:10289000D2028091D3029091D402A091D502B0913E
:1028A000D6020196A11DB11D8093D3029093D4024C
:1028B000A093D502B093D602BF91AF919F918F9113
:1028C0003F912F910F900FBE0F901F90189526E803
:1028D000230F0296A11DB11DD2CFE6EAF3E01382C9
:1028E000128288EE93E0A0E0B0E084839583A68313
:1028F000B7838AE691E0918380830895E1E9F3E06C
:102900008FEF808312821182148613868FEF9FEFE0
:10291000DC0187839087A187B2870895EDE1F4E019
:102920001382128288EE93E0A0E0B0E08483958366
:10293000A683B78386E391E09183808385EC90E062
:102940009587848784EC90E09787868780EC90E079
:10295000918B808B81EC90E0938B828B82EC90E06A
:10296000958B848B86EC90E0978B868B118E128EE4
:10297000138E148E08951F93CF93DF93C2EFD2E08E
:102980008EE091E09983888380E49BE4ACE4B0E03E
:102990008A839B83AC83BD838FEF9FEF9F838E835E
:1029A0001FEF1887198762E070E0CE010E9442068F
:1029B00082E291E099838883E1E2F3E01082118260
:1029C0001283EEE1F3E0108211821282DF91CF9147
:1029D0001F910895CF93DF9300D000D0CDB7DEB71D
:1029E00010921403109213038FEF93E09093160349
:1029F00080931503109218031092170310921A0374
:102A000010921903BE016D5F7F4F90E080E00E943D
:102A10003515BE016F5F7F4F82E090E00E94351553
:102A20002B813C81309318032093170389819A816D
:102A300090931A038093190310921D03809113033E
:102A400090911403069690931C0380931B03281700
:102A5000390724F490931803809317030F900F9075
:102A60000F900F90DF91CF9108950F931F93CF9305
:102A7000DF938C01EB010E94A9208883C801019695
:102A80000E94A9208983CE01DF91CF911F910F91E0
:102A900008950E946D140E947E140E948E140E945C
:102AA000BB140C94EA14CF93DF93CDB7DEB76497D1
:102AB0000FB6F894DEBF0FBECDBF0E943209E09181
:102AC0002D04F0912E0412E01083E0912904F0917E
:102AD0002A041082E0912B04F0912C048FEC808367
:102AE00010923504E0913104F091320486E0808345
:102AF000E0912F04F0913004808180618083E09127
:102B00002F04F0913004808188608083E0912F044D
:102B1000F0913004808180688083E0912F04F091EF
:102B2000300480818F7D80831092A5031092A403CE
:102B30001092B3031092B5030E94E3080E9463044D
:102B40000E945B0460E08EE00E94EE060E94B60EDA
:102B500029833A834B835C838F838FE18D831E832C
:102B600062E0CE0101960E943E0F61E0CE01019627
:102B70000E943E0F1C8A1A86BE01665F7F4F8FE05F
:102B80000E94290F6A85862F837021F06C7F8FE069
:102B90000E94EE068C89882369F0BE016C5E7F4F2F
:102BA0008EE00E94290F882329F06C896F778EE0D0
:102BB0000E94EE068091EA02811145C01092DC026B
:102BC0001092DB028FEF8093DF028093E00280930C
:102BD000E1028093E2028093E3028093E40281E0C9
:102BE0008093E5021092E7021092E6021092DE0254
:102BF0001092DD0280919E0390919F03892B31F406
:102C000089ED92E090939F0380939E03E091D70219
:102C1000F091D802309721F089ED92E0958384837A
:102C200089ED92E09093D8028093D7021092E90246
:102C30001092E80288E591E09093DA028093D9023D
:102C400081E08093EA02E091D902F091DA020480F7
:102C5000F581E02D89ED92E009958DE093E0909368
:102C6000DC028093DB0281E090E09093E7028093A6
:102C7000E602E091D902F091DA020284F385E02DB8
:102C800089ED92E00995009701F19C0150E040E048
:102C900060E472E48FE090E00E94502280919403FF
:102CA00090919503A0919603B09197038217930793
:102CB000A407B50710F4DA01C90180939403909337
:102CC0009503A0939603B09397038091210380937B
:102CD0000D038091220380930E0380912303809340
:102CE0000F03809191030E94590A1092310361E011
:102CF0008DE00E94010961E084E00E94010961E029
:102D000085E00E9401096CE770E08DE194E00E948B
:102D100098128E010F5E1F4F3E0122E1620E711C60
:102D200063E0362E73E9472E55245A940E94F90920
:102D3000709343036093420320910703309108038B
:102D4000621B730B68387341C0F130E020E044E24D
:102D500053E065E273E082EF92E00E9493067C010B
:102D6000892B39F084EB91E00E945711C7010E9432
:102D700060118091250390910101891714F48093CB
:102D8000010190910301981714F48093030180913D
:102D9000240390910001891714F48093000190910D
:102DA0000201981714F480930201809142039091DC
:102DB00043039093080380930703209142033091CB
:102DC00043038091050390910603A901481B590B09
:102DD0004838534120F42817390708F081C00E9471
:102DE000B60E2093FC023093FD024093FE025093F6
:102DF000FF026093000370930103809302038091AC
:102E0000250380930303809124038093040389E0C6
:102E1000ECEFF2E0DE01119601900D928A95E1F758
:102E20008090170390901803CE0101966C01F12C4D
:102E3000E12CF60121906F015401AE0CBF1CC501BD
:102E40000E94A920281621F0622DC5010E94B12000
:102E5000FFEFEF1AFF0A29E0E216F10451F7809123
:102E60001D03811109C08091190390911A030196E5
:102E700090931A038093190380911703909118037C
:102E800009969093180380931703209115033091AE
:102E90001603295031092817390770F480911B0354
:102EA00090911C03909318038093170310921A03B8
:102EB0001092190310921D0367E173E090E080E027
:102EC0000E944F1069E173E082E090E00E944F1091
:102ED00080914203909143039093060380930503EE
:102EE000E0904203F0904303809141038823F9F07E
:102EF0008091090390910A039701281B390B809157
:102F00000401909105012817390788F00E94910863
:102F100061E0892B29F00E949108019721F460E07B
:102F20008DE00E94B508F0920A03E09209038091B7
:102F30000B0390910C039701281B390B809106011C
:102F40009091070128173907D0F080914003880F2E
:102F5000811D880F811D80934003F0920C03E09245
:102F60000B0361E080FF60E085E00E94B50880917E
:102F7000400361E081FF60E084E00E94B508809139
:102F8000110390911203E81AF90A809108019091B7
:102F90000901E816F90610F1809191039091100350
:102FA0009923E9F19091210390930D0390912203CD
:102FB00090930E039091230390930F030E94590A5C
:102FC0008091100391E08927809310038091420340
:102FD0009091430390931203809311038DE194E049
:102FE0000E945E07892B71F08DE194E00E943C07FE
:102FF0000E94C42080933F038032E1F490913E030D
:1030000091113FC080E090E0892B09F48FCE0E949F
:10301000F907882309F484CE0E94000081CE9091A4
:103020001E0390930D0390911F0390930E039091B4
:103030002003C2CF8F3729F58DE194E00E945C1107
:103040006DE976E08DE194E00E94981210923103D0
:1030500010923E03109228031092270310922A0325
:103060001092290310922C0310922B0310922E031E
:1030700010922D031092300310922F03109226030A
:10308000C1CF682F8DE194E00E940D08E0903F03CE
:10309000E0913E0340E2E41619F06DE0E6120AC743
:1030A000F0E0EF5CFC4F1082F090260384E08F1577
:1030B00008F491C16CEC71E081E393E00E94CC20B4
:1030C000892B79F481E08F0D80932603EF2DF0E0BA
:1030D000EE0FFF1FE95DFC4F80E89FEF9183808337
:1030E0007AC160ED71E081E393E00E94CC20892BEE
:1030F00069F481E08F0D80932603EF2DF0E0EE0F51
:10310000FF1FE95DFC4F88E89FEFE8CF61E372E0C5
:1031100081E393E00E94CC20892B69F481E08F0D3C
:1031200080932603EF2DF0E0EE0FFF1FE95DFC4FCB
:1031300081E89FEFD3CF65ED71E081E393E00E94DA
:10314000CC20892B69F481E08F0D80932603EF2D2D
:10315000F0E0EE0FFF1FE95DFC4F82E89FEFBECF6E
:103160006BE572E081E393E00E94CC20892B69F447
:1031700081E08F0D80932603EF2DF0E0EE0FFF1F0F
:10318000E95DFC4F83E89FEFA9CF6CED71E081E32F
:1031900093E00E94CC20892B69F481E08F0D80930D
:1031A0002603EF2DF0E0EE0FFF1FE95DFC4F84E8F2
:1031B0009FEF94CF60E672E081E393E00E94CC2021
:1031C000892B69F481E08F0D80932603EF2DF0E0C9
:1031D000EE0FFF1FE95DFC4F89E89FEF7FCF61EEA7
:1031E00071E081E393E00E94CC20892B69F481E0B7
:1031F0008F0D80932603EF2DF0E0EE0FFF1FE95DAA
:10320000FC4F8AE89FEF6ACF65EE71E081E393E0BF
:103210000E94CC20892B69F481E08F0D80932603D6
:10322000EF2DF0E0EE0FFF1FE95DFC4F8BE89FEF05
:1032300055CF6BEE71E081E393E00E94CC20892BA7
:1032400069F481E08F0D80932603EF2DF0E0EE0FFF
:10325000FF1FE95DFC4F85E89FEF40CF60EF71E015
:1032600081E393E00E94CC20892B69F481E08F0DEB
:1032700080932603EF2DF0E0EE0FFF1FE95DFC4F7A
:1032800087E89FEF2BCF64EF71E081E393E00E942A
:10329000CC20892B69F481E08F0D80932603EF2DDC
:1032A000F0E0EE0FFF1FE95DFC4F86E89FEF16CFC1
:1032B0006AEF71E081E393E00E94CC20892B69F4EE
:1032C00081E08F0D80932603EF2DF0E0EE0FFF1FBE
:1032D000E95DFC4F8DE89FEF01CF60E072E081E394
:1032E00093E00E94CC20892B69F481E08F0D8093BC
:1032F0002603EF2DF0E0EE0FFF1FE95DFC4F8EE897
:103300009FEFECCE65E072E081E393E00E94CC2079
:10331000892B69F481E08F0D80932603EF2DF0E077
:10332000EE0FFF1FE95DFC4F8FE89FEFD7CE69E0FE
:1033300072E081E393E00E94CC20892B69F481E064
:103340008F0D80932603EF2DF0E0EE0FFF1FE95D58
:10335000FC4F80E99FEFC2CE6DE072E081E393E025
:103360000E94CC20892B69F481E08F0D8093260385
:10337000EF2DF0E0EE0FFF1FE95DFC4F81E99FEFBD
:10338000ADCE65E172E081E393E00E94CC20892B11
:1033900069F481E08F0D80932603EF2DF0E0EE0FAE
:1033A000FF1FE95DFC4F82E99FEF98CE6BE172E071
:1033B00081E393E00E94CC20892B09F03BC081E09F
:1033C0008F0D80932603EF2DF0E0EE0FFF1FE95DD8
:1033D000FC4F518240821092310310923E039DE0D7
:1033E000E91210CE8DE194E00E945C11E091270378
:1033F000F0912803E058FF4FE631F10508F057C57A
:10340000EC5FF54E0C946F226D1BF71A191BBF1A57
:10341000E81A571F571F571F571F571F571F571F70
:103420004C1B571F571F9D1B2B1E571F571F571FE6
:10343000001F181F63E272E081E393E00E94CC203A
:10344000892B69F481E08F0D80932603EF2DF0E046
:10345000EE0FFF1FE95DFC4F84E99FEF3FCE67E26F
:1034600072E081E393E00E94CC20892B69F481E033
:103470008F0D80932603EF2DF0E0EE0FFF1FE95D27
:10348000FC4F8CE89FEF2ACE6BE272E081E393E081
:103490000E94CC20892B69F481E08F0D8093260354
:1034A000EF2DF0E0EE0FFF1FE95DFC4F85E99FEF88
:1034B00015CE6FE272E081E393E00E94CC20892B6D
:1034C00069F481E08F0D80932603EF2DF0E0EE0F7D
:1034D000FF1FE95DFC4F86E99FEF00CE8091270337
:1034E000909128039C0124593F4F2230310558F018
:1034F0008138EFEF9E0761F58091290390912A03AF
:103500008B389F4F79F530913103E1E3F3E020E010
:103510008191882371F03D3211F4222339F0082E75
:10352000000C990BC0970A9708F055CF2F5F2C30ED
:1035300079F781E393E00E946B1F21E02F0D209328
:103540002603EF2DF0E0EE0FFF1FE95DFC4FC6CD27
:1035500080399F4F39F48091290390912A03823951
:103560009F4F89F281E08F0D80932603EF2DF0E0CD
:10357000EE0FFF1FE95DFC4F80E090E8AFCD63E9FF
:1035800076E08DE194E00E9414082AE042E050E0E9
:1035900060E070E08DE194E00E9482106EE28DE1C7
:1035A00094E00E940D082AE040E050E0BA018DE16D
:1035B00094E00E9482102AE040E050E0BA018DE1E0
:1035C00094E00E9482108DE194E00E945C1142CD53
:1035D0006CE773E08DE194E00E94140882E390E0D0
:1035E0000E94231185E392E00E946E1133CD8091F9
:1035F000290390912A038B389F4FA1F480912B03CC
:1036000090912C03823391056CF090930901809383
:103610000801909307018093060190930501809320
:10362000040118CD61E673E08DE194E00E949812E8
:1036300011CD8091290390912A0385389F4F09F07D
:1036400009CD8091410364E573E0811108C00E94B7
:1036500091086CE473E0892B11F065E473E08DE16F
:1036600094E00E9498128091400366E373E08232F6
:10367000D9F269E273E08131B9F26FE073E0863626
:1036800099F267E073E0882379F26DEF72E08A3A8D
:1036900059F265EF72E0C8CF8091290390912A0317
:1036A0008A382FEF920771F08B384FEF940771F043
:1036B00089389F4F79F41092410361E08DE00E94B8
:1036C000B508C8CC1092410360E0F8CF81E0809348
:1036D0004103C0CC6AED72E0A7CF8091290390919D
:1036E0002A038738EFEF9E07C1F034F486389F4FE6
:1036F000C1F06FEB72E098CF8A384FEF9407D1F0AA
:103700008B389F4FB1F780912B0390912C03863813
:10371000EFEF9E0741F482E201C085E5809340030C
:1037200099CC8AEAFBCF88389F4F11F486E6F6CF12
:1037300081E1F4CF109240038DCC809129039091C8
:103740002A038D382FEF920739F08E389F4F09F4F6
:1037500062C264EA72E068CF198A1A8A1B8A65EF2E
:1037600071E08DE194E00E949812F801232D1192EE
:103770002A95E9F78DE194E00E945C116EEC71E00E
:103780008DE194E00E941408E0911D04F0911E0464
:103790000084F185E02D8DE194E00995892BA1F35A
:1037A00062E070E0C8010E94050AE0911D04F091FA
:1037B0001E040084F185E02D8DE194E00995892BAC
:1037C00059F0E0911D04F0911E040284F385E02D70
:1037D0008DE194E00995E9CF89898033D9F5C3015A
:1037E0000E946B1F8E87F801232D11922A95E9F70D
:1037F0008DE194E00E945C116EEA71E08DE194E04D
:103800000E941408E0911D04F0911E040084F185CB
:10381000E02D8DE194E00995892BA1F362E070E041
:10382000C8010E94050AE0911D04F0911E04008465
:10383000F185E02D8DE194E00995892B69F0E09107
:103840001D04F0911E040284F385E02D8DE194E0C7
:103850000995E9CFC801C4CF89898033D9F5C3015F
:103860000E946B1F8F87F801232D11922A95E9F78B
:103870008DE194E00E945C116FE871E08DE194E0CD
:103880000E941408E0911D04F0911E040084F1854B
:10389000E02D8DE194E00995892BA1F362E070E0C1
:1038A000C8010E94050AE0911D04F0911E040084E5
:1038B000F185E02D8DE194E00995892B69F0E09187
:1038C0001D04F0911E040284F385E02D8DE194E047
:1038D0000995E9CFC801C4CF89898033D9F5C301DF
:1038E0000E946B1F888BF801232D11922A95E9F70E
:1038F0008DE194E00E945C1161E671E08DE194E05D
:103900000E941408E0911D04F0911E040084F185CA
:10391000E02D8DE194E00995892BA1F362E070E040
:10392000C8010E94050AE0911D04F0911E04008464
:10393000F185E02D8DE194E00995892B69F0E09106
:103940001D04F0911E040284F385E02D8DE194E0C6
:103950000995E9CFC801C4CF89898033D9F5C3015E
:103960000E946B1F8C87F801232D11922A95E9F78D
:103970008DE194E00E945C1160E471E08DE194E0DF
:103980000E941408E0911D04F0911E040084F1854A
:10399000E02D8DE194E00995892BA1F362E070E0C0
:1039A000C8010E94050AE0911D04F0911E040084E4
:1039B000F185E02D8DE194E00995892B69F0E09186
:1039C0001D04F0911E040284F385E02D8DE194E046
:1039D0000995E9CFC801C4CF89898033D9F5C301DE
:1039E0000E946B1F8B87F801232D11922A95E9F70E
:1039F0008DE194E00E945C116FE171E08DE194E053
:103A00000E941408E0911D04F0911E040084F185C9
:103A1000E02D8DE194E00995892BA1F362E070E03F
:103A2000C8010E94050AE0911D04F0911E04008463
:103A3000F185E02D8DE194E00995892B69F0E09105
:103A40001D04F0911E040284F385E02D8DE194E0C5
:103A50000995E9CFC801C4CF89898033D9F5C3015D
:103A60000E946B1F8A87F801232D11922A95E9F78E
:103A70008DE194E00E945C116EED70E08DE194E0C8
:103A80000E949812E0911D04F0911E040084F185BB
:103A9000E02D8DE194E00995892BA1F361E070E0C0
:103AA000C8010E94050AE0911D04F0911E040084E3
:103AB000F185E02D8DE194E00995892B69F0E09185
:103AC0001D04F0911E040284F385E02D8DE194E045
:103AD0000995E9CFC801C4CFC8010E946B1F8D872B
:103AE0008DE194E00E945C116AEC70E08DE194E05D
:103AF0000E941408CE010A960E94E41064E58DE14C
:103B000094E00E940D08CE010A960E940B118DE1EF
:103B100094E00E945C1165E970E08DE194E00E9400
:103B20001408E0911D04F0911E040084F185E02D3D
:103B30008DE194E00995892BA1F361E070E0C80163
:103B40000E94050AE0911D04F0911E040084F18595
:103B5000E02D8DE194E00995892B59F0E0911D0449
:103B6000F0911E040284F385E02D8DE194E0099527
:103B7000E9CF89898F7D893509F0F7CD81E0809380
:103B8000B20388E68093B4031092B3031092B50396
:103B900090E080E00E9450048A850E941A07682FF6
:103BA00086EA93E00E94F3048B850E941A07682F2F
:103BB00086EA93E00E94F3048C850E941A07682F1E
:103BC00086EA93E00E94F3048D85811101C081E0B3
:103BD0000E941A07682F86EA93E00E94F3048E85FC
:103BE0000E941A07682F86EA93E00E94F3048F85EB
:103BF0000E941A07682F86EA93E00E94F3048889DE
:103C00000E941A07682F86EA93E00E94F30481E07D
:103C10000E9442041FCA0E94B60E2A873B874C8727
:103C20005D876E877F87888BCE010A960E94E4109D
:103C300060E28DE194E00E940D080E94B60E2A8792
:103C40003B874C875D876E877F87888BCE010A967E
:103C50000E940B11B8CC8091290390912A038239DC
:103C60004FEF940709F457C034F481399F4FD1F0D6
:103C700069E872E0D9CC8339FFEF9F0709F458C097
:103C800086399F4FA9F780911B0390911C03909355
:103C900018038093170310921A03109219031092BD
:103CA0001D03D8C983E692E00E9457118091250335
:103CB000082E000C990B0E94231189EA91E00E94C2
:103CC000571160912503062E000C770B880B990B7A
:103CD0000E94961F26E636E646EE5FE30E94D11F5D
:103CE00020E030E040E052E40E94D6200E94B4215F
:103CF000862F660F990B0E9423118DEA91E00E9496
:103D0000571180912403082E000C990B0E94231157
:103D100082EB91E069CC80912B0390912C031816D3
:103D200019061CF40E947F1195C98AE090E0FACF31
:103D30008FE792E00E94571180910301082E000C3A
:103D4000990B0E94231189EA91E00E94571160911A
:103D50000301062E000C770B880B990B0E94961F0F
:103D600026E636E646EE5FE30E94D11F20E030E013
:103D700040E052E40E94D6200E94B421862F660FB4
:103D8000990B0E9423118DEA91E00E9457118091B6
:103D90000201082E000C990B0E94231184EA92E084
:103DA0000E94571180910101082E000C990B0E946E
:103DB000231189EA91E00E94571160910101062EBA
:103DC000000C770B880B990B0E94961F26E636E6AF
:103DD00046EE5FE30E94D11F20E030E040E052E475
:103DE0000E94D6200E94B421862F660F990B0E9454
:103DF00023118DEA91E00E9457118091000183CF39
:103E00002091290330912A03211540E8340769F0F5
:103E100080912B0390912C03811560E8960729F07F
:103E2000820F931F0E94601115C96EE672E0FCCBF1
:103E30008091290390912A0381309105F1F082301D
:103E4000910541F163E572E081389F4F09F0ECCBB9
:103E500080912B0390912C038B389F4F09F0FAC867
:103E600080912D0390912E03823391050CF4F2C8BA
:103E70009093090180930801EDC880912B038093F2
:103E8000210380912D038093220380912F0380933F
:103E90002303E0C880912B0380931E0380912D03A0
:103EA00080931F0380912F0380932003D3C868E37E
:103EB00072E0BACBEC3008F0A5C881E08E0F809399
:103EC0003E03F0E0EF5CFC4FE082E82FF0E0EF5CB7
:103ED000FC4F108297C8FC0188279927E89421910C
:103EE0002032E9F3293010F02E30C8F32B3241F0A4
:103EF0002D3239F4689404C00E948C1F820F911DEA
:103F0000219120532A30C0F31EF4909581959F4F44
:103F10000895F8940C947C227AE0979F902D879FC7
:103F2000802D910D11240895E89409C097FB3EF46B
:103F300090958095709561957F4F8F4F9F4F9923F6
:103F4000A9F0F92F96E9BB279395F6958795779574
:103F50006795B795F111F8CFFAF4BB0F11F460FF34
:103F60001BC06F5F7F4F8F4F9F4F16C0882311F08C
:103F700096E911C0772321F09EE8872F762F05C0A0
:103F8000662371F096E8862F70E060E02AF09A953B
:103F9000660F771F881FDAF7880F9695879597F930
:103FA00008950E94E41F0C9455200E94472038F089
:103FB0000E944E2020F0952311F00C943E200C948A
:103FC000442011240C9489200E94662070F3959F50
:103FD000C1F3950F50E0551F629FF001729FBB2700
:103FE000F00DB11D639FAA27F00DB11DAA1F649F9C
:103FF0006627B00DA11D661F829F2227B00DA11D4F
:10400000621F739FB00DA11D621F839FA00D611DD4
:10401000221F749F3327A00D611D231F849F600DF5
:10402000211D822F762F6A2F11249F5750409AF01E
:10403000F1F088234AF0EE0FFF1FBB1F661F771FAA
:10404000881F91505040A9F79E3F510580F00C9475
:104050003E200C9489205F3FE4F3983ED4F386958C
:1040600077956795B795F795E7959F5FC1F7FE2B15
:10407000880F911D9695879597F9089597F99F67F1
:1040800080E870E060E008959FEF80EC08950024E0
:104090000A941616170618060906089500240A94AD
:1040A00012161306140605060895092E0394000C33
:1040B00011F4882352F0BB0F40F4BF2B11F460FFC2
:1040C00004C06F5F7F4F8F4F9F4F089557FD9058EB
:1040D000440F551F59F05F3F71F04795880F97FBCC
:1040E000991F61F09F3F79F0879508951216130686
:1040F0001406551FF2CF4695F1DF08C016161706B5
:104100001806991FF1CF86957105610508940895E9
:10411000E894BB2766277727CB0197F908950E947B
:104120009A20A59F900DB49F900DA49F800D911D86
:1041300011240895A29FB001B39FC001A39F700DE9
:10414000811D1124911DB29F700D811D1124911D9F
:104150000895F999FECF92BD81BDF89A992780B54F
:104160000895262FF999FECF1FBA92BD81BD20BDBB
:104170000FB6F894FA9AF99A0FBE0196089581E065
:1041800090E0F8940C947C229111089581568A5104
:1041900008F4805285580895FB01DC018D9101904F
:1041A00080190110D9F3990B08955058BB27AA27FD
:1041B0000E94ED200C9455200E94472038F00E9468
:1041C0004E2020F039F49F3F19F426F40C9444203B
:1041D0000EF4E095E7FB0C943E20E92F0E94662048
:1041E00058F3BA17620773078407950720F079F42C
:1041F000A6F50C9488200EF4E0950B2EBA2FA02D76
:104200000B01B90190010C01CA01A0011124FF2783
:10421000591B99F0593F50F4503E68F11A16F0407E
:10422000A22F232F342F4427585FF3CF469537957D
:104230002795A795F0405395C9F77EF41F16BA0B42
:10424000620B730B840BBAF09150A1F0FF0FBB1FF0
:10425000661F771F881FC2F70EC0BA0F621F731F39
:10426000841F48F4879577956795B795F7959E3F96
:1042700008F0B0CF9395880F08F09927EE0F979527
:10428000879508950E9456210C9455200E944E2037
:1042900058F00E94472040F029F45F3F29F00C9429
:1042A0003E2051110C9489200C9444200E946620D9
:1042B00068F39923B1F3552391F3951B550BBB2755
:1042C000AA2762177307840738F09F5F5F4F220F9A
:1042D000331F441FAA1FA9F335D00E2E3AF0E0E891
:1042E00032D091505040E695001CCAF72BD0FE2FDB
:1042F00029D0660F771F881FBB1F2617370748076F
:10430000AB07B0E809F0BB0B802DBF01FF27935826
:104310005F4F3AF09E3F510578F00C943E200C948C
:1043200089205F3FE4F3983ED4F3869577956795AF
:10433000B795F7959F5FC9F7880F911D969587955B
:1043400097F90895E1E0660F771F881FBB1F62177A
:1043500073078407BA0720F0621B730B840BBA0B38
:10436000EE1F88F7E09508950E94BB216894B11173
:104370000C94892008950E946E2088F09F5798F031
:10438000B92F9927B751B0F0E1F0660F771F881F5A
:10439000991F1AF0BA95C9F714C0B13091F00E9474
:1043A0008820B1E008950C948820672F782F882703
:1043B000B85F39F0B93FCCF3869577956795B3959B
:1043C000D9F73EF490958095709561957F4F8F4F0A
:1043D0009F4F0895DB018F939F930E948F20BF9181
:1043E000AF91A29F800D911DA39F900DB29F900D44
:1043F00011240895991B79E004C0991F961708F0BD
:10440000961B881F7A95C9F780950895AA1BBB1B38
:1044100051E107C0AA1FBB1FA617B70710F0A61BC4
:10442000B70B881F991F5A95A9F780959095BC01E5
:10443000CD01089597FB072E16F4009407D077FD61
:1044400009D00E94062207FC05D03EF49095819584
:104450009F4F0895709561957F4F0895A1E21A2EA0
:10446000AA1BBB1BFD010DC0AA1FBB1FEE1FFF1F18
:10447000A217B307E407F50720F0A21BB30BE40B68
:10448000F50B661F771F881F991F1A9469F76095AF
:104490007095809590959B01AC01BD01CF01089569
:1044A000052E97FB1EF400940E94672257FD07D04B
:1044B0000E942E2207FC03D04EF40C9467225095E4
:1044C0004095309521953F4F4F4F5F4F0895909500
:1044D0008095709561957F4F8F4F9F4F0895EE0F98
:1044E000FF1F0590F491E02D09940E949A20B7FFD8
:0C44F0000895821B930B0895F894FFCFF1
:1044FC007F7F8080F401F401F4010000000093063A
:10450C007406AA12AA129D093206AA12CE05000040
:10451C00000093067406220555069D0932069C0F71
:10452C00CE05000000008C0738082D07D9075E0760
:10453C003C07500700000000AA12AA12AA12920E01
:10454C008E0E8B0E00000000480E040E020E920E12
:10455C008E0EFF0DAC0B00000000F304C6046508C2
:10456C009C04BF04AC049D040D0A004E6F206461D2
:10457C00746100206461746120706F696E74732EB5
:10458C000043757272656E7420696E64657820697B
:10459C0073200009002F003A004320280046292CE4
:1045AC002000250052656164204448543232206654
:1045BC0061696C65642C206572723D004C45440049
:1045CC004455414C005354415455530048454C50AC
:1045DC00004F464600424C494E4B004C454453005C
:1045EC0052454400475245454E00575249544500E8
:1045FC0052454144005254430044485400435552E0
:10460C0052454E540053415645440045585452456A
:10461C004D4500414444004431330052474200525E
:10462C0045534554006D73290A0DE2949CE2948025
:10463C00E2948020535441545553204C4544530A22
:10464C000DE29494E29480E29480205645525349B2
:10465C004F4E0043757272656E742074656D7020D8
:10466C002F2068756D696469747920697320004D19
:10467C006178696D756D207265636F726465642015
:10468C0074656D70202F2068756D6964697479206C
:10469C0069732000250A0D4D696D696D756D207269
:1046AC0065636F726465642074656D70202F20687B
:0C46BC00756D69646974792069732000D1
:00000001FF
