:100000000C94C4020C94EC020C94EC020C94EC02E0
:100010000C94EC020C94EC020C94EC020C94EC02A8
:100020000C94EC020C94EC020C94EC020C94EC0298
:100030000C94EC020C94EC020C94EC020C94EC0288
:100040000C94FC0E0C94EC020C94CA0E0C94A40EAE
:100050000C94EC020C94EC020C94EC020C94EC0268
:100060000C94850D0C94EC02000000002400270085
:100070002A0000000000250028002B00456E746552
:100080007220636F6D6D616E6473206F72202748FC
:10009000454C50270053656E642027592720746F04
:1000A000207365742074686520636C6F636B2C200B
:1000B00073656E6420274E2720746F2073746172FD
:1000C0007420616761696E3A2000456E74657265DF
:1000D000642054696D657374616D703A2000456EDB
:1000E00074657220446179204F66205765656B20E6
:1000F00028312064696769742C20312D372C2061E8
:1001000072626974726172696C792031203D204D90
:100110006F6E2C2037203D2053756E293A20004504
:100120006E746572205365636F6E6420283220649C
:1001300069676974732C2030302D3539293A2000D5
:10014000456E746572204D696E7574652028322085
:100150006469676974732C2030302D3539293A2051
:1001600000456E74657220486F75722028322064D5
:1001700069676974732C20323420686F757220634C
:100180006C6F636B2C2030302D3233293A200045C0
:100190006E74657220596561722028322064696727
:1001A0006974732C2030302D3939293A2000456E7E
:1001B000746572204D6F6E74682028322064696700
:1001C0006974732C2030312D3132293A2000456E6C
:1001D00074657220446179206F66204D6F6E74687B
:1001E000202832206469676974732C2030312D33E4
:1001F00031293A2000436C6F636B2069732073656B
:1002000074207768656E20616C6C20646174612075
:10021000697320656E746572656420616E6420790F
:100220006F752073656E642027592720746F2063D3
:100230006F6E6669726D2E00496E76616C6964201E
:10024000636F6D6D616E642C207479706520484514
:100250004C5000496E76616C696420636F6D6D610E
:100260006E642C20747970652048454C5000496EAE
:1002700076616C696420636F6D6D616E642C2074AF
:100280007970652048454C5000496E76616C696410
:1002900020636F6D6D616E642C20747970652048E9
:1002A000454C5000496E76616C696420636F6D6DDA
:1002B000616E642C20747970652048454C50004C68
:1002C000454420526564004C454420477265656E84
:1002D000004C4544206F666600426C696E6B696E27
:1002E0006720626F7468206F6E206475616C204CAB
:1002F000454400426C696E6B696E672072656400EC
:10030000426C696E6B696E6720677265656E00444A
:100310003133206F6E00443133206F666600426CCB
:10032000696E6B696E67204431330052544320522A
:10033000454144207C205254432057524954450A99
:100340000D757064617465202F207265616420747E
:10035000696D650A0A0D56455253494F4E0A0D63A1
:10036000757272656E742076657273696F6E0A0DB0
:100370002D2D2D2D2D2D2D2D2D2D2D2D2D2D2D2DAD
:100380002D2D2D2D2D2D2D2D2D0044485420435540
:100390005252454E54207C204448542053415645E7
:1003A0004420287829207C20444854204558545221
:1003B000454D450A0D73686F772074686520637535
:1003C0007272656E742C20736176656420286C618E
:1003D00073742078207265636F7264732C206F7061
:1003E00074696F6E616C2C2064656661756C742035
:1003F0006973203130292C2065787472656D652011
:1004000074656D70202F2068756D69646974790A50
:10041000000A0D535441545553204C4544530A0D82
:10042000666F72206C6564207374617475730A0062
:1004300053455420424C494E4B20580A0D73657465
:10044000207468652064656C617920746F20582081
:100450006D732C206D696E696D756D20004C45447F
:1004600020475245454E207C204C4544205245446F
:10047000207C204C4544204F4646207C204C45445F
:1004800020424C494E4B207C204C45442044554151
:100490004C20424C494E4B0A0D636F6E74726F6C68
:1004A00020746865206475616C20636F6C6F7220C6
:1004B0004C45440A00443133204F4E207C204431C7
:1004C00033204F4646207C2044313320424C494E55
:1004D0004B0A0D636F6E74726F6C20746865204CEC
:1004E0004544206F6E2070696E2031330A000D2D57
:1004F0002D2D2D2D2D2D2D2D2D2D2D2D2D2D2D2D2C
:100500002D2D2D2D2D2D2D2D0A0D417661696C611E
:10051000626C6520636F6D6D616E64733A00566541
:100520007273696F6E3A200052652D656E74657244
:100530002074686520636F6D6D616E64000000005B
:100540000023002600290004040404040404040217
:100550000202020202030303030303010204081060
:10056000204080010204081020010204081020002D
:100570000000080002010000030407000000000062
:10058000000000323000051011241FBECFEFD8E06C
:10059000DEBFCDBF24E0A6E7B2E001C01D92A032CD
:1005A000B207E1F712E0A0E0B1E0ECEBF5E302C046
:1005B00005900D92A637B107D9F712E0C4ECD2E04E
:1005C00004C02197FE010E94D61AC33CD107C9F787
:1005D0000E940D100C9461180C940000813208F0F8
:1005E00041C0909162039111FCCF91E0909362031E
:1005F000909361032FEF2093600310925F03280F05
:1006000020935E0390935D0390915D03906D9093B2
:100610005D0390915C039130F9F410925C0390912A
:100620005D039093BB009091BC0093FDF8CF95ECD7
:100630009093BC00909162039130E1F390915F033D
:10064000981710F480915F03ACE3B3E0E3E6F3E0C6
:1006500090E0981303C0089595EEEACF2D91219371
:100660009F5FF7CF80E00895613208F048C0909115
:1006700062039111FCCF92E0909362034093610377
:100680009FEF9093600310925F0360935E03ACE171
:10069000B3E0ECE3F3E090E069132BC010925D034C
:1006A00090915D03880F892B80935D0380915C039B
:1006B000813019F510925C0380915D038093BB003B
:1006C0008091BC0083FDF8CF85EC8093BC008091C5
:1006D00062038230E1F3809160038F3F91F080915B
:1006E0006003803281F080916003803371F084E098
:1006F00008952D9121939F5FCFCF85EEE6CF81E0C6
:10070000089580E0089582E0089583E00895482FD9
:1007100060911B0380911A030E9434031092190305
:1007200010921B03109218030895E0910C03F091AE
:100730000D030190F081E02D682F8CE093E0099487
:1007400087EA93E09093FC028093FB02089508955A
:100750008FEA93E09093FA028093F9020895089546
:1007600085ED8093BC008091BC0084FDFCCF10928D
:10077000620308952091D602260F3327331F2132BA
:100780003105ECF420916203FC0190E080E024301C
:1007900069F082E00895A091D6022191AC014A54FB
:1007A0005D4FA40FB52FB11D2C930196861798F3BA
:1007B0008091D602680F6093D60280E0089581E0B0
:1007C00008950895E0910B0380910A03E81730F42F
:1007D000F0E0ED59FC4F808190E008958FEF9FEF9E
:1007E000089590910B0380910A032FEF3FEF981724
:1007F00048F4E92FF0E0ED59FC4F208130E09F5F95
:1008000090930B03C901089580910A0390910B0303
:10081000891B990B0895CF92DF92EF92FF920F936D
:100820001F93CF93DF937C01CB018A0120911803A2
:10083000222389F0EB016B01C40ED51ECC15DD051A
:1008400069F06991D701ED91FC910190F081E02D63
:10085000C7010995F3CF642F0E94BA03C801DF9145
:10086000CF911F910F91FF90EF90DF90CF9008955F
:10087000CF93DF931F92CDB7DEB769832091180322
:100880002223F9F020911B03203258F021E030E0C0
:10089000FC013383228390E080E00F90DF91CF91C1
:1008A000089580911903E82FF0E0E45EFC4F9981F0
:1008B00090838F5F8093190380931B0381E090E006
:1008C000ECCF61E0CE0101960E94BA03F7CF6F92A0
:1008D0007F928F929F92AF92BF92CF92DF92EF92D0
:1008E000FF920F931F93CF93DF93CDB7DEB7AC97F3
:1008F0000FB6F894DEBF0FBECDBFDC011696ED91AA
:10090000FC91319609F48BC059013A016B018C01BD
:10091000FE0131964F0188E2DF011D928A95E9F7C9
:10092000D801ED91FC910484F585E02DB401C80156
:1009300009957C01892B09F05CC01AA619A61CA692
:100940001BA6D801ED91FC910684F785E02D9E0150
:10095000255D3F4FAE01475D5F4FB401C80109956A
:100960007C01892B09F045C0A114B10439F088E25B
:10097000F401D50101900D928A95E1F7C114D104DB
:1009800009F189A59AA521E030E097FF02C02FEF79
:100990003FEF9F77829FB001839F700D929F700DF4
:1009A0001124072E000C880B990B0E946E1820E072
:1009B00030E040E251E40E94001AF6016083718346
:1009C0008283938361147104A1F06BA57CA5072E2B
:1009D000000C880B990B0E946E1820E030E040E27A
:1009E00051E40E94001AD3016D937D938D939C93E3
:1009F0001397C701AC960FB6F894DEBF0FBECDBFFC
:100A0000DF91CF911F910F91FF90EF90DF90CF90EA
:100A1000BF90AF909F908F907F906F90089587E1E7
:100A2000E82EF12CE6CF8F929F92AF92BF92CF9299
:100A3000DF92EF92FF920F931F93CF93DF93EC011E
:100A40008B016A017901E881F9810284F385E02D47
:100A50000995B82EB801685F7F4FE881F98102845B
:100A6000F385E02DCE010995982EB801605F7F4F88
:100A7000E881F9810284F385E02DCE010995A82E45
:100A8000B801685E7F4FE881F9810284F385E02D2B
:100A9000CE010995882EB801605E7F4FE881F9810B
:100AA0000284F385E02DCE0109959B2D990D9A0DB9
:100AB000980D891319C09A2D882DF6019183808392
:100AC0009B2D892DF7019183808390E080E0DF9159
:100AD000CF911F910F91FF90EF90DF90CF90BF903B
:100AE000AF909F908F90089585E190E0F0CF47E020
:100AF00050E080E0FB012191BF01042E01C0220FD4
:100B00000A94EAF7820F41505109A0F70895DC01D9
:100B100017967C936E931697FB01E55AFA4FE49172
:100B20001896EC931897695B7A4FFB0164911996BC
:100B30006C930895CF92DF92EF92FF920F931F93E1
:100B4000CF93DF93EC017A0169010E948705E88168
:100B5000F9810480F581E02D9801A601B701CE014D
:100B6000DF91CF911F910F91FF90EF90DF90CF9089
:100B70000994CF92DF92EF92FF920F931F93CF933E
:100B8000DF93EC017A0169010E948705E881F98110
:100B90000190F081E02D9801A601B701CE01DF910F
:100BA000CF911F910F91FF90EF90DF90CF9009941C
:100BB000CF92DF92EF92FF920F931F93CF93DF9329
:100BC000CDB7DEB728970FB6F894DEBF0FBECDBF06
:100BD000DC011696ED91FC91319609F440C08A0132
:100BE0007B0119821A821B821C821D821E821F8237
:100BF0001886DC01ED91FC910480F581E02DAE01B9
:100C00004B5F5F4FBE016F5F7F4F09956C01892B72
:100C1000B1F4E114F10441F069817A818B819C8106
:100C20000E94721AF70160830115110541F06D8170
:100C30007E818F8198850E94721AD8016C93C601BB
:100C400028960FB6F894DEBF0FBECDBFDF91CF91CF
:100C50001F910F91FF90EF90DF90CF90089587E163
:100C6000C82ED12CECCFCF93C62F91E090931803D0
:100C700098E690931A031092190310921B03682FA1
:100C80008CE093E00E9438046C2F8CE093E00E948B
:100C9000380481E0CF910C94870391E0909318037E
:100CA00098E690931A031092190310921B03682F71
:100CB0008CE093E00E94380481E00C9487036AE0A2
:100CC0000E94A81A292F30E1839FC0011124822B92
:100CD0000895982F92959F708F702AE0929F800DB3
:100CE00011240895FC01538D448D252F30E0842F6D
:100CF00090E0821B930B541710F0CF960895019744
:100D00000895FC01918D828D981761F0A28DAE0F30
:100D1000BF2FB11D5D968C91928D9F5F9F73928FB7
:100D200090E008958FEF9FEF0895FC01918D828DE3
:100D3000981731F0828DE80FF11D858D90E00895B0
:100D40008FEF9FEF0895FC01918D228D892F90E008
:100D5000805C9F4F821B91098F7399270895FC0136
:100D6000A48DA80FB92FB11DA35ABF4F2C91848D0C
:100D700090E001968F739927848FA689B7892C9369
:100D8000A089B1898C91837080648C93938D848DBC
:100D9000981306C00288F389E02D80818F7D8083BF
:100DA0000895EF92FF920F931F93CF93DF93EC017F
:100DB00081E0888F9B8D8C8D98131AC0E889F98902
:100DC000808185FF15C09FB7F894EE89FF89608305
:100DD000E889F98980818370806480839FBF81E086
:100DE00090E0DF91CF911F910F91FF90EF900895C8
:100DF000F62E0B8D10E00F5F1F4F0F731127E02EA3
:100E00008C8D8E110CC00FB607FCFACFE889F989DA
:100E1000808185FFF5CFCE010E94AF06F1CFEB8D2B
:100E2000EC0FFD2FF11DE35AFF4FF0829FB7F894AE
:100E30000B8FEA89FB8980818062CFCFCF93DF93CC
:100E4000EC01888D8823B9F0AA89BB89E889F989E2
:100E50008C9185FD03C0808186FD0DC00FB607FC17
:100E6000F7CF8C9185FFF2CF808185FFEDCFCE014A
:100E70000E94AF06E9CFDF91CF91089583E893E018
:100E80000E94A30621E0892B09F420E0822F089517
:100E900080E090E0892B29F00E943E0781110C949C
:100EA00000000895DC01ED91FC910190F081E02DAE
:100EB0000994EF92FF920F931F93CF93DF938C01CE
:100EC0007B01D0E0C0E0F701EC0FFD1F64916623C9
:100ED00061F0D801ED91FC910190F081E02DC80105
:100EE0000995892B11F02196EECFCE01DF91CF919C
:100EF0001F910F91FF90EF900895AF92BF92CF9204
:100F0000DF92EF92FF920F931F93CF93DF936C01C9
:100F10007B018B01040F151FEB015E01AE18BF08AA
:100F2000C017D10759F06991D601ED91FC9101905C
:100F3000F081E02DC6010995892B79F7C501DF9174
:100F4000CF911F910F91FF90EF90DF90CF90BF90C6
:100F5000AF90089590E080E00895833081F028F408
:100F6000813099F08230A9F008958730A9F0883057
:100F7000C9F08430B1F4809180008F7D03C08091EE
:100F800080008F7780938000089584B58F7784BD2B
:100F9000089584B58F7DFBCF8091B0008F778093CB
:100FA000B00008958091B0008F7DF9CFCF93DF938B
:100FB000ECE7F5E08491E8E6F5E0D491E4E5F5E0CE
:100FC000C491CC23A1F081110E94AD07EC2FF0E079
:100FD000EE0FFF1FE35CFA4FA591B491EC91ED2366
:100FE00081E090E009F480E0DF91CF91089580E006
:100FF00090E0FACF1F93CF93DF93282F30E0F901D1
:10100000E159FA4F8491F901E55AFA4FD491F90167
:10101000E95BFA4FC491CC23A9F0162F81110E94ED
:10102000AD07EC2FF0E0EE0FFF1FEE58FF4FA5913C
:10103000B4918FB7F894EC91111108C0D095DE23CC
:10104000DC938FBFDF91CF911F910895DE2BF8CFF6
:101050001092620381E08093610310925C0361E06F
:1010600082E10E94FA0761E083E10E94FA07E9EB5E
:10107000F0E080818E7F808380818D7F808388E413
:101080008093B80085E48093BC000895CF93DF93EC
:1010900090E0FC01E55AFA4F2491895B9A4FFC01DC
:1010A00084918823D1F090E0880F991FFC01E859C2
:1010B000FF4FA591B491FC01EE58FF4FC591D4911B
:1010C00061110EC09FB7F8948C91E22FE0958E23AA
:1010D0008C932881E223E8839FBFDF91CF9108950D
:1010E0008FB7F894EC91E22BEC938FBFF6CF789406
:1010F00084B5826084BD84B5816084BD85B582601D
:1011000085BD85B5816085BDEEE6F0E080818160BA
:101110008083E1E8F0E010828081826080838081BA
:1011200081608083E0E8F0E0808181608083E1EB92
:10113000F0E0808184608083E0EBF0E0808181607A
:101140008083EAE7F0E08081846080838081826030
:101150008083808181608083808180688083109219
:10116000C10008958130910539F0880F991F880FCB
:10117000991F05970197F1F708953FB7F89480916B
:101180007B0290917C02A0917D02B0917E0226B5F7
:10119000A89B05C02F3F19F00196A11DB11D3FBFAF
:1011A000BA2FA92F982F8827BC01CD01620F711D7E
:1011B000811D911D42E0660F771F881F991F4A9578
:1011C000D1F708957F928F929F92AF92BF92CF9264
:1011D000DF92EF92FF920F931F93CF93DF93EC0177
:1011E000162F7A0169010E94BD084B015C01712C28
:1011F0001111788410E000E060E070E0CB012A81FA
:101200003B814C815D812617370748075907F4F069
:101210000115110561F5C7011E141F0464F10E9438
:10122000BD08681979098A099B09E985F0E0EE0F84
:10123000FF1FE35CFA4FA591B4912C910F5F1F4FF4
:1012400038852323271105C097FFD9CF6FEF7FEF94
:10125000CB01DF91CF911F910F91FF90EF90DF9025
:10126000CF90BF90AF909F908F907F9008951C1467
:101270001D04ACF6C6010E94B208D1CF2FB7F89476
:1012800060917702709178028091790290917A0250
:101290002FBF08958F929F92AF92BF92EF92FF92CD
:1012A0000F931F93CF93DF937B018C01D0E0C0E0BD
:1012B0000E943E0960938B0370938C0380938D038F
:1012C00090938E03E0918303F09184030284F3856D
:1012D000E02D83E893E0099597FF27C00E943E091F
:1012E00080908B0390908C03A0908D03B0908E0320
:1012F000681979098A099B0980908703909088036F
:10130000A0908903B0908A03681579058A059B052A
:10131000C8F2CE01DF91CF911F910F91FF90EF9016
:10132000BF90AF909F908F900895F80181938F01A7
:101330002196EC16FD0609F0BBCFEBCF87E080933A
:1013400004018093A70261E084E00E94FA0760E054
:1013500085E00C94FA0781110AC01092A70260E0A0
:1013600084E00E94FA0760E085E00C94FA07873079
:1013700011F40C949E0988E0809304018093A702E5
:1013800060E084E00E94FA0761E0EECFBF92CF9266
:10139000DF92EF92FF920F931F93CF93DF9300D0D2
:1013A00000D000D01F92CDB7DEB780E00E944D067E
:1013B00087E00E94EE0210920B0380930A038730AD
:1013C000E1F58CE093E00E94F1030E946906B82EDB
:1013D0008CE093E00E94F1030E946906C82E8CE025
:1013E00093E00E94F103182F86FF3EC08F710E9488
:1013F00069060CE015FD00E0080F8CE093E00E9408
:10140000F1030E946906D82E8CE093E00E94F1035C
:101410000E946906E82E8CE093E00E94F10310E040
:1014200087FD14E68F770E946906F82E8CE093E022
:101430000E94F1030E946906180F2B2D3C2D402FAE
:101440005D2DB701812F90E027960FB6F894DEBF8F
:101450000FBECDBFDF91CF911F910F91FF90EF9005
:10146000DF90CF90BF9008958F730E946906082F78
:10147000C4CFCF93DF93EB010E944D0681E00E9421
:10148000EE0210920B0380930A038CE093E00E941B
:10149000F103888381E0DF91CF910895EF92FF926D
:1014A0001F93CF93DF931F92CDB7DEB77C01162F2A
:1014B000BE016F5F7F4F8EE00E94390A811108C024
:1014C00080E00F90DF91CF911F91FF90EF900895F2
:1014D00081E08093180388E680931A031092190321
:1014E00010921B03113089F587E090E00E9495036C
:1014F000F70180810E945F0690E00E949503898138
:1015000085608983F70181810E945F0690E00E94D7
:101510009503F70182810E945F0690E00E94950387
:10152000F70184810E945F0690E00E94950381E0AC
:101530000E9487038111C4CF69818EE00E94330627
:101540008111BECF812F8770BCCF8BE090E00E94CD
:10155000950389818660D5CF0E947D19EF92FF9215
:101560000F931F93CF93DF93EC018B0188E2FB0174
:1015700011928A95E9F761E08E810E94460860E049
:101580008E810E94FA0788EE93E00E94B20861E023
:101590008E810E94FA0760E08E810E94460888E2F0
:1015A00090E00E94B208E881F9810084F185E02D85
:1015B00026E030E04AE050E060E0CE0109956E316F
:1015C0007105810591056CF4982F872F762F66277A
:1015D0006061CB01DF91CF911F910F91FF90EF9050
:1015E0000895E881F9810084F185E02D26E030E05E
:1015F0004AE050E061E0CE0109957801F8E2EF0E93
:10160000F11C623371058105910534F4982F872F01
:10161000762F66276161DDCFE881F9810084F1854D
:10162000E02D26E030E04AE050E060E0CE01099590
:10163000683171058105910534F4982F872F762F35
:1016400066276261C6CFE881F9810084F185E02DCB
:1016500026E030E04AE050E061E0CE0109956B30D1
:1016600071058105910534F4982F872F762F662711
:101670006361AFCF21E069327105810591050CF4FA
:1016800020E0F80121938F01EE16FF0629F6E8818C
:10169000F9810084F185E02D26E030E04AE050E059
:1016A00060E0CE010995683171058105910534F43A
:1016B000982F872F762F662764618BCF70E060E0CC
:1016C00088CFFF920F931F93CF93DF93EC018B0191
:1016D000FB01F0800E946719F81621F06F2DCE01F2
:1016E0000E946F19F801F1802196CE010E946719BE
:1016F000F81621F06F2DCE010E946F19C801DF91FD
:10170000CF911F910F91FF900895FB010190002050
:10171000E9F73197AF01461B570BDC01ED91FC91C6
:101720000280F381E02D09948F929F92AF92BF9235
:10173000EF92FF920F931F93CF93DF93CDB7DEB756
:10174000A1970FB6F894DEBF0FBECDBF7C01FA01A2
:10175000CB0119A2223008F42AE08E010F5D1F4F41
:10176000822E912CB12CA12CBF01A50194010E94C5
:10177000B41AF901CA016A300CF5605DD8016E93A4
:101780008D01232B242B252B79F790E080E01097F7
:1017900021F0BD01C7010E94850BA1960FB6F894F8
:1017A000DEBF0FBECDBFDF91CF911F910F91FF9094
:1017B000EF90BF90AF909F908F900895695CDECFBF
:1017C000462F50E070E060E02AE00C94940BCF9339
:1017D000C82F8A3028F460E383E893E00E94520720
:1017E0006C2F83E893E0CF910C94E00BCF93DF93C1
:1017F000EC018E818536D0F062E383E893E00E94AD
:1018000052078E810E94E70B6DE283E893E00E940D
:1018100052078D810E94E70B6DE283E893E00E94FE
:1018200052078C81DF91CF910C94E70B63E875E050
:1018300083E893E00E945907E4CFCF93DF93EC0154
:101840008A810E94E70B6AE383E893E00E945207D3
:1018500089810E94E70B6AE383E893E00E945207C4
:101860008881DF91CF910C94E70BCF92DF92EF92BA
:10187000FF92CF93DF936C01990FEE08FF08F7FEFC
:101880001BC06DE283E893E00E945207EC014427FD
:101890005527BA014C195D096E097F092AE083E8D2
:1018A00093E00E94940B8C0F9D1FDF91CF91FF90CE
:1018B000EF90DF90CF9008952AE0B701A60183E86A
:1018C00093E0DF91CF91FF90EF90DF90CF900C9459
:1018D000940BBC0183E893E00C94850B63E571E005
:1018E0000C94850BCF93DF93BC0183E893E00E94B7
:1018F000850BEC0183E893E00E946E0C8C0F9D1F1A
:10190000DF91CF9108956F927F928F929F92AF92C5
:10191000BF92CF92DF92EF92FF920F931F93CF93DC
:10192000DF93CDB7DEB729970FB6F894DEBF0FBEB1
:10193000CDBF20918F023091900221153105C1F465
:1019400086E591E029960FB6F894DEBF0FBECDBFB5
:10195000DF91CF911F910F91FF90EF90DF90CF908B
:10196000BF90AF909F908F907F906F900C94720C6F
:1019700060908D0270908E028C01281739070CF44C
:101980008901D12CC12CC016D1060CF089C053019D
:10199000730189E0E81AF1083701FE0131964F0121
:1019A000C7010E946719F40181934F01FFEFEF1AFD
:1019B000FF0AAE14BF04A1F78FEFC81AD80AC601F8
:1019C0000E94350C8EE591E00E94690C6F8183E8DE
:1019D00093E00E94E00B80E691E00E94690C6E812A
:1019E00083E893E00E94E00B80E691E00E94690C9E
:1019F0006D8183E893E00E94E00B8BE691E00E940A
:101A0000690C6B8183E893E00E94E00B82E691E031
:101A10000E94690C6A8183E893E00E94E00B82E6F1
:101A200091E00E94690C698183E893E00E94E00BD9
:101A30008BE691E00E94690CF8848F2D0F2C000C2E
:101A4000990B0E94350C84E691E00E94690C6F2D81
:101A5000FF0C770B880B990B0E946E1826E636E672
:101A600046EE5FE30E94A91820E030E040E052E437
:101A70000E9494190E94721A862F660F990B0E9479
:101A8000350C88E691E00E94690C8985082E000CCF
:101A9000990B0E94350C8DE691E00E94720C73CF79
:101AA00029960FB6F894DEBF0FBECDBFDF91CF9160
:101AB0001F910F91FF90EF90DF90CF90BF90AF906C
:101AC0009F908F907F906F900895CF93DF930E94A7
:101AD000350CEC0183E893E00E946E0C8C0F9D1F87
:101AE000DF91CF9108950F931F93CF93DF93EC0174
:101AF0000E9459078C01CE010E946E0C800F911F2D
:101B0000DF91CF911F910F9108951F920F920FB601
:101B10000F9211242F933F934F935F936F937F9373
:101B20008F939F93AF93BF93EF93FF938091B900EF
:101B3000887F803609F44AC0F0F5883209F4A7C0DE
:101B400018F5803109F49BC0B8F4882309F4F9C072
:101B5000883009F494C0FF91EF91BF91AF919F91AC
:101B60008F917F916F915F914F913F912F910F9046
:101B70000FBE0F901F901895883109F488C08032ED
:101B800051F78093600314C0803409F49DC040F481
:101B90008033B9F38833F9F68093600385ECB0C0E5
:101BA000803509F485C0883509F496C0883499F6E3
:101BB0000E94B003D0CF883909F48CC038F588373B
:101BC00029F050F4883611F0803729F683E08093AD
:101BD00062031092F80257C0883809F47BC080393C
:101BE00019F0803809F0B7CF8091F802803208F000
:101BF00071C0E091F80281E08E0F8093F80280912D
:101C0000BB00F0E0E852FD4F80833DC0803B39F0DF
:101C1000E0F4803A09F479C0883A09F09CCF84E076
:101C2000809362031092D7021092D602E091F902DB
:101C3000F091FA0209958091D60281110FC081E0DE
:101C40008093D6021092B60209C0803C09F4A6CF58
:101C5000883C09F4A3CF883B09F07DCFE091D702FF
:101C600081E08E0F8093D702F0E0EA54FD4F80812F
:101C70008093BB009091D7028091D60229C08091B9
:101C80005D038093BB0085EC8093BC0064CF909192
:101C90005F0380915E03981758F5E0915F0381E040
:101CA0008E0F80935F03F0E0E45CFC4F8081E9CF0E
:101CB000E0915F0381E08E0F80935F038091BB0012
:101CC000F0E0E45CFC4F808390915F0380915E03C1
:101CD0009817C8F285E8D8CFE0915F0381E08E0FB6
:101CE00080935F038091BB00F0E0E45CFC4F808355
:101CF0008091610381115CCF81E080935C0384EA71
:101D00008093BC001092620326CF85EC8093BC00C8
:101D1000109262038091F802803230F4E091F80270
:101D2000F0E0E852FD4F10826091F80270E0E0911F
:101D3000FB02F091FC0288ED92E009951092F80206
:101D40000ACF1092600334CF1F920F920FB60F92FA
:101D500011242F933F934F935F936F937F938F93B0
:101D60009F93AF93BF93EF93FF9383E893E00E9419
:101D7000AF06FF91EF91BF91AF919F918F917F91AE
:101D80006F915F914F913F912F910F900FBE0F90E8
:101D90001F9018951F920F920FB60F9211242F9338
:101DA0008F939F93EF93FF93E0919303F0919403AC
:101DB0008081E0919903F0919A0382FD1BC090818C
:101DC00080919C038F5F8F7320919D03821741F058
:101DD000E0919C03F0E0ED57FC4F958F80939C03BE
:101DE000FF91EF919F918F912F910F900FBE0F90C8
:101DF0001F9018958081F4CF1F920F920FB60F920B
:101E000011242F933F938F939F93AF93BF93809110
:101E1000770290917802A0917902B0917A02309184
:101E2000760223E0230F2D3758F50196A11DB11D31
:101E3000209376028093770290937802A0937902A0
:101E4000B0937A0280917B0290917C02A0917D02F6
:101E5000B0917E020196A11DB11D80937B029093EB
:101E60007C02A0937D02B0937E02BF91AF919F91BF
:101E70008F913F912F910F900FBE0F901F9018954B
:101E800026E8230F0296A11DB11DD2CFECE0F3E0AE
:101E90001382128288EE93E0A0E0B0E08483958301
:101EA000A683B78385E491E0918380830895E3E876
:101EB000F3E01382128288EE93E0A0E0B0E0848326
:101EC0009583A683B78383E391E09183808385EC38
:101ED00090E09587848784EC90E09787868780ECF4
:101EE00090E0918B808B81EC90E0938B828B82ECE5
:101EF00090E0958B848B86EC90E0978B868B118E8F
:101F0000128E138E148E0895CF93DF93CFE7D2E015
:101F10008BE091E09983888380E49BE4ACE4B0E0BB
:101F20008A839B83AC83BD838FEF9FEF9F838E83D8
:101F30008887898762E070E0CE010E9487058FE183
:101F400091E099838883DF91CF910895CF93DF93B8
:101F500000D000D0CDB7DEB710928A02109289026D
:101F60008FEF93E090938C0280938B0210928E02FD
:101F700010928D021092900210928F02BE016D5F3E
:101F80007F4F90E080E00E94F10FBE016F5F7F4FB6
:101F900082E090E00E94F10F2B813C8130938E0211
:101FA00020938D0289819A819093900280938F0271
:101FB000109293028091890290918A0206969093E2
:101FC0009202809391022817390724F490938E028D
:101FD00080938D020F900F900F900F90DF91CF9113
:101FE00008950F931F93CF93DF938C01EB010E9411
:101FF00067198883C80101960E9467198983CE01F9
:10200000DF91CF911F910F9108950E94460F0E947A
:10201000570F0E94840F0C94A60FCF93DF93CDB778
:10202000DEB764970FB6F894DEBF0FBECDBF0E9437
:102030007708E0919303F091940312E01083E0910C
:102040008F03F09190031082E0919103F09192033D
:102050008FEC808310929B03E0919703F09198039B
:1020600086E08083E0919503F09196038081806102
:102070008083E0919503F09196038081886080834E
:10208000E0919503F0919603808180688083E091D0
:102090009503F091960380818F7D808310920B03CE
:1020A00010920A031092190310921B030E94280831
:1020B0000E94A8030E94A00360E08EE00E94330605
:1020C0000E94C60929833A834B835C838F838FE107
:1020D0008D831E8362E0CE0101960E944E0A61E06C
:1020E000CE0101960E944E0A1C8A1A86BE01665FC6
:1020F0007F4F8FE00E94390A6A85862F837021F016
:102100006C7F8FE00E9433068C89882369F0BE01C2
:102110006C5E7F4F8EE00E94390A882329F06C891B
:102120006F778EE00E9433061092FD0261E08DE031
:102130000E94460861E084E00E94460861E085E074
:102140000E9446086CE770E083E893E00E94730DFC
:102150008E010F5E1F4F3E0122E1620E711C33E0C3
:10216000332E40E1442E512C0E943E097093B5025B
:102170006093B40220919F023091A002621B730B06
:1021800068387341C0F130E020E045EA52E066EA89
:1021900072E08FE792E00E94D8057C01892B39F02C
:1021A0008FE691E00E94690CC7010E94650D809145
:1021B000A60290910101891714F480930101909176
:1021C0000301981714F4809303018091A502909164
:1021D0000001891714F4809300019091020198176F
:1021E00014F4809302018091B4029091B50290930F
:1021F000A00280939F022091B4023091B502809199
:102200009D0290919E02A901481B590B48385341E9
:1022100020F42817390708F0B3C00E94C60920939C
:1022200094023093950240939602509397026093E4
:1022300098027093990280939A028091A6028093EB
:102240009B028091A50280939C0287E891E00E9406
:10225000720C8091890290918A020E94650D809192
:102260008B0290918C020E94650D80918D0290915D
:102270008E020E94650D80918F02909190020E94C3
:10228000650D89E0E4E9F2E0DE01119601900D921E
:102290008A95E1F780908D0290908E02CE01019692
:1022A0006C01F12CE12CF60121906F015401AE0C70
:1022B000BF1CC5010E946719281621F0622DC501B7
:1022C0000E946F19FFEFEF1AFF0A29E0E216F104EE
:1022D00051F780919302811109C080918F029091F2
:1022E000900201969093900280938F0280918D02CC
:1022F00090918E02099690938E0280938D02209188
:102300008B0230918C02295031092817390740F48B
:10231000809191029091920290938E0280938D020F
:102320006DE872E090E080E00E94610B6FE872E07F
:1023300082E090E00E94610B85E991E00E94720CBE
:102340008091890290918A020E94650D80918B0292
:1023500090918C020E94650D80918D0290918E0269
:102360000E94650D80918F02909190020E94650DF0
:102370008091B4029091B50290939E0280939D0249
:102380008091B302882319F1E090B402F090B50275
:102390008091A1029091A2029701281B390B809194
:1023A0000501909106012817390788F00E94D60789
:1023B00061E0892B29F00E94D607019721F460E0A3
:1023C0008DE00E94FA07F092A202E092A1028091B1
:1023D000B202811104C08091B102882301F1E09022
:1023E000B402F090B5028091A3029091A4029701EB
:1023F000281B390B80910501909106012817390798
:1024000070F0809104019091B102992379F18830A4
:1024100039F50E949E09F092A402E092A30283E89B
:1024200093E00E94A306892B71F083E893E00E9459
:1024300081060E9482198093B002803201F590914A
:10244000AF0291113BC080E090E0892B09F48CCE63
:102450000E943E07882309F482CE0E9400007FCEAE
:102460008730C9F688E00E94AB09D5CF9091A702CA
:10247000981302C080E0F7CF9111CDCFF4CF8F3702
:10248000E9F483E893E00E946E0C68E275E083E86B
:1024900093E00E94730D1092FD021092AF02109211
:1024A000AA021092A9021092AC021092AB021092F2
:1024B000AE021092AD021092A802C5CF682F83E839
:1024C00093E00E945207C090B002E091AF0230E268
:1024D000C31619F06DE0C612AFC5F0E0E350FD4F32
:1024E0001082E090A80282E08E1538F165EA71E072
:1024F0008DEF92E00E948A19DD24D394DE0CF12C3A
:10250000EE0CFF1CF701E755FD4F7F01892B39F4D5
:10251000D092A8028DE090E0918380830EC069EA9A
:1025200071E08DEF92E00E948A19892B09F02EC08C
:10253000D092A802F701118210821092FD0210922F
:10254000AF023DE0C3127FCF83E893E00E946E0CA0
:10255000E091A902F091AA02E231F10508F069C503
:10256000EC54FD4E0C94D61A901419142B14C1136C
:10257000EA13191819181918191819181918191807
:102580001918721419181918CD1459176DEA71E039
:102590008DEF92E00E948A19892B31F4D092A80223
:1025A00089E090E0F701B8CF62EB71E08DEF92E047
:1025B0000E948A19892B29F4D092A80281E090E028
:1025C000F1CF66EB71E08DEF92E00E948A19892BC2
:1025D00029F4D092A80282E090E0E4CF6DEB71E0A4
:1025E0008DEF92E00E948A19892B29F4D092A802DB
:1025F00083E090E0D7CF65EC71E08DEF92E00E9430
:102600008A19892B29F4D092A80284E090E0CACFDD
:1026100062EC71E08DEF92E00E948A19892B29F417
:10262000D092A8028AE090E0BDCF6AEC71E08DEF15
:1026300092E00E948A19892B29F4D092A8028BE09B
:1026400090E0B0CF6EEC71E08DEF92E00E948A19BD
:10265000892B29F4D092A8028CE090E0A3CF64EDFE
:1026600071E08DEF92E00E948A19892B29F4D092B3
:10267000A80286E090E096CF69ED71E08DEF92E0E0
:102680000E948A19892B29F4D092A80288E090E050
:1026900089CF6DED71E08DEF92E00E948A19892B50
:1026A00029F4D092A80287E090E07CCF63EE71E03D
:1026B0008DEF92E00E948A19892B29F4D092A8020A
:1026C0008EE090E06FCF69EE71E08DEF92E00E94B6
:1026D0008A19892B29F4D092A8028FE090E062CF6A
:1026E0006EEE71E08DEF92E00E948A19892B31F431
:1026F000D092A802F701518240821FCF62EF71E0B1
:102700008DEF92E00E948A19892B41F4D092A802A1
:1027100021E130E0F701318320830FCF66EF71E0D4
:102720008DEF92E00E948A19892B29F4D092A80299
:1027300022E130E0EFCF6EEF71E08DEF92E00E948A
:102740008A19892B29F4D092A80223E130E0E2CF44
:1027500064E072E08DEF92E00E948A19892B29F4DF
:10276000D092A80224E130E0D5CF0E942D18D0925B
:10277000A802019619F00E942D1814CF25E030E030
:10278000C9CF6EE175E083E893E00E9459072AE023
:1027900042E050E060E070E083E893E00E94940B38
:1027A0006EE283E893E00E9452072AE040E050E0A6
:1027B000BA0183E893E00E94940B2AE040E050E0E5
:1027C000BA0183E893E00E94940B83E893E00E94AF
:1027D0006E0C65CE6EEE74E083E893E00E94730D9C
:1027E00065EB74E083E893E00E94730D6DE574E09F
:1027F00083E893E00E94730D60E374E083E893E064
:102800000E94590782E390E00E94650D61E174E047
:1028100083E893E00E94730D6AE873E083E893E035
:102820000E94730D6BE273E083E893E00E94730DE6
:1028300036CE8091AB029091AC020C9761F48091FE
:10284000AD029091AE028233910528F0909306017B
:102850008093050124CE8091AB029091AC02069743
:1028600009F01DCE8091B3026EE173E0811108C0C2
:102870000E94D60766E173E0892B11F06FE073E0E8
:1028800083E893E00E94730D8091B1029091B202AF
:10289000911102C08823B9F090910401973041F45E
:1028A00060E073E0882309F4BFCF69ED72E0BCCF2C
:1028B000983029F463EF72E08111F7CFB5CF882308
:1028C00009F4EDCDF2CF8091A70261ED72E088238B
:1028D00009F4AACF67EC72E0873009F4A5CF6FEB5B
:1028E00072E0A2CF8091AB029091AC028B30910547
:1028F00079F08C30910581F064EA72E00A9709F072
:1029000093CF1092B30261E08DE00E94FA07C7CD29
:102910001092B30260E0F8CF81E08093B302BFCDA4
:102920008091AB029091AC028930910519F140F48D
:1029300087309105C1F0089771F069E872E074CFB3
:102940008B30910521F10C97C1F781E08093B202A1
:102950001092B102A4CD1092B1021092B20288E09E
:102960000E94AB099CCD1092B1021092B2020E945B
:102970009E0995CD8091AD029091AE020C9709F021
:102980008ECD1092B20281E08093B10288CD109278
:10299000B1021092B20280E0E3CF8091AB0290913D
:1029A000AC028E30910531F00F9709F462C26EE6E9
:1029B00072E03ACF198A1A8A1B8A65EF71E083E8C0
:1029C00093E00E94730DF801232D11922A95E9F7E7
:1029D00083E893E00E946E0C6EEC71E083E893E074
:1029E0000E945907E0918303F09184030084F185EC
:1029F000E02D83E893E00995892BA1F362E070E074
:102A0000C8010E944A09E0918303F0918403008485
:102A1000F185E02D83E893E00995892B59F0E09149
:102A20008303F09184030284F385E02D83E893E02F
:102A30000995E9CF89898033D9F5C3010E944318EC
:102A40008E87F801232D11922A95E9F783E893E008
:102A50000E946E0C6EEA71E083E893E00E945907D1
:102A6000E0918303F09184030084F185E02D83E8F5
:102A700093E00995892BA1F362E070E0C8010E9400
:102A80004A09E0918303F09184030084F185E02DED
:102A900083E893E00995892B69F0E0918303F09135
:102AA00084030284F385E02D83E893E00995E9CF60
:102AB000C801C4CF89898033D9F5C3010E94431866
:102AC0008F87F801232D11922A95E9F783E893E087
:102AD0000E946E0C6FE871E083E893E00E94590752
:102AE000E0918303F09184030084F185E02D83E875
:102AF00093E00995892BA1F362E070E0C8010E9480
:102B00004A09E0918303F09184030084F185E02D6C
:102B100083E893E00995892B69F0E0918303F091B4
:102B200084030284F385E02D83E893E00995E9CFDF
:102B3000C801C4CF89898033D9F5C3010E944318E5
:102B4000888BF801232D11922A95E9F783E893E009
:102B50000E946E0C61E671E083E893E00E945907E1
:102B6000E0918303F09184030084F185E02D83E8F4
:102B700093E00995892BA1F362E070E0C8010E94FF
:102B80004A09E0918303F09184030084F185E02DEC
:102B900083E893E00995892B69F0E0918303F09134
:102BA00084030284F385E02D83E893E00995E9CF5F
:102BB000C801C4CF89898033D9F5C3010E94431865
:102BC0008C87F801232D11922A95E9F783E893E089
:102BD0000E946E0C60E471E083E893E00E94590764
:102BE000E0918303F09184030084F185E02D83E874
:102BF00093E00995892BA1F362E070E0C8010E947F
:102C00004A09E0918303F09184030084F185E02D6B
:102C100083E893E00995892B69F0E0918303F091B3
:102C200084030284F385E02D83E893E00995E9CFDE
:102C3000C801C4CF89898033D9F5C3010E944318E4
:102C40008B87F801232D11922A95E9F783E893E009
:102C50000E946E0C6FE171E083E893E00E945907D7
:102C6000E0918303F09184030084F185E02D83E8F3
:102C700093E00995892BA1F362E070E0C8010E94FE
:102C80004A09E0918303F09184030084F185E02DEB
:102C900083E893E00995892B69F0E0918303F09133
:102CA00084030284F385E02D83E893E00995E9CF5E
:102CB000C801C4CF89898033D9F5C3010E94431864
:102CC0008A87F801232D11922A95E9F783E893E08A
:102CD0000E946E0C6EED70E083E893E00E94730D2D
:102CE000E0918303F09184030084F185E02D83E873
:102CF00093E00995892BA1F361E070E0C8010E947F
:102D00004A09E0918303F09184030084F185E02D6A
:102D100083E893E00995892B69F0E0918303F091B2
:102D200084030284F385E02D83E893E00995E9CFDD
:102D3000C801C4CFC8010E9443188D8783E893E07F
:102D40000E946E0C6AEC70E083E893E00E945907E1
:102D5000CE010A960E94F60B64E583E893E00E9498
:102D60005207CE010A960E941D0C83E893E00E9450
:102D70006E0C65E970E083E893E00E945907E091EA
:102D80008303F09184030084F185E02D83E893E0D0
:102D90000995892BA1F361E070E0C8010E944A09FE
:102DA000E0918303F09184030084F185E02D83E8B2
:102DB00093E00995892B59F0E0918303F091840306
:102DC0000284F385E02D83E893E00995E9CF8989B2
:102DD0008F7D893509F0F7CD81E08093180388E66F
:102DE00080931A031092190310921B0390E080E065
:102DF0000E9495038A850E945F06682F8CE093E00D
:102E00000E9438048B850E945F06682F8CE093E057
:102E10000E9438048C850E945F06682F8CE093E046
:102E20000E9438048D85811101C081E00E945F06F7
:102E3000682F8CE093E00E9438048E850E945F0624
:102E4000682F8CE093E00E9438048F850E945F0613
:102E5000682F8CE093E00E94380488890E945F0606
:102E6000682F8CE093E00E94380481E00E94870381
:102E700016CB0E94C6092A873B874C875D876E87E1
:102E80007F87888BCE010A960E94F60B60E283E86A
:102E900093E00E9452070E94C6092A873B874C870D
:102EA0005D876E877F87888BCE010A960E941D0CF6
:102EB0008CCC8091AB029091AC028331910509F4E6
:102EC00044C08431910509F44CC063E572E0429737
:102ED00009F0AACC8CE092E00E94690C8091A602D5
:102EE000082E000C990B0E94350C84E691E00E949C
:102EF000690C6091A602062E000C770B880B990BCB
:102F00000E946E1826E636E646EE5FE30E94A91898
:102F100020E030E040E052E40E9494190E94721ACE
:102F2000862F660F990B0E94350C88E691E00E946F
:102F3000690C8091A502082E000C990B0E94350C9B
:102F40008DE691E00E94720CAACA8091AD02909128
:102F5000AE02009719F00E94830CA1CA8AE090E0AB
:102F6000FACF88E292E00E94690C80910301082E5A
:102F7000000C990B0E94350C84E691E00E94690CCC
:102F800060910301062E000C770B880B990B0E94B1
:102F90006E1826E636E646EE5FE30E94A91820E0AA
:102FA00030E040E052E40E9494190E94721A862F89
:102FB000660F990B0E94350C88E691E00E94690C1F
:102FC00080910201082E000C990B0E94350C8DE4B3
:102FD00092E00E94690C80910101082E000C990B6F
:102FE0000E94350C84E691E00E94690C6091010119
:102FF000062E000C770B880B990B0E946E1826E6A4
:1030000036E646EE5FE30E94A91820E030E040E09B
:1030100052E40E9494190E94721A862F660F990B2F
:103020000E94350C88E691E00E94690C80910001B5
:1030300082CF68E372E0F8CBEC3008F004CA81E09C
:103040008E0F8093AF02F0E0E350FD4FC082E82F77
:10305000F0E0E350FD4F1082F6C9EDEFF2E0819110
:10306000882351F0082E000C990BC0970A9740F462
:1030700083E0E930F80799F78DEF92E00C9443185C
:103080008FEF9FEF0895FC0188279927E8942191FD
:103090002032E9F3293010F02E30C8F32B3241F002
:1030A0002D3239F4689404C00E946418820F911D77
:1030B000219120532A30C0F31EF4909581959F4FA3
:1030C0000895F8940C94DC1A7AE0979F902D879FCE
:1030D000802D910D11240895E89409C097FB3EF4CA
:1030E00090958095709561957F4F8F4F9F4F992355
:1030F000A9F0F92F96E9BB279395F69587957795D3
:103100006795B795F111F8CFFAF4BB0F11F460FF92
:103110001BC06F5F7F4F8F4F9F4F16C0882311F0EA
:1031200096E911C0772321F09EE8872F762F05C0FE
:10313000662371F096E8862F70E060E02AF09A9599
:10314000660F771F881FDAF7880F9695879597F98E
:1031500008950E94BC180C942D190E941F1938F074
:103160000E94261920F0952311F00C9416190C9446
:103170001C1911240C9461190E943E1970F3959F3B
:10318000C1F3950F50E0551F629FF001729FBB275E
:10319000F00DB11D639FAA27F00DB11DAA1F649FFA
:1031A0006627B00DA11D661F829F2227B00DA11DAD
:1031B000621F739FB00DA11D621F839FA00D611D33
:1031C000221F749F3327A00D611D231F849F600D54
:1031D000211D822F762F6A2F11249F5750409AF07D
:1031E000F1F088234AF0EE0FFF1FBB1F661F771F09
:1031F000881F91505040A9F79E3F510580F00C94D4
:1032000016190C9461195F3FE4F3983ED4F3869548
:1032100077956795B795F795E7959F5FC1F7FE2B73
:10322000880F911D9695879597F9089597F99F674F
:1032300080E870E060E008959FEF80EC089500243E
:103240000A941616170618060906089500240A940B
:1032500012161306140605060895092E0394000C91
:1032600011F4882352F0BB0F40F4BF2B11F460FF20
:1032700004C06F5F7F4F8F4F9F4F089557FD905849
:10328000440F551F59F05F3F71F04795880F97FB2A
:10329000991F61F09F3F79F08795089512161306E4
:1032A0001406551FF2CF4695F1DF08C01616170613
:1032B0001806991FF1CF8695710561050894089548
:1032C000E894BB2766277727CB0197F90895F999EA
:1032D000FECF92BD81BDF89A992780B50895262F1B
:1032E000F999FECF1FBA92BD81BD20BD0FB6F894EB
:1032F000FA9AF99A0FBE0196089581E090E0F89449
:103300000C94DC1A9111089581568A5108F4805268
:1033100085580895FB01DC018D9101908019011001
:10332000D9F3990B08955058BB27AA270E94AB19CF
:103330000C942D190E941F1938F00E94261920F0B4
:1033400039F49F3F19F426F40C941C190EF4E095FF
:10335000E7FB0C941619E92F0E943E1958F3BA178F
:10336000620773078407950720F079F4A6F50C949B
:1033700060190EF4E0950B2EBA2FA02D0B01B901A8
:1033800090010C01CA01A0011124FF27591B99F0DB
:10339000593F50F4503E68F11A16F040A22F232FE7
:1033A000342F4427585FF3CF469537952795A79537
:1033B000F0405395C9F77EF41F16BA0B620B730BDE
:1033C000840BBAF09150A1F0FF0FBB1F661F771F4F
:1033D000881FC2F70EC0BA0F621F731F841F48F404
:1033E000879577956795B795F7959E3F08F0B0CF8D
:1033F0009395880F08F09927EE0F97958795089574
:103400000E94141A0C942D190E94261958F00E943B
:103410001F1940F029F45F3F29F00C94161951113F
:103420000C9461190C941C190E943E1968F399239D
:10343000B1F3552391F3951B550BBB27AA276217B0
:103440007307840738F09F5F5F4F220F331F441FBD
:10345000AA1FA9F335D00E2E3AF0E0E832D09150F1
:103460005040E695001CCAF72BD0FE2F29D0660FDE
:10347000771F881FBB1F261737074807AB07B0E821
:1034800009F0BB0B802DBF01FF2793585F4F3AF027
:103490009E3F510578F00C9416190C9461195F3F0A
:1034A000E4F3983ED4F3869577956795B795F795AD
:1034B0009F5FC9F7880F911D9695879597F9089595
:1034C000E1E0660F771F881FBB1F62177307840731
:1034D000BA0720F0621B730B840BBA0BEE1F88F740
:1034E000E09508950E94791A6894B1110C946119BD
:1034F00008950E94461988F09F5798F0B92F992790
:10350000B751B0F0E1F0660F771F881F991F1AF0CE
:10351000BA95C9F714C0B13091F00E946019B1E0BA
:1035200008950C946019672F782F8827B85F39F0B9
:10353000B93FCCF3869577956795B395D9F73EF467
:1035400090958095709561957F4F8F4F9F4F08950F
:10355000991B79E004C0991F961708F0961B881FE5
:103560007A95C9F780950895A1E21A2EAA1BBB1B74
:10357000FD010DC0AA1FBB1FEE1FFF1FA217B3073F
:10358000E407F50720F0A21BB30BE40BF50B661F55
:10359000771F881F991F1A9469F760957095809519
:1035A00090959B01AC01BD01CF010895EE0FFF1F67
:0C35B0000590F491E02D0994F894FFCFF1
:1035BC007F7F808008F40100000000D805B905ACBD
:1035CC000AAC0AE2087705AC0A130500000000D823
:1035DC0005B90567049A05E2087705AE0A130500DC
:1035EC00000000D1067D0772061E07A30681069512
:1035FC00060000000038040B04AA07E1030404F1E0
:10360C0003E2030D0A004E6F20646174610009002F
:10361C002F003A004320280046292C200025005278
:10362C00656164204448543232206661696C65647B
:10363C002C206572723D00656570726F6D2064653B
:10364C006275672000656570726F6D2064656275C8
:10365C006720203200443133004C4544004455412E
:10366C004C00534554005354415455530056455245
:10367C0053494F4E0048454C50004F464600424C73
:10368C00494E4B004C45445300524544004752456B
:10369C00454E00575249544500524541440052543E
:1036AC0043004448540043555252454E5400534134
:1036BC005645440045585452454D45004375727269
:1036CC00656E742074656D70202F2068756D69644B
:1036DC0069747920697320004D6178696D756D206E
:1036EC007265636F726465642074656D70202F2041
:1036FC0068756D69646974792069732000250A0DF9
:10370C004D696D696D756D207265636F726465646A
:10371C002074656D70202F2068756D6964697479EB
:06372C002069732000007B
:00000001FF
