:100000000C94DD020C9405030C9405030C94050379
:100010000C9405030C9405030C9405030C94050340
:100020000C9405030C9405030C9405030C94050330
:100030000C9405030C9405030C9405030C94050320
:100040000C94070F0C9405030C94D50E0C94AF0E72
:100050000C9405030C9405030C9405030C94050300
:100060000C94900D0C940503000000002400270060
:100070002A0000000000250028002B00456E746552
:100080007220636F6D6D616E6473206F72202748FC
:10009000454C50270053656E642027592720746F04
:1000A000207365742074686520636C6F636B2C200B
:1000B00073656E6420274E2720746F2073746172FD
:1000C0007420616761696E3A2000456E74657265DF
:1000D000642054696D657374616D703A2000456EDB
:1000E00074657220446179204F66205765656B20E6
:1000F00028312064696769742C20312D372C2061E8
:1001000072626974726172696C792031203D204D90
:100110006F6E2C2037203D2053756E293A20004504
:100120006E746572205365636F6E6420283220649C
:1001300069676974732C2030302D3539293A2000D5
:10014000456E746572204D696E7574652028322085
:100150006469676974732C2030302D3539293A2051
:1001600000456E74657220486F75722028322064D5
:1001700069676974732C20323420686F757220634C
:100180006C6F636B2C2030302D3233293A200045C0
:100190006E74657220596561722028322064696727
:1001A0006974732C2030302D3939293A2000456E7E
:1001B000746572204D6F6E74682028322064696700
:1001C0006974732C2030312D3132293A2000456E6C
:1001D00074657220446179206F66204D6F6E74687B
:1001E000202832206469676974732C2030312D33E4
:1001F00031293A2000436C6F636B2069732073656B
:1002000074207768656E20616C6C20646174612075
:10021000697320656E746572656420616E6420790F
:100220006F752073656E642027592720746F2063D3
:100230006F6E6669726D2E00496E76616C6964201E
:10024000636F6D6D616E642C207479706520484514
:100250004C5000496E76616C696420636F6D6D610E
:100260006E642C20747970652048454C5000496EAE
:1002700076616C696420636F6D6D616E642C2074AF
:100280007970652048454C5000496E76616C696410
:1002900020636F6D6D616E642C20747970652048E9
:1002A000454C5000496E76616C696420636F6D6DDA
:1002B000616E642C20747970652048454C5000496B
:1002C0006E76616C696420636F6D6D616E642C2065
:1002D000747970652048454C50004C454420526567
:1002E00064004C454420477265656E004C454420CF
:1002F0006F666600426C696E6B696E6720626F7430
:1003000068206F6E206475616C204C454400426C1F
:10031000696E6B696E672072656400426C696E6B12
:10032000696E6720677265656E00443133206F6EB9
:1003300000443133206F666600426C696E6B696EF3
:10034000672044313300496E76616C696420636FC5
:100350006D6D616E642C20747970652048454C5039
:10036000005254432052454144207C2052544320A3
:100370005752495445207C2028757064617465206B
:100380002F20726561642074696D65290A0A0D5613
:10039000455253494F4E207C202863757272656E1A
:1003A000742076657273696F6E290A0D2D2D2D2DBF
:1003B0002D2D2D2D2D2D2D2D2D2D2D2D2D2D2D2D6D
:1003C0002D2D2D2D2D004448542043555252454E7D
:1003D00054207C20444854205341564544207C20DE
:1003E0004448542045585452454D45207C2028739C
:1003F000686F77207468652063757272656E742CFF
:100400002073617665642C2065787472656D652053
:1004100074656D70202F2068756D69646974792921
:100420000A0041444420582059207C2028616464FB
:10043000205820616E642059290A00290A0A0D53A8
:100440005441545553204C454453207C2028736814
:100450006F77206C656420737461747573290A006A
:1004600053455420424C494E4B2058207C20287341
:100470006574207468652064656C617920746F20F0
:1004800058206D732C206D696E696D756D20004C60
:10049000454420475245454E207C204C454420523F
:1004A0004544207C204C4544204F4646207C204C2F
:1004B000454420424C494E4B207C204C454420442E
:1004C00055414C20424C494E4B207C2028636F6E96
:1004D00074726F6C20746865206475616C20636F42
:1004E0006C6F72204C4544290A00443133204F4E32
:1004F000207C20443133204F4646207C2044313339
:1005000020424C494E4B207C2028636F6E74726FE2
:100510006C2070696E203133204C4544290A000D4F
:100520002D2D2D2D2D2D2D2D2D2D2D2D2D2D2D2DFB
:100530002D2D2D2D2D2D2D2D2D0A0D417661696C22
:1005400061626C6520636F6D6D616E64733A005615
:10055000657273696F6E3A200052652D656E746521
:10056000722074686520636F6D6D616E64000000B9
:1005700000002300260029000404040404040404E9
:10058000020202020202030303030303010204083E
:1005900010204080010204081020010204081020ED
:1005A0000000000800020100000304070000000032
:1005B0000000000032300000101011241FBECFEFE9
:1005C000D8E0DEBFCDBF24E0ACE5B2E001C01D92B3
:1005D000A630B207E1F712E0A0E0B1E0ECE0F6E30C
:1005E00002C005900D92AC35B107D9F712E0CDED00
:1005F000D2E004C02197FE010E94FE1ACC3DD10733
:10060000C9F70E9418100C9489180C9400008132CC
:1006100008F041C0909148039111FCCF91E0909374
:100620004803909347032FEF20934603109245030E
:10063000280F209344039093430390914303906DBC
:1006400090934303909142039130F9F41092420346
:10065000909143039093BB009091BC0093FDF8CF21
:1006600095EC9093BC00909148039130E1F3909108
:100670004503981710F480914503A2E2B3E0E9E442
:10068000F3E090E0981303C0089595EEEACF2D9122
:1006900021939F5FF7CF80E00895613208F048C052
:1006A000909148039111FCCF92E0909348034093BE
:1006B00047039FEF909346031092450360934403D2
:1006C000A2E0B3E0E2E2F3E090E069132BC0109205
:1006D000430390914303880F892B809343038091B8
:1006E0004203813019F510924203809143038093B5
:1006F000BB008091BC0083FDF8CF85EC8093BC00EB
:10070000809148038230E1F3809146038F3F91F05E
:1007100080914603803281F080914603803371F0EE
:1007200084E008952D9121939F5FCFCF85EEE6CF92
:1007300081E0089580E0089582E0089583E00895BF
:10074000482F60910103809100030E944D03109295
:10075000FF02109201031092FE020895E091F2024E
:10076000F091F3020190F081E02D682F82EF92E08A
:10077000099480EC93E09093EF028093EE02089549
:10078000089588EC93E09093ED028093EC02089535
:10079000089585ED8093BC008091BC0084FDFCCF62
:1007A0001092480308952091C902260F3327331F62
:1007B00021323105ECF420914803FC0190E080E007
:1007C000243069F082E00895A091C9022191AC0122
:1007D00047555D4FA40FB52FB11D2C930196861779
:1007E00098F38091C902680F6093C90280E0089570
:1007F00081E008950895E091F1028091F002E817F8
:1008000030F4F0E0E75BFC4F808190E008958FEFDB
:100810009FEF08959091F1028091F0022FEF3FEF4A
:10082000981748F4E92FF0E0E75BFC4F208130E0B7
:100830009F5F9093F102C90108958091F002909119
:10084000F102891B990B0895CF92DF92EF92FF92EC
:100850000F931F93CF93DF937C01CB018A012091EB
:10086000FE02222389F0EB016B01C40ED51ECC15CC
:10087000DD0569F06991D701ED91FC910190F0815E
:10088000E02DC7010995F3CF642F0E94D303C8015F
:10089000DF91CF911F910F91FF90EF90DF90CF905C
:1008A0000895CF93DF931F92CDB7DEB76983209170
:1008B000FE022223F9F020910103203258F021E0BA
:1008C00030E0FC013383228390E080E00F90DF91E1
:1008D000CF9108958091FF02E82FF0E0EE5FFC4F8A
:1008E000998190838F5F8093FF028093010381E061
:1008F00090E0ECCF61E0CE0101960E94D303F7CFE8
:100900006F927F928F929F92AF92BF92CF92DF921F
:10091000EF92FF920F931F93CF93DF93CDB7DEB784
:10092000AC970FB6F894DEBF0FBECDBFDC011696B4
:10093000ED91FC91319609F48BC059013A016B019C
:100940008C01FE0131964F0188E2DF011D928A95EC
:10095000E9F7D801ED91FC910484F585E02DB4010F
:10096000C80109957C01892B09F05CC01AA619A65B
:100970001CA61BA6D801ED91FC910684F785E02DFD
:100980009E01255D3F4FAE01475D5F4FB401C80139
:1009900009957C01892B09F045C0A114B10439F0F7
:1009A00088E2F401D50101900D928A95E1F7C11416
:1009B000D10409F189A59AA521E030E097FF02C092
:1009C0002FEF3FEF9F77829FB001839F700D929F23
:1009D000700D1124072E000C880B990B0E9496189D
:1009E00020E030E040E251E40E94281AF6016083E2
:1009F00071838283938361147104A1F06BA57CA53C
:100A0000072E000C880B990B0E94961820E030E00E
:100A100040E251E40E94281AD3016D937D938D9397
:100A20009C931397C701AC960FB6F894DEBF0FBE28
:100A3000CDBFDF91CF911F910F91FF90EF90DF908D
:100A4000CF90BF90AF909F908F907F906F900895C0
:100A500087E1E82EF12CE6CF8F929F92AF92BF9262
:100A6000CF92DF92EF92FF920F931F93CF93DF937A
:100A7000EC018B016A017901E881F9810284F38537
:100A8000E02D0995B82EB801685F7F4FE881F981A4
:100A90000284F385E02DCE010995982EB801605FA0
:100AA0007F4FE881F9810284F385E02DCE0109951D
:100AB000A82EB801685E7F4FE881F9810284F38532
:100AC000E02DCE010995882EB801605E7F4FE88148
:100AD000F9810284F385E02DCE0109959B2D990DB6
:100AE0009A0D980D891319C09A2D882DF6019183BE
:100AF00080839B2D892DF7019183808390E080E096
:100B0000DF91CF911F910F91FF90EF90DF90CF90E9
:100B1000BF90AF909F908F90089585E190E0F0CFC7
:100B200047E050E080E0FB012191BF01042E01C0AD
:100B3000220F0A94EAF7820F41505109A0F7089555
:100B4000DC0117967C936E931697FB01E457FA4FDE
:100B5000E4911896EC93189768587A4FFB016491CA
:100B600019966C930895CF92DF92EF92FF920F93B4
:100B70001F93CF93DF93EC017A0169010E94A005D6
:100B8000E881F9810480F581E02D9801A601B70183
:100B9000CE01DF91CF911F910F91FF90EF90DF90E9
:100BA000CF900994CF92DF92EF92FF920F931F9311
:100BB000CF93DF93EC017A0169010E94A005E881DF
:100BC000F9810190F081E02D9801A601B701CE01D5
:100BD000DF91CF911F910F91FF90EF90DF90CF9019
:100BE0000994CF92DF92EF92FF920F931F93CF93CE
:100BF000DF93CDB7DEB728970FB6F894DEBF0FBEF0
:100C0000CDBFDC011696ED91FC91319609F440C000
:100C10008A017B0119821A821B821C821D821E821C
:100C20001F821886DC01ED91FC910480F581E02D96
:100C3000AE014B5F5F4FBE016F5F7F4F09956C0147
:100C4000892BB1F4E114F10441F069817A818B813F
:100C50009C810E949A1AF70160830115110541F0E9
:100C60006D817E818F8198850E949A1AD8016C933C
:100C7000C60128960FB6F894DEBF0FBECDBFDF9138
:100C8000CF911F910F91FF90EF90DF90CF9008953B
:100C900087E1C82ED12CECCFCF93C62F91E0909353
:100CA000FE0298E6909300031092FF021092010357
:100CB000682F82EF92E00E9451046C2F82EF92E045
:100CC0000E94510481E0CF910C94A00391E0909395
:100CD000FE0298E6909300031092FF021092010327
:100CE000682F82EF92E00E94510481E00C94A003EF
:100CF0006AE00E94D01A292F30E1839FC00111249D
:100D0000822B0895982F92959F708F702AE0929F62
:100D1000800D11240895FC01538D448D252F30E062
:100D2000842F90E0821B930B541710F0CF960895F8
:100D300001970895FC01918D828D981761F0A28D25
:100D4000AE0FBF2FB11D5D968C91928D9F5F9F73EB
:100D5000928F90E008958FEF9FEF0895FC01918DA1
:100D6000828D981731F0828DE80FF11D858D90E00E
:100D700008958FEF9FEF0895FC01918D228D892FAB
:100D800090E0805C9F4F821B91098F739927089593
:100D9000FC01A48DA80FB92FB11DA35ABF4F2C91F0
:100DA000848D90E001968F739927848FA689B789E7
:100DB0002C93A089B1898C91837080648C93938DDE
:100DC000848D981306C00288F389E02D80818F7D81
:100DD00080830895EF92FF920F931F93CF93DF9339
:100DE000EC0181E0888F9B8D8C8D98131AC0E88967
:100DF000F989808185FF15C09FB7F894EE89FF8936
:100E00006083E889F98980818370806480839FBFD3
:100E100081E090E0DF91CF911F910F91FF90EF90D3
:100E20000895F62E0B8D10E00F5F1F4F0F731127E3
:100E3000E02E8C8D8E110CC00FB607FCFACFE8891E
:100E4000F989808185FFF5CFCE010E94C806F1CFD8
:100E5000EB8DEC0FFD2FF11DE35AFF4FF0829FB792
:100E6000F8940B8FEA89FB8980818062CFCFCF9382
:100E7000DF93EC01888D8823B9F0AA89BB89E889C2
:100E8000F9898C9185FD03C0808186FD0DC00FB668
:100E900007FCF7CF8C9185FFF2CF808185FFEDCFE6
:100EA000CE010E94C806E9CFDF91CF91089589E66F
:100EB00093E00E94BC0621E0892B09F420E0822FF8
:100EC000089580E090E0892B29F00E945707811156
:100ED0000C9400000895DC01ED91FC910190F081EB
:100EE000E02D0994EF92FF920F931F93CF93DF931E
:100EF0008C017B01D0E0C0E0F701EC0FFD1F649195
:100F0000662361F0D801ED91FC910190F081E02D14
:100F1000C8010995892B11F02196EECFCE01DF9102
:100F2000CF911F910F91FF90EF900895AF92BF92D4
:100F3000CF92DF92EF92FF920F931F93CF93DF93A5
:100F40006C017B018B01040F151FEB015E01AE18D4
:100F5000BF08C017D10759F06991D601ED91FC91F6
:100F60000190F081E02DC6010995892B79F7C50123
:100F7000DF91CF911F910F91FF90EF90DF90CF9075
:100F8000BF90AF90089590E080E00895833081F0A5
:100F900028F4813099F08230A9F008958730A9F0C3
:100FA0008830C9F08430B1F4809180008F7D03C017
:100FB000809180008F7780938000089584B58F772B
:100FC00084BD089584B58F7DFBCF8091B0008F776D
:100FD0008093B00008958091B0008F7DF9CFCF93BA
:100FE000DF93EDEAF5E08491E9E9F5E0D491E5E8F5
:100FF000F5E0C491CC23A1F081110E94C607EC2F2B
:10100000F0E0EE0FFF1FE259FA4FA591B491EC9179
:10101000ED2381E090E009F480E0DF91CF91089525
:1010200080E090E0FACF1F93CF93DF93282F30E03A
:10103000F901E056FA4F8491F901E457FA4FD4913F
:10104000F901E858FA4FC491CC23A9F0162F811169
:101050000E94C607EC2FF0E0EE0FFF1FEE58FF4F87
:10106000A591B4918FB7F894EC91111108C0D09567
:10107000DE23DC938FBFDF91CF911F910895DE2B8C
:10108000F8CF1092480381E0809347031092420307
:1010900061E082E10E94130861E083E10E9413088D
:1010A000E9EBF0E080818E7F808380818D7F80837B
:1010B00088E48093B80085E48093BC000895CF93C2
:1010C000DF9390E0FC01E457FA4F249188589A4F3F
:1010D000FC0184918823D1F090E0880F991FFC01D6
:1010E000E859FF4FA591B491FC01EE58FF4FC5910F
:1010F000D49161110EC09FB7F8948C91E22FE095C6
:101100008E238C932881E223E8839FBFDF91CF91C8
:1011100008958FB7F894EC91E22BEC938FBFF6CF44
:10112000789484B5826084BD84B5816084BD85B5C2
:10113000826085BD85B5816085BDEEE6F0E0808189
:1011400081608083E1E8F0E01082808182608083AA
:10115000808181608083E0E8F0E08081816080832D
:10116000E1EBF0E0808184608083E0EBF0E080815F
:1011700081608083EAE7F0E0808184608083808101
:1011800082608083808181608083808180688083A9
:101190001092C10008958130910539F0880F991F90
:1011A000880F991F05970197F1F708953FB7F894B5
:1011B0008091610290916202A0916302B0916402F9
:1011C00026B5A89B05C02F3F19F00196A11DB11DA2
:1011D0003FBFBA2FA92F982F8827BC01CD01620FDE
:1011E000711D811D911D42E0660F771F881F991F99
:1011F0004A95D1F708957F928F929F92AF92BF92B6
:10120000CF92DF92EF92FF920F931F93CF93DF93D2
:10121000EC01162F7A0169010E94D6084B015C018E
:10122000712C1111788410E000E060E070E0CB01D7
:101230002A813B814C815D81261737074807590772
:10124000F4F00115110561F5C7011E141F0464F1C6
:101250000E94D608681979098A099B09E985F0E096
:10126000EE0FFF1FE259FA4FA591B4912C910F5F39
:101270001F4F38852323271105C097FFD9CF6FEF64
:101280007FEFCB01DF91CF911F910F91FF90EF90F6
:10129000DF90CF90BF90AF909F908F907F900895F8
:1012A0001C141D04ACF6C6010E94CB08D1CF2FB789
:1012B000F89460915D0270915E0280915F0290915E
:1012C00060022FBF08958F929F92AF92BF92EF92CC
:1012D000FF920F931F93CF93DF937B018C01D0E09C
:1012E000C0E00E945709609371037093720380936A
:1012F000730390937403E0916903F0916A0302848D
:10130000F385E02D89E693E0099597FF27C00E94B9
:1013100057098090710390907203A0907303B0906E
:101320007403681979098A099B0980906D0390906C
:101330006E03A0906F03B0907003681579058A055D
:101340009B05C8F2CE01DF91CF911F910F91FF90C5
:10135000EF90BF90AF909F908F900895F801819388
:101360008F012196EC16FD0609F0BBCFEBCF86E08E
:101370008093040180938D0261E084E00E94130851
:1013800060E085E00C94130881110AC010928D0270
:1013900060E084E00E94130860E085E00C9413088C
:1013A000863011F40C94B70987E080930401809390
:1013B0008D0260E084E00E94130861E0EECFBF92EE
:1013C000CF92DF92EF92FF920F931F93CF93DF9311
:1013D00000D000D000D01F92CDB7DEB780E00E94D1
:1013E000660687E00E9407031092F1028093F002E4
:1013F0008730E1F582EF92E00E940A040E948206A3
:10140000B82E82EF92E00E940A040E948206C82E43
:1014100082EF92E00E940A04182F86FF3EC08F716F
:101420000E9482060CE015FD00E0080F82EF92E0BA
:101430000E940A040E948206D82E82EF92E00E9447
:101440000A040E948206E82E82EF92E00E940A04BB
:1014500010E087FD14E68F770E948206F82E82EF57
:1014600092E00E940A040E948206180F2B2D3C2D48
:10147000402F5D2DB701812F90E027960FB6F8948D
:10148000DEBF0FBECDBFDF91CF911F910F91FF90B7
:10149000EF90DF90CF90BF9008958F730E948206E7
:1014A000082FC4CFCF93DF93EB010E94660681E043
:1014B0000E9407031092F1028093F00282EF92E003
:1014C0000E940A04888381E0DF91CF910895EF9212
:1014D000FF921F93CF93DF931F92CDB7DEB77C01AE
:1014E000162FBE016F5F7F4F8EE00E94520A81115E
:1014F00008C080E00F90DF91CF911F91FF90EF9097
:10150000089581E08093FE0288E6809300031092A4
:10151000FF0210920103113089F587E090E00E94EC
:10152000AE03F70180810E94780690E00E94AE032E
:10153000898185608983F70181810E94780690E026
:101540000E94AE03F70182810E94780690E00E941B
:10155000AE03F70184810E94780690E00E94AE03FA
:1015600081E00E94A0038111C4CF69818EE00E94B6
:101570004C068111BECF812F8770BCCF8BE090E0ED
:101580000E94AE0389818660D5CF0E94A519EF9293
:10159000FF920F931F93CF93DF93EC018B0188E2AF
:1015A000FB0111928A95E9F761E08E810E945F0844
:1015B00060E08E810E94130888EE93E00E94CB08C1
:1015C00061E08E810E94130860E08E810E945F08B6
:1015D00088E290E00E94CB08E881F9810084F185DF
:1015E000E02D26E030E04AE050E060E0CE010995D1
:1015F0006E317105810591056CF4982F872F762F38
:1016000066276061CB01DF91CF911F910F91FF9011
:10161000EF900895E881F9810084F185E02D26E0BE
:1016200030E04AE050E061E0CE0109957801F8E24F
:10163000EF0EF11C623371058105910534F4982F8A
:10164000872F762F66276161DDCFE881F9810084DD
:10165000F185E02D26E030E04AE050E060E0CE0188
:101660000995683171058105910534F4982F872F0C
:10167000762F66276261C6CFE881F9810084F18503
:10168000E02D26E030E04AE050E061E0CE0109952F
:101690006B3071058105910534F4982F872F762FD3
:1016A00066276361AFCF21E069327105810591053D
:1016B0000CF420E0F80121938F01EE16FF0629F6C5
:1016C000E881F9810084F185E02D26E030E04AE0F0
:1016D00050E060E0CE010995683171058105910502
:1016E00034F4982F872F762F662764618BCF70E0B4
:1016F00060E088CFFF920F931F93CF93DF93EC01AD
:101700008B01FB01F0800E948F19F81621F06F2DDC
:10171000CE010E949719F801F1802196CE010E9416
:101720008F19F81621F06F2DCE010E949719C8016C
:10173000DF91CF911F910F91FF900895FB010190D0
:101740000020E9F73197AF01461B570BDC01ED9103
:10175000FC910280F381E02D09948F929F92AF92C9
:10176000BF92EF92FF920F931F93CF93DF93CDB76A
:10177000DEB7A1970FB6F894DEBF0FBECDBF7C01D8
:10178000FA01CB0119A2223008F42AE08E010F5D84
:101790001F4F822E912CB12CA12CBF01A5019401C9
:1017A0000E94DC1AF901CA016A300CF5605DD801AB
:1017B0006E938D01232B242B252B79F790E080E06D
:1017C000109721F0BD01C7010E949E0BA1960FB694
:1017D000F894DEBF0FBECDBFDF91CF911F910F9167
:1017E000FF90EF90BF90AF909F908F900895695CAD
:1017F000DECF462F50E070E060E02AE00C94AD0BA5
:10180000CF93C82F8A3028F460E389E693E00E94E2
:101810006B076C2F89E693E0CF910C94F90BCF9373
:10182000DF93EC018E818536D0F062E389E693E0A8
:101830000E946B078E810E94000C6DE289E693E0A6
:101840000E946B078D810E94000C6DE289E693E097
:101850000E946B078C81DF91CF910C94000C64EB9C
:1018600075E089E693E00E947207E4CFCF93DF939F
:10187000EC018A810E94000C6AE389E693E00E94F1
:101880006B0789810E94000C6AE389E693E00E945D
:101890006B078881DF91CF910C94000CCF92DF927F
:1018A000EF92FF92CF93DF936C01990FEE08FF0840
:1018B000F7FE1BC06DE289E693E00E946B07EC0126
:1018C00044275527BA014C195D096E097F092AE0A2
:1018D00089E693E00E94AD0B8C0F9D1FDF91CF91A5
:1018E000FF90EF90DF90CF9008952AE0B701A60116
:1018F00089E693E0DF91CF91FF90EF90DF90CF905A
:101900000C94AD0BBC0189E693E00C949E0B63E54F
:1019100071E00C949E0BCF93DF93BC0189E693E0BA
:101920000E949E0BEC0189E693E00E94870C8C0FCD
:101930009D1FDF91CF9108956F927F928F929F921A
:10194000AF92BF92CF92DF92EF92FF920F931F93CD
:10195000CF93DF93CDB7DEB729970FB6F894DEBFEC
:101960000FBECDBF20917502309176022115310551
:10197000C1F486E591E029960FB6F894DEBF0FBE5C
:10198000CDBFDF91CF911F910F91FF90EF90DF902E
:10199000CF90BF90AF909F908F907F906F900C945E
:1019A0008B0C60907302709074028C0128173907B9
:1019B0000CF48901D12CC12CC016D1060CF089C0C1
:1019C0005301730189E0E81AF1083701FE013196ED
:1019D0004F01C7010E948F19F40181934F01FFEF5E
:1019E000EF1AFF0AAE14BF04A1F78FEFC81AD80A86
:1019F000C6010E944E0C8EE591E00E94820C6F8120
:101A000089E693E00E94F90B80E691E00E94820C47
:101A10006E8189E693E00E94F90B80E691E00E94D6
:101A2000820C6D8189E693E00E94F90B8BE691E0D0
:101A30000E94820C6B8189E693E00E94F90B82E69A
:101A400091E00E94820C6A8189E693E00E94F90B82
:101A500082E691E00E94820C698189E693E00E940F
:101A6000F90B8BE691E00E94820CF8848F2D0F2CED
:101A7000000C990B0E944E0C84E691E00E94820CAF
:101A80006F2DFF0C770B880B990B0E94961826E69A
:101A900036E646EE5FE30E94D11820E030E040E0F9
:101AA00052E40E94BC190E949A1A862F660F990B65
:101AB0000E944E0C88E691E00E94820C8985082ED7
:101AC000000C990B0E944E0C8DE691E00E948B0C4D
:101AD00073CF29960FB6F894DEBF0FBECDBFDF914E
:101AE000CF911F910F91FF90EF90DF90CF90BF901B
:101AF000AF909F908F907F906F9008950F931F935A
:101B0000CF93DF93EC010E9472078C01CE010E94FB
:101B1000870C800F911FDF91CF911F910F91089536
:101B20001F920F920FB60F9211242F933F934F9352
:101B30005F936F937F938F939F93AF93BF93EF9335
:101B4000FF938091B900887F803609F44AC0F0F590
:101B5000883209F4A7C018F5803109F49BC0B8F4A5
:101B6000882309F4F9C0883009F494C0FF91EF91FB
:101B7000BF91AF919F918F917F916F915F914F91A5
:101B80003F912F910F900FBE0F901F9018958831A5
:101B900009F488C0803251F78093460314C0803422
:101BA00009F49DC040F48033B9F38833F9F680938B
:101BB000460385ECB0C0803509F485C0883509F44A
:101BC00096C0883499F60E94C903D0CF883909F4A9
:101BD0008CC038F5883729F050F4883611F08037FA
:101BE00029F683E0809348031092EB0257C08838AF
:101BF00009F47BC0803919F0803809F0B7CF8091A3
:101C0000EB02803208F071C0E091EB0281E08E0FB0
:101C10008093EB028091BB00F0E0E553FD4F8083A1
:101C20003DC0803B39F0E0F4803A09F479C0883A4D
:101C300009F09CCF84E0809348031092CA0210926E
:101C4000C902E091EC02F091ED0209958091C90280
:101C500081110FC081E08093C9021092A90209C0CE
:101C6000803C09F4A6CF883C09F4A3CF883B09F057
:101C70007DCFE091CA0281E08E0F8093CA02F0E02E
:101C8000E755FD4F80818093BB009091CA028091FF
:101C9000C90229C0809143038093BB0085EC8093E7
:101CA000BC0064CF9091450380914403981758F588
:101CB000E091450381E08E0F80934503F0E0EE5DF7
:101CC000FC4F8081E9CFE091450381E08E0F809346
:101CD00045038091BB00F0E0EE5DFC4F8083909166
:101CE0004503809144039817C8F285E8D8CFE09166
:101CF000450381E08E0F809345038091BB00F0E0A7
:101D0000EE5DFC4F80838091470381115CCF81E0C1
:101D10008093420384EA8093BC001092480326CF4C
:101D200085EC8093BC00109248038091EB028032D6
:101D300030F4E091EB02F0E0E553FD4F108260914A
:101D4000EB0270E0E091EE02F091EF028BEC92E09A
:101D500009951092EB020ACF1092460334CF1F92DE
:101D60000F920FB60F9211242F933F934F935F93CF
:101D70006F937F938F939F93AF93BF93EF93FF9353
:101D800089E693E00E94C806FF91EF91BF91AF9161
:101D90009F918F917F916F915F914F913F912F9183
:101DA0000F900FBE0F901F9018951F920F920FB6B5
:101DB0000F9211242F938F939F93EF93FF93E091B2
:101DC0007903F0917A038081E0917F03F0918003A1
:101DD00082FD1BC09081809182038F5F8F73209161
:101DE0008303821741F0E0918203F0E0E759FC4F52
:101DF000958F80938203FF91EF919F918F912F9107
:101E00000F900FBE0F901F9018958081F4CF1F92F6
:101E10000F920FB60F9211242F933F938F939F939E
:101E2000AF93BF9380915D0290915E02A0915F029B
:101E3000B091600230915C0223E0230F2D3758F5FA
:101E40000196A11DB11D20935C0280935D029093C9
:101E50005E02A0935F02B093600280916102909154
:101E60006202A0916302B09164020196A11DB11DAE
:101E70008093610290936202A0936302B093640224
:101E8000BF91AF919F918F913F912F910F900FBE76
:101E90000F901F90189526E8230F0296A11DB11DE3
:101EA000D2CFE2EFF2E01382128288EE93E0A0E05C
:101EB000B0E084839583A683B78385E491E0918322
:101EC00080830895E9E6F3E01382128288EE93E0BE
:101ED000A0E0B0E084839583A683B78383E391E099
:101EE0009183808385EC90E09587848784EC90E0F3
:101EF0009787868780EC90E0918B808B81EC90E0D7
:101F0000938B828B82EC90E0958B848B86EC90E0B7
:101F1000978B868B118E128E138E148E0895CF930D
:101F2000DF93C5E6D2E08BE091E09983888380E47B
:101F30009BE4ACE4B0E08A839B83AC83BD838FEFEA
:101F40009FEF9F838E838887898762E070E0CE0150
:101F50000E94A0058FE191E099838883DF91CF9162
:101F60000895CF93DF9300D000D0CDB7DEB71092A5
:101F7000700210926F028FEF93E090937202809341
:101F800071021092740210927302109276021092F3
:101F90007502BE016D5F7F4F90E080E00E94FC0FF4
:101FA000BE016F5F7F4F82E090E00E94FC0F2B81AB
:101FB0003C81309374022093730289819A819093BB
:101FC0007602809375021092790280916F0290914F
:101FD000700206969093780280937702281739074B
:101FE00024F490937402809373020F900F900F90DB
:101FF0000F90DF91CF9108950F931F93CF93DF93AD
:102000008C01EB010E948F198883C80101960E9400
:102010008F198983CE01DF91CF911F910F91089580
:102020000E94510F0E94620F0E948F0F0C94B10FFB
:10203000CF93DF93CDB7DEB764970FB6F894DEBFCA
:102040000FBECDBF0E949008E0917903F0917A0312
:1020500012E01083E0917503F09176031082E09115
:102060007703F09178038FEC808310928103E091E5
:102070007D03F0917E0386E08083E0917B03F09105
:102080007C03808180618083E0917B03F0917C03FD
:10209000808188608083E0917B03F0917C03808164
:1020A00080688083E0917B03F0917C0380818F7D49
:1020B00080831092F1021092F0021092FF021092AF
:1020C00001030E9441080E94C1030E94B90360E01D
:1020D0008EE00E944C060E94DF0929833A834B83DD
:1020E0005C838F838FE18D831E8362E0CE01019636
:1020F0000E94670A61E0CE0101960E94670A1C8A6D
:102100001A86BE01665F7F4F8FE00E94520A6A8581
:10211000862F837021F06C7F8FE00E944C068C89A3
:10212000882369F0BE016C5E7F4F8EE00E94520AE8
:10213000882329F06C896F778EE00E944C061092FC
:10214000950261E08DE00E945F0861E084E00E94FA
:102150005F0861E085E00E945F086CE770E089E657
:1021600093E00E947E0D8E010F5E1F4F3E0122E123
:10217000620E711C412C60E8562E53E0352E0E94F1
:1021800057097093A8026093A702209185023091AD
:102190008602621B730B68387341E0F130E020E087
:1021A0004BE852E06CE872E085E692E00E94F105AF
:1021B0007C01892B59F08FE691E00E94820CC701C7
:1021C0000E944E0C89E693E00E94870C80918C025D
:1021D00090910101891714F48093010190910301FA
:1021E000981714F48093030180918B029091000161
:1021F000891714F48093000190910201981714F448
:10220000809302018091A7029091A8029093860288
:10221000809385022091A7023091A80280918302C9
:1022200090918402A901481B590B4838534120F46E
:102230002817390708F07BC00E94DF0920937A0233
:1022400030937B0240937C0250937D0260937E0228
:1022500070937F028093800280918C028093810230
:1022600080918B028093820289E0EAE7F2E0DE014E
:10227000119601900D928A95E1F7809073029090EB
:102280007402CE0101966C01F12CE12CF601219033
:102290006F015401AE0CBF1CC5010E948F19281696
:1022A00021F0622DC5010E949719FFEFEF1AFF0A76
:1022B00029E0E216F10451F780917902811109C0F9
:1022C00080917502909176020196909376028093A8
:1022D0007502809173029091740209969093740232
:1022E000809373022091710230917202295031095A
:1022F0002817390740F480917702909178029093E3
:1023000074028093730263E772E090E080E00E94C1
:102310007A0B65E772E082E090E00E947A0B809190
:10232000A7029091A80290938402809383028091E7
:10233000A602882319F1E090A702F090A8028091EC
:102340008702909188029701281B390B8091050123
:10235000909106012817390788F00E94EF0761E085
:10236000892B29F00E94EF07019721F460E08DE0AE
:102370000E941308F0928802E09287028091A502E1
:10238000811104C08091A402882301F1E090A7028A
:10239000F090A8028091890290918A029701281BEF
:1023A000390B80910501909106012817390770F0CB
:1023B000809104019091A402992379F1873039F535
:1023C0000E94B709F0928A02E092890289E693E0BE
:1023D0000E94BC06892B71F089E693E00E949A0660
:1023E0000E94AA198093A302803201F59091A20263
:1023F00091113BC080E090E0892B09F4C0CE0E948F
:102400005707882309F4B9CE0E940000B6CE863063
:10241000C9F687E00E94C409D5CF90918D02981328
:1024200002C080E0F7CF9111CDCFF4CF8F37E9F420
:1024300089E693E00E94870C69E575E089E693E000
:102440000E947E0D109295021092A20210929002AC
:1024500010928F02109292021092910210929402A6
:102460001092930210928E02C5CF682F89E693E0F6
:102470000E946B07C090A302E091A20230E2C31653
:1024800019F04DE0C41216C6F0E0EB56FD4F108275
:10249000E0908E0262E06E1508F459C080918F02C0
:1024A000909190028431910541F00197C9F5809196
:1024B0009102909192020B9799F530919502E5E97E
:1024C000F2E020E08191882369F03D3211F422236B
:1024D00031F0082E000C990BC0970A97A0F42F5FDB
:1024E0002C3081F785E992E00E946B1821E02E0DD7
:1024F00020938E02EE2DF0E0EE0FFF1FE157FD4F0F
:102500009183808324C081E08E0D80938E02EE2D16
:10251000F0E0EE0FFF1FE157FD4F5182408217C0E0
:1025200067E871E085E992E00E94B219DD24D39456
:10253000DE0CF12CEE0CFF1CF701E157FD4F7F0183
:10254000892B09F030C0D0928E0211821082109235
:1025500095021092A202FDE0CF124CCF89E693E0E3
:102560000E94870CE0918F02F0919002E531F10515
:1025700008F09DC5E254FD4E0C94FE1AB5143B14B0
:102580005014DD13061457185718571857185718B2
:1025900057185718971457185718F2147E175718CA
:1025A000571857183F186BE871E085E992E00E94D0
:1025B000B219892B31F4D0928E0288E090E0F701B5
:1025C0009FCF60E971E085E992E00E94B219892B02
:1025D00029F4D0928E0281E090E0F1CF64E971E0BD
:1025E00085E992E00E94B219892B29F4D0928E02DB
:1025F00082E090E0E4CF6BE971E085E992E00E942F
:10260000B219892B29F4D0928E0283E090E0D7CFC3
:1026100063EA71E085E992E00E94B219892B29F4FE
:10262000D0928E0284E090E0CACF60EA71E085E942
:1026300092E00E94B219892B29F4D0928E0289E08F
:1026400090E0BDCF68EA71E085E992E00E94B2199E
:10265000892B29F4D0928E028AE090E0B0CF6CEA08
:1026600071E085E992E00E94B219892B29F4D09299
:102670008E028BE090E0A3CF62EB71E085E992E0FF
:102680000E94B219892B29F4D0928E0285E090E045
:1026900096CF67EB71E085E992E00E94B219892B31
:1026A00029F4D0928E0287E090E089CF6BEB71E045
:1026B00085E992E00E94B219892B29F4D0928E020A
:1026C00086E090E07CCF61EC71E085E992E00E94C9
:1026D000B219892B29F4D0928E028DE090E06FCF51
:1026E00067EC71E085E992E00E94B219892B29F428
:1026F000D0928E028EE090E062CF6CEC71E085E9C2
:1027000092E00E94B219892B29F4D0928E028FE0B8
:1027100090E055CF60ED71E085E992E00E94B2193A
:10272000892B29F4D0928E0280E190E048CF64EDAD
:1027300071E085E992E00E94B219892B41F4D092B0
:102740008E0221E130E0F7013183208300CF6CED70
:1027500071E085E992E00E94B219892B29F4D092A8
:102760008E0222E130E0EFCF62EE71E085E992E087
:102770000E94B219892B29F4D0928E0223E130E015
:10278000E2CF6AEE71E085E992E00E94B219892BEE
:1027900029F4D0928E0224E130E0D5CF6EEE71E0C4
:1027A00085E992E00E94B219D0928E02F701892B3E
:1027B00009F0B3CE2CE030E0C6CF6FE475E089E6D7
:1027C00093E00E9472072AE042E050E060E070E08F
:1027D00089E693E00E94AD0B6EE289E693E00E94E9
:1027E0006B072AE040E050E0BA0189E693E00E94DE
:1027F000AD0B2AE040E050E0BA0189E693E00E9488
:10280000AD0B89E693E00E94870C20CE6FE175E066
:1028100089E693E00E947E0D6AEE74E089E693E01B
:102820000E947E0D6FE874E089E693E00E947E0DC1
:1028300060E674E089E693E00E94720782E390E02C
:102840000E944E0C6BE374E089E693E00E947E0DDB
:1028500062E274E089E693E00E947E0D66EC73E02C
:1028600089E693E00E947E0D61E673E089E693E0DD
:102870000E947E0DEBCD80919102909192020B9778
:1028800061F48091930290919402823391052CF02F
:102890009093060180930501D9CD66E473E0E6CFFD
:1028A0008091910290919202059709F0CFCD80918D
:1028B000A60269E373E0811108C00E94EF0761E39B
:1028C00073E0892B11F06AE273E089E693E00E94DD
:1028D0007E0D8091A4029091A502911102C08823DF
:1028E000B9F090910401963041F46BE173E08823D4
:1028F00009F4BCCF64EF72E0B9CF973029F46EE0F1
:1029000073E08111F7CFB2CF882309F49FCDF2CFC6
:1029100080918D026CEE72E0882309F4A7CF62EEFD
:1029200072E0863009F4A2CF6AED72E09FCF809109
:102930009102909192028A30910579F08B30910545
:1029400081F06FEB72E0099709F090CF1092A60228
:1029500061E08DE00E94130879CD1092A60260E03C
:10296000F8CF81E08093A60271CD80919102909181
:1029700092028830910519F144F486309105C1F036
:10298000079771F064EA72E071CF8A30910521F106
:102990000B97C1F781E08093A5021092A40256CD57
:1029A0001092A4021092A50287E00E94C4094ECDA5
:1029B0001092A4021092A5020E94B70947CD8091FF
:1029C0009302909194020B9709F040CD1092A502CA
:1029D00081E08093A4023ACD1092A4021092A50245
:1029E00080E0E3CF80919102909192028D30910529
:1029F00031F00E9709F462C269E872E037CF198AA4
:102A00001A8A1B8A65EF71E089E693E00E947E0DC9
:102A1000F801232D11922A95E9F789E693E00E94A7
:102A2000870C6EEC71E089E693E00E947207E091FA
:102A30006903F0916A030084F185E02D89E693E053
:102A40000995892BA1F362E070E0C8010E94630937
:102A5000E0916903F0916A030084F185E02D89E635
:102A600093E00995892B59F0E0916903F0916A038D
:102A70000284F385E02D89E693E00995E9CF898901
:102A80008033D9F5C3010E946B188E87F801232D7E
:102A900011922A95E9F789E693E00E94870C6EEA85
:102AA00071E089E693E00E947207E0916903F0917A
:102AB0006A030084F185E02D89E693E00995892B6E
:102AC000A1F362E070E0C8010E946309E09169032C
:102AD000F0916A030084F185E02D89E693E0099581
:102AE000892B69F0E0916903F0916A030284F38510
:102AF000E02D89E693E00995E9CFC801C4CF898923
:102B00008033D9F5C3010E946B188F87F801232DFC
:102B100011922A95E9F789E693E00E94870C6FE805
:102B200071E089E693E00E947207E0916903F091F9
:102B30006A030084F185E02D89E693E00995892BED
:102B4000A1F362E070E0C8010E946309E0916903AB
:102B5000F0916A030084F185E02D89E693E0099500
:102B6000892B69F0E0916903F0916A030284F3858F
:102B7000E02D89E693E00995E9CFC801C4CF8989A2
:102B80008033D9F5C3010E946B18888BF801232D7F
:102B900011922A95E9F789E693E00E94870C61E695
:102BA00071E089E693E00E947207E0916903F09179
:102BB0006A030084F185E02D89E693E00995892B6D
:102BC000A1F362E070E0C8010E946309E09169032B
:102BD000F0916A030084F185E02D89E693E0099580
:102BE000892B69F0E0916903F0916A030284F3850F
:102BF000E02D89E693E00995E9CFC801C4CF898922
:102C00008033D9F5C3010E946B188C87F801232DFE
:102C100011922A95E9F789E693E00E94870C60E417
:102C200071E089E693E00E947207E0916903F091F8
:102C30006A030084F185E02D89E693E00995892BEC
:102C4000A1F362E070E0C8010E946309E0916903AA
:102C5000F0916A030084F185E02D89E693E00995FF
:102C6000892B69F0E0916903F0916A030284F3858E
:102C7000E02D89E693E00995E9CFC801C4CF8989A1
:102C80008033D9F5C3010E946B188B87F801232D7F
:102C900011922A95E9F789E693E00E94870C6FE18B
:102CA00071E089E693E00E947207E0916903F09178
:102CB0006A030084F185E02D89E693E00995892B6C
:102CC000A1F362E070E0C8010E946309E09169032A
:102CD000F0916A030084F185E02D89E693E009957F
:102CE000892B69F0E0916903F0916A030284F3850E
:102CF000E02D89E693E00995E9CFC801C4CF898921
:102D00008033D9F5C3010E946B188A87F801232DFF
:102D100011922A95E9F789E693E00E94870C6EEDFF
:102D200070E089E693E00E947E0DE0916903F091E6
:102D30006A030084F185E02D89E693E00995892BEB
:102D4000A1F361E070E0C8010E946309E0916903AA
:102D5000F0916A030084F185E02D89E693E00995FE
:102D6000892B69F0E0916903F0916A030284F3858D
:102D7000E02D89E693E00995E9CFC801C4CFC801E9
:102D80000E946B188D8789E693E00E94870C6AEC9D
:102D900070E089E693E00E947207CE010A960E94D5
:102DA0000F0C64E589E693E00E946B07CE010A965A
:102DB0000E94360C89E693E00E94870C65E970E07A
:102DC00089E693E00E947207E0916903F0916A033B
:102DD0000084F185E02D89E693E00995892BA1F324
:102DE00061E070E0C8010E946309E0916903F0911D
:102DF0006A030084F185E02D89E693E00995892B2B
:102E000059F0E0916903F0916A030284F385E02DA3
:102E100089E693E00995E9CF89898F7D893509F0A5
:102E2000F7CD81E08093FE0288E680930003109244
:102E3000FF021092010390E080E00E94AE038A85B9
:102E40000E947806682F82EF92E00E9451048B85E1
:102E50000E947806682F82EF92E00E9451048C85D0
:102E60000E947806682F82EF92E00E9451048D85BF
:102E7000811101C081E00E947806682F82EF92E004
:102E80000E9451048E850E947806682F82EF92E09E
:102E90000E9451048F850E947806682F82EF92E08D
:102EA0000E94510488890E947806682F82EF92E080
:102EB0000E94510481E00E94A003C8CA0E94DF0959
:102EC0002A873B874C875D876E877F87888BCE01FB
:102ED0000A960E940F0C60E289E693E00E946B075D
:102EE0000E94DF092A873B874C875D876E877F8733
:102EF000888BCE010A960E94360C83CC8091910279
:102F0000909192028231910509F444C08331910578
:102F100009F44DC06EE672E0419709F0A7CC82EF4C
:102F200091E00E94820C80918C02082E000C990B7B
:102F30000E944E0C84E691E00E94820C60918C020B
:102F4000062E000C770B880B990B0E94961826E62C
:102F500036E646EE5FE30E94D11820E030E040E024
:102F600052E40E94BC190E949A1A862F660F990B90
:102F70000E944E0C88E691E00E94820C80918B02A8
:102F8000082E000C990B0E944E0C8DE691E00E94D9
:102F90008B0C5CCA809193029091940218161906CA
:102FA0001CF40E949C0C52CA8AE090E0FACF8EE09A
:102FB00092E00E94820C80910301082E000C990B74
:102FC0000E944E0C84E691E00E94820C6091030105
:102FD000062E000C770B880B990B0E94961826E69C
:102FE00036E646EE5FE30E94D11820E030E040E094
:102FF00052E40E94BC190E949A1A862F660F990B00
:103000000E944E0C88E691E00E94820C80910201A1
:10301000082E000C990B0E944E0C83E392E00E9454
:10302000820C80910101082E000C990B0E944E0C1D
:1030300084E691E00E94820C60910101062E000C52
:10304000770B880B990B0E94961826E636E646EE1B
:103050005FE30E94D11820E030E040E052E40E949B
:10306000BC190E949A1A862F660F990B0E944E0C6B
:1030700088E691E00E94820C8091000181CF20912E
:10308000910230919202211540E8340769F0809155
:10309000930290919402811560E8960729F0820FBF
:1030A000931F0E944E0CADCB63E572E0DFCB68E36B
:1030B00072E0DCCBEC3008F09DC981E08E0F80938C
:1030C000A202F0E0EB56FD4FC082E82FF0E0EB5695
:1030D000FD4F10828FC9FC0188279927E894219120
:1030E0002032E9F3293010F02E30C8F32B3241F0B2
:1030F0002D3239F4689404C00E948C18820F911DFF
:10310000219120532A30C0F31EF4909581959F4F52
:103110000895F8940C94041B7AE0979F902D879F54
:10312000802D910D11240895E89409C097FB3EF479
:1031300090958095709561957F4F8F4F9F4F992304
:10314000A9F0F92F96E9BB279395F6958795779582
:103150006795B795F111F8CFFAF4BB0F11F460FF42
:103160001BC06F5F7F4F8F4F9F4F16C0882311F09A
:1031700096E911C0772321F09EE8872F762F05C0AE
:10318000662371F096E8862F70E060E02AF09A9549
:10319000660F771F881FDAF7880F9695879597F93E
:1031A00008950E94E4180C9455190E94471938F0AC
:1031B0000E944E1920F0952311F00C943E190C94A6
:1031C000441911240C9489190E94661970F3959F73
:1031D000C1F3950F50E0551F629FF001729FBB270E
:1031E000F00DB11D639FAA27F00DB11DAA1F649FAA
:1031F0006627B00DA11D661F829F2227B00DA11D5D
:10320000621F739FB00DA11D621F839FA00D611DE2
:10321000221F749F3327A00D611D231F849F600D03
:10322000211D822F762F6A2F11249F5750409AF02C
:10323000F1F088234AF0EE0FFF1FBB1F661F771FB8
:10324000881F91505040A9F79E3F510580F00C9483
:103250003E190C9489195F3FE4F3983ED4F38695A8
:1032600077956795B795F795E7959F5FC1F7FE2B23
:10327000880F911D9695879597F9089597F99F67FF
:1032800080E870E060E008959FEF80EC08950024EE
:103290000A941616170618060906089500240A94BB
:1032A00012161306140605060895092E0394000C41
:1032B00011F4882352F0BB0F40F4BF2B11F460FFD0
:1032C00004C06F5F7F4F8F4F9F4F089557FD9058F9
:1032D000440F551F59F05F3F71F04795880F97FBDA
:1032E000991F61F09F3F79F0879508951216130694
:1032F0001406551FF2CF4695F1DF08C016161706C3
:103300001806991FF1CF86957105610508940895F7
:10331000E894BB2766277727CB0197F90895F99999
:10332000FECF92BD81BDF89A992780B50895262FCA
:10333000F999FECF1FBA92BD81BD20BD0FB6F8949A
:10334000FA9AF99A0FBE0196089581E090E0F894F8
:103350000C94041B9111089581568A5108F48052EF
:1033600085580895FB01DC018D91019080190110B1
:10337000D9F3990B08955058BB27AA270E94D31957
:103380000C9455190E94471938F00E944E1920F0EC
:1033900039F49F3F19F426F40C9444190EF4E09587
:1033A000E7FB0C943E19E92F0E94661958F3BA17EF
:1033B000620773078407950720F079F4A6F50C944B
:1033C00088190EF4E0950B2EBA2FA02D0B01B90130
:1033D00090010C01CA01A0011124FF27591B99F08B
:1033E000593F50F4503E68F11A16F040A22F232F97
:1033F000342F4427585FF3CF469537952795A795E7
:10340000F0405395C9F77EF41F16BA0B620B730B8D
:10341000840BBAF09150A1F0FF0FBB1F661F771FFE
:10342000881FC2F70EC0BA0F621F731F841F48F4B3
:10343000879577956795B795F7959E3F08F0B0CF3C
:103440009395880F08F09927EE0F97958795089523
:103450000E943C1A0C9455190E944E1958F00E9473
:10346000471940F029F45F3F29F00C943E1951119F
:103470000C9489190C9444190E94661968F39923D5
:10348000B1F3552391F3951B550BBB27AA27621760
:103490007307840738F09F5F5F4F220F331F441F6D
:1034A000AA1FA9F335D00E2E3AF0E0E832D09150A1
:1034B0005040E695001CCAF72BD0FE2F29D0660F8E
:1034C000771F881FBB1F261737074807AB07B0E8D1
:1034D00009F0BB0B802DBF01FF2793585F4F3AF0D7
:1034E0009E3F510578F00C943E190C9489195F3F6A
:1034F000E4F3983ED4F3869577956795B795F7955D
:103500009F5FC9F7880F911D9695879597F9089544
:10351000E1E0660F771F881FBB1F621773078407E0
:10352000BA0720F0621B730B840BBA0BEE1F88F7EF
:10353000E09508950E94A11A6894B1110C9489191C
:1035400008950E946E1988F09F5798F0B92F992717
:10355000B751B0F0E1F0660F771F881F991F1AF07E
:10356000BA95C9F714C0B13091F00E948819B1E042
:1035700008950C948819672F782F8827B85F39F041
:10358000B93FCCF3869577956795B395D9F73EF417
:1035900090958095709561957F4F8F4F9F4F0895BF
:1035A000991B79E004C0991F961708F0961B881F95
:1035B0007A95C9F780950895A1E21A2EAA1BBB1B24
:1035C000FD010DC0AA1FBB1FEE1FFF1FA217B307EF
:1035D000E407F50720F0A21BB30BE40BF50B661F05
:1035E000771F881F991F1A9469F7609570958095C9
:1035F00090959B01AC01BD01CF010895EE0FFF1F17
:0C3600000590F491E02D0994F894FFCFA0
:10360C007F7F808007F40100000000F105D205C522
:10361C000AC50AFB089005C50A2C0500000000F13C
:10362C0005D2058004B305FB089005C70A2C0500DC
:10363C00000000EA0696078B063707BC069A06AE12
:10364C00060000000051042404C307FA031D040AF9
:10365C0004FB030D0A004E6F2064617461000900C5
:10366C002F003A004320280046292C200025005228
:10367C00656164204448543232206661696C65642B
:10368C002C206572723D004C4544004455414C0061
:10369C0053455400535441545553005645525349C5
:1036AC004F4E0048454C50004F464600424C494E48
:1036BC004B004C4544530052454400475245454E3F
:1036CC00005752495445005245414400525443005E
:1036DC004448540043555252454E540053415645AC
:1036EC00440045585452454D450041444400443132
:1036FC00330043757272656E742074656D70202F83
:10370C002068756D696469747920697320004D6156
:10371C0078696D756D207265636F72646564207471
:10372C00656D70202F2068756D69646974792069E6
:10373C00732000250A0D4D696D696D756D207265DC
:10374C00636F726465642074656D70202F206875DA
:0C375C006D6964697479206973200000B5
:00000001FF
