:100000000C94AD020C94D5020C94D5020C94D5023C
:100010000C94D5020C94D5020C94D5020C94D50204
:100020000C94D5020C94D5020C94D5020C94D502F4
:100030000C94D5020C94D5020C94D5020C94D502E4
:100040000C949C0E0C94D5020C946A0E0C94440EE5
:100050000C94D5020C94D5020C94D5020C94D502C4
:100060000C94250D0C94D5020000000024002700FC
:100070002A0000000000250028002B00456E746552
:100080007220636F6D6D616E6473206F72202748FC
:10009000454C50270053656E642027592720746F04
:1000A000207365742074686520636C6F636B2C200B
:1000B00073656E6420274E2720746F2073746172FD
:1000C0007420616761696E3A2000456E74657265DF
:1000D000642054696D657374616D703A2000456EDB
:1000E00074657220446179204F66205765656B20E6
:1000F00028312064696769742C20312D372C2061E8
:1001000072626974726172696C792031203D204D90
:100110006F6E2C2037203D2053756E293A20004504
:100120006E746572205365636F6E6420283220649C
:1001300069676974732C2030302D3539293A2000D5
:10014000456E746572204D696E7574652028322085
:100150006469676974732C2030302D3539293A2051
:1001600000456E74657220486F75722028322064D5
:1001700069676974732C20323420686F757220634C
:100180006C6F636B2C2030302D3233293A200045C0
:100190006E74657220596561722028322064696727
:1001A0006974732C2030302D3939293A2000456E7E
:1001B000746572204D6F6E74682028322064696700
:1001C0006974732C2030312D3132293A2000456E6C
:1001D00074657220446179206F66204D6F6E74687B
:1001E000202832206469676974732C2030312D33E4
:1001F00031293A2000436C6F636B2069732073656B
:1002000074207768656E20616C6C20646174612075
:10021000697320656E746572656420616E6420790F
:100220006F752073656E642027592720746F2063D3
:100230006F6E6669726D2E00496E76616C6964201E
:10024000636F6D6D616E642C207479706520484514
:100250004C5000496E76616C696420636F6D6D610E
:100260006E642C20747970652048454C5000496EAE
:1002700076616C696420636F6D6D616E642C2074AF
:100280007970652048454C5000496E76616C696410
:1002900020636F6D6D616E642C20747970652048E9
:1002A000454C5000496E76616C696420636F6D6DDA
:1002B000616E642C20747970652048454C50004C68
:1002C000454420526564004C454420477265656E84
:1002D000004C4544206F666600426C696E6B696E27
:1002E0006720626F7468206F6E206475616C204CAB
:1002F000454400426C696E6B696E672072656400EC
:10030000426C696E6B696E6720677265656E00444A
:100310003133206F6E00443133206F666600426CCB
:10032000696E6B696E67204431330052544320522A
:10033000454144207C205254432057524954450A99
:100340000D757064617465202F207265616420747E
:10035000696D650A0A0D56455253494F4E0A0D63A1
:10036000757272656E742076657273696F6E0A0DB0
:100370002D2D2D2D2D2D2D2D2D2D2D2D2D2D2D2DAD
:100380002D2D2D2D2D2D2D2D2D0044485420435540
:100390005252454E54207C204448542053415645E7
:1003A00044207C204448542045585452454D450A29
:1003B0000D73686F77207468652063757272656E5F
:1003C000742C2073617665642C2065787472656D79
:1003D000652074656D70202F2068756D696469747F
:1003E000790A000A0D535441545553204C45445347
:1003F0000A0D666F72206C65642073746174757386
:100400000A0053455420424C494E4B20580A0D7364
:100410006574207468652064656C617920746F2050
:1004200058206D732C206D696E696D756D20004CC0
:10043000454420475245454E207C204C454420529F
:100440004544207C204C4544204F4646207C204C8F
:10045000454420424C494E4B207C204C454420448E
:1004600055414C20424C494E4B0A0D636F6E7472DD
:100470006F6C20746865206475616C20636F6C6FAD
:1004800072204C45440A00443133204F4E207C20DA
:10049000443133204F4646207C2044313320424CA7
:1004A000494E4B0A0D636F6E74726F6C20746865F1
:1004B000204C4544206F6E2070696E2031330A0055
:1004C0000D2D2D2D2D2D2D2D2D2D2D2D2D2D2D2D7C
:1004D0002D2D2D2D2D2D2D2D2D2D0A0D41766169C2
:1004E0006C61626C6520636F6D6D616E64733A0060
:1004F00056657273696F6E3A200052652D656E7491
:1005000065722074686520636F6D6D616E640000B4
:10051000000000230026002900040404040404044D
:1005200004020202020202030303030303010204A2
:100530000810204080010204081020010204081065
:100540002000000008000201000003040700000072
:100550000000000000323000460F11241FBECFEF14
:10056000D8E0DEBFCDBF23E0ACE0B2E001C01D9219
:10057000A43AB207E1F712E0A0E0B1E0E2EAF1E369
:1005800002C005900D92AC30B107D9F712E0CDEA68
:10059000D2E004C02197FE010E94C918CC3AD107CD
:1005A000C9F70E944C0F0C9437160C94000081324E
:1005B00008F041C09091E6029111FCCF91E0909338
:1005C000E6029093E5022FEF2093E4021092E302FB
:1005D000280F2093E2029093E1029091E102906D46
:1005E0009093E1029091E0029130F9F41092E002D0
:1005F0009091E1029093BB009091BC0093FDF8CFE5
:1006000095EC9093BC009091E6029130E1F39091CB
:10061000E302981710F48091E302A0ECB2E0E7EE59
:10062000F2E090E0981303C0089595EEEACF2D9183
:1006300021939F5FF7CF80E00895613208F048C0B2
:100640009091E6029111FCCF92E09093E6024093E4
:10065000E5029FEF9093E4021092E3026093E202BE
:10066000A0EAB2E0E0ECF2E090E069132BC0109257
:10067000E1029091E102880F892B8093E102809141
:10068000E002813019F51092E0028091E10280933E
:10069000BB008091BC0083FDF8CF85EC8093BC004B
:1006A0008091E6028230E1F38091E4028F3F91F085
:1006B0008091E402803281F08091E402803371F015
:1006C00084E008952D9121939F5FCFCF85EEE6CFF3
:1006D00081E0089580E0089582E0089583E0089520
:1006E000482F60919F0280919E020E941D031092EC
:1006F0009D0210929F0210929C020895E091900238
:10070000F09191020190F081E02D682F80E992E054
:10071000099480E993E09093800280937F0208958A
:10072000089588E993E090937E0280937D02089576
:10073000089585ED8093BC008091BC0084FDFCCFC2
:100740001092E602089520915A02260F3327331F94
:1007500021323105ECF42091E602FC0190E080E0CA
:10076000243069F082E00895A0915A022191AC01F1
:10077000465C5D4FA40FB52FB11D2C9301968617D3
:1007800098F380915A02680F60935A0280E00895AE
:1007900081E008950895E0918F0280918E02E8171C
:1007A00030F4F0E0E951FD4F808190E008958FEF43
:1007B0009FEF089590918F0280918E022FEF3FEF6F
:1007C000981748F4E92FF0E0E951FD4F208130E01F
:1007D0009F5F90938F02C901089580918E0290913E
:1007E0008F02891B990B0895CF92DF92EF92FF92AF
:1007F0000F931F93CF93DF937C01CB018A0120914C
:100800009C02222389F0EB016B01C40ED51ECC158E
:10081000DD0569F06991D701ED91FC910190F081BE
:10082000E02DC7010995F3CF642F0E94A303C801EF
:10083000DF91CF911F910F91FF90EF90DF90CF90BC
:100840000895CF93DF931F92CDB7DEB769832091D0
:100850009C022223F9F020919F02203258F021E0DF
:1008600030E0FC013383228390E080E00F90DF9141
:10087000CF91089580919D02E82FF0E0E056FD4F62
:10088000998190838F5F80939D0280939F0281E086
:1008900090E0ECCF61E0CE0101960E94A303F7CF78
:1008A0006F927F928F929F92AF92BF92CF92DF9280
:1008B000EF92FF920F931F93CF93DF93CDB7DEB7E5
:1008C000AC970FB6F894DEBF0FBECDBFDC01169615
:1008D000ED91FC91319609F48BC059013A016B01FD
:1008E0008C01FE0131964F0188E2DF011D928A954D
:1008F000E9F7D801ED91FC910484F585E02DB40170
:10090000C80109957C01892B09F05CC01AA619A6BB
:100910001CA61BA6D801ED91FC910684F785E02D5D
:100920009E01255D3F4FAE01475D5F4FB401C80199
:1009300009957C01892B09F045C0A114B10439F057
:1009400088E2F401D50101900D928A95E1F7C11476
:10095000D10409F189A59AA521E030E097FF02C0F2
:100960002FEF3FEF9F77829FB001839F700D929F83
:10097000700D1124072E000C880B990B0E9449164C
:1009800020E030E040E251E40E94E917F601608384
:1009900071838283938361147104A1F06BA57CA59C
:1009A000072E000C880B990B0E94491620E030E0BE
:1009B00040E251E40E94E917D3016D937D938D933A
:1009C0009C931397C701AC960FB6F894DEBF0FBE89
:1009D000CDBFDF91CF911F910F91FF90EF90DF90EE
:1009E000CF90BF90AF909F908F907F906F90089521
:1009F00087E1E82EF12CE6CF8F929F92AF92BF92C3
:100A0000CF92DF92EF92FF920F931F93CF93DF93DA
:100A1000EC018B016A017901E881F9810284F38597
:100A2000E02D0995B82EB801685F7F4FE881F98104
:100A30000284F385E02DCE010995982EB801605F00
:100A40007F4FE881F9810284F385E02DCE0109957D
:100A5000A82EB801685E7F4FE881F9810284F38592
:100A6000E02DCE010995882EB801605E7F4FE881A8
:100A7000F9810284F385E02DCE0109959B2D990D16
:100A80009A0D980D891319C09A2D882DF60191831E
:100A900080839B2D892DF7019183808390E080E0F6
:100AA000DF91CF911F910F91FF90EF90DF90CF904A
:100AB000BF90AF909F908F90089585E190E0F0CF28
:100AC00047E050E080E0FB012191BF01042E01C00E
:100AD000220F0A94EAF7820F41505109A0F70895B6
:100AE000DC0117967C936E931697FB01E35DFA4F3A
:100AF000E4911896EC931897675E7A4FFB01649126
:100B000019966C930895CF92DF92EF92FF920F9314
:100B10001F93CF93DF93EC017A0169010E94700566
:100B2000E881F9810480F581E02D9801A601B701E3
:100B3000CE01DF91CF911F910F91FF90EF90DF9049
:100B4000CF900994CF92DF92EF92FF920F931F9371
:100B5000CF93DF93EC017A0169010E947005E8816F
:100B6000F9810190F081E02D9801A601B701CE0135
:100B7000DF91CF911F910F91FF90EF90DF90CF9079
:100B80000994CF92DF92EF92FF920F931F93CF932E
:100B9000DF93CDB7DEB728970FB6F894DEBF0FBE50
:100BA000CDBFDC011696ED91FC91319609F440C061
:100BB0008A017B0119821A821B821C821D821E827D
:100BC0001F821886DC01ED91FC910480F581E02DF7
:100BD000AE014B5F5F4FBE016F5F7F4F09956C01A8
:100BE000892BB1F4E114F10441F069817A818B81A0
:100BF0009C810E945B18F70160830115110541F08B
:100C00006D817E818F8198850E945B18D8016C93DD
:100C1000C60128960FB6F894DEBF0FBECDBFDF9198
:100C2000CF911F910F91FF90EF90DF90CF9008959B
:100C300087E1C82ED12CECCFCF93C62F91E09093B3
:100C40009C0298E690939E0210929D0210929F0241
:100C5000682F80E992E00E9421046C2F80E992E0E5
:100C60000E94210481E0CF910C94700391E0909355
:100C70009C0298E690939E0210929D0210929F0211
:100C8000682F80E992E00E94210481E00C947003B7
:100C90006AE00E949B18292F30E1839FC001112434
:100CA000822B0895982F92959F708F702AE0929FC3
:100CB000800D11240895DC01ED91FC910190F081EB
:100CC000E02D0994EF92FF920F931F93CF93DF9340
:100CD0008C017B01D0E0C0E0F701EC0FFD1F6491B7
:100CE000662361F0D801ED91FC910190F081E02D37
:100CF000C8010995892B11F02196EECFCE01DF9125
:100D0000CF911F910F91FF90EF900895AF92BF92F6
:100D1000CF92DF92EF92FF920F931F93CF93DF93C7
:100D20006C017B018B01040F151FEB015E01AE18F6
:100D3000BF08C017D10759F06991D601ED91FC9118
:100D40000190F081E02DC6010995892B79F7C50145
:100D5000DF91CF911F910F91FF90EF90DF90CF9097
:100D6000BF90AF90089590E080E00895FC01538D0E
:100D7000448D252F30E0842F90E0821B930B541775
:100D800010F0CF96089501970895FC01918D828D02
:100D9000981761F0A28DAE0FBF2FB11D5D968C919B
:100DA000928D9F5F9F73928F90E008958FEF9FEFDA
:100DB0000895FC01918D828D981731F0828DE80F96
:100DC000F11D858D90E008958FEF9FEF0895FC0150
:100DD000918D228D892F90E0805C9F4F821B91091D
:100DE0008F739927089587E093E00E94E70621E03A
:100DF000892B09F420E0822F089580E090E0892B70
:100E000029F00E94F30681110C9400000895FC0162
:100E1000A48DA80FB92FB11DA35ABF4F2C91848D5B
:100E200090E001968F739927848FA689B7892C93B8
:100E3000A089B1898C91837080648C93938D848D0B
:100E4000981306C00288F389E02D80818F7D80830E
:100E50000895EF92FF920F931F93CF93DF93EC01CE
:100E600081E0888F9B8D8C8D98131AC0E889F98951
:100E7000808185FF15C09FB7F894EE89FF89608354
:100E8000E889F98980818370806480839FBF81E0D5
:100E900090E0DF91CF911F910F91FF90EF90089517
:100EA000F62E0B8D10E00F5F1F4F0F731127E02EF2
:100EB0008C8D8E110CC00FB607FCFACFE889F9892A
:100EC000808185FFF5CFCE010E940707F1CFEB8D22
:100ED000EC0FFD2FF11DE35AFF4FF0829FB7F894FE
:100EE0000B8FEA89FB8980818062CFCFCF93DF931C
:100EF000EC01888D8823B9F0AA89BB89E889F98932
:100F00008C9185FD03C0808186FD0DC00FB607FC66
:100F1000F7CF8C9185FFF2CF808185FFEDCFCE0199
:100F20000E940707E9CFDF91CF910895833081F0C8
:100F300028F4813099F08230A9F008958730A9F023
:100F40008830C9F08430B1F4809180008F7D03C077
:100F5000809180008F7780938000089584B58F778B
:100F600084BD089584B58F7DFBCF8091B0008F77CD
:100F70008093B00008958091B0008F7DF9CFCF931A
:100F8000DF93EEE4F5E08491EAE3F5E0D491E6E264
:100F9000F5E0C491CC23A1F081110E949607EC2FBB
:100FA000F0E0EE0FFF1FE15FFA4FA591B491EC91D5
:100FB000ED2381E090E009F480E0DF91CF91089586
:100FC00080E090E0FACF1F93CF93DF93282F30E09B
:100FD000F901EF5BFA4F8491F901E35DFA4FD49187
:100FE000F901E75EFA4FC491CC23A9F0162F8111C5
:100FF0000E949607EC2FF0E0EE0FFF1FEE58FF4F18
:10100000A591B4918FB7F894EC91111108C0D095C7
:10101000DE23DC938FBFDF91CF911F910895DE2BEC
:10102000F8CF1092E60281E08093E5021092E00290
:1010300061E082E10E94E30761E083E10E94E3074F
:10104000E9EBF0E080818E7F808380818D7F8083DB
:1010500088E48093B80085E48093BC000895CF9322
:10106000DF9390E0FC01E35DFA4F2491875E9A4F95
:10107000FC0184918823D1F090E0880F991FFC0136
:10108000E859FF4FA591B491FC01EE58FF4FC5916F
:10109000D49161110EC09FB7F8948C91E22FE09526
:1010A0008E238C932881E223E8839FBFDF91CF9129
:1010B00008958FB7F894EC91E22BEC938FBFF6CFA5
:1010C000789484B5826084BD84B5816084BD85B523
:1010D000826085BD85B5816085BDEEE6F0E08081EA
:1010E00081608083E1E8F0E010828081826080830B
:1010F000808181608083E0E8F0E08081816080838E
:10110000E1EBF0E0808184608083E0EBF0E08081BF
:1011100081608083EAE7F0E0808184608083808161
:101120008260808380818160808380818068808309
:101130001092C10008958130910539F0880F991FF0
:10114000880F991F05970197F1F708953FB7F89415
:101150008091110290911202A0911302B091140299
:1011600026B5A89B05C02F3F19F00196A11DB11D02
:101170003FBFBA2FA92F982F8827BC01CD01620F3E
:10118000711D811D911D42E0660F771F881F991FF9
:101190004A95D1F708957F928F929F92AF92BF9216
:1011A000CF92DF92EF92FF920F931F93CF93DF9333
:1011B000EC01162F7A0169010E94A6084B015C011F
:1011C000712C1111788410E000E060E070E0CB0138
:1011D0002A813B814C815D812617370748075907D3
:1011E000F4F00115110561F5C7011E141F0464F127
:1011F0000E94A608681979098A099B09E985F0E027
:10120000EE0FFF1FE15FFA4FA591B4912C910F5F94
:101210001F4F38852323271105C097FFD9CF6FEFC4
:101220007FEFCB01DF91CF911F910F91FF90EF9056
:10123000DF90CF90BF90AF909F908F907F90089558
:101240001C141D04ACF6C6010E949B08D1CF2FB719
:10125000F89460910D0270910E0280910F029091AE
:1012600010022FBF08958F929F92AF92BF92EF927C
:10127000FF920F931F93CF93DF937B018C01D0E0FC
:10128000C0E00E94270960930F03709310038093BE
:10129000110390931203E0910703F0910803028475
:1012A000F385E02D87E093E0099597FF27C00E9422
:1012B000270980900F0390901003A0901103B09025
:1012C0001203681979098A099B0980900B03909091
:1012D0000C03A0900D03B0900E03681579058A05E4
:1012E0009B05C8F2CE01DF91CF911F910F91FF9026
:1012F000EF90BF90AF909F908F900895F8018193E9
:101300008F012196EC16FD0609F0BBCFEBCF87E0ED
:101310008093000180932B0261E084E00E94E30748
:1013200060E085E00C94E30781110AC010922B0263
:1013300060E084E00E94E30760E085E00C94E3074E
:10134000873011F40C94870988E080930001809322
:101350002B0260E084E00E94E30761E0EECFBF92E1
:10136000CF92DF92EF92FF920F931F93CF93DF9371
:1013700000D000D000D01F92CDB7DEB780E00E9431
:10138000360687E00E94D70210928F0280938E0269
:101390008730E1F580E992E00E94DA030E9452066C
:1013A000B82E80E992E00E94DA030E945206C82E0D
:1013B00080E992E00E94DA03182F86FF3EC08F7109
:1013C0000E9452060CE015FD00E0080F80E992E053
:1013D0000E94DA030E945206D82E80E992E00E9411
:1013E000DA030E945206E82E80E992E00E94DA03B6
:1013F00010E087FD14E68F770E945206F82E80E9F0
:1014000092E00E94DA030E945206180F2B2D3C2D09
:10141000402F5D2DB701812F90E027960FB6F894ED
:10142000DEBF0FBECDBFDF91CF911F910F91FF9017
:10143000EF90DF90CF90BF9008958F730E94520677
:10144000082FC4CFCF93DF93EB010E94360681E0D3
:101450000E94D70210928F0280938E0280E992E060
:101460000E94DA03888381E0DF91CF910895EF92A3
:10147000FF921F93CF93DF931F92CDB7DEB77C010E
:10148000162FBE016F5F7F4F8EE00E94220A8111EE
:1014900008C080E00F90DF91CF911F91FF90EF90F7
:1014A000089581E080939C0288E680939E021092CA
:1014B0009D0210929F02113089F587E090E00E9412
:1014C0007E03F70180810E94480690E00E947E031F
:1014D000898185608983F70181810E94480690E0B7
:1014E0000E947E03F70182810E94480690E00E94DC
:1014F0007E03F70184810E94480690E00E947E03EB
:1015000081E00E9470038111C4CF69818EE00E9446
:101510001C068111BECF812F8770BCCF8BE090E07D
:101520000E947E0389818660D5CF0E946617EF9264
:10153000FF920F931F93CF93DF93EC018B0188E20F
:10154000FB0111928A95E9F761E08E810E942F08D4
:1015500060E08E810E94E30788EE93E00E949B0882
:1015600061E08E810E94E30760E08E810E942F0877
:1015700088E290E00E949B08E881F9810084F1856F
:10158000E02D26E030E04AE050E060E0CE01099531
:101590006E317105810591056CF4982F872F762F98
:1015A00066276061CB01DF91CF911F910F91FF9072
:1015B000EF900895E881F9810084F185E02D26E01F
:1015C00030E04AE050E061E0CE0109957801F8E2B0
:1015D000EF0EF11C623371058105910534F4982FEB
:1015E000872F762F66276161DDCFE881F98100843E
:1015F000F185E02D26E030E04AE050E060E0CE01E9
:101600000995683171058105910534F4982F872F6C
:10161000762F66276261C6CFE881F9810084F18563
:10162000E02D26E030E04AE050E061E0CE0109958F
:101630006B3071058105910534F4982F872F762F33
:1016400066276361AFCF21E069327105810591059D
:101650000CF420E0F80121938F01EE16FF0629F625
:10166000E881F9810084F185E02D26E030E04AE050
:1016700050E060E0CE010995683171058105910562
:1016800034F4982F872F762F662764618BCF70E014
:1016900060E088CFFB0101900020E9F73197AF01AE
:1016A000461B570BDC01ED91FC910280F381E02D8C
:1016B00009948F929F92AF92BF92EF92FF920F93F5
:1016C0001F93CF93DF93CDB7DEB7A1970FB6F894F2
:1016D000DEBF0FBECDBF7C01FA01CB0119A22230C3
:1016E00008F42AE08E010F5D1F4F822E912CB12C41
:1016F000A12CBF01A50194010E94A718F901CA01FC
:101700006A300CF5605DD8016E938D01232B242B7C
:10171000252B79F790E080E0109721F0BD01C701FB
:101720000E944A0BA1960FB6F894DEBF0FBECDBF44
:10173000DF91CF911F910F91FF90EF90BF90AF90ED
:101740009F908F900895695CDECFCF93C82F8A3029
:1017500028F460E387E093E00E945B064C2F50E0A2
:1017600070E060E02AE087E093E0CF910C94590BA1
:10177000CF93DF93EC018E818536D0F062E387E072
:1017800093E00E945B068E810E94A50B6DE287E0CC
:1017900093E00E945B068D810E94A50B6DE287E0BD
:1017A00093E00E945B068C81DF91CF910C94A50B96
:1017B00065E575E087E093E00E946206E4CFCF9391
:1017C000DF93EC018A810E94A50B6AE387E093E036
:1017D0000E945B0689810E94A50B6AE387E093E083
:1017E0000E945B068881DF91CF910C94A50B4F92EC
:1017F0005F926F927F928F929F92AF92BF92CF92A1
:10180000DF92EF92FF920F931F93CF936B017C01B6
:10181000742EAC019B010E9496186FE471E0811157
:1018200026C046015701E894B7F82FEF3FEF4FE786
:101830005FE7C501B4010E94961881110CC02FEF1B
:101840003FEF4FE75FE7C501B4010E94421663E531
:1018500071E0181664F02FEF3FEF4FE75FE4C70128
:10186000B6010E9491181816ACF467E571E087E0A4
:1018700093E0CF911F910F91FF90EF90DF90CF9069
:10188000BF90AF909F908F907F906F905F904F90A0
:101890000C944A0B2FEF3FEF4FE75FECC701B60107
:1018A0000E94421687FDE1CF20E030E0A901C70188
:1018B000B6010E94421610E000E087FF0AC06DE208
:1018C00087E093E00E945B068C01F7FAF094F7F84A
:1018D000F094C0E060E070E080E09FE37C1641F0AF
:1018E00020E030E040E251E40E94E917CF5FF6CFFC
:1018F000A70196010E947D172B013C010E946218EE
:101900004B015C012AE0BC01A40187E093E00E9446
:10191000590B7C01E00EF11ECC23D1F1C501B401BD
:101920000E9447169B01AC01C301B2010E947C17C3
:101930004B015C016EE287E093E00E945B06E80EDB
:10194000F91EC15028F120E030E040E251E4C50129
:10195000B4010E94A8162B013C010E9462184B01A1
:10196000B12CA12C2AE0B501A40187E093E00E94EC
:10197000590BE80EF91EC501B4010E9447169B01E0
:10198000AC01C301B2010E947C174B015C01D9CFAD
:10199000C701CF911F910F91FF90EF90DF90CF90F3
:1019A000BF90AF909F908F907F906F905F904F907F
:1019B00008956BE571E00C944A0BCF92DF92EF92A1
:1019C000FF92CF93DF936C01990FEE08FF08F7FEAB
:1019D00021C06DE287E093E00E945B06EC014427A2
:1019E0005527BA014C195D096E097F092AE087E085
:1019F00093E00E94590BC80FD91F87E093E00E9423
:101A0000D90C8C0F9D1FDF91CF91FF90EF90DF904D
:101A1000CF9008952AE0B701A60187E093E00E94E5
:101A2000590BEC01EACF0F931F93CF93DF93EC0197
:101A30000E9462068C01CE010E94D90C800F911F7A
:101A4000DF91CF911F910F9108951F920F920FB6C2
:101A50000F9211242F933F934F935F936F937F9334
:101A60008F939F93AF93BF93EF93FF938091B900B0
:101A7000887F803609F44AC0F0F5883209F4A7C09F
:101A800018F5803109F49BC0B8F4882309F4F9C033
:101A9000883009F494C0FF91EF91BF91AF919F916D
:101AA0008F917F916F915F914F913F912F910F9007
:101AB0000FBE0F901F901895883109F488C08032AE
:101AC00051F78093E40214C0803409F49DC040F4BF
:101AD0008033B9F38833F9F68093E40285ECB0C023
:101AE000803509F485C0883509F496C0883499F6A4
:101AF0000E949903D0CF883909F48CC038F5883713
:101B000029F050F4883611F0803729F683E080936D
:101B1000E60210927C0257C0883809F47BC08039F5
:101B200019F0803809F0B7CF80917C02803208F03C
:101B300071C0E0917C0281E08E0F80937C028091E5
:101B4000BB00F0E0E45AFD4F80833DC0803B39F09C
:101B5000E0F4803A09F479C0883A09F09CCF84E037
:101B60008093E60210925B0210925A02E0917D028D
:101B7000F0917E02099580915A0281110FC081E097
:101B800080935A0210923A0209C0803C09F4A6CF11
:101B9000883C09F4A3CF883B09F07DCFE0915B023C
:101BA00081E08E0F80935B02F0E0E65CFD4F808168
:101BB0008093BB0090915B0280915A0229C0809172
:101BC000E1028093BB0085EC8093BC0064CF9091D0
:101BD000E3028091E202981758F5E091E30281E078
:101BE0008E0F8093E302F0E0E054FD4F8081E9CF57
:101BF000E091E30281E08E0F8093E3028091BB00CD
:101C0000F0E0E054FD4F80839091E3028091E20286
:101C10009817C8F285E8D8CFE091E30281E08E0FF3
:101C20008093E3028091BB00F0E0E054FD4F80839D
:101C30008091E50281115CCF81E08093E00284EA2B
:101C40008093BC001092E60226CF85EC8093BC0006
:101C50001092E60280917C02803230F4E0917C02A6
:101C6000F0E0E45AFD4F108260917C0270E0E09158
:101C70007F02F09180028CE592E0099510927C023F
:101C80000ACF1092E40234CF1F920F920FB60F9238
:101C900011242F933F934F935F936F937F938F9371
:101CA0009F93AF93BF93EF93FF9387E093E00E94DE
:101CB0000707FF91EF91BF91AF919F918F917F9116
:101CC0006F915F914F913F912F910F900FBE0F90A9
:101CD0001F9018951F920F920FB60F9211242F93F9
:101CE0008F939F93EF93FF93E0911703F091180365
:101CF0008081E0911D03F0911E0382FD1BC0908145
:101D0000809120038F5F8F7320912103821741F010
:101D1000E0912003F0E0E95FFC4F958F8093200372
:101D2000FF91EF919F918F912F910F900FBE0F9088
:101D30001F9018958081F4CF1F920F920FB60F92CB
:101D400011242F933F938F939F93AF93BF938091D1
:101D50000D0290910E02A0910F02B09110023091ED
:101D60000C0223E0230F2D3758F50196A11DB11D5C
:101D700020930C0280930D0290930E02A0930F0209
:101D8000B09310028091110290911202A09113025F
:101D9000B09114020196A11DB11D80931102909380
:101DA0001202A0931302B0931402BF91AF919F91BE
:101DB0008F913F912F910F900FBE0F901F9018950C
:101DC00026E8230F0296A11DB11DD2CFE0E9F2E073
:101DD0001382128288EE93E0A0E0B0E084839583C2
:101DE000A683B78381E491E0918380830895E7E03F
:101DF000F3E01382128288EE93E0A0E0B0E08483E7
:101E00009583A683B7838FE291E09183808385ECED
:101E100090E09587848784EC90E09787868780ECB4
:101E200090E0918B808B81EC90E0938B828B82ECA5
:101E300090E0958B848B86EC90E0978B868B118E4F
:101E4000128E138E148E0895CF93DF93C9E1D2E0E2
:101E500087E091E09983888380E49BE4ACE4B0E080
:101E60008A839B83AC83BD838FEF9FEF9F838E8399
:101E70008887898762E070E0CE010E9470058BE15F
:101E800091E099838883DF91CF9108950E94E60EB7
:101E90000E94F70E0C94240FCF93DF93CDB7DEB7DB
:101EA0002B970FB6F894DEBF0FBECDBF0E9460081F
:101EB000E0911703F091180312E01083E0911303EF
:101EC000F09114031082E0911503F09116038FEC4A
:101ED000808310921F03E0911B03F0911C0386E0A6
:101EE0008083E0911903F0911A03808180618083DF
:101EF000E0911903F0911A03808188608083E0915A
:101F00001903F0911A03808180688083E09119039E
:101F1000F0911A0380818F7D808310928F0210923E
:101F20008E0210929D0210929F020E9411080E9440
:101F300091030E94890360E08EE00E941C060E94CB
:101F4000AF0929833A834B835C838F838FE18D8331
:101F50001E8362E0CE0101960E94370A61E0CE0145
:101F600001960E94370A1B8618865E0128E0A20EA1
:101F7000B11CB5018FE00E94220A6885862F83700C
:101F800021F06C7F8FE00E941C068B85882369F00E
:101F9000BE01655F7F4F8EE00E94220A882329F0F0
:101FA0006B856F778EE00E941C061092810261E0C3
:101FB0008DE00E942F0861E084E00E942F0861E01C
:101FC00085E00E942F086CE770E087E093E00E94B4
:101FD000130D6E0189E0C80ED11CFE0138967F01F9
:101FE00033E0932E40E1242E312C0E9427092B014F
:101FF0007093390260933802809137028823F9F098
:1020000080911502909116029201281B390B809144
:102010000101909102012817390788F00E94BF073B
:1020200061E0892B29F00E94BF07019721F460E04D
:102030008DE00E94E30750921602409215028091B3
:102040003602811104C0809135028823E1F080912D
:102050001702909118029201281B390B80910101FF
:10206000909102012817390770F08091000190913A
:102070003502992379F1883039F50E948709509209
:1020800018024092170287E093E00E94E706892B2E
:1020900071F087E093E00E94C5060E946B17809361
:1020A0003402803201F59091330291113BC080E0FF
:1020B00090E0892B09F499CF0E94F306882309F454
:1020C0008FCF0E9400008CCF8730C9F688E00E9435
:1020D0009409D5CF90912B02981302C080E0F7CFDE
:1020E0009111CDCFF4CF8F37E9F487E093E00E94D0
:1020F000D90C6AEF74E087E093E00E94130D109210
:1021000081021092330210922E0210922D02109230
:10211000300210922F02109232021092310210926D
:102120002C02C5CF682F87E093E00E945B064090A9
:102130003402E0913302F0E24F1619F02DE0421222
:1021400051C5F0E0EF57FD4F108200912C02033093
:1021500030F56EE571E081E892E00E947317552436
:102160005394500E10E0000F111F035D1D4F892B7B
:1021700041F450922C028DE090E0F801918380832D
:102180000EC062E671E081E892E00E947317892B2D
:1021900009F02EC050922C02F80111821082109288
:1021A0008102109233029DE0491281CF87E093E0D3
:1021B0000E94D90CE0912D02F0912E02E231F1053E
:1021C00008F00DC5EA51FF4E0C94C918A712301241
:1021D0004212EF110112EF15EF15EF15EF15EF1584
:1021E000EF15EF15EF158912EF15EF15E4129B159A
:1021F00066E671E081E892E00E947317892B29F46A
:1022000050922C0289E090E0B8CF6BE671E081E853
:1022100092E00E947317892B29F450922C0281E0DE
:1022200090E0ABCF6FE671E081E892E00E94731717
:10223000892B29F450922C0282E090E09ECF66E731
:1022400071E081E892E00E947317892B29F4509283
:102250002C0283E090E091CF6EE771E081E892E09C
:102260000E947317892B29F450922C0284E090E08D
:1022700084CF6BE771E081E892E00E947317892BAD
:1022800029F450922C028AE090E077CF63E871E065
:1022900081E892E00E947317892B29F450922C0256
:1022A0008BE090E06ACF67E871E081E892E00E94FD
:1022B0007317892B29F450922C028CE090E05DCFAB
:1022C0006DE871E081E892E00E947317892B29F490
:1022D00050922C0286E090E050CF62E971E081E8F4
:1022E00092E00E947317892B29F450922C0288E007
:1022F00090E043CF66E971E081E892E00E947317B5
:10230000892B29F450922C0287E090E036CF6CE9BB
:1023100071E081E892E00E947317892B29F45092B2
:102320002C028EE090E029CF62EA71E081E892E031
:102330000E947317892B29F450922C028FE090E0B1
:102340001CCF67EA71E081E892E00E947317892B45
:1023500031F450922C02F8013182208220CF6BEAB6
:1023600071E081E892E00E947317892B29F4509262
:102370002C0281E190E001CF6FEA71E081E892E008
:102380000E947317892B29F450922C0282E190E06D
:10239000F4CE67EB71E081E892E00E947317892B1D
:1023A00029F450922C0283E190E0E7CE6DEB71E0CE
:1023B00081E892E00E947317892B29F450922C0235
:1023C00084E190E0DACE0E94031650922C0201962E
:1023D00019F00E940316D1CE85E090E0CECE60EFDA
:1023E00074E087E093E00E94620642E060E070E003
:1023F00080E090E40E94F70B87E093E00E94D90C04
:1024000082CE60EC74E087E093E00E94130D67E8F1
:1024100074E087E093E00E94130D6FE274E087E0C0
:1024200093E00E94130D62E074E087E093E00E9465
:10243000620684E690E00E94DD0C63EE73E087E0C4
:1024400093E00E94130D6AE873E087E093E00E9436
:10245000130D6BE273E087E093E00E94130D53CEFF
:1024600080912F02909130020C9761F4809131029B
:1024700090913202843691052CF090930201809362
:10248000010141CE80912F0290913002069709F010
:102490003ACE809137026EE173E0811108C00E944C
:1024A000BF0766E173E0892B11F06FE073E087E00E
:1024B00093E00E94130D80913502909136029111A4
:1024C00002C08823B9F090910001973041F460E098
:1024D00073E0882309F4BFCF69ED72E0BCCF983078
:1024E00029F463EF72E08111F7CFB5CF882309F4A7
:1024F0000ACEF2CF80912B0261ED72E0882309F4BD
:10250000AACF67EC72E0873009F4A5CF6FEB72E0D9
:10251000A2CF80912F02909130028B30910579F0FB
:102520008C30910581F064EA72E00A9709F093CF4C
:102530001092370261E08DE00E94E307E4CD109233
:10254000370260E0F8CF81E080933702DCCD8091E4
:102550002F02909130028930910519F144F48730AF
:102560009105C1F0089771F069E872E074CF8B3083
:10257000910521F10C97C1F781E08093360210920A
:102580003502C1CD109235021092360288E00E94C9
:102590009409B9CD10923502109236020E94870933
:1025A000B2CD80913102909132020C9709F0ABCDFF
:1025B0001092360281E080933502A5CD109235024B
:1025C0001092360280E0E3CF80912F02909130028A
:1025D0008E30910531F00F9709F462C26EE672E019
:1025E0003ACF188619861A8665EF71E087E093E086
:1025F0000E94130DF501292D11922A95E9F787E024
:1026000093E00E94D90C6EEC71E087E093E00E94A9
:102610006206E0910703F09108030084F185E02D44
:1026200087E093E00995892BA1F362E070E0C50192
:102630000E943309E0910703F09108030084F185BB
:10264000E02D87E093E00995892B59F0E09107038D
:10265000F09108030284F385E02D87E093E009956B
:10266000E9CF88858033D9F5C6010E9419168D837C
:10267000F501292D11922A95E9F787E093E00E9450
:10268000D90C6EEA71E087E093E00E946206E09167
:102690000703F09108030084F185E02D87E093E0C3
:1026A0000995892BA1F362E070E0C5010E9433090E
:1026B000E0910703F09108030084F185E02D87E0A5
:1026C00093E00995892B69F0E0910703F0910803E5
:1026D0000284F385E02D87E093E00995E9CFC501F9
:1026E000C4CF88858033D9F5C6010E9419168E8320
:1026F000F501292D11922A95E9F787E093E00E94D0
:10270000D90C6FE871E087E093E00E946206E091E7
:102710000703F09108030084F185E02D87E093E042
:102720000995892BA1F362E070E0C5010E9433098D
:10273000E0910703F09108030084F185E02D87E024
:1027400093E00995892B69F0E0910703F091080364
:102750000284F385E02D87E093E00995E9CFC50178
:10276000C4CF88858033D9F5C6010E9419168F839E
:10277000F701292D11922A95E9F787E093E00E944D
:10278000D90C61E671E087E093E00E946206E09177
:102790000703F09108030084F185E02D87E093E0C2
:1027A0000995892BA1F362E070E0C7010E9433090B
:1027B000E0910703F09108030084F185E02D87E0A4
:1027C00093E00995892B69F0E0910703F0910803E4
:1027D0000284F385E02D87E093E00995E9CFC701F6
:1027E000C4CF88858033D9F5C6010E9419168B8322
:1027F000F701292D11922A95E9F787E093E00E94CD
:10280000D90C60E471E087E093E00E946206E091F9
:102810000703F09108030084F185E02D87E093E041
:102820000995892BA1F362E070E0C7010E9433098A
:10283000E0910703F09108030084F185E02D87E023
:1028400093E00995892B69F0E0910703F091080363
:102850000284F385E02D87E093E00995E9CFC70175
:10286000C4CF88858033D9F5C6010E9419168A83A2
:10287000F701292D11922A95E9F787E093E00E944C
:10288000D90C6FE171E087E093E00E946206E0916D
:102890000703F09108030084F185E02D87E093E0C1
:1028A0000995892BA1F362E070E0C7010E9433090A
:1028B000E0910703F09108030084F185E02D87E0A3
:1028C00093E00995892B69F0E0910703F0910803E3
:1028D0000284F385E02D87E093E00995E9CFC701F5
:1028E000C4CF88858033D9F5C6010E941916898323
:1028F000F701292D11922A95E9F787E093E00E94CC
:10290000D90C6EED70E087E093E00E94130DE0912A
:102910000703F09108030084F185E02D87E093E040
:102920000995892BA1F361E070E0C7010E9433098A
:10293000E0910703F09108030084F185E02D87E022
:1029400093E00995892B69F0E0910703F091080362
:102950000284F385E02D87E093E00995E9CFC70174
:10296000C4CFC7010E9419168C8387E093E00E94B0
:10297000D90C6AEC70E087E093E00E946206CE0119
:1029800001960E94B80B64E587E093E00E945B0625
:10299000CE0101960E94DF0B87E093E00E94D90CE4
:1029A00065E970E087E093E00E946206E09107032A
:1029B000F09108030084F185E02D87E093E009950C
:1029C000892BA1F361E070E0C7010E943309E09117
:1029D0000703F09108030084F185E02D87E093E080
:1029E0000995892B59F0E0910703F09108030284BF
:1029F000F385E02D87E093E00995E9CF88858F7D09
:102A0000893509F0F7CD81E080939C0288E68093B8
:102A10009E0210929D0210929F0290E080E00E9420
:102A20007E0389810E944806682F80E992E00E9417
:102A300021048A810E944806682F80E992E00E9462
:102A400021048B810E944806682F80E992E00E9451
:102A500021048C81811101C081E00E944806682F09
:102A600080E992E00E9421048D810E944806682F2F
:102A700080E992E00E9421048E810E944806682F1E
:102A800080E992E00E9421048F810E944806682F0D
:102A900080E992E00E94210481E00E94700333CB20
:102AA00030E020E043E252E067E272E089E192E048
:102AB0000E9450048C01892B49F065EC71E087E09D
:102AC00093E00E944A0BC8010E94DD0C6DED71E09D
:102AD00087E093E00E944A0B6091270270912802E0
:102AE0008091290290912A0242E00E94F70B87E030
:102AF00093E00E94D90C0E94AF0929833A834B834B
:102B00005C836D837E838F83CE0101960E94B80B18
:102B100060E287E093E00E945B060E94AF09298390
:102B20003A834B835C836D837E838F83CE010196D2
:102B30000E94DF0B61CC80912F0290913002823194
:102B4000910539F01CF045970CF4DDCA63E572E09D
:102B500082CC65EE71E087E093E00E944A0B6091C1
:102B60002702709128028091290290912A0242E066
:102B70000E94F70B61E072E087E093E00E944A0B4D
:102B800026E636E646EE5FE3609127027091280262
:102B90008091290290912A020E94A81620E030E03C
:102BA00040E052E40E947D1742E00E94F70B65E08E
:102BB00072E087E093E00E944A0B609123027091DB
:102BC0002402809125029091260242E00E94F70B98
:102BD0006AE072E087E093E00E944A0B0DCC68E364
:102BE00072E039CCEC3008F062CA81E08E0F80933D
:102BF0003302F0E0EF57FD4F4082E82FF0E0EF574F
:102C0000FD4F108254CAE1E8F2E08191882351F02F
:102C1000082E000C990BC0970A9740F482E0ED381B
:102C2000F80799F781E892E00C9419168FEF9FEF5F
:102C30000895FC0188279927E89421912032E9F32F
:102C4000293010F02E30C8F32B3241F02D3239F4F8
:102C5000689404C00E943A16820F911D219120535E
:102C60002A30C0F31EF4909581959F4F0895F894F3
:102C70000C94CF187AE0979F902D879F802D910D0F
:102C8000112408950E94841608F481E00895E894C0
:102C900009C097FB3EF490958095709561957F4FA4
:102CA0008F4F9F4F9923A9F0F92F96E9BB27939552
:102CB000F695879577956795B795F111F8CFFAF462
:102CC000BB0F11F460FF1BC06F5F7F4F8F4F9F4F93
:102CD00016C0882311F096E911C0772321F09EE8F1
:102CE000872F762F05C0662371F096E8862F70E057
:102CF00060E02AF09A95660F771F881FDAF7880F31
:102D00009695879597F90895990F0008550FAA0B86
:102D1000E0E8FEEF16161706E807F907C0F01216EE
:102D20001306E407F50798F0621B730B840B950BF1
:102D300039F40A2661F0232B242B252B21F4089546
:102D40000A2609F4A140A6958FEF811D811D0895E3
:102D50000E94BB160C942C170E941E1738F00E947C
:102D6000251720F0952311F00C9415170C941B17C0
:102D700011240C9460170E943D1770F3959FC1F3C6
:102D8000950F50E0551F629FF001729FBB27F00D19
:102D9000B11D639FAA27F00DB11DAA1F649F66276E
:102DA000B00DA11D661F829F2227B00DA11D621FBD
:102DB000739FB00DA11D621F839FA00D611D221F77
:102DC000749F3327A00D611D231F849F600D211D5B
:102DD000822F762F6A2F11249F5750409AF0F1F0DE
:102DE00088234AF0EE0FFF1FBB1F661F771F881F47
:102DF00091505040A9F79E3F510580F00C94151753
:102E00000C9460175F3FE4F3983ED4F38695779572
:102E10006795B795F795E7959F5FC1F7FE2B880FEC
:102E2000911D9695879597F9089597F99F6780E882
:102E300070E060E008959FEF80EC089500240A940C
:102E40001616170618060906089500240A94121685
:102E50001306140605060895092E0394000C11F4B8
:102E6000882352F0BB0F40F4BF2B11F460FF04C065
:102E70006F5F7F4F8F4F9F4F089557FD9058440FBE
:102E8000551F59F05F3F71F04795880F97FB991FC9
:102E900061F09F3F79F08795089512161306140686
:102EA000551FF2CF4695F1DF08C016161706180613
:102EB000991FF1CF86957105610508940895E894EE
:102EC000BB2766277727CB0197F9089581E090E02B
:102ED000F8940C94CF189111089581568A5108F4F2
:102EE000805285580895FB01DC018D910190801975
:102EF0000110D9F3990B08955058BB27AA270E94B7
:102F000094170C942C170E941E1738F00E94251756
:102F100020F039F49F3F19F426F40C941B170EF49B
:102F2000E095E7FB0C941517E92F0E943D1758F325
:102F3000BA17620773078407950720F079F4A6F59E
:102F40000C945F170EF4E0950B2EBA2FA02D0B01F9
:102F5000B90190010C01CA01A0011124FF27591BDE
:102F600099F0593F50F4503E68F11A16F040A22FE4
:102F7000232F342F4427585FF3CF46953795279555
:102F8000A795F0405395C9F77EF41F16BA0B620B54
:102F9000730B840BBAF09150A1F0FF0FBB1F661F9B
:102FA000771F881FC2F70EC0BA0F621F731F841FDE
:102FB00048F4879577956795B795F7959E3F08F004
:102FC000B0CF9395880F08F09927EE0F97958795C6
:102FD00008950E94FD170C942C170E94251758F095
:102FE0000E941E1740F029F45F3F29F00C9415173A
:102FF00051110C9460170C941B170E943D1768F335
:103000009923B1F3552391F3951B550BBB27AA27A1
:1030100062177307840738F09F5F5F4F220F331FDB
:10302000441FAA1FA9F335D00E2E3AF0E0E832D0A3
:1030300091505040E695001CCAF72BD0FE2F29D0A6
:10304000660F771F881FBB1F261737074807AB0778
:10305000B0E809F0BB0B802DBF01FF2793585F4FED
:103060003AF09E3F510578F00C9415170C946017B8
:103070005F3FE4F3983ED4F3869577956795B795CF
:10308000F7959F5FC9F7880F911D9695879597F9DA
:103090000895E1E0660F771F881FBB1F6217730753
:1030A0008407BA0720F0621B730B840BBA0BEE1F68
:1030B00088F7E09508950E9462186894B1110C9405
:1030C000601708950E94451788F09F5798F0B92F10
:1030D0009927B751B0F0E1F0660F771F881F991F4D
:1030E0001AF0BA95C9F714C0B13091F00E945F1779
:1030F000B1E008950C945F17672F782F8827B85F89
:1031000039F0B93FCCF3869577956795B395D9F7A4
:103110003EF490958095709561957F4F8F4F9F4FAE
:1031200008950E94841608F48FEF08950E94841673
:10313000880B990B0895991B79E004C0991F961785
:1031400008F0961B881F7A95C9F780950895A1E22B
:103150001A2EAA1BBB1BFD010DC0AA1FBB1FEE1F11
:10316000FF1FA217B307E407F50720F0A21BB30B5C
:10317000E40BF50B661F771F881F991F1A9469F7D8
:1031800060957095809590959B01AC01BD01CF0134
:103190000895EE0FFF1F0590F491E02D0994F89427
:0231A000FFCF5F
:1031A20008F40100000000C105A205950A950ACBAA
:1031B200086005950AFC0400000000C105A2055044
:1031C200048305CB086005970AFC0400000000296F
:1031D200078606B6067607E706C506D9060000008A
:1031E200002104F403B306CA03ED03DA03CB036E32
:1031F200616E00696E66006F7666000D0A004431EA
:1032020033004C4544004455414C0053455400534F
:1032120054415455530056455253494F4E00484568
:103222004C50004F464600424C494E4B004C4544E0
:10323200530052454400475245454E0057524954A7
:10324200450052454144005254430044485400430F
:10325200555252454E540053415645440045585428
:1032620052454D4500526561642044485432322033
:103272006661696C65642C206572723D0074656DCF
:10328200702069730043757272656E742074656D87
:1032920070202F2068756D696469747920697320C4
:0C32A200004320280046292C20002500B5
:00000001FF
