:100000000C94AD020C94D5020C94D5020C94D5023C
:100010000C94D5020C94D5020C94D5020C94D50204
:100020000C94D5020C94D5020C94D5020C94D502F4
:100030000C94D5020C94D5020C94D5020C94D502E4
:100040000C94D70D0C94D5020C94A50D0C947F0D37
:100050000C94D5020C94D5020C94D5020C94D502C4
:100060000C94600C0C94D5020000000024002700C2
:100070002A0000000000250028002B00456E746552
:100080007220636F6D6D616E6473206F72202748FC
:10009000454C50270053656E642027592720746F04
:1000A000207365742074686520636C6F636B2C200B
:1000B00073656E6420274E2720746F2073746172FD
:1000C0007420616761696E3A2000456E74657265DF
:1000D000642054696D657374616D703A2000456EDB
:1000E00074657220446179204F66205765656B20E6
:1000F00028312064696769742C20312D372C2061E8
:1001000072626974726172696C792031203D204D90
:100110006F6E2C2037203D2053756E293A20004504
:100120006E746572205365636F6E6420283220649C
:1001300069676974732C2030302D3539293A2000D5
:10014000456E746572204D696E7574652028322085
:100150006469676974732C2030302D3539293A2051
:1001600000456E74657220486F75722028322064D5
:1001700069676974732C20323420686F757220634C
:100180006C6F636B2C2030302D3233293A200045C0
:100190006E74657220596561722028322064696727
:1001A0006974732C2030302D3939293A2000456E7E
:1001B000746572204D6F6E74682028322064696700
:1001C0006974732C2030312D3132293A2000456E6C
:1001D00074657220446179206F66204D6F6E74687B
:1001E000202832206469676974732C2030312D33E4
:1001F00031293A2000436C6F636B2069732073656B
:1002000074207768656E20616C6C20646174612075
:10021000697320656E746572656420616E6420790F
:100220006F752073656E642027592720746F2063D3
:100230006F6E6669726D2E00496E76616C6964201E
:10024000636F6D6D616E642C207479706520484514
:100250004C5000496E76616C696420636F6D6D610E
:100260006E642C20747970652048454C5000496EAE
:1002700076616C696420636F6D6D616E642C2074AF
:100280007970652048454C5000496E76616C696410
:1002900020636F6D6D616E642C20747970652048E9
:1002A000454C5000496E76616C696420636F6D6DDA
:1002B000616E642C20747970652048454C50004C68
:1002C000454420526564004C454420477265656E84
:1002D000004C4544206F666600426C696E6B696E27
:1002E0006720626F7468206F6E206475616C204CAB
:1002F000454400426C696E6B696E672072656400EC
:10030000426C696E6B696E6720677265656E00444A
:100310003133206F6E00443133206F666600426CCB
:10032000696E6B696E67204431330052544320522A
:10033000454144207C205254432057524954450A99
:100340000D757064617465202F207265616420747E
:10035000696D650A0A0D56455253494F4E0A0D63A1
:10036000757272656E742076657273696F6E0A0DB0
:100370002D2D2D2D2D2D2D2D2D2D2D2D2D2D2D2DAD
:100380002D2D2D2D2D2D2D2D2D0044485420435540
:100390005252454E54207C204448542053415645E7
:1003A00044207C204448542045585452454D450A29
:1003B0000D73686F77207468652063757272656E5F
:1003C000742C2073617665642C2065787472656D79
:1003D000652074656D70202F2068756D696469747F
:1003E000790A000A0D535441545553204C45445347
:1003F0000A0D666F72206C65642073746174757386
:100400000A0053455420424C494E4B20580A0D7364
:100410006574207468652064656C617920746F2050
:1004200058206D732C206D696E696D756D20004CC0
:10043000454420475245454E207C204C454420529F
:100440004544207C204C4544204F4646207C204C8F
:10045000454420424C494E4B207C204C454420448E
:1004600055414C20424C494E4B0A0D636F6E7472DD
:100470006F6C20746865206475616C20636F6C6FAD
:1004800072204C45440A00443133204F4E207C20DA
:10049000443133204F4646207C2044313320424CA7
:1004A000494E4B0A0D636F6E74726F6C20746865F1
:1004B000204C4544206F6E2070696E2031330A0055
:1004C0000D2D2D2D2D2D2D2D2D2D2D2D2D2D2D2D7C
:1004D0002D2D2D2D2D2D2D2D2D2D0A0D41766169C2
:1004E0006C61626C6520636F6D6D616E64733A0060
:1004F00056657273696F6E3A200052652D656E7491
:1005000065722074686520636F6D6D616E640000B4
:10051000000000230026002900040404040404044D
:1005200004020202020202030303030303010204A2
:100530000810204080010204081020010204081065
:100540002000000008000201000003040700000072
:100550000000000000323000810E11241FBECFEFDA
:10056000D8E0DEBFCDBF23E0A0E2B2E001C01D9223
:10057000A63BB207E1F712E0A0E0B1E0E6EFF0E35E
:1005800002C005900D92A032B107D9F712E0CDEA72
:10059000D2E004C02197FE010E947318CC3AD10723
:1005A000C9F70E94870E0C9414160C940000813237
:1005B00008F041C09091F8029111FCCF91E0909326
:1005C000F8029093F7022FEF2093F6021092F502B3
:1005D000280F2093F4029093F3029091F302906D10
:1005E0009093F3029091F2029130F9F41092F2029A
:1005F0009091F3029093BB009091BC0093FDF8CFD3
:1006000095EC9093BC009091F8029130E1F39091B9
:10061000F502981710F48091F502A2EDB2E0E9EF2F
:10062000F2E090E0981303C0089595EEEACF2D9183
:1006300021939F5FF7CF80E00895613208F048C0B2
:100640009091F8029111FCCF92E09093F8024093C0
:10065000F7029FEF9093F6021092F5026093F40276
:10066000A2EBB2E0E2EDF2E090E069132BC0109251
:10067000F3029091F302880F892B8093F30280910B
:10068000F202813019F51092F2028091F302809308
:10069000BB008091BC0083FDF8CF85EC8093BC004B
:1006A0008091F8028230E1F38091F6028F3F91F061
:1006B0008091F602803281F08091F602803371F0F1
:1006C00084E008952D9121939F5FCFCF85EEE6CFF3
:1006D00081E0089580E0089582E0089583E0089520
:1006E000482F6091B1028091B0020E941D031092C8
:1006F000AF021092B1021092AE020895E091A202F0
:10070000F091A3020190F081E02D682F82EA92E03F
:10071000099480E993E09093920280939102089566
:10072000089588E993E09093900280938F02089552
:10073000089585ED8093BC008091BC0084FDFCCFC2
:100740001092F802089520916C02260F3327331F70
:1007500021323105ECF42091F802FC0190E080E0B8
:10076000243069F082E00895A0916C022191AC01DF
:10077000445B5D4FA40FB52FB11D2C9301968617D6
:1007800098F380916C02680F60936C0280E008958A
:1007900081E008950895E091A1028091A002E817F8
:1007A00030F4F0E0E750FD4F808190E008958FEF46
:1007B0009FEF08959091A1028091A0022FEF3FEF4B
:1007C000981748F4E92FF0E0E750FD4F208130E022
:1007D0009F5F9093A102C90108958091A00290911A
:1007E000A102891B990B0895CF92DF92EF92FF929D
:1007F0000F931F93CF93DF937C01CB018A0120914C
:10080000AE02222389F0EB016B01C40ED51ECC157C
:10081000DD0569F06991D701ED91FC910190F081BE
:10082000E02DC7010995F3CF642F0E94A303C801EF
:10083000DF91CF911F910F91FF90EF90DF90CF90BC
:100840000895CF93DF931F92CDB7DEB769832091D0
:10085000AE022223F9F02091B102203258F021E0BB
:1008600030E0FC013383228390E080E00F90DF9141
:10087000CF9108958091AF02E82FF0E0EE54FD4F44
:10088000998190838F5F8093AF028093B10281E062
:1008900090E0ECCF61E0CE0101960E94A303F7CF78
:1008A0006F927F928F929F92AF92BF92CF92DF9280
:1008B000EF92FF920F931F93CF93DF93CDB7DEB7E5
:1008C000AC970FB6F894DEBF0FBECDBFDC01169615
:1008D000ED91FC91319609F48BC059013A016B01FD
:1008E0008C01FE0131964F0188E2DF011D928A954D
:1008F000E9F7D801ED91FC910484F585E02DB40170
:10090000C80109957C01892B09F05CC01AA619A6BB
:100910001CA61BA6D801ED91FC910684F785E02D5D
:100920009E01255D3F4FAE01475D5F4FB401C80199
:1009300009957C01892B09F045C0A114B10439F057
:1009400088E2F401D50101900D928A95E1F7C11476
:10095000D10409F189A59AA521E030E097FF02C0F2
:100960002FEF3FEF9F77829FB001839F700D929F83
:10097000700D1124072E000C880B990B0E94211674
:1009800020E030E040E251E40E949D17F6016083D0
:1009900071838283938361147104A1F06BA57CA59C
:1009A000072E000C880B990B0E94211620E030E0E6
:1009B00040E251E40E949D17D3016D937D938D9386
:1009C0009C931397C701AC960FB6F894DEBF0FBE89
:1009D000CDBFDF91CF911F910F91FF90EF90DF90EE
:1009E000CF90BF90AF909F908F907F906F90089521
:1009F00087E1E82EF12CE6CF8F929F92AF92BF92C3
:100A0000CF92DF92EF92FF920F931F93CF93DF93DA
:100A1000EC018B016A017901E881F9810284F38597
:100A2000E02D0995B82EB801685F7F4FE881F98104
:100A30000284F385E02DCE010995982EB801605F00
:100A40007F4FE881F9810284F385E02DCE0109957D
:100A5000A82EB801685E7F4FE881F9810284F38592
:100A6000E02DCE010995882EB801605E7F4FE881A8
:100A7000F9810284F385E02DCE0109959B2D990D16
:100A80009A0D980D891319C09A2D882DF60191831E
:100A900080839B2D892DF7019183808390E080E0F6
:100AA000DF91CF911F910F91FF90EF90DF90CF904A
:100AB000BF90AF909F908F90089585E190E0F0CF28
:100AC00047E050E080E0FB012191BF01042E01C00E
:100AD000220F0A94EAF7820F41505109A0F70895B6
:100AE000DC0117967C936E931697FB01E35DFA4F3A
:100AF000E4911896EC931897675E7A4FFB01649126
:100B000019966C930895CF92DF92EF92FF920F9314
:100B10001F93CF93DF93EC017A0169010E94700566
:100B2000E881F9810480F581E02D9801A601B701E3
:100B3000CE01DF91CF911F910F91FF90EF90DF9049
:100B4000CF900994CF92DF92EF92FF920F931F9371
:100B5000CF93DF93EC017A0169010E947005E8816F
:100B6000F9810190F081E02D9801A601B701CE0135
:100B7000DF91CF911F910F91FF90EF90DF90CF9079
:100B80000994CF92DF92EF92FF920F931F93CF932E
:100B9000DF93CDB7DEB728970FB6F894DEBF0FBE50
:100BA000CDBFDC011696ED91FC91319609F440C061
:100BB0008A017B0119821A821B821C821D821E827D
:100BC0001F821886DC01ED91FC910480F581E02DF7
:100BD000AE014B5F5F4FBE016F5F7F4F09956C01A8
:100BE000892BB1F4E114F10441F069817A818B81A0
:100BF0009C810E940F18F70160830115110541F0D7
:100C00006D817E818F8198850E940F18D8016C9329
:100C1000C60128960FB6F894DEBF0FBECDBFDF9198
:100C2000CF911F910F91FF90EF90DF90CF9008959B
:100C300087E1C82ED12CECCFCF93C62F91E09093B3
:100C4000AE0298E69093B0021092AF021092B102F9
:100C5000682F82EA92E00E9421046C2F82EA92E0DF
:100C60000E94210481E0CF910C94700391E0909355
:100C7000AE0298E69093B0021092AF021092B102C9
:100C8000682F82EA92E00E94210481E00C947003B4
:100C90006AE00E944518292F30E1839FC00111248A
:100CA000822B0895982F92959F708F702AE0929FC3
:100CB000800D11240895DC01ED91FC910190F081EB
:100CC000E02D0994EF92FF920F931F93CF93DF9340
:100CD0008C017B01D0E0C0E0F701EC0FFD1F6491B7
:100CE000662361F0D801ED91FC910190F081E02D37
:100CF000C8010995892B11F02196EECFCE01DF9125
:100D0000CF911F910F91FF90EF900895AF92BF92F6
:100D1000CF92DF92EF92FF920F931F93CF93DF93C7
:100D20006C017B018B01040F151FEB015E01AE18F6
:100D3000BF08C017D10759F06991D601ED91FC9118
:100D40000190F081E02DC6010995892B79F7C50145
:100D5000DF91CF911F910F91FF90EF90DF90CF9097
:100D6000BF90AF90089590E080E00895FC01538D0E
:100D7000448D252F30E0842F90E0821B930B541775
:100D800010F0CF96089501970895FC01918D828D02
:100D9000981761F0A28DAE0FBF2FB11D5D968C919B
:100DA000928D9F5F9F73928F90E008958FEF9FEFDA
:100DB0000895FC01918D828D981731F0828DE80F96
:100DC000F11D858D90E008958FEF9FEF0895FC0150
:100DD000918D228D892F90E0805C9F4F821B91091D
:100DE0008F739927089589E193E00E94E70621E037
:100DF000892B09F420E0822F089580E090E0892B70
:100E000029F00E94F30681110C9400000895FC0162
:100E1000A48DA80FB92FB11DA35ABF4F2C91848D5B
:100E200090E001968F739927848FA689B7892C93B8
:100E3000A089B1898C91837080648C93938D848D0B
:100E4000981306C00288F389E02D80818F7D80830E
:100E50000895EF92FF920F931F93CF93DF93EC01CE
:100E600081E0888F9B8D8C8D98131AC0E889F98951
:100E7000808185FF15C09FB7F894EE89FF89608354
:100E8000E889F98980818370806480839FBF81E0D5
:100E900090E0DF91CF911F910F91FF90EF90089517
:100EA000F62E0B8D10E00F5F1F4F0F731127E02EF2
:100EB0008C8D8E110CC00FB607FCFACFE889F9892A
:100EC000808185FFF5CFCE010E940707F1CFEB8D22
:100ED000EC0FFD2FF11DE35AFF4FF0829FB7F894FE
:100EE0000B8FEA89FB8980818062CFCFCF93DF931C
:100EF000EC01888D8823B9F0AA89BB89E889F98932
:100F00008C9185FD03C0808186FD0DC00FB607FC66
:100F1000F7CF8C9185FFF2CF808185FFEDCFCE0199
:100F20000E940707E9CFDF91CF910895833081F0C8
:100F300028F4813099F08230A9F008958730A9F023
:100F40008830C9F08430B1F4809180008F7D03C077
:100F5000809180008F7780938000089584B58F778B
:100F600084BD089584B58F7DFBCF8091B0008F77CD
:100F70008093B00008958091B0008F7DF9CFCF931A
:100F8000DF93EEE4F5E08491EAE3F5E0D491E6E264
:100F9000F5E0C491CC23A1F081110E949607EC2FBB
:100FA000F0E0EE0FFF1FE15FFA4FA591B491EC91D5
:100FB000ED2381E090E009F480E0DF91CF91089586
:100FC00080E090E0FACF1F93CF93DF93282F30E09B
:100FD000F901EF5BFA4F8491F901E35DFA4FD49187
:100FE000F901E75EFA4FC491CC23A9F0162F8111C5
:100FF0000E949607EC2FF0E0EE0FFF1FEE58FF4F18
:10100000A591B4918FB7F894EC91111108C0D095C7
:10101000DE23DC938FBFDF91CF911F910895DE2BEC
:10102000F8CF1092F80281E08093F7021092F2025A
:1010300061E082E10E94E30761E083E10E94E3074F
:10104000E9EBF0E080818E7F808380818D7F8083DB
:1010500088E48093B80085E48093BC000895CF9322
:10106000DF9390E0FC01E35DFA4F2491875E9A4F95
:10107000FC0184918823D1F090E0880F991FFC0136
:10108000E859FF4FA591B491FC01EE58FF4FC5916F
:10109000D49161110EC09FB7F8948C91E22FE09526
:1010A0008E238C932881E223E8839FBFDF91CF9129
:1010B00008958FB7F894EC91E22BEC938FBFF6CFA5
:1010C000789484B5826084BD84B5816084BD85B523
:1010D000826085BD85B5816085BDEEE6F0E08081EA
:1010E00081608083E1E8F0E010828081826080830B
:1010F000808181608083E0E8F0E08081816080838E
:10110000E1EBF0E0808184608083E0EBF0E08081BF
:1011100081608083EAE7F0E0808184608083808161
:101120008260808380818160808380818068808309
:101130001092C10008958130910539F0880F991FF0
:10114000880F991F05970197F1F708953FB7F89415
:1011500080912F0290913002A0913102B091320221
:1011600026B5A89B05C02F3F19F00196A11DB11D02
:101170003FBFBA2FA92F982F8827BC01CD01620F3E
:10118000711D811D911D42E0660F771F881F991FF9
:101190004A95D1F708957F928F929F92AF92BF9216
:1011A000CF92DF92EF92FF920F931F93CF93DF9333
:1011B000EC01162F7A0169010E94A6084B015C011F
:1011C000712C1111788410E000E060E070E0CB0138
:1011D0002A813B814C815D812617370748075907D3
:1011E000F4F00115110561F5C7011E141F0464F127
:1011F0000E94A608681979098A099B09E985F0E027
:10120000EE0FFF1FE15FFA4FA591B4912C910F5F94
:101210001F4F38852323271105C097FFD9CF6FEFC4
:101220007FEFCB01DF91CF911F910F91FF90EF9056
:10123000DF90CF90BF90AF909F908F907F90089558
:101240001C141D04ACF6C6010E949B08D1CF2FB719
:10125000F89460912B0270912C0280912D02909154
:101260002E022FBF08958F929F92AF92BF92EF925E
:10127000FF920F931F93CF93DF937B018C01D0E0FC
:10128000C0E00E942709609321037093220380939A
:10129000230390932403E0911903F0911A0302842D
:1012A000F385E02D89E193E0099597FF27C00E941F
:1012B00027098090210390902203A0902303B090EF
:1012C0002403681979098A099B0980901D0390906D
:1012D0001E03A0901F03B0902003681579058A05AE
:1012E0009B05C8F2CE01DF91CF911F910F91FF9026
:1012F000EF90BF90AF909F908F900895F8018193E9
:101300008F012196EC16FD0609F0BBCFEBCF87E0ED
:101310008093040180933D0261E084E00E94E30732
:1013200060E085E00C94E30781110AC010923D0251
:1013300060E084E00E94E30760E085E00C94E3074E
:10134000873011F40C94870988E08093040180931E
:101350003D0260E084E00E94E30761E0EECFBF92CF
:10136000CF92DF92EF92FF920F931F93CF93DF9371
:1013700000D000D000D01F92CDB7DEB780E00E9431
:10138000360687E00E94D7021092A1028093A00245
:101390008730E1F582EA92E00E94DA030E94520669
:1013A000B82E82EA92E00E94DA030E945206C82E0A
:1013B00082EA92E00E94DA03182F86FF3EC08F7106
:1013C0000E9452060CE015FD00E0080F82EA92E050
:1013D0000E94DA030E945206D82E82EA92E00E940E
:1013E000DA030E945206E82E82EA92E00E94DA03B3
:1013F00010E087FD14E68F770E945206F82E82EAED
:1014000092E00E94DA030E945206180F2B2D3C2D09
:10141000402F5D2DB701812F90E027960FB6F894ED
:10142000DEBF0FBECDBFDF91CF911F910F91FF9017
:10143000EF90DF90CF90BF9008958F730E94520677
:10144000082FC4CFCF93DF93EB010E94360681E0D3
:101450000E94D7021092A1028093A00282EA92E039
:101460000E94DA03888381E0DF91CF910895EF92A3
:10147000FF921F93CF93DF931F92CDB7DEB77C010E
:10148000162FBE016F5F7F4F8EE00E94220A8111EE
:1014900008C080E00F90DF91CF911F91FF90EF90F7
:1014A000089581E08093AE0288E68093B0021092A6
:1014B000AF021092B102113089F587E090E00E94EE
:1014C0007E03F70180810E94480690E00E947E031F
:1014D000898185608983F70181810E94480690E0B7
:1014E0000E947E03F70182810E94480690E00E94DC
:1014F0007E03F70184810E94480690E00E947E03EB
:1015000081E00E9470038111C4CF69818EE00E9446
:101510001C068111BECF812F8770BCCF8BE090E07D
:101520000E947E0389818660D5CF0E941A17EF92B0
:10153000FF920F931F93CF93DF93EC018B0188E20F
:10154000FB0111928A95E9F761E08E810E942F08D4
:1015500060E08E810E94E30788EE93E00E949B0882
:1015600061E08E810E94E30760E08E810E942F0877
:1015700088E290E00E949B08E881F9810084F1856F
:10158000E02D26E030E04AE050E060E0CE01099531
:101590006E317105810591056CF4982F872F762F98
:1015A00066276061CB01DF91CF911F910F91FF9072
:1015B000EF900895E881F9810084F185E02D26E01F
:1015C00030E04AE050E061E0CE0109957801F8E2B0
:1015D000EF0EF11C623371058105910534F4982FEB
:1015E000872F762F66276161DDCFE881F98100843E
:1015F000F185E02D26E030E04AE050E060E0CE01E9
:101600000995683171058105910534F4982F872F6C
:10161000762F66276261C6CFE881F9810084F18563
:10162000E02D26E030E04AE050E061E0CE0109958F
:101630006B3071058105910534F4982F872F762F33
:1016400066276361AFCF21E069327105810591059D
:101650000CF420E0F80121938F01EE16FF0629F625
:10166000E881F9810084F185E02D26E030E04AE050
:1016700050E060E0CE010995683171058105910562
:1016800034F4982F872F762F662764618BCF70E014
:1016900060E088CFFB0101900020E9F73197AF01AE
:1016A000461B570BDC01ED91FC910280F381E02D8C
:1016B00009948F929F92AF92BF92EF92FF920F93F5
:1016C0001F93CF93DF93CDB7DEB7A1970FB6F894F2
:1016D000DEBF0FBECDBF7C01FA01CB0119A22230C3
:1016E00008F42AE08E010F5D1F4F822E912CB12C41
:1016F000A12CBF01A50194010E945118F901CA0152
:101700006A300CF5605DD8016E938D01232B242B7C
:10171000252B79F790E080E0109721F0BD01C701FB
:101720000E944A0BA1960FB6F894DEBF0FBECDBF44
:10173000DF91CF911F910F91FF90EF90BF90AF90ED
:101740009F908F900895695CDECFCF93C82F8A3029
:1017500028F460E389E193E00E945B064C2F50E09F
:1017600070E060E02AE089E193E0CF910C94590B9E
:10177000CF93DF93EC018E818536D0F062E389E16F
:1017800093E00E945B068E810E94A50B6DE289E1C9
:1017900093E00E945B068D810E94A50B6DE289E1BA
:1017A00093E00E945B068C81DF91CF910C94A50B96
:1017B00065E575E089E193E00E946206E4CFCF938E
:1017C000DF93EC018A810E94A50B6AE389E193E033
:1017D0000E945B0689810E94A50B6AE389E193E080
:1017E0000E945B068881DF91CF910C94A50B63E585
:1017F00071E00C944A0BCF92DF92EF92FF92CF935D
:10180000DF936C01990FEE08FF08F7FE21C06DE22F
:1018100089E193E00E945B06EC0144275527BA0159
:101820004C195D096E097F092AE089E193E00E9465
:10183000590BC80FD91F89E193E00E94F70B8C0F59
:101840009D1FDF91CF91FF90EF90DF90CF90089593
:101850002AE0B701A60189E193E00E94590BEC014F
:10186000EACF0F931F93CF93DF93EC010E946206A0
:101870008C01CE010E94F70B800F911FDF91CF9159
:101880001F910F910895CF93DF9330E020E04BE359
:1018900052E06CE372E080E292E00E94C105EC014C
:1018A000892B59F066E571E089E193E00E944A0BCB
:1018B000CE01DF91CF910C94FB0BDF91CF91089576
:1018C0001F920F920FB60F9211242F933F934F93B5
:1018D0005F936F937F938F939F93AF93BF93EF9398
:1018E000FF938091B900887F803609F44AC0F0F5F3
:1018F000883209F4A7C018F5803109F49BC0B8F408
:10190000882309F4F9C0883009F494C0FF91EF915D
:10191000BF91AF919F918F917F916F915F914F9107
:101920003F912F910F900FBE0F901F901895883107
:1019300009F488C0803251F78093F60214C08034D5
:1019400009F49DC040F48033B9F38833F9F68093ED
:10195000F60285ECB0C0803509F485C0883509F4FD
:1019600096C0883499F60E949903D0CF883909F43B
:101970008CC038F5883729F050F4883611F080375C
:1019800029F683E08093F80210928E0257C08838BF
:1019900009F47BC0803919F0803809F0B7CF809105
:1019A0008E02803208F071C0E0918E0281E08E0FCD
:1019B00080938E028091BB00F0E0E259FD4F80835E
:1019C0003DC0803B39F0E0F4803A09F479C0883AB0
:1019D00009F09CCF84E08093F80210926D0210927F
:1019E0006C02E0918F02F0919002099580916C0257
:1019F00081110FC081E080936C0210924C0209C0EB
:101A0000803C09F4A6CF883C09F4A3CF883B09F0B9
:101A10007DCFE0916D0281E08E0F80936D02F0E04A
:101A2000E45BFD4F80818093BB0090916D028091BB
:101A30006C0229C08091F3028093BB0085EC8093F7
:101A4000BC0064CF9091F5028091F402981758F58C
:101A5000E091F50281E08E0F8093F502F0E0EE5206
:101A6000FD4F8081E9CFE091F50281E08E0F8093F8
:101A7000F5028091BB00F0E0EE52FD4F8083909123
:101A8000F5028091F4029817C8F285E8D8CFE0916A
:101A9000F50281E08E0F8093F5028091BB00F0E0AB
:101AA000EE52FD4F80838091F70281115CCF81E07F
:101AB0008093F20284EA8093BC001092F80226CF51
:101AC00085EC8093BC001092F80280918E028032E7
:101AD00030F4E0918E02F0E0E259FD4F1082609107
:101AE0008E0270E0E0919102F09192028EE692E017
:101AF000099510928E020ACF1092F60234CF1F92EF
:101B00000F920FB60F9211242F933F934F935F9331
:101B10006F937F938F939F93AF93BF93EF93FF93B5
:101B200089E193E00E940707FF91EF91BF91AF9188
:101B30009F918F917F916F915F914F913F912F91E5
:101B40000F900FBE0F901F9018951F920F920FB617
:101B50000F9211242F938F939F93EF93FF93E09114
:101B60002903F0912A038081E0912F03F091300343
:101B700082FD1BC09081809132038F5F8F73209113
:101B80003303821741F0E0913203F0E0E75EFC4F4F
:101B9000958F80933203FF91EF919F918F912F91B9
:101BA0000F900FBE0F901F9018958081F4CF1F9259
:101BB0000F920FB60F9211242F933F938F939F9301
:101BC000AF93BF9380912B0290912C02A0912D0294
:101BD000B0912E0230912A0223E0230F2D3758F5C1
:101BE0000196A11DB11D20932A0280932B02909390
:101BF0002C02A0932D02B0932E0280912F0290917F
:101C00003002A0913102B09132020196A11DB11DA6
:101C100080932F0290933002A0933102B09332024E
:101C2000BF91AF919F918F913F912F910F900FBED8
:101C30000F901F90189526E8230F0296A11DB11D45
:101C4000D2CFE2EAF2E01382128288EE93E0A0E0C3
:101C5000B0E084839583A683B78385E491E0918384
:101C600080830895E9E1F3E01382128288EE93E025
:101C7000A0E0B0E084839583A683B78383E391E0FB
:101C80009183808385EC90E09587848784EC90E055
:101C90009787868780EC90E0918B808B81EC90E039
:101CA000938B828B82EC90E0958B848B86EC90E01A
:101CB000978B868B118E128E138E148E0895CF9370
:101CC000DF93C0E2D2E08BE091E09983888380E4E7
:101CD0009BE4ACE4B0E08A839B83AC83BD838FEF4D
:101CE0009FEF9F838E838887898762E070E0CE01B3
:101CF0000E9470058FE191E099838883DF91CF91F5
:101D000008950E94210E0E94320E0C945F0ECF9314
:101D1000DF93CDB7DEB72C970FB6F894DEBF0FBEBA
:101D2000CDBF0E946008E0912903F0912A0312E0E0
:101D30001083E0912503F09126031082E0912703A0
:101D4000F09128038FEC808310923103E0912D03F2
:101D5000F0912E0386E08083E0912B03F0912C0319
:101D6000808180618083E0912B03F0912C0380813E
:101D700088608083E0912B03F0912C038081806840
:101D80008083E0912B03F0912C0380818F7D8083F1
:101D90001092A1021092A0021092AF021092B10212
:101DA0000E9411080E9491030E94890360E08EE066
:101DB0000E941C060E94AF0929833A834B835C83EF
:101DC0008F838FE18D831E8362E0CE0101960E9496
:101DD000370A61E0CE0101960E94370A1B861886F9
:101DE0005E0128E0A20EB11CB5018FE00E94220A1C
:101DF0006885862F837021F06C7F8FE00E941C061F
:101E00008B85882369F0BE01655F7F4F8EE00E945D
:101E1000220A882329F06B856F778EE00E941C06CA
:101E20001092930261E08DE00E942F0861E084E04F
:101E30000E942F0861E085E00E942F086CE770E0A7
:101E400089E193E00E94310C6E0149E0C40ED11C7F
:101E5000CE0108967C0165E0262E312C33E0432E1E
:101E600041E1642E712C50E1852E912C0E942709AE
:101E700070934B0260934A022091350230913602F2
:101E8000621B730B68387341D0F10E94430C809140
:101E90003C02482F50E020910101022E000C330B30
:101EA0004217530714F48093010120910301022E7D
:101EB000000C330B2417350714F480930301809131
:101EC0003B02482F50E020910001022E000C330B02
:101ED0004217530714F48093000120910201022E4F
:101EE000000C330B2417350714F480930201809102
:101EF0004A0290914B0290933602809335020091F2
:101F00004A0210914B028091330290913402980161
:101F1000281B390B203A3B4B18F40817190720F4FB
:101F20001093340200933302809149028823F9F020
:101F300080913702909138029801281B390B8091CB
:101F40000501909106012817390788F00E94BF0704
:101F500061E0892B29F00E94BF07019721F460E01E
:101F60008DE00E94E30710933802009337028091BE
:101F70004802811104C0809147028823E1F08091DA
:101F8000390290913A029801281B390B8091050182
:101F9000909106012817390770F080910401909103
:101FA0004702992379F1883039F50E948709109307
:101FB0003A020093390289E193E00E94E706892BF7
:101FC00071F089E193E00E94C5060E941F1780937B
:101FD0004602803201F59091450291113BC080E0AC
:101FE00090E0892B09F442CF0E94F306882309F47C
:101FF00035CF0E94000032CF8730C9F688E00E94BA
:102000009409D5CF90913D02891302C080E0F7CFAB
:102010009111CDCFF4CF8F37E9F489E193E00E949D
:10202000F70B6AEF74E089E193E00E94310C1092A3
:102030009302109245021092400210923F021092B9
:1020400042021092410210924402109243021092F6
:102050003E02C5CF682F89E193E00E945B06F091B4
:102060004602FC87E0914502F03219F0FD3009F09C
:1020700095C5F0E0ED56FD4F108200913E02033011
:1020800030F56EE671E083E992E00E94271755244F
:102090005394500E10E0000F111F015C1D4F892B4F
:1020A00041F450923E028DE090E0F80191838083EC
:1020B0000EC062E771E083E992E00E942717892B46
:1020C00009F02FC050923E02F80111821082109246
:1020D000930210924502FC85FD3009F080CF89E122
:1020E00093E00E94F70BE0913F02F0914002E23151
:1020F000F10508F050C5E158FF4E0C9473185912C1
:10210000E211F4118A11B311CB15CB15CB15CB15F8
:10211000CB15CB15CB15CB153B12CB15CB1596128A
:10212000381566E771E083E992E00E942717892B52
:1021300029F450923E0289E090E0B7CF6BE771E05E
:1021400083E992E00E942717892B29F450923E02DE
:1021500081E090E0AACF6FE771E083E992E00E940E
:102160002717892B29F450923E0282E090E09DCF00
:1021700066E871E083E992E00E942717892B29F431
:1021800050923E0283E090E090CF6EE871E083E9E8
:1021900092E00E942717892B29F450923E0284E096
:1021A00090E083CF6BE871E083E992E00E9427170B
:1021B000892B29F450923E028AE090E076CF63E9C1
:1021C00071E083E992E00E942717892B29F450924D
:1021D0003E028BE090E069CF67E971E083E992E02D
:1021E0000E942717892B29F450923E028CE090E040
:1021F0005CCF6DE971E083E992E00E942717892B9B
:1022000029F450923E0286E090E04FCF62EA71E0FE
:1022100083E992E00E942717892B29F450923E020D
:1022200088E090E042CF66EA71E083E992E00E94A4
:102230002717892B29F450923E0287E090E035CF92
:102240006CEA71E083E992E00E942717892B29F458
:1022500050923E028EE090E028CF62EB71E083E97D
:1022600092E00E942717892B29F450923E028FE0BA
:1022700090E01BCF67EB71E083E992E00E942717A3
:10228000892B31F450923E02F801918280821FCF57
:102290006BEB71E083E992E00E942717892B31F400
:1022A00050923E02F8017182608211CF6FEB71E0B3
:1022B00083E992E00E942717892B29F450923E026D
:1022C00082E190E0F2CE67EC71E083E992E00E9457
:1022D0002717892B29F450923E0283E190E0E5CE46
:1022E0006DEC71E083E992E00E942717892B29F4B5
:1022F00050923E0284E190E0D8CE0E94E0155092C8
:102300003E02019619F00E94E015CFCEF80131820D
:102310002082DDCE60EF74E089E193E00E946206E6
:102320002AE042E050E060E070E089E193E00E9442
:10233000590B6EE289E193E00E945B062AE040E0DF
:1023400050E0BA0189E193E00E94590B2AE040E095
:1023500050E0BA0189E193E00E94590B89E193E0D2
:102360000E94F70B68CE60EC74E089E193E00E9474
:10237000310C67E874E089E193E00E94310C6FE270
:1023800074E089E193E00E94310C62E074E089E13D
:1023900093E00E94620684E690E00E94FB0B63EEED
:1023A00073E089E193E00E94310C6AE873E089E10F
:1023B00093E00E94310C6BE273E089E193E00E94AC
:1023C000310C39CE80914102909142020C9761F418
:1023D0008091430290914402843691052CF09093B1
:1023E00006018093050127CE80914102909142021F
:1023F000069709F020CE809149026EE173E08111C9
:1024000008C00E94BF0766E173E0892B11F06FE0FE
:1024100073E089E193E00E94310C80914702909132
:102420004802911102C08823B9F0909104019730BD
:1024300041F460E073E0882309F4BFCF69ED72E0F6
:10244000BCCF983029F463EF72E08111F7CFB5CF9C
:10245000882309F4F0CDF2CF80913D0261ED72E066
:10246000882309F4AACF67EC72E0873009F4A5CF7E
:102470006FEB72E0A2CF80914102909142028B30CB
:10248000910579F08C30910581F064EA72E00A9749
:1024900009F093CF1092490261E08DE00E94E307BA
:1024A000CACD1092490260E0F8CF81E080934902E2
:1024B000C2CD80914102909142028930910519F17B
:1024C00044F487309105C1F0089771F069E872E033
:1024D00074CF8B30910521F10C97C1F781E0809387
:1024E000480210924702A7CD10924702109248026C
:1024F00088E00E9494099FCD1092470210924802F2
:102500000E94870998CD80914302909144020C97D4
:1025100009F091CD1092480281E0809347028BCD63
:10252000109247021092480280E0E3CF809141026E
:10253000909142028E30910531F00F9709F462C2FA
:102540006EE672E03ACF188619861A8665EF71E05A
:1025500089E193E00E94310CF501242D11922A9516
:10256000E9F789E193E00E94F70B6EEC71E089E1F5
:1025700093E00E946206E0911903F0911A0300842F
:10258000F185E02D89E193E00995892BA1F362E0C3
:1025900070E0C5010E943309E0911903F0911A031C
:1025A0000084F185E02D89E193E00995892B59F0AC
:1025B000E0911903F0911A030284F385E02D89E17B
:1025C00093E00995E9CF88858033D9F5C6010E944B
:1025D000F6158D83F501242D11922A95E9F789E1ED
:1025E00093E00E94F70B6EEA71E089E193E00E94AC
:1025F0006206E0911903F0911A030084F185E02D41
:1026000089E193E00995892BA1F362E070E0C501AF
:102610000E943309E0911903F0911A030084F185B7
:10262000E02D89E193E00995892B69F0E091190388
:10263000F0911A030284F385E02D89E193E0099576
:10264000E9CFC501C4CF88858033D9F5C6010E9482
:10265000F6158E83F501242D11922A95E9F789E16B
:1026600093E00E94F70B6FE871E089E193E00E942C
:102670006206E0911903F0911A030084F185E02DC0
:1026800089E193E00995892BA1F362E070E0C5012F
:102690000E943309E0911903F0911A030084F18537
:1026A000E02D89E193E00995892B69F0E091190308
:1026B000F0911A030284F385E02D89E193E00995F6
:1026C000E9CFC501C4CF88858033D9F5C6010E9402
:1026D000F6158F83F701242D11922A95E9F789E1E8
:1026E00093E00E94F70B61E671E089E193E00E94BC
:1026F0006206E0911903F0911A030084F185E02D40
:1027000089E193E00995892BA1F362E070E0C701AC
:102710000E943309E0911903F0911A030084F185B6
:10272000E02D89E193E00995892B69F0E091190387
:10273000F0911A030284F385E02D89E193E0099575
:10274000E9CFC701C4CF88858033D9F5C6010E947F
:10275000F6158B83F701242D11922A95E9F789E16B
:1027600093E00E94F70B60E471E089E193E00E943E
:102770006206E0911903F0911A030084F185E02DBF
:1027800089E193E00995892BA1F362E070E0C7012C
:102790000E943309E0911903F0911A030084F18536
:1027A000E02D89E193E00995892B69F0E091190307
:1027B000F0911A030284F385E02D89E193E00995F5
:1027C000E9CFC701C4CF88858033D9F5C6010E94FF
:1027D000F6158A83F701242D11922A95E9F789E1EC
:1027E00093E00E94F70B6FE171E089E193E00E94B2
:1027F0006206E0911903F0911A030084F185E02D3F
:1028000089E193E00995892BA1F362E070E0C701AB
:102810000E943309E0911903F0911A030084F185B5
:10282000E02D89E193E00995892B69F0E091190386
:10283000F0911A030284F385E02D89E193E0099574
:10284000E9CFC701C4CF88858033D9F5C6010E947E
:10285000F6158983F701242D11922A95E9F789E16C
:1028600093E00E94F70B6EED70E089E193E00E9427
:10287000310CE0911903F0911A030084F185E02DE9
:1028800089E193E00995892BA1F361E070E0C7012C
:102890000E943309E0911903F0911A030084F18535
:1028A000E02D89E193E00995892B69F0E091190306
:1028B000F0911A030284F385E02D89E193E00995F4
:1028C000E9CFC701C4CFC7010E94F6158C8389E107
:1028D00093E00E94F70B6AEC70E089E193E00E94BC
:1028E0006206CE0101960E94B80B64E589E193E08F
:1028F0000E945B06CE0101960E94DF0B89E193E006
:102900000E94F70B65E970E089E193E00E9462069E
:10291000E0911903F0911A030084F185E02D89E11B
:1029200093E00995892BA1F361E070E0C7010E9453
:102930003309E0911903F0911A030084F185E02D29
:1029400089E193E00995892B59F0E0911903F09101
:102950001A030284F385E02D89E193E00995E9CF1C
:1029600088858F7D893509F0F7CD81E08093AE02AF
:1029700088E68093B0021092AF021092B10290E00C
:1029800080E00E947E0389810E944806682F82EAC7
:1029900092E00E9421048A810E944806682F82EA00
:1029A00092E00E9421048B810E944806682F82EAEF
:1029B00092E00E9421048C81811101C081E00E947B
:1029C0004806682F82EA92E00E9421048D810E94CD
:1029D0004806682F82EA92E00E9421048E810E94BC
:1029E0004806682F82EA92E00E9421048F810E94AB
:1029F0004806682F82EA92E00E94210481E00E944A
:102A0000700319CB0E94430C65ED71E089E193E0FE
:102A10000E944A0B40913C0250E070E060E02AE0E6
:102A200089E193E00E94590B89E193E00E94F70B42
:102A30000E94AF0929833A834B835C836D837E8335
:102A40008F83CE0101960E94B80B60E289E193E08A
:102A50000E945B060E94AF0929833A834B835C8303
:102A60006D837E838F83CE0101960E94DF0B76CC2F
:102A700080914102909142028331910509F4DBCAB1
:102A80008431910509F44DC063E572E0429709F085
:102A900094CC6DED71E089E193E00E944A0B409186
:102AA0003C0250E070E060E02AE089E193E00E949F
:102AB000590B69EF71E089E193E00E944A0B609144
:102AC0003C02062E000C770B880B990B0E942116F6
:102AD00026E636E646EE5FE30E945C1620E030E034
:102AE00040E052E40E9431170E940F1889E193E000
:102AF0000E945B066DEF71E089E193E00E944A0B52
:102B000040913B0250E070E060E02AE089E193E010
:102B10000E94590B62E072E089E193E00E944A0B47
:102B20001DCC64E072E089E193E00E944A0B609161
:102B3000030189E193E00E945B0669EF71E089E19E
:102B400093E00E944A0B60910301062E000C770B64
:102B5000880B990B0E94211626E636E646EE5FE3C7
:102B60000E945C1620E030E040E052E40E94311701
:102B70000E940F1889E193E00E945B066DEF71E0FF
:102B800089E193E00E944A0B6091020189E193E0A0
:102B90000E945B06BFCF68E372E00FCCEC3008F018
:102BA0001ECA81E08E0F80934502F0E0ED56FD4F86
:102BB0004C854083E82FF0E0ED56FD4F10820FCAA0
:102BC000E3E9F2E08191882351F0082E000C990B83
:102BD000C0970A9740F482E0EF39F80799F783E944
:102BE00092E00C94F6158FEF9FEF0895FC01882773
:102BF0009927E89421912032E9F3293010F02E3002
:102C0000C8F32B3241F02D3239F4689404C00E948D
:102C10001716820F911D219120532A30C0F31EF404
:102C2000909581959F4F0895F8940C9479187AE0C7
:102C3000979F902D879F802D910D11240895E894E2
:102C400009C097FB3EF490958095709561957F4FF4
:102C50008F4F9F4F9923A9F0F92F96E9BB279395A2
:102C6000F695879577956795B795F111F8CFFAF4B2
:102C7000BB0F11F460FF1BC06F5F7F4F8F4F9F4FE3
:102C800016C0882311F096E911C0772321F09EE841
:102C9000872F762F05C0662371F096E8862F70E0A7
:102CA00060E02AF09A95660F771F881FDAF7880F81
:102CB0009695879597F908950E946F160C94E016E3
:102CC0000E94D21638F00E94D91620F0952311F0F8
:102CD0000C94C9160C94CF1611240C9414170E944E
:102CE000F11670F3959FC1F3950F50E0551F629F49
:102CF000F001729FBB27F00DB11D639FAA27F00D55
:102D0000B11DAA1F649F6627B00DA11D661F829F7B
:102D10002227B00DA11D621F739FB00DA11D621F60
:102D2000839FA00D611D221F749F3327A00D611D7D
:102D3000231F849F600D211D822F762F6A2F11245F
:102D40009F5750409AF0F1F088234AF0EE0FFF1F92
:102D5000BB1F661F771F881F91505040A9F79E3FE9
:102D6000510580F00C94C9160C9414175F3FE4F3DE
:102D7000983ED4F3869577956795B795F795E7953F
:102D80009F5FC1F7FE2B880F911D9695879597F948
:102D9000089597F99F6780E870E060E008959FEFDD
:102DA00080EC089500240A941616170618060906E2
:102DB000089500240A9412161306140605060895B1
:102DC000092E0394000C11F4882352F0BB0F40F439
:102DD000BF2B11F460FF04C06F5F7F4F8F4F9F4F79
:102DE000089557FD9058440F551F59F05F3F71F0FB
:102DF0004795880F97FB991F61F09F3F79F0879562
:102E00000895121613061406551FF2CF4695F1DFEA
:102E100008C0161617061806991FF1CF869571057A
:102E2000610508940895E894BB2766277727CB01AE
:102E300097F9089581E090E0F8940C947918911135
:102E4000089581568A5108F4805285580895FB01EF
:102E5000DC018D91019080190110D9F3990B08952F
:102E60005058BB27AA270E9448170C94E0160E94CE
:102E7000D21638F00E94D91620F039F49F3F19F489
:102E800026F40C94CF160EF4E095E7FB0C94C916CB
:102E9000E92F0E94F11658F3BA17620773078407E7
:102EA000950720F079F4A6F50C9413170EF4E0952D
:102EB0000B2EBA2FA02D0B01B90190010C01CA01F4
:102EC000A0011124FF27591B99F0593F50F4503E9F
:102ED00068F11A16F040A22F232F342F4427585F91
:102EE000F3CF469537952795A795F0405395C9F7A9
:102EF0007EF41F16BA0B620B730B840BBAF0915061
:102F0000A1F0FF0FBB1F661F771F881FC2F70EC0FF
:102F1000BA0F621F731F841F48F4879577956795D2
:102F2000B795F7959E3F08F0B0CF9395880F08F0BE
:102F30009927EE0F9795879508950E94B1170C94E5
:102F4000E0160E94D91658F00E94D21640F029F4DB
:102F50005F3F29F00C94C91651110C9414170C946E
:102F6000CF160E94F11668F39923B1F3552391F31C
:102F7000951B550BBB27AA2762177307840738F0E8
:102F80009F5F5F4F220F331F441FAA1FA9F335D045
:102F90000E2E3AF0E0E832D091505040E695001CF9
:102FA000CAF72BD0FE2F29D0660F771F881FBB1FB3
:102FB000261737074807AB07B0E809F0BB0B802D91
:102FC000BF01FF2793585F4F3AF09E3F510578F0BD
:102FD0000C94C9160C9414175F3FE4F3983ED4F395
:102FE000869577956795B795F7959F5FC9F7880F91
:102FF000911D9695879597F90895E1E0660F771FE3
:10300000881FBB1F621773078407BA0720F0621B73
:10301000730B840BBA0BEE1F88F7E09508950E949E
:1030200016186894B1110C94141708950E94F9169B
:1030300088F09F5798F0B92F9927B751B0F0E1F079
:10304000660F771F881F991F1AF0BA95C9F714C029
:10305000B13091F00E941317B1E008950C9413174A
:10306000672F782F8827B85F39F0B93FCCF3869562
:1030700077956795B395D9F73EF4909580957095BF
:1030800061957F4F8F4F9F4F0895991B79E004C042
:10309000991F961708F0961B881F7A95C9F7809597
:1030A0000895A1E21A2EAA1BBB1BFD010DC0AA1F89
:1030B000BB1FEE1FFF1FA217B307E407F50720F0A1
:1030C000A21BB30BE40BF50B661F771F881F991F1C
:1030D0001A9469F760957095809590959B01AC0165
:1030E000BD01CF010895EE0FFF1F0590F491E02D73
:0630F0000994F894FFCFE3
:1030F6007F7F808008F40100000000C105A20595CD
:103106000A950ACB086005950AFC0400000000C178
:1031160005A20550048305CB086005970AFC040048
:1031260000000029078606B6067607E706C506D913
:1031360006000000002104F403B306CA03ED03DA17
:1031460003CB030D0A0052656164204448543232B1
:10315600206661696C65642C206572723D0044319D
:1031660033004C4544004455414C005345540053EC
:1031760054415455530056455253494F4E00484505
:103186004C50004F464600424C494E4B004C45447D
:10319600530052454400475245454E005752495444
:1031A60045005245414400525443004448540043AC
:1031B600555252454E5400534156454400455854C5
:1031C60052454D450074656D7020697300437572F4
:1031D60072656E742074656D70202F2068756D6938
:1031E6006469747920697320004320280046292CDD
:1031F6002000250045787472656D652074656D70D4
:10320600202F2068756D69646974792069732000C0
:00000001FF
