:100000000C945A030C9482030C9482030C94820384
:100010000C9482030C9482030C9482030C9482034C
:100020000C9482030C9482030C9482030C9482033C
:100030000C9482030C9482030C9482030C9482032C
:100040000C94B9130C9482030C9487130C946113D1
:100050000C9482030C9482030C9482030C9482030C
:100060000C9442120C94820300000000240027002C
:100070002A0000000000250028002B00456E746552
:100080007220636F6D6D616E6473206F72202748FC
:10009000454C50270053656E642027592720746F04
:1000A000207365742074686520636C6F636B2C200B
:1000B00073656E6420274E2720746F2073746172FD
:1000C0007420616761696E3A2000456E74657265DF
:1000D000642054696D657374616D703A2000456EDB
:1000E00074657220446179204F66205765656B20E6
:1000F00028312064696769742C20312D372C2061E8
:1001000072626974726172696C792031203D204D90
:100110006F6E2C2037203D2053756E293A20004504
:100120006E746572205365636F6E6420283220649C
:1001300069676974732C2030302D3539293A2000D5
:10014000456E746572204D696E7574652028322085
:100150006469676974732C2030302D3539293A2051
:1001600000456E74657220486F75722028322064D5
:1001700069676974732C20323420686F757220634C
:100180006C6F636B2C2030302D3233293A200045C0
:100190006E74657220596561722028322064696727
:1001A0006974732C2030302D3939293A2000456E7E
:1001B000746572204D6F6E74682028322064696700
:1001C0006974732C2030312D3132293A2000456E6C
:1001D00074657220446179206F66204D6F6E74687B
:1001E000202832206469676974732C2030312D33E4
:1001F00031293A2000436C6F636B2069732073656B
:1002000074207768656E20616C6C20646174612075
:10021000697320656E746572656420616E6420790F
:100220006F752073656E642027592720746F2063D3
:100230006F6E6669726D2E00496E76616C6964201E
:10024000636F6D6D616E642C207479706520484514
:100250004C5000496E76616C696420636F6D6D610E
:100260006E642C20747970652048454C5000496EAE
:1002700076616C696420636F6D6D616E642C2074AF
:100280007970652048454C5000496E76616C696410
:1002900020636F6D6D616E642C20747970652048E9
:1002A000454C5000496E76616C696420636F6D6DDA
:1002B000616E642C20747970652048454C5000496B
:1002C0006E76616C696420636F6D6D616E642C2065
:1002D000747970652048454C5000496E76616C69B0
:1002E0006420636F6D6D616E642C2074797065207D
:1002F00048454C50004C454420526564004C4544F0
:1003000020477265656E004C4544206F666600426A
:100310006C696E6B696E6720626F7468206F6E2007
:100320006475616C204C454400426C696E6B696E6B
:10033000672072656400426C696E6B696E67206746
:100340007265656E00443133206F6E004431332096
:100350006F666600426C696E6B696E67204431336C
:1003600000496E76616C696420636F6D6D616E64C7
:100370002C20747970652048454C5000E2949CE232
:100380009480E2948020414444205820590A0DE290
:10039000949CE29480E29480204431330A0DE294EC
:1003A00082C2A0C2A020E2949CE29480E2948020C9
:1003B000424C494E4B0A0DE29482C2A0C2A020E2F8
:1003C000949CE29480E29480204F46460A0DE29489
:1003D00082C2A0C2A020E29494E29480E2948020A1
:1003E0004F4E0A0DE2949CE29480E29480205247A2
:1003F000420A0DE29482C2A0C2A020E2949CE29440
:1004000080E2948020312052204720422028524709
:100410004220636F6C6F72203120302D32353529C8
:100420000A0DE29482C2A0C2A020E2949CE29480D1
:10043000E294802032205220472042202852474216
:1004400020636F6C6F72203220302D3235350A0DEB
:10045000E29482C2A0C2A020E2949CE29480E29442
:10046000802053455420424C494E4B20582028644C
:10047000656C617920696E206D73290A0DE2949C88
:10048000E29480E2948020444854202874656D7082
:100490006572617475726520616E642068756D693E
:1004A000646974792073656E736F7273290A0DE243
:1004B0009482C2A0C2A020E2949CE29480E2948044
:1004C0002043555252454E540A0DE29482C2A0C2B6
:1004D000A020E2949CE29480E294802045585452FB
:1004E000454D450A0DE29482C2A0C2A020E2949438
:1004F000E29480E294802053415645440A0DE294F0
:100500009CE29480E29480204C45440A0DE294825F
:10051000C2A0C2A020E2949CE29480E29480204297
:100520004C494E4B0A0DE29482C2A0C2A020E29434
:1005300082C2A0C2A020E2949CE29480E294802037
:100540004455414C0A0DE29482C2A0C2A020E2941C
:1005500082C2A0C2A020E2949CE29480E294802017
:10056000475245454E0A0DE29482C2A0C2A020E245
:100570009482C2A0C2A020E29494E29480E294808B
:10058000205245440A0DE29482C2A0C2A020E29407
:100590009CE29480E2948020475245454E0A0DE249
:1005A0009482C2A0C2A020E2949CE29480E2948053
:1005B000204F46460A0DE29482C2A0C2A020E294D7
:1005C00094E29480E29480205245440A0DE2949C87
:1005D000E29480E2948020525443202874696D652F
:1005E00020636C6F636B290A0DE29482C2A0C2A0E3
:1005F00020E2949CE29480E2948020524541440A97
:100600000DE29482C2A0C2A020E29494E29480E21F
:1006100094802057524954450A0DE2949CE29480FC
:10062000E294802053455420424C494E4B205820A0
:10063000287365747320666F7220616C6C204C4562
:1006400044732C206D696E200056657273696F6E5D
:100650003A200052652D656E7465722074686520BD
:10066000636F6D6D616E6400000000002300260062
:100670002900040404040404040402020202020225
:100680000303030303030102040810204080010256
:1006900004081020010204081020000000080002D5
:1006A00001000003040700000000000000003230D9
:1006B0000000DF1411241FBECFEFD8E0DEBFCDBF96
:1006C00024E0AAEAB2E001C01D92A839B207E1F71E
:1006D00012E0A0E0B1E0EEEBF3E402C005900D9271
:1006E000AA3AB107D9F713E0CAE5D3E004C02197CD
:1006F000FE010E94BC21C935D107C9F70E94E91447
:100700000C94EA1E0C940000813208F041C09091D4
:10071000DA039111FCCF91E09093DA039093D9031F
:100720002FEF2093D8031092D703280F2093D603DE
:100730009093D5039091D503906D9093D5039091AC
:10074000D4039130F9F41092D4039091D50390938F
:10075000BB009091BC0093FDF8CF95EC9093BC004A
:100760009091DA039130E1F39091D703981710F448
:100770008091D703A4EBB3E0EBEDF3E090E09813A6
:1007800003C0089595EEEACF2D9121939F5FF7CF97
:1007900080E00895613208F048C09091DA03911129
:1007A000FCCF92E09093DA034093D9039FEF9093AC
:1007B000D8031092D7036093D603A4E9B3E0E4EB27
:1007C000F3E090E069132BC01092D5039091D5030C
:1007D000880F892B8093D5038091D403813019F53C
:1007E0001092D4038091D5038093BB008091BC000C
:1007F00083FDF8CF85EC8093BC008091DA038230D2
:10080000E1F38091D8038F3F91F08091D80380323B
:1008100081F08091D803803371F084E008952D91A8
:1008200021939F5FCFCF85EEE6CF81E0089580E0F2
:10083000089582E0089583E00895482F609193031E
:10084000809192030E94CA03109291031092930325
:10085000109290030895E0918403F0918503019034
:10086000F081E02D682F84E893E009948DE394E013
:1008700090936803809367030895089585E494E056
:1008800090936603809365030895089585ED8093A2
:10089000BC008091BC0084FDFCCF1092DA03089567
:1008A00020914203260F3327331F21323105ECF408
:1008B0002091DA03FC0190E080E0243069F082E0CE
:1008C0000895A09142032191AC014E5D5C4FA40FAD
:1008D000B52FB11D2C930196861798F38091420392
:1008E000680F6093420380E0089581E008950895C1
:1008F000E091830380918203E81730F4F0E0E55241
:10090000FC4F808190E008958FEF9FEF08959091C4
:100910008303809182032FEF3FEF981748F4E92F6C
:10092000F0E0E552FC4F208130E09F5F909383031D
:10093000C90108958091820390918303891B990BCB
:100940000895CF92DF92EF92FF920F931F93CF9370
:10095000DF937C01CB018A0120919003222389F04F
:10096000EB016B01C40ED51ECC15DD0569F0699154
:10097000D701ED91FC910190F081E02DC70109951F
:10098000F3CF642F0E945004C801DF91CF911F91D3
:100990000F91FF90EF90DF90CF900895CF93DF936A
:1009A0001F92CDB7DEB76983209190032223F9F01F
:1009B00020919303203258F021E030E0FC01338392
:1009C000228390E080E00F90DF91CF910895809195
:1009D0009103E82FF0E0EC56FC4F998190838F5FF4
:1009E000809391038093930381E090E0ECCF61E0EA
:1009F000CE0101960E945004F7CF6F927F928F92A2
:100A00009F92AF92BF92CF92DF92EF92FF920F939D
:100A10001F93CF93DF93CDB7DEB7AC970FB6F894A3
:100A2000DEBF0FBECDBFDC011696ED91FC91319675
:100A300009F48BC059013A016B018C01FE0131961A
:100A40004F0188E2DF011D928A95E9F7D801ED9107
:100A5000FC910484F585E02DB401C80109957C0161
:100A6000892B09F05CC01AA619A61CA61BA6D801E2
:100A7000ED91FC910684F785E02D9E01255D3F4FA9
:100A8000AE01475D5F4FB401C80109957C01892B18
:100A900009F045C0A114B10439F088E2F401D50190
:100AA00001900D928A95E1F7C114D10409F189A54D
:100AB0009AA521E030E097FF02C02FEF3FEF9F772C
:100AC000829FB001839F700D929F700D1124072E9D
:100AD000000C880B990B0E94F71E20E030E040E2EA
:100AE00051E40E94A320F601608371838283938383
:100AF00061147104A1F06BA57CA5072E000C880B76
:100B0000990B0E94F71E20E030E040E251E40E9481
:100B1000A320D3016D937D938D939C931397C7016D
:100B2000AC960FB6F894DEBF0FBECDBFDF91CF916C
:100B30001F910F91FF90EF90DF90CF90BF90AF90FB
:100B40009F908F907F906F90089587E1E82EF12C11
:100B5000E6CF8F929F92AF92BF92CF92DF92EF92A9
:100B6000FF920F931F93CF93DF93EC018B016A01E8
:100B70007901E881F9810284F385E02D0995B82E89
:100B8000B801685F7F4FE881F9810284F385E02D29
:100B9000CE010995982EB801605F7F4FE881F981F9
:100BA0000284F385E02DCE010995A82EB801685E78
:100BB0007F4FE881F9810284F385E02DCE0109950C
:100BC000882EB801605E7F4FE881F9810284F38549
:100BD000E02DCE0109959B2D990D9A0D980D891345
:100BE00019C09A2D882DF601918380839B2D892D24
:100BF000F7019183808390E080E0DF91CF911F9196
:100C00000F91FF90EF90DF90CF90BF90AF909F90AB
:100C10008F90089585E190E0F0CF47E050E080E0CC
:100C2000FB012191BF01042E01C0220F0A94EAF7B3
:100C3000820F41505109A0F70895DC0117967C936B
:100C40006E931697FB01EA57F94FE4911896EC93CF
:100C500018976E58794FFB01649119966C9308951B
:100C6000CF92DF92EF92FF920F931F93CF93DF9378
:100C7000EC017A0169010E941D06E881F981048076
:100C8000F581E02D9801A601B701CE01DF91CF914A
:100C90001F910F91FF90EF90DF90CF900994CF922A
:100CA000DF92EF92FF920F931F93CF93DF93EC01AC
:100CB0007A0169010E941D06E881F9810190F081A5
:100CC000E02D9801A601B701CE01DF91CF911F91D0
:100CD0000F91FF90EF90DF90CF900994CF92DF9229
:100CE000EF92FF920F931F93CF93DF93CDB7DEB7B1
:100CF00028970FB6F894DEBF0FBECDBFDC01169665
:100D0000ED91FC91319609F440C08A017B01198272
:100D10001A821B821C821D821E821F821886DC01A1
:100D2000ED91FC910480F581E02DAE014B5F5F4FAA
:100D3000BE016F5F7F4F09956C01892BB1F4E114FF
:100D4000F10441F069817A818B819C810E94152197
:100D5000F70160830115110541F06D817E818F815E
:100D600098850E941521D8016C93C60128960FB66C
:100D7000F894DEBF0FBECDBFDF91CF911F910F91D1
:100D8000FF90EF90DF90CF90089587E1C82ED12C8F
:100D9000ECCFCF93C62F91E09093900398E6909379
:100DA00092031092910310929303682F84E893E0CA
:100DB0000E94CE046C2F84E893E00E94CE0481E070
:100DC000CF910C941D0491E09093900398E690933A
:100DD00092031092910310929303682F84E893E09A
:100DE0000E94CE0481E00C941D046AE00E945B2105
:100DF000292F30E1839FC0011124822B0895982F61
:100E000092959F708F702AE0929F800D1124089513
:100E1000FC01538D448D252F30E0842F90E0821B00
:100E2000930B541710F0CF96089501970895FC0185
:100E3000918D828D981761F0A28DAE0FBF2FB11DDD
:100E40005D968C91928D9F5F9F73928F90E0089535
:100E50008FEF9FEF0895FC01918D828D981731F0EF
:100E6000828DE80FF11D858D90E008958FEF9FEF43
:100E70000895FC01918D228D892F90E0805C9F4F19
:100E8000821B91098F7399270895FC01A48DA80FE7
:100E9000B92FB11DA35ABF4F2C91848D90E00196BC
:100EA0008F739927848FA689B7892C93A089B189DC
:100EB0008C91837080648C93938D848D981306C07D
:100EC0000288F389E02D80818F7D80830895EF92E1
:100ED000FF920F931F93CF93DF93EC0181E0888FF4
:100EE0009B8D8C8D98131AC0E889F989808185FFC4
:100EF00015C09FB7F894EE89FF896083E889F98966
:100F000080818370806480839FBF81E090E0DF9167
:100F1000CF911F910F91FF90EF900895F62E0B8DBA
:100F200010E00F5F1F4F0F731127E02E8C8D8E1175
:100F30000CC00FB607FCFACFE889F989808185FFDC
:100F4000F5CFCE010E944507F1CFEB8DEC0FFD2FC1
:100F5000F11DE35AFF4FF0829FB7F8940B8FEA8997
:100F6000FB8980818062CFCFCF93DF93EC01888DA6
:100F70008823B9F0AA89BB89E889F9898C9185FD14
:100F800003C0808186FD0DC00FB607FCF7CF8C91A2
:100F900085FFF2CF808185FFEDCFCE010E9445070E
:100FA000E9CFDF91CF9108958BEF93E00E9439074D
:100FB00021E0892B09F420E0822F089580E090E061
:100FC000892B29F00E94D40781110C940000089508
:100FD000DC01ED91FC910190F081E02D0994EF92FC
:100FE000FF920F931F93CF93DF938C017B01D0E08F
:100FF000C0E0F701EC0FFD1F6491662361F0D8019A
:10100000ED91FC910190F081E02DC8010995892BAB
:1010100011F02196EECFCE01DF91CF911F910F916C
:10102000FF90EF900895AF92BF92CF92DF92EF9230
:10103000FF920F931F93CF93DF936C017B018B0182
:10104000040F151FEB015E01AE18BF08C017D107D2
:1010500059F06991D601ED91FC910190F081E02D5C
:10106000C6010995892B79F7C501DF91CF911F91B1
:101070000F91FF90EF90DF90CF90BF90AF900895C9
:1010800090E080E00895833081F028F4813099F079
:101090008230A9F008958730A9F08830C9F08430F3
:1010A000B1F4809180008F7D03C0809180008F77A4
:1010B00080938000089584B58F7784BD089584B5AA
:1010C0008F7DFBCF8091B0008F778093B000089523
:1010D0008091B0008F7DF9CFCF93DF93E7EAF6E000
:1010E0008491E3E9F6E0D491EFE7F6E0C491CC23F4
:1010F000A1F081110E944308EC2FF0E0EE0FFF1FDA
:10110000E859F94FA591B491EC91ED2381E090E07D
:1011100009F480E0DF91CF91089580E090E0FACF6C
:101120001F93CF93DF93282F30E0F901E656F94F54
:101130008491F901EA57F94FD491F901EE58F94F2A
:10114000C491CC23A9F0162F81110E944308EC2FE3
:10115000F0E0EE0FFF1FEE58FF4FA591B4918FB74F
:10116000F894EC91111108C0D095DE23DC938FBF69
:10117000DF91CF911F910895DE2BF8CF1092DA0303
:1011800081E08093D9031092D40361E082E10E9450
:10119000900861E083E10E949008E9EBF0E0808133
:1011A0008E7F808380818D7F808388E48093B800E8
:1011B00085E48093BC000895CF93DF9390E0FC0119
:1011C000EA57F94F24918E58994FFC018491882356
:1011D000D1F090E0880F991FFC01E859FF4FA591CD
:1011E000B491FC01EE58FF4FC591D49161110EC02E
:1011F0009FB7F8948C91E22FE0958E238C932881F1
:10120000E223E8839FBFDF91CF9108958FB7F894D1
:10121000EC91E22BEC938FBFF6CF789484B582608B
:1012200084BD84B5816084BD85B5826085BD85B58A
:10123000816085BDEEE6F0E0808181608083E1E839
:10124000F0E0108280818260808380818160808371
:10125000E0E8F0E0808181608083E1EBF0E0808174
:1012600084608083E0EBF0E0808181608083EAE746
:10127000F0E08081846080838081826080838081CF
:10128000816080838081806880831092C10008958E
:101290008130910539F0880F991F880F991F0597A4
:1012A0000197F1F708953FB7F8948091B1029091BA
:1012B000B202A091B302B091B40226B5A89B05C0BA
:1012C0002F3F19F00196A11DB11D3FBFBA2FA92FC5
:1012D000982F8827BC01CD01620F711D811D911DC2
:1012E00042E0660F771F881F991F4A95D1F708952E
:1012F0007F928F929F92AF92BF92CF92DF92EF92A6
:10130000FF920F931F93CF93DF93EC01162F7A0177
:1013100069010E9453094B015C01712C1111788401
:1013200010E000E060E070E0CB012A813B814C815D
:101330005D812617370748075907F4F00115110595
:1013400061F5C7011E141F0464F10E945309681956
:1013500079098A099B09E985F0E0EE0FFF1FE8593A
:10136000F94FA591B4912C910F5F1F4F388523231E
:10137000271105C097FFD9CF6FEF7FEFCB01DF912A
:10138000CF911F910F91FF90EF90DF90CF90BF9082
:10139000AF909F908F907F9008951C141D04ACF621
:1013A000C6010E944809D1CF2FB7F8946091AD02D1
:1013B0007091AE028091AF029091B0022FBF08955C
:1013C0008F929F92AF92BF92EF92FF920F931F93D3
:1013D000CF93DF937B018C01D0E0C0E00E94D40961
:1013E00060930304709304048093050490930604AF
:1013F000E091FB03F091FC030284F385E02D8BEF79
:1014000093E0099597FF27C00E94D40980900304B8
:1014100090900404A0900504B0900604681979091E
:101420008A099B098090FF0390900004A09001041A
:10143000B0900204681579058A059B05C8F2CE01B3
:10144000DF91CF911F910F91FF90EF90BF90AF90E0
:101450009F908F900895F80181938F012196EC164B
:10146000FD0609F0BBCFEBCF4F925F926F927F9258
:101470009F92AF92BF92CF92DF92EF92FF920F9323
:101480001F93CF93DF9300D01F92CDB7DEB7F82E16
:101490008091720390917303A0917403B0917503CE
:1014A000892B8A2B8B2BD9F00E94530900917E0344
:1014B00010917F032091800330918103601B710B99
:1014C000820B930B009172031091730320917403AC
:1014D000309175036017710782079307C8F20E9465
:1014E000530960937E0370937F03809380039093EE
:1014F0008103E0917A03F0917B03309759F040919A
:1015000076035091770360917803709179038F2D62
:101510000995F82E00917C0310917D034F2C512CDE
:10152000712C612C0115110509F45EC0D8011C96BF
:10153000EC901C9780917003909171038436910513
:1015400010F41C961C92D801ED91FC91A280B380FE
:1015500019821A821B82FF2089F1F8013696D12C5C
:10156000C12C2191222319F19280992001F130E0C0
:1015700050E040E02F5F3F4F4F4F5F4FC301B2013C
:101580000E944B219B01AC01892D90E0B0E0A0E0CE
:10159000BC01CD016F5F7F4F8F4F9F4F0E944B214A
:1015A000A1E0B0E0AC0FBD1FAC0DBD1D8C93BFEF33
:1015B000CB1ADB0A83E0C816D10499F6D8011D9630
:1015C0004D915C911E9712966D917C919E012F5FBB
:1015D0003F4FC801F5010995D8011C96EC921C9764
:1015E00014960D911C919ECF80916D0390916E0386
:1015F0008C010F5F1F4F10936E0300936D0349978B
:10160000B4F10E94D409C0906903D0906A03E090BD
:101610006B03F0906C039B01AC012C193D094E0942
:101620005F0921F421E030E040E050E088EE93E0F3
:10163000089FB001099F700D189F700D1124072E8F
:10164000000C880B990B0E947B213093710320932F
:10165000700310926E0310926D030E94D409609380
:10166000690370936A0380936B0390936C030F90EC
:101670000F900F90DF91CF911F910F91FF90EF90FE
:10168000DF90CF90BF90AF909F907F906F905F90D2
:101690004F9008950F931F93CF93DF932091AB0248
:1016A0002F5F322F37703093AB0220FF2BC020E822
:1016B00031FD2064347009F02062205FFC01EC01F0
:1016C000239600E011E06485662329F070E0C801EC
:1016D0000E9467216F5F6187322F369F030E30E0D3
:1016E000311D1124311110C01682662311F0615092
:1016F00061873196EC17FD0731F7DF91CF911F918C
:101700000F91089520E0D4CF31503683EECF4F9221
:101710005F926F927F928F92AF92BF92CF92DF9241
:10172000EF920F931F93CF93DF933C01EB010E9445
:101730005309F30127853089621B730B6A307105E9
:10174000B0F3F894E881F9817BB170646BB16F7B81
:101750006BB9CA848F812C2D281B822F2F83BF84C5
:101760004A805B801D850C85DE841F5F0F5FD394EC
:101770009E813885A984EB844181D20120E0C32F6A
:10178000522F322F3181442788943111380F08F4B9
:101790003FEF8195889410FD430F4795889411FD84
:1017A000430F4795889412FD430F4795889413FD86
:1017B000430F4795889414FD430F4795889415FD72
:1017C000430F4795889416FD430F4795889417FD5E
:1017D000430F47958894232F1111242F8C0D422FEE
:1017E000002C7BB900C047FF6BB930812227889459
:1017F00000C000C0002C6BB93111390F00C0002CA3
:101800007BB900C046FF6BB908F43FEF919588940F
:1018100000C000C0002C6BB900FD230F00C0002CDD
:101820007BB900C045FF6BB92795889401FD230F54
:1018300000C000C0002C6BB92795889400C0002C14
:101840007BB900C044FF6BB902FD230F2795889434
:1018500000C000C0002C6BB903FD230F00C0002C9A
:101860007BB900C043FF6BB92795889404FD230F13
:1018700000C000C0002C6BB92795889400C0002CD4
:101880007BB900C042FF6BB905FD230F27958894F3
:1018900000C000C0002C6BB906FD230F00C0002C57
:1018A0007BB900C041FF6BB92795889407FD230FD2
:1018B00000C000C0002C6BB92795889400C0002C94
:1018C0007BB900C040FF6BB9432F0111422F9A0D25
:1018D00000C000C0002C6BB900C000C0002C7BB958
:1018E00000C047FF6BB932812227889400C000C036
:1018F000002C6BB931113C0F00C0002C7BB900C02B
:1019000046FF6BB908F43FEFEB0DF11D00C000C0BE
:10191000002C6BB9D0FC230F00C0002C7BB900C099
:1019200045FF6BB927958894D1FC230F00C000C0F8
:10193000002C6BB92795889400C0002C7BB900C09F
:1019400044FF6BB9D2FC230F2795889400C000C0D8
:10195000002C6BB9D3FC230F00C0002C7BB900C056
:1019600043FF6BB927958894D4FC230F00C000C0B7
:10197000002C6BB92795889400C0002C7BB900C05F
:1019800042FF6BB9D5FC230F2795889400C000C097
:10199000002C6BB9D6FC230F00C0002C7BB900C013
:1019A00041FF6BB927958894D7FC230F00C000C076
:1019B000002C6BB92795889400C0002C7BB900C01F
:1019C00040FF6BB9432FD110422FC19500C000C01A
:1019D000002C6BB9CE0D00C000C07BB900C047FF22
:1019E0006BB931812227889400C000C0002C6BB9EC
:1019F0003111380F00C0002C7BB900C046FF6BB915
:101A000008F43FEF8195889400C000C0002C6BB9AA
:101A100010FD230F00C0002C7BB900C045FF6BB93F
:101A20002795889411FD230F00C000C0002C6BB9CE
:101A30002795889400C0002C7BB900C044FF6BB987
:101A400012FD230F2795889400C000C0002C6BB9AD
:101A500013FD230F00C0002C7BB900C043FF6BB9FE
:101A60002795889414FD230F00C000C0002C6BB98B
:101A70002795889400C0002C7BB900C042FF6BB949
:101A800015FD230F2795889400C000C0002C6BB96A
:101A900016FD230F00C0002C7BB900C041FF6BB9BD
:101AA0002795889417FD230F00C000C0002C6BB948
:101AB0002795889400C0002C7BB900C040FF6BB90B
:101AC000432F1111422F8C0D00C000C0002C6BB9A8
:101AD000119709F086CE20EE31E0D2010E94C2219A
:101AE000DC01CB01F4E0B695A79597958795FA951B
:101AF000D1F730E020E0B901EAE94E9E040C611D07
:101B00005E9E600D711D1124650D711D860F971F5E
:101B1000A11DB11D893E43E09407A105B10508F45C
:101B200034C0885E9340A109B10942E0B695A795FB
:101B3000979587954A95D1F747E0849F080E211D18
:101B4000949F200D311D1124290F311D6091AA028F
:101B500070E0860F971F820F931F4091AD02509146
:101B6000AE026091AF027091B002292F3327420F6D
:101B7000531F611D711D4093AD025093AE026093DF
:101B8000AF027093B0028093AA0278940E94530926
:101B9000F301708B6787DF91CF911F910F91EF90C9
:101BA000DF90CF90BF90AF908F907F906F905F90BD
:101BB0004F90089580E991E00895569A08950F9303
:101BC0001F93CF93DF93CDB7DEB762970FB6F8942C
:101BD000DEBF0FBECDBF8C01F901DC011C968C91DC
:101BE0007A8369835C834B835E834D8390819D8779
:101BF00091819E8792819F878130F1F4CE01019679
:101C00000E944A0B83E0888B1A8A198AD801ED91C9
:101C1000FC910484F585E02DBE016F5F7F4FC80104
:101C2000099562960FB6F894DEBF0FBECDBFDF9167
:101C3000CF911F910F9108951C861B861A861986D5
:101C400018861F82DFCF0F931F93CF93DF93CDB7FB
:101C5000DEB762970FB6F894DEBF0FBECDBF8C0122
:101C6000F901DC011C968C917A8369835C834B8338
:101C70005E834D8390819D8791819E8792819F870E
:101C80008130E9F4CE0101960E944A0B188A1A8A23
:101C9000198AD801ED91FC910484F585E02DBE01EF
:101CA0006F5F7F4FC801099562960FB6F894DEBF4B
:101CB0000FBECDBFDF91CF911F910F9108951C866C
:101CC0001B861A86198618861F82E0CF90E080E076
:101CD0000895FC01858596850895CF93DF9300D004
:101CE00000D000D0CDB7DEB7AB011C821D821E82B2
:101CF000DC01ED91FC910190F081E02D19821A82B6
:101D00001B829E012F5F3F4FBE016C5F7F4F099585
:101D100026960FB6F894DEBF0FBECDBFDF91CF91F0
:101D20000895BF92CF92DF92EF92FF920F931F938D
:101D3000CF93DF9300D000D000D01F92CDB7DEB795
:101D400080E00E94E30687E00E94840310928303F0
:101D5000809382038730E1F584E893E00E94870452
:101D60000E94FF06B82E84E893E00E9487040E9438
:101D7000FF06C82E84E893E00E948704182F86FF90
:101D80003EC08F710E94FF060CE015FD00E0080FB9
:101D900084E893E00E9487040E94FF06D82E84E81E
:101DA00093E00E9487040E94FF06E82E84E893E0F7
:101DB0000E94870410E087FD14E68F770E94FF06DB
:101DC000F82E84E893E00E9487040E94FF06180F13
:101DD0002B2D3C2D402F5D2DB701812F90E02796B4
:101DE0000FB6F894DEBF0FBECDBFDF91CF911F912C
:101DF0000F91FF90EF90DF90CF90BF9008958F7379
:101E00000E94FF06082FC4CFCF93DF93EB010E94FF
:101E1000E30681E00E94840310928303809382038F
:101E200084E893E00E948704888381E0DF91CF916A
:101E30000895EF92FF921F93CF93DF931F92CDB738
:101E4000DEB77C01162FBE016F5F7F4F8EE00E94D0
:101E5000040F811108C080E00F90DF91CF911F9196
:101E6000FF90EF90089581E08093900388E680933F
:101E700092031092910310929303113089F587E039
:101E800090E00E942B04F70180810E94F50690E00B
:101E90000E942B04898185608983F70181810E94DA
:101EA000F50690E00E942B04F70182810E94F5065E
:101EB00090E00E942B04F70184810E94F50690E0D7
:101EC0000E942B0481E00E941D048111C4CF69810E
:101ED0008EE00E94C9068111BECF812F8770BCCFD2
:101EE0008BE090E00E942B0489818660D5CFEF9231
:101EF000FF920F931F93CF93DF93EC018B0188E246
:101F0000FB0111928A95E9F761E08E810E94DC085D
:101F100060E08E810E94900888EE93E00E9448095C
:101F200061E08E810E94900860E08E810E94DC0852
:101F300088E290E00E944809E881F9810084F185F7
:101F4000E02D26E030E04AE050E060E0CE01099567
:101F50006E317105810591056CF4982F872F762FCE
:101F600066276061CB01DF91CF911F910F91FF90A8
:101F7000EF900895E881F9810084F185E02D26E055
:101F800030E04AE050E061E0CE0109957801F8E2E6
:101F9000EF0EF11C623371058105910534F4982F21
:101FA000872F762F66276161DDCFE881F981008474
:101FB000F185E02D26E030E04AE050E060E0CE011F
:101FC0000995683171058105910534F4982F872FA3
:101FD000762F66276261C6CFE881F9810084F1859A
:101FE000E02D26E030E04AE050E061E0CE010995C6
:101FF0006B3071058105910534F4982F872F762F6A
:1020000066276361AFCF21E06932710581059105D3
:102010000CF420E0F80121938F01EE16FF0629F65B
:10202000E881F9810084F185E02D26E030E04AE086
:1020300050E060E0CE010995683171058105910598
:1020400034F4982F872F762F662764618BCF70E04A
:1020500060E088CFFF920F931F93CF93DF93EC0143
:102060008B01FB01F0800E940A20F81621F06F2DF1
:10207000CE010E941220F801F1802196CE010E942B
:102080000A20F81621F06F2DCE010E941220C801FF
:10209000DF91CF911F910F91FF900895FB01019067
:1020A0000020E9F73197AF01461B570BDC01ED919A
:1020B000FC910280F381E02D09948F929F92AF9260
:1020C000BF92EF92FF920F931F93CF93DF93CDB701
:1020D000DEB7A1970FB6F894DEBF0FBECDBF7C016F
:1020E000FA01CB0119A2223008F42AE08E010F5D1B
:1020F0001F4F822E912CB12CA12CBF01A501940160
:102100000E947B21F901CA016A300CF5605DD8019B
:102110006E938D01232B242B252B79F790E080E003
:10212000109721F0BD01C7010E944E10A1960FB675
:10213000F894DEBF0FBECDBFDF91CF911F910F91FD
:10214000FF90EF90BF90AF909F908F900895695C43
:10215000DECF462F50E070E060E02AE00C945D1086
:10216000CF93C82F8A3028F460E38BEF93E00E946E
:10217000E8076C2F8BEF93E0CF910C94A910CF93CD
:10218000DF93EC018E818536D0F062E38BEF93E034
:102190000E94E8078E810E94B0106DE28BEF93E001
:1021A0000E94E8078D810E94B0106DE28BEF93E0F2
:1021B0000E94E8078C81DF91CF910C94B0106EEAF9
:1021C00076E08BEF93E00E94EF07E4CFCF93DF93AD
:1021D000EC018A810E94B0106AE38BEF93E00E94C9
:1021E000E80789810E94B0106AE38BEF93E00E94B8
:1021F000E8078881DF91CF910C94B010CF92DF92E5
:10220000EF92FF92CF93DF936C01990FEE08FF08D6
:10221000F7FE1BC06DE28BEF93E00E94E807EC0134
:1022200044275527BA014C195D096E097F092AE038
:102230008BEF93E00E945D108C0F9D1FDF91CF917B
:10224000FF90EF90DF90CF9008952AE0B701A601AC
:102250008BEF93E0DF91CF91FF90EF90DF90CF90E5
:102260000C945D10BC018BEF93E00C944E1068E76A
:1022700071E00C944E10CF93DF93BC018BEF93E091
:102280000E944E10EC018BEF93E00E9437118C0FEF
:102290009D1FDF91CF9108956F927F928F929F92B1
:1022A000AF92BF92CF92DF92EF92FF920F931F9364
:1022B000CF93DF93CDB7DEB729970FB6F894DEBF83
:1022C0000FBECDBF2091E0023091E1022115310512
:1022D000C1F48BE791E029960FB6F894DEBF0FBEEC
:1022E000CDBFDF91CF911F910F91FF90EF90DF90C5
:1022F000CF90BF90AF909F908F907F906F900C94F5
:102300003B116090DE027090DF028C0128173907C4
:102310000CF48901D12CC12CC016D1060CF089C057
:102320005301730189E0E81AF1083701FE01319683
:102330004F01C7010E940A20F40181934F01FFEF72
:10234000EF1AFF0AAE14BF04A1F78FEFC81AD80A1C
:10235000C6010E94FE1083E891E00E9432116F8155
:102360008BEF93E00E94A91085E891E00E94321162
:102370006E818BEF93E00E94A91085E891E00E94A6
:1023800032116D818BEF93E00E94A91080E991E0FA
:102390000E9432116B818BEF93E00E94A91087E8B5
:1023A00091E00E9432116A818BEF93E00E94A910A4
:1023B00087E891E00E94321169818BEF93E00E94DF
:1023C000A91080E991E00E943211F8848F2D0F2C22
:1023D000000C990B0E94FE1089E891E00E943211D6
:1023E0006F2DFF0C770B880B990B0E94F71E26E6CA
:1023F00036E646EE5FE30E94321F20E030E040E028
:1024000052E40E9437200E941521862F660F990BF7
:102410000E94FE108DE891E00E9432118985082EFD
:10242000000C990B0E94FE1082E991E00E943B1182
:1024300073CF29960FB6F894DEBF0FBECDBFDF91E4
:10244000CF911F910F91FF90EF90DF90CF90BF90B1
:10245000AF909F908F907F906F9008950F931F93F0
:10246000CF93DF93EC010E94EF078C01CE010E9415
:102470003711800F911FDF91CF911F910F91089518
:102480000E9420201F920F920FB60F9211242F93BB
:102490003F934F935F936F937F938F939F93AF93EC
:1024A000BF93EF93FF938091B900887F803609F442
:1024B0004AC0F0F5883209F4A7C018F5803109F454
:1024C0009BC0B8F4882309F4F9C0883009F494C09B
:1024D000FF91EF91BF91AF919F918F917F916F91FC
:1024E0005F914F913F912F910F900FBE0F901F90D2
:1024F0001895883109F488C0803251F78093D80349
:1025000014C0803409F49DC040F48033B9F388339B
:10251000F9F68093D80385ECB0C0803509F485C006
:10252000883509F496C0883499F60E944604D0CFC5
:10253000883909F48CC038F5883729F050F488368A
:1025400011F0803729F683E08093DA031092640358
:1025500057C0883809F47BC0803919F0803809F0F9
:10256000B7CF80916403803208F071C0E0916403BA
:1025700081E08E0F809364038091BB00F0E0EC5B00
:10258000FC4F80833DC0803B39F0E0F4803A09F491
:1025900079C0883A09F09CCF84E08093DA031092E6
:1025A000430310924203E0916503F091660309959D
:1025B0008091420381110FC081E080934203109209
:1025C000220309C0803C09F4A6CF883C09F4A3CFBC
:1025D000883B09F07DCFE091430381E08E0F80932B
:1025E0004303F0E0EE5DFC4F80818093BB0090914F
:1025F00043038091420329C08091D5038093BB009F
:1026000085EC8093BC0064CF9091D7038091D60372
:10261000981758F5E091D70381E08E0F8093D70388
:10262000F0E0EC54FC4F8081E9CFE091D70381E0EA
:102630008E0F8093D7038091BB00F0E0EC54FC4FE9
:1026400080839091D7038091D6039817C8F285E8CC
:10265000D8CFE091D70381E08E0F8093D70380918C
:10266000BB00F0E0EC54FC4F80838091D9038111D2
:102670005CCF81E08093D40384EA8093BC00109205
:10268000DA0326CF85EC8093BC001092DA038091A8
:102690006403803230F4E0916403F0E0EC5BFC4FC3
:1026A00010826091640370E0E0916703F091680329
:1026B00084E493E00995109264030ACF1092D80342
:1026C00034CF1F920F920FB60F9211242F933F9386
:1026D0004F935F936F937F938F939F93AF93BF932A
:1026E000EF93FF938BEF93E00E944507FF91EF91EB
:1026F000BF91AF919F918F917F916F915F914F911A
:102700003F912F910F900FBE0F901F9018951F9221
:102710000F920FB60F9211242F938F939F93EF93E5
:10272000FF93E0910B04F0910C048081E09111047F
:10273000F091120482FD1BC09081809114048F5F80
:102740008F7320911504821741F0E0911404F0E09A
:10275000E550FC4F958F80931404FF91EF919F916A
:102760008F912F910F900FBE0F901F901895808121
:10277000F4CF1F920F920FB60F9211242F933F9315
:102780008F939F93AF93BF938091AD029091AE02D0
:10279000A091AF02B091B0023091AC0223E0230FC0
:1027A0002D3758F50196A11DB11D2093AC028093E1
:1027B000AD029093AE02A093AF02B093B0028091AD
:1027C000B1029091B202A091B302B091B40201960D
:1027D000A11DB11D8093B1029093B202A093B302E8
:1027E000B093B402BF91AF919F918F913F912F9180
:1027F0000F900FBE0F901F90189526E8230F02969A
:10280000A11DB11DD2CFE4E8F3E01382128288EE5D
:1028100093E0A0E0B0E084839583A683B7838AE643
:1028200091E0918380830895EFE6F3E08FEF80835A
:1028300012821182148613868FEF9FEFDC0187834B
:102840009087A187B2870895EBEFF3E0138212829D
:1028500088EE93E0A0E0B0E084839583A683B783FD
:1028600086E391E09183808385EC90E0958784876F
:1028700084EC90E09787868780EC90E0918B808B4A
:1028800081EC90E0938B828B82EC90E0958B848B33
:1028900086EC90E0978B868B118E128E138E148EA1
:1028A00008951F93CF93DF93C0EDD2E08EE091E0C7
:1028B0009983888380E49BE4ACE4B0E08A839B83C3
:1028C000AC83BD838FEF9FEF9F838E831FEF1887AD
:1028D000198762E070E0CE010E941D0682E291E05D
:1028E00099838883EFEFF2E0108211821283ECEF7C
:1028F000F2E0108211821282DF91CF911F91089530
:10290000CF93DF9300D000D0CDB7DEB71092DB02BB
:102910001092DA028FEF93E09093DD028093DC0255
:102920001092DF021092DE021092E1021092E00299
:10293000BE016D5F7F4F90E080E00E94CB14BE012E
:102940006F5F7F4F82E090E00E94CB142B813C812F
:102950003093DF022093DE0289819A819093E10215
:102960008093E0021092E4028091DA029091DB02FF
:1029700006969093E3028093E2022817390724F425
:102980009093DF028093DE020F900F900F900F90D4
:10299000DF91CF9108950F931F93CF93DF938C0115
:1029A000EB010E940A208883C80101960E940A2038
:1029B0008983CE01DF91CF911F910F9108950E94DD
:1029C00003140E9414140E9424140E9451140C94A5
:1029D0008014CF93DF93CDB7DEB764970FB6F8942A
:1029E000DEBF0FBECDBF0E940D09E0910B04F09138
:1029F0000C0412E01083E0910704F09108041082A7
:102A0000E0910904F0910A048FEC80831092130482
:102A1000E0910F04F091100486E08083E0910D04B2
:102A2000F0910E04808180618083E0910D04F0912B
:102A30000E04808188608083E0910D04F0910E0483
:102A4000808180688083E0910D04F0910E04808184
:102A50008F7D8083109283031092820310929103E2
:102A6000109293030E94BE080E943E040E94360406
:102A700060E08EE00E94C9060E94910E29833A838D
:102A80004B835C838F838FE18D831E8362E0CE0155
:102A900001960E94190F61E0CE0101960E94190F64
:102AA0001C8A1A86BE01665F7F4F8FE00E94040F6A
:102AB0006A85862F837021F06C7F8FE00E94C906A3
:102AC0008C89882369F0BE016C5E7F4F8EE00E9486
:102AD000040F882329F06C896F778EE00E94C90665
:102AE0008091C802811145C01092BA021092B902B9
:102AF0008FEF8093BD028093BE028093BF028093CC
:102B0000C0028093C1028093C20281E08093C3021D
:102B10001092C5021092C4021092BC021092BB0225
:102B200080917C0390917D03892B31F487EB92E0B7
:102B300090937D0380937C03E091B502F091B602FF
:102B4000309721F087EB92E09583848387EB92E0C6
:102B50009093B6028093B5021092C7021092C602FB
:102B600088E591E09093B8028093B70281E080936A
:102B7000C802E091B702F091B8020480F581E02D1F
:102B800087EB92E0099586EF92E09093BA028093EA
:102B9000B90281E090E09093C5028093C402E09175
:102BA000B702F091B8020284F385E02D87EB92E042
:102BB0000995009701F19C0150E040E060E472E467
:102BC0008FE090E00E949D218091720390917303A9
:102BD000A0917403B091750382179307A407B507FA
:102BE00010F4DA01C9018093720390937303A093E8
:102BF0007403B09375038091FF028093F602809175
:102C000000038093F702809101038093F802809182
:102C10006F030E94340A10920F0361E08DE00E945E
:102C2000DC0861E084E00E94DC0861E085E00E944D
:102C3000DC086CE770E08BEF93E00E942E128E01AF
:102C40000F5E1F4F3E0122E1620E711C53E0352ED4
:102C500062E9462E55245A940E94D40970932103A8
:102C6000609320032091F0023091F102621B730BFC
:102C700068387341E0F130E020E042E053E063E087
:102C800073E080ED92E00E946E067C01892B59F082
:102C900084E991E00E943211C7010E94FE108BEF7F
:102CA00093E00E94371180910303909101018917ED
:102CB00014F48093010190910301981714F4809308
:102CC00003018091020390910001891714F480930D
:102CD000000190910201981714F4809302018091F1
:102CE0002003909121039093F1028093F0022091B0
:102CF0002003309121038091EE029091EF02A9010F
:102D0000481B590B4838534120F42817390708F05D
:102D10007BC00E94910E2093E5023093E60240931F
:102D2000E7025093E8026093E9027093EA0280930D
:102D3000EB02809103038093EC0280910203809365
:102D4000ED0289E0E5EEF2E0DE01119601900D92D0
:102D50008A95E1F78090DE029090DF02CE01019625
:102D60006C01F12CE12CF60121906F015401AE0CA5
:102D7000BF1CC5010E940A20281621F0622DC50142
:102D80000E941220FFEFEF1AFF0A29E0E216F10479
:102D900051F78091E402811109C08091E002909185
:102DA000E10201969093E1028093E0028091DE02BD
:102DB0009091DF0209969093DF028093DE022091CA
:102DC000DC023091DD02295031092817390740F41F
:102DD0008091E2029091E3029093DF028093DE0201
:102DE0006EED72E090E080E00E942A1060EE72E0EA
:102DF00082E090E00E942A108091200390912103AC
:102E00009093EF028093EE02E0902003F090210374
:102E100080911F038823F9F08091F2029091F302D0
:102E20009701281B390B8091040190910501281707
:102E3000390788F00E946C0861E0892B29F00E9414
:102E40006C08019721F460E08DE00E949008F092F8
:102E5000F302E092F2028091F4029091F502970160
:102E6000281B390B8091060190910701281739071B
:102E7000D0F080911E03880F811D880F811D8093E3
:102E80001E03F092F502E092F40261E080FF60E040
:102E900085E00E94900880911E0361E081FF60E060
:102EA00084E00E9490088091FA029091FB02E81A57
:102EB000F90A8091080190910901E816F90610F1CC
:102EC00080916F039091F9029923E9F19091FF02AB
:102ED0009093F602909100039093F7029091010372
:102EE0009093F8020E94340A8091F90291E08927B8
:102EF0008093F90280912003909121039093FB022B
:102F00008093FA028BEF93E00E943907892B71F0CE
:102F10008BEF93E00E9417070E94252080931D03EA
:102F20008032E1F490911C0391113FC080E090E069
:102F3000892B09F491CE0E94D407882309F486CE08
:102F40000E94000083CE9091FC029093F602909133
:102F5000FD029093F7029091FE02C2CF8F3729F5C0
:102F60008BEF93E00E94371163E576E08BEF93E0FF
:102F70000E942E1210920F0310921C03109206034F
:102F800010920503109208031092070310920A038F
:102F90001092090310920C0310920B0310920E036F
:102FA00010920D0310920403C1CF682F8BEF93E0B2
:102FB0000E94E807E0901D03E0911C0340E2E41644
:102FC00019F06DE0E612D7C6F0E0E15FFC4F108229
:102FD000F090040384E08F1508F47CC16CEA71E082
:102FE0008FE093E00E942D20892B79F481E08F0DF2
:102FF00080930403EF2DF0E0EE0FFF1FEB5FFC4F1B
:1030000080E89FEF9183808365C160EB71E08FE082
:1030100093E00E942D20892B69F481E08F0D80932D
:103020000403EF2DF0E0EE0FFF1FEB5FFC4F88E88D
:103030009FEFE8CF65EB71E08FE093E00E942D20D9
:10304000892B69F481E08F0D80930403EF2DF0E06C
:10305000EE0FFF1FEB5FFC4F81E89FEFD3CF69EBD3
:1030600071E08FE093E00E942D20892B69F481E0CC
:103070008F0D80930403EF2DF0E0EE0FFF1FEB5F49
:10308000FC4F82E89FEFBECF69E372E08FE093E0F0
:103090000E942D20892B69F481E08F0D8093040319
:1030A000EF2DF0E0EE0FFF1FEB5FFC4F83E89FEF8B
:1030B000A9CF60EC71E08FE093E00E942D20892B76
:1030C00069F481E08F0D80930403EF2DF0E0EE0FA3
:1030D000FF1FEB5FFC4F84E89FEF94CF6EE372E03D
:1030E0008FE093E00E942D20892B69F481E08F0D01
:1030F00080930403EF2DF0E0EE0FFF1FEB5FFC4F1A
:1031000089E89FEF7FCF65EC71E08FE093E00E944C
:103110002D20892B69F481E08F0D80930403EF2D1E
:10312000F0E0EE0FFF1FEB5FFC4F8AE89FEF6ACFE6
:1031300069EC71E08FE093E00E942D20892B69F407
:1031400081E08F0D80930403EF2DF0E0EE0FFF1F61
:10315000EB5FFC4F8BE89FEF55CF6FEC71E08FE09A
:1031600093E00E942D20892B69F481E08F0D8093DC
:103170000403EF2DF0E0EE0FFF1FEB5FFC4F85E83F
:103180009FEF40CF64ED71E08FE093E00E942D202F
:10319000892B69F481E08F0D80930403EF2DF0E01B
:1031A000EE0FFF1FEB5FFC4F87E89FEF2BCF68ED23
:1031B00071E08FE093E00E942D20892B69F481E07B
:1031C0008F0D80930403EF2DF0E0EE0FFF1FEB5FF8
:1031D000FC4F86E89FEF16CF6EED71E08FE093E035
:1031E0000E942D20892B69F481E08F0D80930403C8
:1031F000EF2DF0E0EE0FFF1FEB5FFC4F8DE89FEF30
:1032000001CF64EE71E08FE093E00E942D20892BC6
:1032100069F481E08F0D80930403EF2DF0E0EE0F51
:10322000FF1FEB5FFC4F8EE89FEFECCE69EE71E085
:103230008FE093E00E942D20892B69F481E08F0DAF
:1032400080930403EF2DF0E0EE0FFF1FEB5FFC4FC8
:103250008FE89FEFD7CE6DEE71E08FE093E00E9494
:103260002D20892B69F481E08F0D80930403EF2DCD
:10327000F0E0EE0FFF1FEB5FFC4F80E99FEFC2CE47
:1032800061EF71E08FE093E00E942D20892B69F4BB
:1032900081E08F0D80930403EF2DF0E0EE0FFF1F10
:1032A000EB5FFC4F81E99FEFADCE69EF71E08FE0FE
:1032B00093E00E942D20892B09F03BC081E08F0D07
:1032C00080930403EF2DF0E0EE0FFF1FEB5FFC4F48
:1032D0005182408210920F0310921C039DE0E9126C
:1032E00025CE8BEF93E00E943711E0910503F0911A
:1032F0000603E058FF4FE631F10508F039C5ED57F8
:10330000F64E0C94BC21E11A6B1A8D1A331A5C1A12
:10331000B81EB81EB81EB81EB81EB81EB81EC01AF9
:10332000B81EB81E111B9F1DB81EB81EB81E611E08
:10333000791E6FEF71E08FE093E00E942D20892BC2
:1033400069F481E08F0D80930403EF2DF0E0EE0F20
:10335000FF1FEB5FFC4F83E99FEF54CE67E072E005
:103360008FE093E00E942D20892B69F481E08F0D7E
:1033700080930403EF2DF0E0EE0FFF1FEB5FFC4F97
:1033800084E99FEF3FCE6BE072E08FE093E00E9414
:103390002D20892B69F481E08F0D80930403EF2D9C
:1033A000F0E0EE0FFF1FEB5FFC4F8CE89FEF2ACEA3
:1033B0006FE072E08FE093E00E942D20892B69F48A
:1033C00081E08F0D80930403EF2DF0E0EE0FFF1FDF
:1033D000EB5FFC4F85E99FEF15CE8091050390913F
:1033E00006039C0124593F4F2230310550F08138AB
:1033F0009F4F61F580910703909108038B389F4F91
:1034000029F530910F03EFE0F3E020E0819188236C
:1034100071F03D3211F4222339F0082E000C990B83
:10342000C0970A9708F056CF2F5F2C3079F78FE0BE
:1034300093E00E94CC1E21E02F0D20930403EF2D7A
:10344000F0E0EE0FFF1FEB5FFC4FDCCD81E08F0D56
:1034500080930403EF2DF0E0EE0FFF1FEB5FFC4FB6
:1034600080E090E8CFCD69E476E08BEF93E00E94B6
:10347000EF072AE042E050E060E070E08BEF93E07D
:103480000E945D106EE28BEF93E00E94E8072AE055
:1034900040E050E0BA018BEF93E00E945D102AE01B
:1034A00040E050E0BA018BEF93E00E945D108BEF9B
:1034B00093E00E94371162CD6CE773E08BEF93E0ED
:1034C0000E94EF0782E390E00E94FE1083E192E009
:1034D0000E943B1153CD80910703909108038B38D4
:1034E0009F4FA1F48091090390910A0382339105C3
:1034F0006CF09093090180930801909307018093E9
:103500000601909305018093040138CD61E673E0D4
:103510008BEF93E00E942E1231CD809107039091A2
:10352000080385389F4F09F029CD80911F0364E57A
:1035300073E0811108C00E946C086CE473E0892B71
:1035400011F065E473E08BEF93E00E942E128091FE
:103550001E0366E373E08232D9F269E273E08131DF
:10356000B9F26FE073E0863699F267E073E0882382
:1035700079F26DEF72E08A3A59F265EF72E0C8CFE6
:1035800080910703909108038A382FEF920771F01A
:103590008B384FEF940771F089389F4F79F4109270
:1035A0001F0361E08DE00E949008E8CC10921F0399
:1035B00060E0F8CF81E080931F03E0CC6AED72E019
:1035C000A7CF80910703909108038738EFEF9E07FC
:1035D000C1F034F486389F4FC1F06FEB72E098CFA2
:1035E0008A384FEF9407D1F08B389F4FB1F7809115
:1035F000090390910A038638EFEF9E0741F482E2B7
:1036000001C085E580931E03B9CC8AEAFBCF8838D8
:103610009F4F11F486E6F6CF81E1F4CF10921E039E
:10362000ADCC80910703909108038D382FEF92075E
:1036300039F08E389F4F09F462C264EA72E068CFB5
:10364000198A1A8A1B8A65EF71E08BEF93E00E945A
:103650002E12F801232D11922A95E9F78BEF93E0B2
:103660000E9437116EEC71E08BEF93E00E94EF0740
:10367000E091FB03F091FC030084F185E02D8BEFDA
:1036800093E00995892BA1F362E070E0C8010E94E4
:10369000E009E091FB03F091FC030084F185E02D4B
:1036A0008BEF93E00995892B59F0E091FB03F091A2
:1036B000FC030284F385E02D8BEF93E00995E9CFBD
:1036C00089898033D9F5C3010E94CC1E8E87F80109
:1036D000232D11922A95E9F78BEF93E00E94371181
:1036E0006EEA71E08BEF93E00E94EF07E091FB033D
:1036F000F091FC030084F185E02D8BEF93E00995B8
:10370000892BA1F362E070E0C8010E94E009E0911A
:10371000FB03F091FC030084F185E02D8BEF93E037
:103720000995892B69F0E091FB03F091FC03028479
:10373000F385E02D8BEF93E00995E9CFC801C4CF65
:1037400089898033D9F5C3010E94CC1E8F87F80187
:10375000232D11922A95E9F78BEF93E00E94371100
:103760006FE871E08BEF93E00E94EF07E091FB03BD
:10377000F091FC030084F185E02D8BEF93E0099537
:10378000892BA1F362E070E0C8010E94E009E0919A
:10379000FB03F091FC030084F185E02D8BEF93E0B7
:1037A0000995892B69F0E091FB03F091FC030284F9
:1037B000F385E02D8BEF93E00995E9CFC801C4CFE5
:1037C00089898033D9F5C3010E94CC1E888BF8010A
:1037D000232D11922A95E9F78BEF93E00E94371180
:1037E00061E671E08BEF93E00E94EF07E091FB034D
:1037F000F091FC030084F185E02D8BEF93E00995B7
:10380000892BA1F362E070E0C8010E94E009E09119
:10381000FB03F091FC030084F185E02D8BEF93E036
:103820000995892B69F0E091FB03F091FC03028478
:10383000F385E02D8BEF93E00995E9CFC801C4CF64
:1038400089898033D9F5C3010E94CC1E8C87F80189
:10385000232D11922A95E9F78BEF93E00E943711FF
:1038600060E471E08BEF93E00E94EF07E091FB03CF
:10387000F091FC030084F185E02D8BEF93E0099536
:10388000892BA1F362E070E0C8010E94E009E09199
:10389000FB03F091FC030084F185E02D8BEF93E0B6
:1038A0000995892B69F0E091FB03F091FC030284F8
:1038B000F385E02D8BEF93E00995E9CFC801C4CFE4
:1038C00089898033D9F5C3010E94CC1E8B87F8010A
:1038D000232D11922A95E9F78BEF93E00E9437117F
:1038E0006FE171E08BEF93E00E94EF07E091FB0343
:1038F000F091FC030084F185E02D8BEF93E00995B6
:10390000892BA1F362E070E0C8010E94E009E09118
:10391000FB03F091FC030084F185E02D8BEF93E035
:103920000995892B69F0E091FB03F091FC03028477
:10393000F385E02D8BEF93E00995E9CFC801C4CF63
:1039400089898033D9F5C3010E94CC1E8A87F8018A
:10395000232D11922A95E9F78BEF93E00E943711FE
:103960006EED70E08BEF93E00E942E12E091FB036E
:10397000F091FC030084F185E02D8BEF93E0099535
:10398000892BA1F361E070E0C8010E94E009E09199
:10399000FB03F091FC030084F185E02D8BEF93E0B5
:1039A0000995892B69F0E091FB03F091FC030284F7
:1039B000F385E02D8BEF93E00995E9CFC801C4CFE3
:1039C000C8010E94CC1E8D878BEF93E00E943711B7
:1039D0006AEC70E08BEF93E00E94EF07CE010A964D
:1039E0000E94BF1064E58BEF93E00E94E807CE01D0
:1039F0000A960E94E6108BEF93E00E94371165E96A
:103A000070E08BEF93E00E94EF07E091FB03F091F1
:103A1000FC030084F185E02D8BEF93E00995892B61
:103A2000A1F361E070E0C8010E94E009E091FB03AE
:103A3000F091FC030084F185E02D8BEF93E0099574
:103A4000892B59F0E091FB03F091FC030284F3858C
:103A5000E02D8BEF93E00995E9CF89898F7D89353A
:103A600009F0F7CD81E08093900388E6809392037C
:103A7000109291031092930390E080E00E942B0437
:103A80008A850E94F506682F84E893E00E94CE04A0
:103A90008B850E94F506682F84E893E00E94CE048F
:103AA0008C850E94F506682F84E893E00E94CE047E
:103AB0008D85811101C081E00E94F506682F84E8A0
:103AC00093E00E94CE048E850E94F506682F84E85C
:103AD00093E00E94CE048F850E94F506682F84E84B
:103AE00093E00E94CE0488890E94F506682F84E83E
:103AF00093E00E94CE0481E00E941D043FCA0E9410
:103B0000910E2A873B874C875D876E877F87888BDE
:103B1000CE010A960E94BF1060E28BEF93E00E94F4
:103B2000E8070E94910E2A873B874C875D876E8746
:103B30007F87888BCE010A960E94E610B8CC8091D0
:103B400007039091080382394FEF940709F444C0AA
:103B500083396FEF960709F44CC069E872E0813948
:103B60009F4F09F0D5CC81E492E00E943211809100
:103B70000303082E000C990B0E94FE1089E891E0C7
:103B80000E94321160910303062E000C770B880B04
:103B9000990B0E94F71E26E636E646EE5FE30E948A
:103BA000321F20E030E040E052E40E9437200E94C3
:103BB0001521862F660F990B0E94FE108DE891E06B
:103BC0000E94321180910203082E000C990B0E9472
:103BD000FE1082E991E07CCC8091090390910A0368
:103BE000181619061CF40E944C11C8C98AE090E00E
:103BF000FACF8DE592E00E94321180910301082EE8
:103C0000000C990B0E94FE1089E891E00E9432118D
:103C100060910301062E000C770B880B990B0E9414
:103C2000F71E26E636E646EE5FE30E94321F20E0EE
:103C300030E040E052E40E9437200E941521862F98
:103C4000660F990B0E94FE108DE891E00E943211E0
:103C500080910201082E000C990B0E94FE1082E850
:103C600092E00E94321180910101082E000C990B04
:103C70000E94FE1089E891E00E94321160910101DA
:103C8000062E000C770B880B990B0E94F71E26E678
:103C900036E646EE5FE30E94321F20E030E040E06F
:103CA00052E40E9437200E941521862F660F990B3F
:103CB0000E94FE108DE891E00E9432118091000177
:103CC00083CF20910703309108032115F0E83F07C7
:103CD00069F08091090390910A03811540E89407E7
:103CE00029F0820F931F0E94FE10E1CB6EE672E076
:103CF0000FCC809107039091080381309105D9F092
:103D00008230910529F181389F4F79F5809109031F
:103D100090910A038B389F4F09F030C980910B03B3
:103D200090910C03823391050CF428C990930901FA
:103D30008093080123C9809109038093FF02809139
:103D40000B038093000380910D038093010316C938
:103D5000809109038093FC0280910B038093FD0204
:103D600080910D038093FE0209C963E572E0D0CB18
:103D700068E372E0CDCBEC3008F0D8C881E08E0F5C
:103D800080931C03F0E0E15FFC4FE082E82FF0E05D
:103D9000E15FFC4F1082CAC8FC0188279927E8948C
:103DA00021912032E9F3293010F02E30C8F32B3264
:103DB00041F02D3239F4689404C00E94ED1E820F48
:103DC000911D219120532A30C0F31EF490958195C6
:103DD0009F4F0895F8940C94DD217AE0979F902DE1
:103DE000879F802D910D11240895E89409C097FBB9
:103DF0003EF490958095709561957F4F8F4F9F4FC2
:103E00009923A9F0F92F96E9BB279395F695879505
:103E100077956795B795F111F8CFFAF4BB0F11F4C8
:103E200060FF1BC06F5F7F4F8F4F9F4F16C088236F
:103E300011F096E911C0772321F09EE8872F762FA5
:103E400005C0662371F096E8862F70E060E02AF0E6
:103E50009A95660F771F881FDAF7880F96958795D2
:103E600097F908950E94451F0C94B61F0E94A81F41
:103E700038F00E94AF1F20F0952311F00C949F1F83
:103E80000C94A51F11240C94EA1F0E94C71F70F305
:103E9000959FC1F3950F50E0551F629FF001729FEF
:103EA000BB27F00DB11D639FAA27F00DB11DAA1FFE
:103EB000649F6627B00DA11D661F829F2227B00D4B
:103EC000A11D621F739FB00DA11D621F839FA00DD6
:103ED000611D221F749F3327A00D611D231F849F26
:103EE000600D211D822F762F6A2F11249F5750407D
:103EF0009AF0F1F088234AF0EE0FFF1FBB1F661FF8
:103F0000771F881F91505040A9F79E3F510580F0C0
:103F10000C949F1F0C94EA1F5F3FE4F3983ED4F388
:103F2000869577956795B795F795E7959F5FC1F764
:103F3000FE2B880F911D9695879597F9089597F90F
:103F40009F6780E870E060E008959FEF80EC08953F
:103F500000240A9416161706180609060895002468
:103F60000A9412161306140605060895092E0394E2
:103F7000000C11F4882352F0BB0F40F4BF2B11F456
:103F800060FF04C06F5F7F4F8F4F9F4F089557FDB5
:103F90009058440F551F59F05F3F71F04795880FB7
:103FA00097FB991F61F09F3F79F08795089512164E
:103FB00013061406551FF2CF4695F1DF08C01616FA
:103FC00017061806991FF1CF8695710561050894AB
:103FD0000895E894BB2766277727CB0197F90895C2
:103FE0000E94FB1FA59F900DB49F900DA49F800D74
:103FF000911D11240895A29FB001B39FC001A39FFA
:10400000700D811D1124911DB29F700D811D112411
:10401000911D0895F999FECF92BD81BDF89A992717
:1040200080B50895262FF999FECF1FBA92BD81BDA4
:1040300020BD0FB6F894FA9AF99A0FBE019608952A
:1040400081E090E0F8940C94DD219111089581565F
:104050008A5108F4805285580895FB01DC018D9146
:10406000019080190110D9F3990B08955058BB277E
:10407000AA270E944E200C94B61F0E94A81F38F059
:104080000E94AF1F20F039F49F3F19F426F40C94DE
:10409000A51F0EF4E095E7FB0C949F1FE92F0E94EB
:1040A000C71F58F3BA17620773078407950720F0F4
:1040B00079F4A6F50C94E91F0EF4E0950B2EBA2FB7
:1040C000A02D0B01B90190010C01CA01A00111241E
:1040D000FF27591B99F0593F50F4503E68F11A16CA
:1040E000F040A22F232F342F4427585FF3CF46955B
:1040F00037952795A795F0405395C9F77EF41F167D
:10410000BA0B620B730B840BBAF09150A1F0FF0F46
:10411000BB1F661F771F881FC2F70EC0BA0F621F32
:10412000731F841F48F4879577956795B795F79522
:104130009E3F08F0B0CF9395880F08F09927EE0FB7
:104140009795879508950E94B7200C94B61F0E94FA
:10415000AF1F58F00E94A81F40F029F45F3F29F0DC
:104160000C949F1F51110C94EA1F0C94A51F0E94E0
:10417000C71F68F39923B1F3552391F3951B550B92
:10418000BB27AA2762177307840738F09F5F5F4F2A
:10419000220F331F441FAA1FA9F335D00E2E3AF069
:1041A000E0E832D091505040E695001CCAF72BD081
:1041B000FE2F29D0660F771F881FBB1F26173707D2
:1041C0004807AB07B0E809F0BB0B802DBF01FF2704
:1041D00093585F4F3AF09E3F510578F00C949F1F23
:1041E0000C94EA1F5F3FE4F3983ED4F386957795ED
:1041F0006795B795F7959F5FC9F7880F911D9695BD
:10420000879597F90895E1E0660F771F881FBB1F18
:10421000621773078407BA0720F0621B730B840BC5
:10422000BA0BEE1F88F7E09508950E941C21689450
:10423000B1110C94EA1F08950E94CF1F88F09F5778
:1042400098F0B92F9927B751B0F0E1F0660F771FBA
:10425000881F991F1AF0BA95C9F714C0B13091F0B0
:104260000E94E91FB1E008950C94E91F672F782F91
:104270008827B85F39F0B93FCCF386957795679575
:10428000B395D9F73EF490958095709561957F4FE1
:104290008F4F9F4F0895DB018F939F930E94F01FD4
:1042A000BF91AF91A29F800D911DA39F900DB29FD2
:1042B000900D11240895991B79E004C0991F961759
:1042C00008F0961B881F7A95C9F78095089597FB8B
:1042D000072E16F4009407D077FD09D00E94C9215B
:1042E00007FC05D03EF4909581959F4F08957095F9
:1042F00061957F4F0895A1E21A2EAA1BBB1BFD01F9
:104300000DC0AA1FBB1FEE1FFF1FA217B307E407B4
:10431000F50720F0A21BB30BE40BF50B661F771F0C
:10432000881F991F1A9469F76095709580959095EC
:104330009B01AC01BD01CF010895052E97FB1EF432
:1043400000940E94B42157FD07D00E947B2107FCF6
:1043500003D04EF40C94B42150954095309521959E
:104360003F4F4F4F5F4F08959095809570956195A1
:104370007F4F8F4F9F4F0895EE0FFF1F0590F491D1
:10438000E02D09940E94FB1FB7FF0895821B930B39
:104390000895AA1BBB1B51E107C0AA1FBB1FA6178C
:1043A000B70710F0A61BB70B881F991F5A95A9F7DE
:0E43B00080959095BC01CD010895F894FFCF43
:1043BE007F7F8080F401F401F401000000006E069E
:1043CE004F064012401278090D064012A905000052
:1043DE0000006E064F06FD04300678090D06770FB5
:1043EE00A90500000000670713080807B40739077E
:1043FE0017072B07000000004012401240126D0EEE
:10440E00690E660E00000000230EDF0DDD0D6D0E31
:10441E00690EDA0D870B00000000CE04A1044008DF
:10442E0077049A04870478040D0A004E6F206461A5
:10443E0074610009002F003A004320280046292C01
:10444E0020002500526561642044485432322066B3
:10445E0061696C65642C206572723D004C454400A8
:10446E004455414C00534554005354415455530048
:10447E0048454C50004F464600424C494E4B004C6E
:10448E004544530052454400475245454E0057524D
:10449E004954450052454144005254430044485447
:1044AE000043555252454E54005341564544004523
:1044BE00585452454D450041444400443133005256
:1044CE004742006D73290A0DE2949CE29480E294B7
:1044DE008020535441545553204C4544530A0DE209
:1044EE009494E29480E294802056455253494F4E64
:1044FE000043757272656E742074656D70202F2086
:10450E0068756D696469747920697320004D6178EE
:10451E00696D756D207265636F7264656420746574
:10452E006D70202F2068756D6964697479206973C8
:10453E002000250A0D4D696D696D756D20726563DC
:10454E006F726465642074656D70202F2068756DC0
:0A455E006964697479206973200014
:00000001FF
