:100000000C94C4020C94EC020C94EC020C94EC02E0
:100010000C94EC020C94EC020C94EC020C94EC02A8
:100020000C94EC020C94EC020C94EC020C94EC0298
:100030000C94EC020C94EC020C94EC020C94EC0288
:100040000C94EE0E0C94EC020C94BC0E0C94960ED8
:100050000C94EC020C94EC020C94EC020C94EC0268
:100060000C94770D0C94EC02000000002400270093
:100070002A0000000000250028002B00456E746552
:100080007220636F6D6D616E6473206F72202748FC
:10009000454C50270053656E642027592720746F04
:1000A000207365742074686520636C6F636B2C200B
:1000B00073656E6420274E2720746F2073746172FD
:1000C0007420616761696E3A2000456E74657265DF
:1000D000642054696D657374616D703A2000456EDB
:1000E00074657220446179204F66205765656B20E6
:1000F00028312064696769742C20312D372C2061E8
:1001000072626974726172696C792031203D204D90
:100110006F6E2C2037203D2053756E293A20004504
:100120006E746572205365636F6E6420283220649C
:1001300069676974732C2030302D3539293A2000D5
:10014000456E746572204D696E7574652028322085
:100150006469676974732C2030302D3539293A2051
:1001600000456E74657220486F75722028322064D5
:1001700069676974732C20323420686F757220634C
:100180006C6F636B2C2030302D3233293A200045C0
:100190006E74657220596561722028322064696727
:1001A0006974732C2030302D3939293A2000456E7E
:1001B000746572204D6F6E74682028322064696700
:1001C0006974732C2030312D3132293A2000456E6C
:1001D00074657220446179206F66204D6F6E74687B
:1001E000202832206469676974732C2030312D33E4
:1001F00031293A2000436C6F636B2069732073656B
:1002000074207768656E20616C6C20646174612075
:10021000697320656E746572656420616E6420790F
:100220006F752073656E642027592720746F2063D3
:100230006F6E6669726D2E00496E76616C6964201E
:10024000636F6D6D616E642C207479706520484514
:100250004C5000496E76616C696420636F6D6D610E
:100260006E642C20747970652048454C5000496EAE
:1002700076616C696420636F6D6D616E642C2074AF
:100280007970652048454C5000496E76616C696410
:1002900020636F6D6D616E642C20747970652048E9
:1002A000454C5000496E76616C696420636F6D6DDA
:1002B000616E642C20747970652048454C50004C68
:1002C000454420526564004C454420477265656E84
:1002D000004C4544206F666600426C696E6B696E27
:1002E0006720626F7468206F6E206475616C204CAB
:1002F000454400426C696E6B696E672072656400EC
:10030000426C696E6B696E6720677265656E00444A
:100310003133206F6E00443133206F666600426CCB
:10032000696E6B696E67204431330052544320522A
:10033000454144207C205254432057524954450A99
:100340000D757064617465202F207265616420747E
:10035000696D650A0A0D56455253494F4E0A0D63A1
:10036000757272656E742076657273696F6E0A0DB0
:100370002D2D2D2D2D2D2D2D2D2D2D2D2D2D2D2DAD
:100380002D2D2D2D2D2D2D2D2D0044485420435540
:100390005252454E54207C204448542053415645E7
:1003A0004420287829207C20444854204558545221
:1003B000454D450A0D73686F772074686520637535
:1003C0007272656E742C20736176656420286C618E
:1003D00073742078207265636F7264732C206F7061
:1003E00074696F6E616C2C2064656661756C742035
:1003F0006973203130292C2065787472656D652011
:1004000074656D70202F2068756D69646974790A50
:10041000000A0D535441545553204C4544530A0D82
:10042000666F72206C6564207374617475730A0062
:1004300053455420424C494E4B20580A0D73657465
:10044000207468652064656C617920746F20582081
:100450006D732C206D696E696D756D20004C45447F
:1004600020475245454E207C204C4544205245446F
:10047000207C204C4544204F4646207C204C45445F
:1004800020424C494E4B207C204C45442044554151
:100490004C20424C494E4B0A0D636F6E74726F6C68
:1004A00020746865206475616C20636F6C6F7220C6
:1004B0004C45440A00443133204F4E207C204431C7
:1004C00033204F4646207C2044313320424C494E55
:1004D0004B0A0D636F6E74726F6C20746865204CEC
:1004E0004544206F6E2070696E2031330A000D2D57
:1004F0002D2D2D2D2D2D2D2D2D2D2D2D2D2D2D2D2C
:100500002D2D2D2D2D2D2D2D0A0D417661696C611E
:10051000626C6520636F6D6D616E64733A00566541
:100520007273696F6E3A200052652D656E74657244
:100530002074686520636F6D6D616E64000000005B
:100540000023002600290004040404040404040217
:100550000202020202030303030303010204081060
:10056000204080010204081020010204081020002D
:100570000000080002010000030407000000000062
:10058000000000323000F70F11241FBECFEFD8E07B
:10059000DEBFCDBF24E0A8E5B2E001C01D92A230CD
:1005A000B207E1F712E0A0E0B1E0E2E4F5E302C057
:1005B00005900D92A835B107D9F712E0C4ECD2E04E
:1005C00004C02197FE010E94991AC33CD107C9F7C4
:1005D0000E94FF0F0C9424180C940000813208F044
:1005E00041C0909144039111FCCF91E0909344035A
:1005F000909343032FEF2093420310924103280F5F
:100600002093400390933F0390913F03906D90930C
:100610003F0390913E039130F9F410923E03909184
:100620003F039093BB009091BC0093FDF8CF95ECF5
:100630009093BC00909144039130E1F39091410379
:10064000981710F480914103AEE1B3E0E5E4F3E0E4
:1006500090E0981303C0089595EEEACF2D91219371
:100660009F5FF7CF80E00895613208F048C0909115
:1006700044039111FCCF92E09093440340934303D1
:100680009FEF909342031092410360934003AEEFBB
:10069000B2E0EEE1F3E090E069132BC010923F036B
:1006A00090913F03880F892B80933F0380913E03F5
:1006B000813019F510923E0380913F038093BB0077
:1006C0008091BC0083FDF8CF85EC8093BC008091C5
:1006D00044038230E1F3809142038F3F91F0809197
:1006E0004203803281F080914203803371F084E0D4
:1006F00008952D9121939F5FCFCF85EEE6CF81E0C6
:10070000089580E0089582E0089583E00895482FD9
:100710006091FD028091FC020E9434031092FB0262
:100720001092FD021092FA020895E091EE02F0910B
:10073000EF020190F081E02D682F8EEE92E0099497
:1007400087EA93E09093DE028093DD020895089596
:100750008FEA93E09093DC028093DB020895089582
:1007600085ED8093BC008091BC0084FDFCCF10928D
:10077000440308952091B802260F3327331F2132F6
:100780003105ECF420914403FC0190E080E024303A
:1007900069F082E00895A091B8022191AC01485619
:1007A0005D4FA40FB52FB11D2C930196861798F3BA
:1007B0008091B802680F6093B80280E0089581E0EC
:1007C00008950895E091ED028091EC02E81730F46D
:1007D000F0E0EB5BFC4F808190E008958FEF9FEF9E
:1007E00008959091ED028091EC022FEF3FEF981762
:1007F00048F4E92FF0E0EB5BFC4F208130E09F5F95
:100800009093ED02C90108958091EC029091ED0260
:10081000891B990B0895CF92DF92EF92FF920F936D
:100820001F93CF93DF937C01CB018A012091FA02C1
:10083000222389F0EB016B01C40ED51ECC15DD051A
:1008400069F06991D701ED91FC910190F081E02D63
:10085000C7010995F3CF642F0E94BA03C801DF9145
:10086000CF911F910F91FF90EF90DF90CF9008955F
:10087000CF93DF931F92CDB7DEB769832091FA0241
:100880002223F9F02091FD02203258F021E030E0DF
:10089000FC013383228390E080E00F90DF91CF91C1
:1008A00008958091FB02E82FF0E0E250FD4F99811E
:1008B00090838F5F8093FB028093FD0281E090E044
:1008C000ECCF61E0CE0101960E94BA03F7CF6F92A0
:1008D0007F928F929F92AF92BF92CF92DF92EF92D0
:1008E000FF920F931F93CF93DF93CDB7DEB7AC97F3
:1008F0000FB6F894DEBF0FBECDBFDC011696ED91AA
:10090000FC91319609F48BC059013A016B018C01BD
:10091000FE0131964F0188E2DF011D928A95E9F7C9
:10092000D801ED91FC910484F585E02DB401C80156
:1009300009957C01892B09F05CC01AA619A61CA692
:100940001BA6D801ED91FC910684F785E02D9E0150
:10095000255D3F4FAE01475D5F4FB401C80109956A
:100960007C01892B09F045C0A114B10439F088E25B
:10097000F401D50101900D928A95E1F7C114D104DB
:1009800009F189A59AA521E030E097FF02C02FEF79
:100990003FEF9F77829FB001839F700D929F700DF4
:1009A0001124072E000C880B990B0E94311820E0AF
:1009B00030E040E251E40E94C319F6016083718384
:1009C0008283938361147104A1F06BA57CA5072E2B
:1009D000000C880B990B0E94311820E030E040E2B7
:1009E00051E40E94C319D3016D937D938D939C9321
:1009F0001397C701AC960FB6F894DEBF0FBECDBFFC
:100A0000DF91CF911F910F91FF90EF90DF90CF90EA
:100A1000BF90AF909F908F907F906F90089587E1E7
:100A2000E82EF12CE6CF8F929F92AF92BF92CF9299
:100A3000DF92EF92FF920F931F93CF93DF93EC011E
:100A40008B016A017901E881F9810284F385E02D47
:100A50000995B82EB801685F7F4FE881F98102845B
:100A6000F385E02DCE010995982EB801605F7F4F88
:100A7000E881F9810284F385E02DCE010995A82E45
:100A8000B801685E7F4FE881F9810284F385E02D2B
:100A9000CE010995882EB801605E7F4FE881F9810B
:100AA0000284F385E02DCE0109959B2D990D9A0DB9
:100AB000980D891319C09A2D882DF6019183808392
:100AC0009B2D892DF7019183808390E080E0DF9159
:100AD000CF911F910F91FF90EF90DF90CF90BF903B
:100AE000AF909F908F90089585E190E0F0CF47E020
:100AF00050E080E0FB012191BF01042E01C0220FD4
:100B00000A94EAF7820F41505109A0F70895DC01D9
:100B100017967C936E931697FB01E55AFA4FE49172
:100B20001896EC931897695B7A4FFB0164911996BC
:100B30006C930895CF92DF92EF92FF920F931F93E1
:100B4000CF93DF93EC017A0169010E948705E88168
:100B5000F9810480F581E02D9801A601B701CE014D
:100B6000DF91CF911F910F91FF90EF90DF90CF9089
:100B70000994CF92DF92EF92FF920F931F93CF933E
:100B8000DF93EC017A0169010E948705E881F98110
:100B90000190F081E02D9801A601B701CE01DF910F
:100BA000CF911F910F91FF90EF90DF90CF9009941C
:100BB000CF92DF92EF92FF920F931F93CF93DF9329
:100BC000CDB7DEB728970FB6F894DEBF0FBECDBF06
:100BD000DC011696ED91FC91319609F440C08A0132
:100BE0007B0119821A821B821C821D821E821F8237
:100BF0001886DC01ED91FC910480F581E02DAE01B9
:100C00004B5F5F4FBE016F5F7F4F09956C01892B72
:100C1000B1F4E114F10441F069817A818B819C8106
:100C20000E94351AF70160830115110541F06D81AD
:100C30007E818F8198850E94351AD8016C93C601F8
:100C400028960FB6F894DEBF0FBECDBFDF91CF91CF
:100C50001F910F91FF90EF90DF90CF90089587E163
:100C6000C82ED12CECCFCF93C62F91E09093FA02EF
:100C700098E69093FC021092FB021092FD02682FFE
:100C80008EEE92E00E9438046C2F8EEE92E00E946D
:100C9000380481E0CF910C94870391E09093FA029D
:100CA00098E69093FC021092FB021092FD02682FCE
:100CB0008EEE92E00E94380481E00C9487036AE093
:100CC0000E946B1A292F30E1839FC0011124822BCF
:100CD0000895982F92959F708F702AE0929F800DB3
:100CE00011240895FC01538D448D252F30E0842F6D
:100CF00090E0821B930B541710F0CF960895019744
:100D00000895FC01918D828D981761F0A28DAE0F30
:100D1000BF2FB11D5D968C91928D9F5F9F73928FB7
:100D200090E008958FEF9FEF0895FC01918D828DE3
:100D3000981731F0828DE80FF11D858D90E00895B0
:100D40008FEF9FEF0895FC01918D228D892F90E008
:100D5000805C9F4F821B91098F7399270895FC0136
:100D6000A48DA80FB92FB11DA35ABF4F2C91848D0C
:100D700090E001968F739927848FA689B7892C9369
:100D8000A089B1898C91837080648C93938D848DBC
:100D9000981306C00288F389E02D80818F7D8083BF
:100DA0000895EF92FF920F931F93CF93DF93EC017F
:100DB00081E0888F9B8D8C8D98131AC0E889F98902
:100DC000808185FF15C09FB7F894EE89FF89608305
:100DD000E889F98980818370806480839FBF81E086
:100DE00090E0DF91CF911F910F91FF90EF900895C8
:100DF000F62E0B8D10E00F5F1F4F0F731127E02EA3
:100E00008C8D8E110CC00FB607FCFACFE889F989DA
:100E1000808185FFF5CFCE010E94AF06F1CFEB8D2B
:100E2000EC0FFD2FF11DE35AFF4FF0829FB7F894AE
:100E30000B8FEA89FB8980818062CFCFCF93DF93CC
:100E4000EC01888D8823B9F0AA89BB89E889F989E2
:100E50008C9185FD03C0808186FD0DC00FB607FC17
:100E6000F7CF8C9185FFF2CF808185FFEDCFCE014A
:100E70000E94AF06E9CFDF91CF91089585E693E018
:100E80000E94A30621E0892B09F420E0822F089517
:100E900080E090E0892B29F00E943E0781110C949C
:100EA00000000895DC01ED91FC910190F081E02DAE
:100EB0000994EF92FF920F931F93CF93DF938C01CE
:100EC0007B01D0E0C0E0F701EC0FFD1F64916623C9
:100ED00061F0D801ED91FC910190F081E02DC80105
:100EE0000995892B11F02196EECFCE01DF91CF919C
:100EF0001F910F91FF90EF900895AF92BF92CF9204
:100F0000DF92EF92FF920F931F93CF93DF936C01C9
:100F10007B018B01040F151FEB015E01AE18BF08AA
:100F2000C017D10759F06991D601ED91FC9101905C
:100F3000F081E02DC6010995892B79F7C501DF9174
:100F4000CF911F910F91FF90EF90DF90CF90BF90C6
:100F5000AF90089590E080E00895833081F028F408
:100F6000813099F08230A9F008958730A9F0883057
:100F7000C9F08430B1F4809180008F7D03C08091EE
:100F800080008F7780938000089584B58F7784BD2B
:100F9000089584B58F7DFBCF8091B0008F778093CB
:100FA000B00008958091B0008F7DF9CFCF93DF938B
:100FB000ECE7F5E08491E8E6F5E0D491E4E5F5E0CE
:100FC000C491CC23A1F081110E94AD07EC2FF0E079
:100FD000EE0FFF1FE35CFA4FA591B491EC91ED2366
:100FE00081E090E009F480E0DF91CF91089580E006
:100FF00090E0FACF1F93CF93DF93282F30E0F901D1
:10100000E159FA4F8491F901E55AFA4FD491F90167
:10101000E95BFA4FC491CC23A9F0162F81110E94ED
:10102000AD07EC2FF0E0EE0FFF1FEE58FF4FA5913C
:10103000B4918FB7F894EC91111108C0D095DE23CC
:10104000DC938FBFDF91CF911F910895DE2BF8CFF6
:101050001092440381E08093430310923E0361E0C9
:1010600082E10E94FA0761E083E10E94FA07E9EB5E
:10107000F0E080818E7F808380818D7F808388E413
:101080008093B80085E48093BC000895CF93DF93EC
:1010900090E0FC01E55AFA4F2491895B9A4FFC01DC
:1010A00084918823D1F090E0880F991FFC01E859C2
:1010B000FF4FA591B491FC01EE58FF4FC591D4911B
:1010C00061110EC09FB7F8948C91E22FE0958E23AA
:1010D0008C932881E223E8839FBFDF91CF9108950D
:1010E0008FB7F894EC91E22BEC938FBFF6CF789406
:1010F00084B5826084BD84B5816084BD85B582601D
:1011000085BD85B5816085BDEEE6F0E080818160BA
:101110008083E1E8F0E010828081826080838081BA
:1011200081608083E0E8F0E0808181608083E1EB92
:10113000F0E0808184608083E0EBF0E0808181607A
:101140008083EAE7F0E08081846080838081826030
:101150008083808181608083808180688083109219
:10116000C10008958130910539F0880F991F880FCB
:10117000991F05970197F1F708953FB7F89480916B
:101180005D0290915E02A0915F02B091600226B56F
:10119000A89B05C02F3F19F00196A11DB11D3FBFAF
:1011A000BA2FA92F982F8827BC01CD01620F711D7E
:1011B000811D911D42E0660F771F881F991F4A9578
:1011C000D1F708957F928F929F92AF92BF92CF9264
:1011D000DF92EF92FF920F931F93CF93DF93EC0177
:1011E000162F7A0169010E94BD084B015C01712C28
:1011F0001111788410E000E060E070E0CB012A81FA
:101200003B814C815D812617370748075907F4F069
:101210000115110561F5C7011E141F0464F10E9438
:10122000BD08681979098A099B09E985F0E0EE0F84
:10123000FF1FE35CFA4FA591B4912C910F5F1F4FF4
:1012400038852323271105C097FFD9CF6FEF7FEF94
:10125000CB01DF91CF911F910F91FF90EF90DF9025
:10126000CF90BF90AF909F908F907F9008951C1467
:101270001D04ACF6C6010E94B208D1CF2FB7F89476
:101280006091590270915A0280915B0290915C02C8
:101290002FBF08958F929F92AF92BF92EF92FF92CD
:1012A0000F931F93CF93DF937B018C01D0E0C0E0BD
:1012B0000E943E0960936D0370936E0380936F03E9
:1012C00090937003E0916503F09166030284F385C7
:1012D000E02D85E693E0099597FF27C00E943E091F
:1012E00080906D0390906E03A0906F03B090700398
:1012F000681979098A099B098090690390906A03AB
:10130000A0906B03B0906C03681579058A059B0566
:10131000C8F2CE01DF91CF911F910F91FF90EF9016
:10132000BF90AF909F908F900895F80181938F01A7
:101330002196EC16FD0609F0BBCFEBCF87E080933A
:1013400004018093890261E084E00E94FA0760E072
:1013500085E00C94FA0781110AC01092890260E0BE
:1013600084E00E94FA0760E085E00C94FA07873079
:1013700011F40C949E0988E0809304018093890203
:1013800060E084E00E94FA0761E0EECFBF92CF9266
:10139000DF92EF92FF920F931F93CF93DF9300D0D2
:1013A00000D000D01F92CDB7DEB780E00E944D067E
:1013B00087E00E94EE021092ED028093EC028730EB
:1013C000E1F58EEE92E00E94F1030E946906B82ECC
:1013D0008EEE92E00E94F1030E946906C82E8EEE06
:1013E00092E00E94F103182F86FF3EC08F710E9489
:1013F00069060CE015FD00E0080F8EEE92E00E94F9
:10140000F1030E946906D82E8EEE92E00E94F1034D
:101410000E946906E82E8EEE92E00E94F10310E031
:1014200087FD14E68F770E946906F82E8EEE92E013
:101430000E94F1030E946906180F2B2D3C2D402FAE
:101440005D2DB701812F90E027960FB6F894DEBF8F
:101450000FBECDBFDF91CF911F910F91FF90EF9005
:10146000DF90CF90BF9008958F730E946906082F78
:10147000C4CFCF93DF93EB010E944D0681E00E9421
:10148000EE021092ED028093EC028EEE92E00E944A
:10149000F103888381E0DF91CF910895EF92FF926D
:1014A0001F93CF93DF931F92CDB7DEB77C01162F2A
:1014B000BE016F5F7F4F8EE00E94390A811108C024
:1014C00080E00F90DF91CF911F91FF90EF900895F2
:1014D00081E08093FA0288E68093FC021092FB027E
:1014E0001092FD02113089F587E090E00E9495038B
:1014F000F70180810E945F0690E00E949503898138
:1015000085608983F70181810E945F0690E00E94D7
:101510009503F70182810E945F0690E00E94950387
:10152000F70184810E945F0690E00E94950381E0AC
:101530000E9487038111C4CF69818EE00E94330627
:101540008111BECF812F8770BCCF8BE090E00E94CD
:10155000950389818660D5CF0E944019EF92FF9252
:101560000F931F93CF93DF93EC018B0188E2FB0174
:1015700011928A95E9F761E08E810E94460860E049
:101580008E810E94FA0788EE93E00E94B20861E023
:101590008E810E94FA0760E08E810E94460888E2F0
:1015A00090E00E94B208E881F9810084F185E02D85
:1015B00026E030E04AE050E060E0CE0109956E316F
:1015C0007105810591056CF4982F872F762F66277A
:1015D0006061CB01DF91CF911F910F91FF90EF9050
:1015E0000895E881F9810084F185E02D26E030E05E
:1015F0004AE050E061E0CE0109957801F8E2EF0E93
:10160000F11C623371058105910534F4982F872F01
:10161000762F66276161DDCFE881F9810084F1854D
:10162000E02D26E030E04AE050E060E0CE01099590
:10163000683171058105910534F4982F872F762F35
:1016400066276261C6CFE881F9810084F185E02DCB
:1016500026E030E04AE050E061E0CE0109956B30D1
:1016600071058105910534F4982F872F762F662711
:101670006361AFCF21E069327105810591050CF4FA
:1016800020E0F80121938F01EE16FF0629F6E8818C
:10169000F9810084F185E02D26E030E04AE050E059
:1016A00060E0CE010995683171058105910534F43A
:1016B000982F872F762F662764618BCF70E060E0CC
:1016C00088CFFF920F931F93CF93DF93EC018B0191
:1016D000FB01F0800E942A19F81621F06F2DCE012F
:1016E0000E943219F801F1802196CE010E942A1938
:1016F000F81621F06F2DCE010E943219C801DF913A
:10170000CF911F910F91FF900895FB010190002050
:10171000E9F73197AF01461B570BDC01ED91FC91C6
:101720000280F381E02D09948F929F92AF92BF9235
:10173000EF92FF920F931F93CF93DF93CDB7DEB756
:10174000A1970FB6F894DEBF0FBECDBF7C01FA01A2
:10175000CB0119A2223008F42AE08E010F5D1F4F41
:10176000822E912CB12CA12CBF01A50194010E94C5
:10177000771AF901CA016A300CF5605DD8016E93E1
:101780008D01232B242B252B79F790E080E01097F7
:1017900021F0BD01C7010E94850BA1960FB6F894F8
:1017A000DEBF0FBECDBFDF91CF911F910F91FF9094
:1017B000EF90BF90AF909F908F900895695CDECFBF
:1017C000462F50E070E060E02AE00C94940BCF9339
:1017D000C82F8A3028F460E385E693E00E94520720
:1017E0006C2F85E693E0CF910C94E00BCF93DF93C1
:1017F000EC018E818536D0F062E385E693E00E94AD
:1018000052078E810E94E70B6DE285E693E00E940D
:1018100052078D810E94E70B6DE285E693E00E94FE
:1018200052078C81DF91CF910C94E70B63E875E050
:1018300085E693E00E945907E4CFCF93DF93EC0154
:101840008A810E94E70B6AE385E693E00E945207D3
:1018500089810E94E70B6AE385E693E00E945207C4
:101860008881DF91CF910C94E70BCF92DF92EF92BA
:10187000FF92CF93DF936C01990FEE08FF08F7FEFC
:101880001BC06DE285E693E00E945207EC014427FD
:101890005527BA014C195D096E097F092AE085E6D2
:1018A00093E00E94940B8C0F9D1FDF91CF91FF90CE
:1018B000EF90DF90CF9008952AE0B701A60185E66A
:1018C00093E0DF91CF91FF90EF90DF90CF900C9459
:1018D000940BBC0185E693E00C94850B63E571E005
:1018E0000C94850BCF93DF93BC0185E693E00E94B7
:1018F000850BEC0185E693E00E946E0C8C0F9D1F1A
:10190000DF91CF9108956F927F928F929F92AF92C5
:10191000BF92CF92DF92EF92FF920F931F93CF93DC
:10192000DF93CDB7DEB729970FB6F894DEBF0FBEB1
:10193000CDBF209171023091720221153105C1F4A1
:1019400086E591E029960FB6F894DEBF0FBECDBFB5
:10195000DF91CF911F910F91FF90EF90DF90CF908B
:10196000BF90AF909F908F907F906F900C94720C6F
:1019700060906F02709070028C01281739070CF488
:101980008901D12CC12CC016D1060CF089C053019D
:10199000730189E0E81AF1083701FE0131964F0121
:1019A000C7010E942A19F40181934F01FFEFEF1A3A
:1019B000FF0AAE14BF04A1F78FEFC81AD80AC601F8
:1019C0000E94350C8EE591E00E94690C6F8185E6DE
:1019D00093E00E94E00B80E691E00E94690C6E812A
:1019E00085E693E00E94E00B80E691E00E94690C9E
:1019F0006D8185E693E00E94E00B8BE691E00E940A
:101A0000690C6B8185E693E00E94E00B82E691E031
:101A10000E94690C6A8185E693E00E94E00B82E6F1
:101A200091E00E94690C698185E693E00E94E00BD9
:101A30008BE691E00E94690CF8848F2D0F2C000C2E
:101A4000990B0E94350C84E691E00E94690C6F2D81
:101A5000FF0C770B880B990B0E94311826E636E6AF
:101A600046EE5FE30E946C1820E030E040E052E474
:101A70000E9457190E94351A862F660F990B0E94F3
:101A8000350C88E691E00E94690C8985082E000CCF
:101A9000990B0E94350C8DE691E00E94720C73CF79
:101AA00029960FB6F894DEBF0FBECDBFDF91CF9160
:101AB0001F910F91FF90EF90DF90CF90BF90AF906C
:101AC0009F908F907F906F9008950F931F93CF9367
:101AD000DF93EC010E9459078C01CE010E946E0C2D
:101AE000800F911FDF91CF911F910F9108951F9249
:101AF0000F920FB60F9211242F933F934F935F9342
:101B00006F937F938F939F93AF93BF93EF93FF93C5
:101B10008091B900887F803609F44AC0F0F5883298
:101B200009F4A7C018F5803109F49BC0B8F48823E4
:101B300009F4F9C0883009F494C0FF91EF91BF9186
:101B4000AF919F918F917F916F915F914F913F9155
:101B50002F910F900FBE0F901F901895883109F4A8
:101B600088C0803251F78093420314C0803409F456
:101B70009DC040F48033B9F38833F9F68093420373
:101B800085ECB0C0803509F485C0883509F496C06D
:101B9000883499F60E94B003D0CF883909F48CC0FC
:101BA00038F5883729F050F4883611F0803729F657
:101BB00083E0809344031092DA0257C0883809F416
:101BC0007BC0803919F0803809F0B7CF8091DA02F4
:101BD000803208F071C0E091DA0281E08E0F8093CC
:101BE000DA028091BB00F0E0E654FD4F80833DC0F7
:101BF000803B39F0E0F4803A09F479C0883A09F082
:101C00009CCF84E0809344031092B9021092B802F2
:101C1000E091DB02F091DC0209958091B80281111C
:101C20000FC081E08093B8021092980209C0803CF6
:101C300009F4A6CF883C09F4A3CF883B09F07DCFF7
:101C4000E091B90281E08E0F8093B902F0E0E8568E
:101C5000FD4F80818093BB009091B9028091B802C2
:101C600029C080913F038093BB0085EC8093BC002A
:101C700064CF9091410380914003981758F5E0910B
:101C8000410381E08E0F80934103F0E0E25EFC4F60
:101C90008081E9CFE091410381E08E0F8093410381
:101CA0008091BB00F0E0E25EFC4F808390914103A5
:101CB000809140039817C8F285E8D8CFE09141039E
:101CC00081E08E0F809341038091BB00F0E0E25EE3
:101CD000FC4F80838091430381115CCF81E080932E
:101CE0003E0384EA8093BC001092440326CF85EC27
:101CF0008093BC00109244038091DA02803230F469
:101D0000E091DA02F0E0E654FD4F10826091DA02D1
:101D100070E0E091DD02F091DE028AEB92E009953D
:101D20001092DA020ACF1092420334CF1F920F9220
:101D30000FB60F9211242F933F934F935F936F939E
:101D40007F938F939F93AF93BF93EF93FF9385E61A
:101D500093E00E94AF06FF91EF91BF91AF919F91E9
:101D60008F917F916F915F914F913F912F910F9044
:101D70000FBE0F901F9018951F920F920FB60F92E3
:101D800011242F938F939F93EF93FF93E09175030B
:101D9000F09176038081E0917B03F0917C0382FDDA
:101DA0001BC0908180917E038F5F8F7320917F0392
:101DB000821741F0E0917E03F0E0EB59FC4F958FE4
:101DC00080937E03FF91EF919F918F912F910F90C0
:101DD0000FBE0F901F9018958081F4CF1F920F9225
:101DE0000FB60F9211242F933F938F939F93AF932E
:101DF000BF938091590290915A02A0915B02B091D9
:101E00005C023091580223E0230F2D3758F50196DC
:101E1000A11DB11D209358028093590290935A023C
:101E2000A0935B02B0935C0280915D0290915E0290
:101E3000A0915F02B09160020196A11DB11D809337
:101E40005D0290935E02A0935F02B0936002BF9127
:101E5000AF919F918F913F912F910F900FBE0F9057
:101E60001F90189526E8230F0296A11DB11DD2CF11
:101E7000EEEEF2E01382128288EE93E0A0E0B0E092
:101E800084839583A683B78385E491E091838083DF
:101E90000895E5E6F3E01382128288EE93E0A0E075
:101EA000B0E084839583A683B78383E391E0918335
:101EB000808385EC90E09587848784EC90E0978719
:101EC000868780EC90E0918B808B81EC90E0938B07
:101ED000828B82EC90E0958B848B86EC90E0978BE4
:101EE000868B118E128E138E148E0895CF93DF93EE
:101EF000C1E6D2E08BE091E09983888380E49BE4A3
:101F0000ACE4B0E08A839B83AC83BD838FEF9FEF0B
:101F10009F838E838887898762E070E0CE010E946C
:101F200087058FE191E099838883DF91CF910895B0
:101F3000CF93DF9300D000D0CDB7DEB710926C0204
:101F400010926B028FEF93E090936E0280936D027C
:101F50001092700210926F0210927202109271022F
:101F6000BE016D5F7F4F90E080E00E94E30FBE01F5
:101F70006F5F7F4F82E090E00E94E30F2B813C81F6
:101F80003093700220936F0289819A81909372023C
:101F9000809371021092750280916B0290916C0295
:101FA000069690937402809373022817390724F4DD
:101FB0009093700280936F020F900F900F900F908C
:101FC000DF91CF9108950F931F93CF93DF938C01EF
:101FD000EB010E942A198883C80101960E942A19E0
:101FE0008983CE01DF91CF911F910F9108950E94B7
:101FF000380F0E94490F0E94760F0C94980FCF93D0
:10200000DF93CDB7DEB764970FB6F894DEBF0FBE8F
:10201000CDBF0E947708E0917503F091760312E03E
:102020001083E0917103F09172031082E0917303C9
:10203000F09174038FEC808310927D03E09179031B
:10204000F0917A0386E08083E0917703F091780342
:10205000808180618083E0917703F09178038081B3
:1020600088608083E0917703F091780380818068B5
:102070008083E0917703F091780380818F7D808366
:102080001092ED021092EC021092FB021092FD02EF
:102090000E9428080E94A8030E94A00360E08EE02E
:1020A0000E9433060E94C60929833A834B835C83CE
:1020B0008F838FE18D831E8362E0CE0101960E94A3
:1020C0004E0A61E0CE0101960E944E0A1C8A1A86D1
:1020D000BE01665F7F4F8FE00E94390A6A85862FB6
:1020E000837021F06C7F8FE00E9433068C898823F7
:1020F00069F0BE016C5E7F4F8EE00E94390A882332
:1021000029F06C896F778EE00E9433061092DF020F
:1021100061E08DE00E94460861E084E00E9446088C
:1021200061E085E00E9446086CE770E085E693E098
:102130000E94650D8E010F5E1F4F3E0122E1620E6F
:10214000711C33E0332E40E1442E512C0E943E0995
:1021500070939702609396022091810230918202DF
:10216000621B730B68387341E0F130E020E047E810
:1021700052E068E872E081E692E00E94D8057C01B6
:10218000892B59F08FE691E00E94690CC7010E94EB
:10219000350C85E693E00E946E0C80918802909148
:1021A0000101891714F4809301019091030198179C
:1021B00014F48093030180918702909100018917A4
:1021C00014F48093000190910201981714F4809305
:1021D00002018091960290919702909382028093DF
:1021E0008102209196023091970280917F02909116
:1021F0008002A901481B590B4838534120F4281785
:10220000390708F07BC00E94C609209376023093FC
:102210007702409378025093790260937A02709328
:102220007B0280937C028091880280937D02809162
:10223000870280937E0289E0E6E7F2E0DE011196F4
:1022400001900D928A95E1F780906F029090700254
:10225000CE0101966C01F12CE12CF60121906F0169
:102260005401AE0CBF1CC5010E942A19281621F08A
:10227000622DC5010E943219FFEFEF1AFF0A29E013
:10228000E216F10451F780917502811109C0809125
:102290007102909172020196909372028093710282
:1022A00080916F02909170020996909370028093D2
:1022B0006F0220916D0230916E022950310928176A
:1022C000390740F4809173029091740290937002E8
:1022D00080936F026FE672E090E080E00E94610BF5
:1022E00061E772E082E090E00E94610B80919602CB
:1022F000909197029093800280937F028091950243
:10230000882319F1E0909602F09097028091830261
:10231000909184029701281B390B809105019091BF
:1023200006012817390788F00E94D60761E0892B3B
:1023300029F00E94D607019721F460E08DE00E9409
:10234000FA07F0928402E092830280919402811154
:1023500004C080919302882301F1E0909602F090EE
:10236000970280918502909186029701281B390B74
:1023700080910501909106012817390770F080912E
:10238000040190919302992379F1883039F50E94E4
:102390009E09F0928602E092850285E693E00E9413
:1023A000A306892B71F085E693E00E9481060E94C6
:1023B000451980939202803201F59091910291111A
:1023C0003BC080E090E0892B09F4C0CE0E943E071C
:1023D000882309F4B6CE0E940000B3CE8730C9F638
:1023E00088E00E94AB09D5CF90918902891302C081
:1023F00080E0F7CF9111CDCFF4CF8F37E9F485E6A8
:1024000093E00E946E0C68E275E085E693E00E941E
:10241000650D1092DF021092910210928C021092C0
:102420008B0210928E0210928D02109290021092E6
:102430008F0210928A02C5CF682F85E693E00E9432
:102440005207C0909202E091910230E2C31619F057
:102450006DE0C612B4C5F0E0E152FD4F1082E0908D
:102460008A0282E08E1538F167E871E08FED92E024
:102470000E944D19DD24D394DE0CF12CEE0CFF1CD0
:10248000F701E557FD4F7F01892B39F4D0928A027D
:102490008DE090E0918380830EC06BE871E08FED5A
:1024A00092E00E944D19892B09F02EC0D0928A0229
:1024B000F701118210821092DF02109291023DE02A
:1024C000C3127FCF85E693E00E946E0CE0918B02F1
:1024D000F0918C02E231F10508F06EC5EE58FD4E28
:1024E0000C94991A5314DC13EE138013A913DC1700
:1024F000DC17DC17DC17DC17DC17DC17DC173514EE
:10250000DC17DC1790141C176FE871E08FED92E078
:102510000E944D19892B31F4D0928A0289E090E013
:10252000F701B8CF64E971E08FED92E00E944D1998
:10253000892B29F4D0928A0281E090E0F1CF68E9FA
:1025400071E08FED92E00E944D19892B29F4D09211
:102550008A0282E090E0E4CF6FE971E08FED92E0D3
:102560000E944D19892B29F4D0928A0283E090E0D1
:10257000D7CF67EA71E08FED92E00E944D19892B69
:1025800029F4D0928A0284E090E0CACF64EA71E034
:102590008FED92E00E944D19892B29F4D0928A0286
:1025A0008AE090E0BDCF6CEA71E08FED92E00E948E
:1025B0004D19892B29F4D0928A028BE090E0B0CF9C
:1025C00060EB71E08FED92E00E944D19892B29F4A8
:1025D000D0928A028CE090E0A3CF66EB71E08FEDA1
:1025E00092E00E944D19892B29F4D0928A0286E04C
:1025F00090E096CF6BEB71E08FED92E00E944D1969
:10260000892B29F4D0928A0288E090E089CF6FEB81
:1026100071E08FED92E00E944D19892B29F4D09240
:102620008A0287E090E07CCF65EC71E08FED92E06C
:102630000E944D19892B29F4D0928A028EE090E0F5
:102640006FCF6BEC71E08FED92E00E944D19892BFA
:1026500029F4D0928A028FE090E062CF60ED71E0C1
:102660008FED92E00E944D19892B31F4D0928A02AD
:10267000F701518240821FCF64ED71E08FED92E04F
:102680000E944D19892B41F4D0928A0221E130E059
:10269000F701318320830FCF68ED71E08FED92E079
:1026A0000E944D19892B29F4D0928A0222E130E050
:1026B000EFCF60EE71E08FED92E00E944D19892B13
:1026C00029F4D0928A0223E130E0E2CF66EE71E095
:1026D0008FED92E00E944D19892B29F4D0928A0245
:1026E00024E130E0D5CF0E94F017D0928A028038E2
:1026F000910519F00E94F01713CF25E030E0C8CF04
:102700006EE175E085E693E00E9459072AE042E019
:1027100050E060E070E085E693E00E94940B6EE28A
:1027200085E693E00E9452072AE040E050E0BA01BB
:1027300085E693E00E94940B2AE040E050E0BA0165
:1027400085E693E00E94940B85E693E00E946E0C70
:1027500064CE6EEE74E085E693E00E94650D65EB55
:1027600074E085E693E00E94650D6DE574E085E612
:1027700093E00E94650D60E374E085E693E00E94BB
:10278000590782E390E00E94350C85E693E00E94B1
:102790006E0C61E174E085E693E00E94650D6AE8E5
:1027A00073E085E693E00E94650D6BE273E085E6D9
:1027B00093E00E94650D31CE80918D0290918E0242
:1027C0000C9761F480918F02909190028233910571
:1027D00028F090930601809305011FCE80918D0211
:1027E00090918E02069709F018CE809195026EE1C5
:1027F00073E0811108C00E94D60766E173E0892B5F
:1028000011F06FE073E085E693E00E94650D809122
:10281000930290919402911102C08823B9F0909193
:102820000401973041F460E073E0882309F4BFCFDE
:1028300069ED72E0BCCF983029F463EF72E081114A
:10284000F7CFB5CF882309F4E8CDF2CF8091890284
:1028500061ED72E0882309F4AACF67EC72E087305B
:1028600009F4A5CF6FEB72E0A2CF80918D02909119
:102870008E028B30910579F08C30910581F064EAFD
:1028800072E00A9709F093CF1092950261E08DE013
:102890000E94FA07C2CD1092950260E0F8CF81E065
:1028A00080939502BACD80918D0290918E028930ED
:1028B000910519F140F487309105C1F0089771F046
:1028C00069E872E074CF8B30910521F10C97C1F764
:1028D00081E080939402109293029FCD1092930214
:1028E0001092940288E00E94AB0997CD1092930257
:1028F000109294020E949E0990CD80918F02909137
:1029000090020C9709F089CD1092940281E0809397
:10291000930283CD109293021092940280E0E3CF51
:1029200080918D0290918E028E30910531F00F973B
:1029300009F462C26EE672E03ACF198A1A8A1B8ADB
:1029400065EF71E085E693E00E94650DF801232DA7
:1029500011922A95E9F785E693E00E946E0C6EECE1
:1029600071E085E693E00E945907E0916503F091DC
:1029700066030084F185E02D85E693E00995892BB7
:10298000A1F362E070E0C8010E944A09E09165038A
:10299000F09166030084F185E02D85E693E00995CA
:1029A000892B59F0E0916503F09166030284F38569
:1029B000E02D85E693E00995E9CF89898033D9F543
:1029C000C3010E9406188E87F801232D11922A95C3
:1029D000E9F785E693E00E946E0C6EEA71E085E609
:1029E00093E00E945907E0916503F091660300842B
:1029F000F185E02D85E693E00995892BA1F362E04E
:102A000070E0C8010E944A09E0916503F0916603F5
:102A10000084F185E02D85E693E00995892B69F026
:102A2000E0916503F09166030284F385E02D85E66D
:102A300093E00995E9CFC801C4CF89898033D9F5DE
:102A4000C3010E9406188F87F801232D11922A9541
:102A5000E9F785E693E00E946E0C6FE871E085E689
:102A600093E00E945907E0916503F09166030084AA
:102A7000F185E02D85E693E00995892BA1F362E0CD
:102A800070E0C8010E944A09E0916503F091660375
:102A90000084F185E02D85E693E00995892B69F0A6
:102AA000E0916503F09166030284F385E02D85E6ED
:102AB00093E00995E9CFC801C4CF89898033D9F55E
:102AC000C3010E940618888BF801232D11922A95C4
:102AD000E9F785E693E00E946E0C61E671E085E619
:102AE00093E00E945907E0916503F091660300842A
:102AF000F185E02D85E693E00995892BA1F362E04D
:102B000070E0C8010E944A09E0916503F0916603F4
:102B10000084F185E02D85E693E00995892B69F025
:102B2000E0916503F09166030284F385E02D85E66C
:102B300093E00995E9CFC801C4CF89898033D9F5DD
:102B4000C3010E9406188C87F801232D11922A9543
:102B5000E9F785E693E00E946E0C60E471E085E69B
:102B600093E00E945907E0916503F09166030084A9
:102B7000F185E02D85E693E00995892BA1F362E0CC
:102B800070E0C8010E944A09E0916503F091660374
:102B90000084F185E02D85E693E00995892B69F0A5
:102BA000E0916503F09166030284F385E02D85E6EC
:102BB00093E00995E9CFC801C4CF89898033D9F55D
:102BC000C3010E9406188B87F801232D11922A95C4
:102BD000E9F785E693E00E946E0C6FE171E085E60F
:102BE00093E00E945907E0916503F0916603008429
:102BF000F185E02D85E693E00995892BA1F362E04C
:102C000070E0C8010E944A09E0916503F0916603F3
:102C10000084F185E02D85E693E00995892B69F024
:102C2000E0916503F09166030284F385E02D85E66B
:102C300093E00995E9CFC801C4CF89898033D9F5DC
:102C4000C3010E9406188A87F801232D11922A9544
:102C5000E9F785E693E00E946E0C6EED70E085E684
:102C600093E00E94650DE0916503F0916603008496
:102C7000F185E02D85E693E00995892BA1F361E0CC
:102C800070E0C8010E944A09E0916503F091660373
:102C90000084F185E02D85E693E00995892B69F0A4
:102CA000E0916503F09166030284F385E02D85E6EB
:102CB00093E00995E9CFC801C4CFC8010E94061866
:102CC0008D8785E693E00E946E0C6AEC70E085E6E5
:102CD00093E00E945907CE010A960E94F60B64E524
:102CE00085E693E00E945207CE010A960E941D0CD1
:102CF00085E693E00E946E0C65E970E085E693E05E
:102D00000E945907E0916503F09166030084F18504
:102D1000E02D85E693E00995892BA1F361E070E051
:102D2000C8010E944A09E0916503F091660300849E
:102D3000F185E02D85E693E00995892B59F0E09126
:102D40006503F09166030284F385E02D85E693E048
:102D50000995E9CF89898F7D893509F0F7CD81E023
:102D60008093FA0288E68093FC021092FB02109294
:102D7000FD0290E080E00E9495038A850E945F0634
:102D8000682F8EEE92E00E9438048B850E945F06C9
:102D9000682F8EEE92E00E9438048C850E945F06B8
:102DA000682F8EEE92E00E9438048D85811101C05B
:102DB00081E00E945F06682F8EEE92E00E94380448
:102DC0008E850E945F06682F8EEE92E00E94380486
:102DD0008F850E945F06682F8EEE92E00E94380475
:102DE00088890E945F06682F8EEE92E00E94380468
:102DF00081E00E94870311CB0E94C6092A873B8786
:102E00004C875D876E877F87888BCE010A960E94EC
:102E1000F60B60E285E693E00E9452070E94C60925
:102E20002A873B874C875D876E877F87888BCE019B
:102E30000A960E941D0C88CC80918D0290918E0282
:102E40008331910509F444C08431910509F44CC0E3
:102E500063E572E0429709F0AACC8EEE91E00E9401
:102E6000690C80918802082E000C990B0E94350C89
:102E700084E691E00E94690C60918802062E000CA5
:102E8000770B880B990B0E94311826E636E646EE42
:102E90005FE30E946C1820E030E040E052E40E94C2
:102EA00057190E94351A862F660F990B0E94350C10
:102EB00088E691E00E94690C80918702082E000C40
:102EC000990B0E94350C8DE691E00E94720CA5CA08
:102ED00080918F0290919002009719F00E94830CCC
:102EE0009CCA8AE090E0FACF8AE092E00E94690CE6
:102EF00080910301082E000C990B0E94350C84E68A
:102F000091E00E94690C60910301062E000C770B82
:102F1000880B990B0E94311826E636E646EE5FE3F1
:102F20000E946C1820E030E040E052E40E94571903
:102F30000E94351A862F660F990B0E94350C88E681
:102F400091E00E94690C80910201082E000C990BFF
:102F50000E94350C8FE292E00E94690C8091010181
:102F6000082E000C990B0E94350C84E691E00E941B
:102F7000690C60910101062E000C770B880B990BF0
:102F80000E94311826E636E646EE5FE30E946C1892
:102F900020E030E040E052E40E9457190E94351AC8
:102FA000862F660F990B0E94350C88E691E00E94EF
:102FB000690C8091000182CF68E372E0F8CBEC30BD
:102FC00008F0FFC981E08E0F80939102F0E0E1529A
:102FD000FD4FC082E82FF0E0E152FD4F1082F1C9B1
:102FE000EFEDF2E08191882351F0082E000C990B4F
:102FF000C0970A9740F482E0EB3EF80799F78FED0F
:1030000092E00C94061880E890E00895FC0188276F
:103010009927E89421912032E9F3293010F02E30DD
:10302000C8F32B3241F02D3239F4689404C00E9469
:103030002718820F911D219120532A30C0F31EF4CE
:10304000909581959F4F0895F8940C949F1A7AE07B
:10305000979F902D879F802D910D11240895E894BE
:1030600009C097FB3EF490958095709561957F4FD0
:103070008F4F9F4F9923A9F0F92F96E9BB2793957E
:10308000F695879577956795B795F111F8CFFAF48E
:10309000BB0F11F460FF1BC06F5F7F4F8F4F9F4FBF
:1030A00016C0882311F096E911C0772321F09EE81D
:1030B000872F762F05C0662371F096E8862F70E083
:1030C00060E02AF09A95660F771F881FDAF7880F5D
:1030D0009695879597F908950E947F180C94F0189B
:1030E0000E94E21838F00E94E91820F0952311F0B0
:1030F0000C94D9180C94DF1811240C9424190E94F4
:10310000011970F3959FC1F3950F50E0551F629F11
:10311000F001729FBB27F00DB11D639FAA27F00D30
:10312000B11DAA1F649F6627B00DA11D661F829F57
:103130002227B00DA11D621F739FB00DA11D621F3C
:10314000839FA00D611D221F749F3327A00D611D59
:10315000231F849F600D211D822F762F6A2F11243B
:103160009F5750409AF0F1F088234AF0EE0FFF1F6E
:10317000BB1F661F771F881F91505040A9F79E3FC5
:10318000510580F00C94D9180C9424195F3FE4F396
:10319000983ED4F3869577956795B795F795E7951B
:1031A0009F5FC1F7FE2B880F911D9695879597F924
:1031B000089597F99F6780E870E060E008959FEFB9
:1031C00080EC089500240A941616170618060906BE
:1031D000089500240A94121613061406050608958D
:1031E000092E0394000C11F4882352F0BB0F40F415
:1031F000BF2B11F460FF04C06F5F7F4F8F4F9F4F55
:10320000089557FD9058440F551F59F05F3F71F0D6
:103210004795880F97FB991F61F09F3F79F087953D
:103220000895121613061406551FF2CF4695F1DFC6
:1032300008C0161617061806991FF1CF8695710556
:10324000610508940895E894BB2766277727CB018A
:1032500097F90895F999FECF92BD81BDF89A992703
:1032600080B50895262FF999FECF1FBA92BD81BD72
:1032700020BD0FB6F894FA9AF99A0FBE01960895F8
:1032800081E090E0F8940C949F1A91110895815672
:103290008A5108F4805285580895FB01DC018D9114
:1032A000019080190110D9F3990B08955058BB274C
:1032B000AA270E946E190C94F0180E94E21838F0A8
:1032C0000E94E91820F039F49F3F19F426F40C9479
:1032D000DF180EF4E095E7FB0C94D918E92F0E9453
:1032E000011958F3BA17620773078407950720F08E
:1032F00079F4A6F50C9423190EF4E0950B2EBA2F51
:10330000A02D0B01B90190010C01CA01A0011124EB
:10331000FF27591B99F0593F50F4503E68F11A1697
:10332000F040A22F232F342F4427585FF3CF469528
:1033300037952795A795F0405395C9F77EF41F164A
:10334000BA0B620B730B840BBAF09150A1F0FF0F14
:10335000BB1F661F771F881FC2F70EC0BA0F621F00
:10336000731F841F48F4879577956795B795F795F0
:103370009E3F08F0B0CF9395880F08F09927EE0F85
:103380009795879508950E94D7190C94F0180E947C
:10339000E91858F00E94E21840F029F45F3F29F044
:1033A0000C94D91851110C9424190C94DF180E9414
:1033B000011968F39923B1F3552391F3951B550B2C
:1033C000BB27AA2762177307840738F09F5F5F4FF8
:1033D000220F331F441FAA1FA9F335D00E2E3AF037
:1033E000E0E832D091505040E695001CCAF72BD04F
:1033F000FE2F29D0660F771F881FBB1F26173707A0
:103400004807AB07B0E809F0BB0B802DBF01FF27D1
:1034100093585F4F3AF09E3F510578F00C94D918BD
:103420000C9424195F3FE4F3983ED4F38695779586
:103430006795B795F7959F5FC9F7880F911D96958A
:10344000879597F90895E1E0660F771F881FBB1FE6
:10345000621773078407BA0720F0621B730B840B93
:10346000BA0BEE1F88F7E09508950E943C1A689405
:10347000B1110C94241908950E94091988F09F57DE
:1034800098F0B92F9927B751B0F0E1F0660F771F88
:10349000881F991F1AF0BA95C9F714C0B13091F07E
:1034A0000E942319B1E008950C942319672F782FF7
:1034B0008827B85F39F0B93FCCF386957795679543
:1034C000B395D9F73EF490958095709561957F4FAF
:1034D0008F4F9F4F0895991B79E004C0991F96174D
:1034E00008F0961B881F7A95C9F780950895A1E288
:1034F0001A2EAA1BBB1BFD010DC0AA1FBB1FEE1F6E
:10350000FF1FA217B307E407F50720F0A21BB30BB8
:10351000E40BF50B661F771F881F991F1A9469F734
:1035200060957095809590959B01AC01BD01CF0190
:103530000895EE0FFF1F0590F491E02D0994F89483
:02354000FFCFBB
:103542007F7F808008F40100000000D805B905AC37
:103552000AAC0AE2087705AC0A130500000000D89D
:1035620005B90567049A05E2087705AE0A13050056
:10357200000000D1067D0772061E07A3068106958C
:10358200060000000038040B04AA07E1030404F15A
:1035920003E2030D0A004E6F2064617461000900AA
:1035A2002F003A004320280046292C2000250052F3
:1035B200656164204448543232206661696C6564F6
:1035C2002C206572723D00443133004C4544004466
:1035D20055414C00534554005354415455530056E1
:1035E200455253494F4E0048454C50004F46460005
:1035F200424C494E4B004C4544530052454400470F
:103602005245454E005752495445005245414400E7
:10361200525443004448540043555252454E5400BC
:1036220053415645440045585452454D4500437553
:103632007272656E742074656D70202F2068756DCE
:10364200696469747920697320004D6178696D75C8
:103652006D207265636F726465642074656D70209D
:103662002F2068756D69646974792069732000255B
:103672000A0D4D696D696D756D207265636F7264B7
:1036820065642074656D70202F2068756D696469AA
:08369200747920697320000027
:00000001FF
