:100000000C94D2020C94FA020C94FA020C94FA02A8
:100010000C94FA020C94FA020C94FA020C94FA0270
:100020000C94FA020C94FA020C94FA020C94FA0260
:100030000C94FA020C94FA020C94FA020C94FA0250
:100040000C94FC0E0C94FA020C94CA0E0C94A40EA0
:100050000C94FA020C94FA020C94FA020C94FA0230
:100060000C94850D0C94FA02000000002400270077
:100070002A0000000000250028002B00456E746552
:100080007220636F6D6D616E6473206F72202748FC
:10009000454C50270053656E642027592720746F04
:1000A000207365742074686520636C6F636B2C200B
:1000B00073656E6420274E2720746F2073746172FD
:1000C0007420616761696E3A2000456E74657265DF
:1000D000642054696D657374616D703A2000456EDB
:1000E00074657220446179204F66205765656B20E6
:1000F00028312064696769742C20312D372C2061E8
:1001000072626974726172696C792031203D204D90
:100110006F6E2C2037203D2053756E293A20004504
:100120006E746572205365636F6E6420283220649C
:1001300069676974732C2030302D3539293A2000D5
:10014000456E746572204D696E7574652028322085
:100150006469676974732C2030302D3539293A2051
:1001600000456E74657220486F75722028322064D5
:1001700069676974732C20323420686F757220634C
:100180006C6F636B2C2030302D3233293A200045C0
:100190006E74657220596561722028322064696727
:1001A0006974732C2030302D3939293A2000456E7E
:1001B000746572204D6F6E74682028322064696700
:1001C0006974732C2030312D3132293A2000456E6C
:1001D00074657220446179206F66204D6F6E74687B
:1001E000202832206469676974732C2030312D33E4
:1001F00031293A2000436C6F636B2069732073656B
:1002000074207768656E20616C6C20646174612075
:10021000697320656E746572656420616E6420790F
:100220006F752073656E642027592720746F2063D3
:100230006F6E6669726D2E00496E76616C6964201E
:10024000636F6D6D616E642C207479706520484514
:100250004C5000496E76616C696420636F6D6D610E
:100260006E642C20747970652048454C5000496EAE
:1002700076616C696420636F6D6D616E642C2074AF
:100280007970652048454C5000496E76616C696410
:1002900020636F6D6D616E642C20747970652048E9
:1002A000454C5000496E76616C696420636F6D6DDA
:1002B000616E642C20747970652048454C50004C68
:1002C000454420526564004C454420477265656E84
:1002D000004C4544206F666600426C696E6B696E27
:1002E0006720626F7468206F6E206475616C204CAB
:1002F000454400426C696E6B696E672072656400EC
:10030000426C696E6B696E6720677265656E00444A
:100310003133206F6E00443133206F666600426CCB
:10032000696E6B696E672044313300496E76616C8B
:10033000696420636F6D6D616E642C2074797065E3
:100340002048454C50005254432052454144207CA3
:10035000205254432057524954450A0D7570646128
:100360007465202F20726561642074696D650A0AC6
:100370000D56455253494F4E0A0D63757272656EA4
:10038000742076657273696F6E0A0D2D2D2D2D2DDB
:100390002D2D2D2D2D2D2D2D2D2D2D2D2D2D2D2D8D
:1003A0002D2D2D2D004448542043555252454E5476
:1003B000207C204448542053415645442028782925
:1003C000207C204448542045585452454D450A0D40
:1003D00073686F77207468652063757272656E74D8
:1003E0002C20736176656420286C617374207820FA
:1003F0007265636F7264732C206F7074696F6E61C5
:100400006C2C2064656661756C74206973203130D2
:10041000292C2065787472656D652074656D702077
:100420002F2068756D69646974790A000A0D535448
:1004300041545553204C4544530A0D666F72206C4D
:100440006564207374617475730A005345542042C7
:100450004C494E4B20580A0D736574207468652012
:1004600064656C617920746F2058206D732C206D49
:10047000696E696D756D20004C45442047524545B5
:100480004E207C204C454420524544207C204C4545
:1004900044204F4646207C204C454420424C494E47
:1004A0004B207C204C4544204455414C20424C4933
:1004B0004E4B0A0D636F6E74726F6C20746865200A
:1004C0006475616C20636F6C6F72204C45440A0048
:1004D000443133204F4E207C20443133204F464658
:1004E000207C2044313320424C494E4B0A0D636F2F
:1004F0006E74726F6C20746865204C4544206F6E7A
:100500002070696E2031330A000D2D2D2D2D2D2DDB
:100510002D2D2D2D2D2D2D2D2D2D2D2D2D2D2D2D0B
:100520002D2D2D0A0D417661696C61626C65206329
:100530006F6D6D616E64733A0056657273696F6EAC
:100540003A200052652D656E7465722074686520CE
:10055000636F6D6D616E6400000000002300260073
:100560002900040404040404040402020202020236
:100570000303030303030102040810204080010267
:1005800004081020010204081020000000080002E6
:1005900001000003040700000000000000003230EA
:1005A0000000051011241FBECFEFD8E0DEBFCDBF85
:1005B00024E0A8E5B2E001C01D92A230B207E1F745
:1005C00012E0A0E0B1E0E4E6F5E302C005900D9290
:1005D000A835B107D9F712E0C2EDD2E004C02197E7
:1005E000FE010E94AA1AC13DD107C9F70E940D1051
:1005F0000C9435180C940000813208F041C09091A1
:1006000044039111FCCF91E09093440390934303F2
:100610002FEF2093420310924103280F20934003B1
:1006200090933F0390913F03906D90933F0390917F
:100630003E039130F9F410923E0390913F03909362
:10064000BB009091BC0093FDF8CF95EC9093BC005B
:10065000909144039130E1F390914103981710F485
:1006600080914103AEE1B3E0E5E4F3E090E098135C
:1006700003C0089595EEEACF2D9121939F5FF7CFA8
:1006800080E00895613208F048C0909144039111D0
:10069000FCCF92E090934403409343039FEF9093E9
:1006A00042031092410360934003AEEFB2E0EEE1EB
:1006B000F3E090E069132BC010923F0390913F0349
:1006C000880F892B80933F0380913E03813019F579
:1006D00010923E0380913F038093BB008091BC0049
:1006E00083FDF8CF85EC8093BC0080914403823079
:1006F000E1F3809142038F3F91F080914203803279
:1007000081F080914203803371F084E008952D914F
:1007100021939F5FCFCF85EEE6CF81E0089580E003
:10072000089582E0089583E00895482F6091FD02C6
:100730008091FC020E9442031092FB021092FD0283
:100740001092FA020895E091EE02F091EF0201900A
:10075000F081E02D682F8EEE92E0099485EB93E016
:100760009093DE028093DD02089508958DEB93E06F
:100770009093DC028093DB020895089585ED8093C9
:10078000BC008091BC0084FDFCCF1092440308950E
:100790002091B802260F3327331F21323105ECF4A4
:1007A00020914403FC0190E080E0243069F082E075
:1007B0000895A091B8022191AC0148565D4FA40F55
:1007C000B52FB11D2C930196861798F38091B8022E
:1007D000680F6093B80280E0089581E0089508955D
:1007E000E091ED028091EC02E81730F4F0E0EB5B71
:1007F000FC4F808190E008958FEF9FEF08959091D6
:10080000ED028091EC022FEF3FEF981748F4E92FAB
:10081000F0E0EB5BFC4F208130E09F5F9093ED02B6
:10082000C90108958091EC029091ED02891B990B0A
:100830000895CF92DF92EF92FF920F931F93CF9381
:10084000DF937C01CB018A012091FA02222389F0F7
:10085000EB016B01C40ED51ECC15DD0569F0699165
:10086000D701ED91FC910190F081E02DC701099530
:10087000F3CF642F0E94C803C801DF91CF911F916D
:100880000F91FF90EF90DF90CF900895CF93DF937B
:100890001F92CDB7DEB769832091FA022223F9F0C7
:1008A0002091FD02203258F021E030E0FC0133833A
:1008B000228390E080E00F90DF91CF9108958091A6
:1008C000FB02E82FF0E0E250FD4F998190838F5FAB
:1008D0008093FB028093FD0281E090E0ECCF61E029
:1008E000CE0101960E94C803F7CF6F927F928F923C
:1008F0009F92AF92BF92CF92DF92EF92FF920F93AF
:100900001F93CF93DF93CDB7DEB7AC970FB6F894B4
:10091000DEBF0FBECDBFDC011696ED91FC91319686
:1009200009F48BC059013A016B018C01FE0131962B
:100930004F0188E2DF011D928A95E9F7D801ED9118
:10094000FC910484F585E02DB401C80109957C0172
:10095000892B09F05CC01AA619A61CA61BA6D801F3
:10096000ED91FC910684F785E02D9E01255D3F4FBA
:10097000AE01475D5F4FB401C80109957C01892B29
:1009800009F045C0A114B10439F088E2F401D501A1
:1009900001900D928A95E1F7C114D10409F189A55E
:1009A0009AA521E030E097FF02C02FEF3FEF9F773D
:1009B000829FB001839F700D929F700D1124072EAE
:1009C000000C880B990B0E94421820E030E040E2B6
:1009D00051E40E94D419F60160837183828393836A
:1009E00061147104A1F06BA57CA5072E000C880B87
:1009F000990B0E94421820E030E040E251E40E944E
:100A0000D419D3016D937D938D939C931397C70154
:100A1000AC960FB6F894DEBF0FBECDBFDF91CF917D
:100A20001F910F91FF90EF90DF90CF90BF90AF900C
:100A30009F908F907F906F90089587E1E82EF12C22
:100A4000E6CF8F929F92AF92BF92CF92DF92EF92BA
:100A5000FF920F931F93CF93DF93EC018B016A01F9
:100A60007901E881F9810284F385E02D0995B82E9A
:100A7000B801685F7F4FE881F9810284F385E02D3A
:100A8000CE010995982EB801605F7F4FE881F9810A
:100A90000284F385E02DCE010995A82EB801685E89
:100AA0007F4FE881F9810284F385E02DCE0109951D
:100AB000882EB801605E7F4FE881F9810284F3855A
:100AC000E02DCE0109959B2D990D9A0D980D891356
:100AD00019C09A2D882DF601918380839B2D892D35
:100AE000F7019183808390E080E0DF91CF911F91A7
:100AF0000F91FF90EF90DF90CF90BF90AF909F90BD
:100B00008F90089585E190E0F0CF47E050E080E0DD
:100B1000FB012191BF01042E01C0220F0A94EAF7C4
:100B2000820F41505109A0F70895DC0117967C937C
:100B30006E931697FB01EA58FA4FE4911896EC93DE
:100B400018976E597A4FFB01649119966C9308952A
:100B5000CF92DF92EF92FF920F931F93CF93DF9389
:100B6000EC017A0169010E949505E881F981048010
:100B7000F581E02D9801A601B701CE01DF91CF915B
:100B80001F910F91FF90EF90DF90CF900994CF923B
:100B9000DF92EF92FF920F931F93CF93DF93EC01BD
:100BA0007A0169010E949505E881F9810190F0813F
:100BB000E02D9801A601B701CE01DF91CF911F91E1
:100BC0000F91FF90EF90DF90CF900994CF92DF923A
:100BD000EF92FF920F931F93CF93DF93CDB7DEB7C2
:100BE00028970FB6F894DEBF0FBECDBFDC01169676
:100BF000ED91FC91319609F440C08A017B01198284
:100C00001A821B821C821D821E821F821886DC01B2
:100C1000ED91FC910480F581E02DAE014B5F5F4FBB
:100C2000BE016F5F7F4F09956C01892BB1F4E11410
:100C3000F10441F069817A818B819C810E94461A7E
:100C4000F70160830115110541F06D817E818F816F
:100C500098850E94461AD8016C93C60128960FB653
:100C6000F894DEBF0FBECDBFDF91CF911F910F91E2
:100C7000FF90EF90DF90CF90089587E1C82ED12CA0
:100C8000ECCFCF93C62F91E09093FA0298E6909321
:100C9000FC021092FB021092FD02682F8EEE92E091
:100CA0000E9446046C2F8EEE92E00E94460481E082
:100CB000CF910C94950391E09093FA0298E690936B
:100CC000FC021092FB021092FD02682F8EEE92E061
:100CD0000E94460481E00C9495036AE00E947C1A0D
:100CE000292F30E1839FC0011124822B0895982F72
:100CF00092959F708F702AE0929F800D1124089525
:100D0000FC01538D448D252F30E0842F90E0821B11
:100D1000930B541710F0CF96089501970895FC0196
:100D2000918D828D981761F0A28DAE0FBF2FB11DEE
:100D30005D968C91928D9F5F9F73928F90E0089546
:100D40008FEF9FEF0895FC01918D828D981731F000
:100D5000828DE80FF11D858D90E008958FEF9FEF54
:100D60000895FC01918D228D892F90E0805C9F4F2A
:100D7000821B91098F7399270895FC01A48DA80FF8
:100D8000B92FB11DA35ABF4F2C91848D90E00196CD
:100D90008F739927848FA689B7892C93A089B189ED
:100DA0008C91837080648C93938D848D981306C08E
:100DB0000288F389E02D80818F7D80830895EF92F2
:100DC000FF920F931F93CF93DF93EC0181E0888F05
:100DD0009B8D8C8D98131AC0E889F989808185FFD5
:100DE00015C09FB7F894EE89FF896083E889F98977
:100DF00080818370806480839FBF81E090E0DF9179
:100E0000CF911F910F91FF90EF900895F62E0B8DCB
:100E100010E00F5F1F4F0F731127E02E8C8D8E1186
:100E20000CC00FB607FCFACFE889F989808185FFED
:100E3000F5CFCE010E94BD06F1CFEB8DEC0FFD2F5B
:100E4000F11DE35AFF4FF0829FB7F8940B8FEA89A8
:100E5000FB8980818062CFCFCF93DF93EC01888DB7
:100E60008823B9F0AA89BB89E889F9898C9185FD25
:100E700003C0808186FD0DC00FB607FCF7CF8C91B3
:100E800085FFF2CF808185FFEDCFCE010E94BD06A8
:100E9000E9CFDF91CF91089585E693E00E94B106F6
:100EA00021E0892B09F420E0822F089580E090E072
:100EB000892B29F00E944C0781110C9400000895A1
:100EC000DC01ED91FC910190F081E02D0994EF920D
:100ED000FF920F931F93CF93DF938C017B01D0E0A0
:100EE000C0E0F701EC0FFD1F6491662361F0D801AB
:100EF000ED91FC910190F081E02DC8010995892BBD
:100F000011F02196EECFCE01DF91CF911F910F917D
:100F1000FF90EF900895AF92BF92CF92DF92EF9241
:100F2000FF920F931F93CF93DF936C017B018B0193
:100F3000040F151FEB015E01AE18BF08C017D107E3
:100F400059F06991D601ED91FC910190F081E02D6D
:100F5000C6010995892B79F7C501DF91CF911F91C2
:100F60000F91FF90EF90DF90CF90BF90AF900895DA
:100F700090E080E00895833081F028F4813099F08A
:100F80008230A9F008958730A9F08830C9F0843004
:100F9000B1F4809180008F7D03C0809180008F77B5
:100FA00080938000089584B58F7784BD089584B5BB
:100FB0008F7DFBCF8091B0008F778093B000089534
:100FC0008091B0008F7DF9CFCF93DF93E7E9F5E013
:100FD0008491E3E8F5E0D491EFE6F5E0C491CC2309
:100FE000A1F081110E94BB07EC2FF0E0EE0FFF1F74
:100FF000E85AFA4FA591B491EC91ED2381E090E08D
:1010000009F480E0DF91CF91089580E090E0FACF7D
:101010001F93CF93DF93282F30E0F901E657FA4F63
:101020008491F901EA58FA4FD491F901EE59FA4F37
:10103000C491CC23A9F0162F81110E94BB07EC2F7D
:10104000F0E0EE0FFF1FEE58FF4FA591B4918FB760
:10105000F894EC91111108C0D095DE23DC938FBF7A
:10106000DF91CF911F910895DE2BF8CF10924403AA
:1010700081E08093430310923E0361E082E10E948D
:10108000080861E083E10E940808E9EBF0E0808154
:101090008E7F808380818D7F808388E48093B800F9
:1010A00085E48093BC000895CF93DF9390E0FC012A
:1010B000EA58FA4F24918E599A4FFC018491882363
:1010C000D1F090E0880F991FFC01E859FF4FA591DE
:1010D000B491FC01EE58FF4FC591D49161110EC03F
:1010E0009FB7F8948C91E22FE0958E238C93288102
:1010F000E223E8839FBFDF91CF9108958FB7F894E3
:10110000EC91E22BEC938FBFF6CF789484B582609C
:1011100084BD84B5816084BD85B5826085BD85B59B
:10112000816085BDEEE6F0E0808181608083E1E84A
:10113000F0E0108280818260808380818160808382
:10114000E0E8F0E0808181608083E1EBF0E0808185
:1011500084608083E0EBF0E0808181608083EAE757
:10116000F0E08081846080838081826080838081E0
:10117000816080838081806880831092C10008959F
:101180008130910539F0880F991F880F991F0597B5
:101190000197F1F708953FB7F89480915D0290911F
:1011A0005E02A0915F02B091600226B5A89B05C0C7
:1011B0002F3F19F00196A11DB11D3FBFBA2FA92FD6
:1011C000982F8827BC01CD01620F711D811D911DD3
:1011D00042E0660F771F881F991F4A95D1F708953F
:1011E0007F928F929F92AF92BF92CF92DF92EF92B7
:1011F000FF920F931F93CF93DF93EC01162F7A0189
:1012000069010E94CB084B015C01712C111178849B
:1012100010E000E060E070E0CB012A813B814C816E
:101220005D812617370748075907F4F001151105A6
:1012300061F5C7011E141F0464F10E94CB086819F0
:1012400079098A099B09E985F0E0EE0FFF1FE85A4A
:10125000FA4FA591B4912C910F5F1F4F388523232E
:10126000271105C097FFD9CF6FEF7FEFCB01DF913B
:10127000CF911F910F91FF90EF90DF90CF90BF9093
:10128000AF909F908F907F9008951C141D04ACF632
:10129000C6010E94C008D1CF2FB7F89460915902BF
:1012A00070915A0280915B0290915C022FBF089569
:1012B0008F929F92AF92BF92EF92FF920F931F93E4
:1012C000CF93DF937B018C01D0E0C0E00E944C09FA
:1012D00060936D0370936E0380936F03909370031C
:1012E000E0916503F09166030284F385E02D85E6C5
:1012F00093E0099597FF27C00E944C0980906D03E9
:1013000090906E03A0906F03B090700368197909F4
:101310008A099B098090690390906A03A0906B03EF
:10132000B0906C03681579058A059B05C8F2CE015B
:10133000DF91CF911F910F91FF90EF90BF90AF90F1
:101340009F908F900895F80181938F012196EC165C
:10135000FD0609F0BBCFEBCF87E0809304018093BB
:10136000890261E084E00E94080860E085E00C9456
:10137000080881110AC01092890260E084E00E948E
:10138000080860E085E00C940808873011F40C949C
:10139000AC0988E0809304018093890260E084E0D6
:1013A0000E94080861E0EECFBF92CF92DF92EF92E9
:1013B000FF920F931F93CF93DF9300D000D000D004
:1013C0001F92CDB7DEB780E00E945B0687E00E94E7
:1013D000FC021092ED028093EC028730E1F58EEE74
:1013E00092E00E94FF030E947706B82E8EEE92E0F4
:1013F0000E94FF030E947706C82E8EEE92E00E94A4
:10140000FF03182F86FF3EC08F710E9477060CE005
:1014100015FD00E0080F8EEE92E00E94FF030E948F
:101420007706D82E8EEE92E00E94FF030E94770688
:10143000E82E8EEE92E00E94FF0310E087FD14E696
:101440008F770E947706F82E8EEE92E00E94FF03BF
:101450000E947706180F2B2D3C2D402F5D2DB701D4
:10146000812F90E027960FB6F894DEBF0FBECDBF58
:10147000DF91CF911F910F91FF90EF90DF90CF9070
:10148000BF9008958F730E947706082FC4CFCF9323
:10149000DF93EB010E945B0681E00E94FC02109248
:1014A000ED028093EC028EEE92E00E94FF038883AF
:1014B00081E0DF91CF910895EF92FF921F93CF9338
:1014C000DF931F92CDB7DEB77C01162FBE016F5F91
:1014D0007F4F8EE00E94470A811108C080E00F9084
:1014E000DF91CF911F91FF90EF90089581E080935D
:1014F000FA0288E68093FC021092FB021092FD0231
:10150000113089F587E090E00E94A303F701808104
:101510000E946D0690E00E94A30389818560898303
:10152000F70181810E946D0690E00E94A303F701FC
:1015300082810E946D0690E00E94A303F7018481DE
:101540000E946D0690E00E94A30381E00E94950333
:101550008111C4CF69818EE00E9441068111BECF06
:10156000812F8770BCCF8BE090E00E94A30389811C
:101570008660D5CF0E945119EF92FF920F931F936F
:10158000CF93DF93EC018B0188E2FB0111928A95E6
:10159000E9F761E08E810E94540860E08E810E942C
:1015A000080888EE93E00E94C00861E08E810E94E6
:1015B000080860E08E810E94540888E290E00E9452
:1015C000C008E881F9810084F185E02D26E030E053
:1015D0004AE050E060E0CE0109956E317105810569
:1015E00091056CF4982F872F762F66276061CB01C9
:1015F000DF91CF911F910F91FF90EF900895E881B7
:10160000F9810084F185E02D26E030E04AE050E0E9
:1016100061E0CE0109957801F8E2EF0EF11C62332A
:1016200071058105910534F4982F872F762F662751
:101630006161DDCFE881F9810084F185E02D26E04C
:1016400030E04AE050E060E0CE0109956831710574
:101650008105910534F4982F872F762F66276261D4
:10166000C6CFE881F9810084F185E02D26E030E0E5
:101670004AE050E061E0CE0109956B3071058105CB
:10168000910534F4982F872F762F66276361AFCFAB
:1016900021E069327105810591050CF420E0F80123
:1016A00021938F01EE16FF0629F6E881F981008467
:1016B000F185E02D26E030E04AE050E060E0CE0128
:1016C0000995683171058105910534F4982F872FAC
:1016D000762F662764618BCF70E060E088CFFF9241
:1016E0000F931F93CF93DF93EC018B01FB01F080ED
:1016F0000E943B19F81621F06F2DCE010E9443196C
:10170000F801F1802196CE010E943B19F81621F0D4
:101710006F2DCE010E944319C801DF91CF911F9117
:101720000F91FF900895FB0101900020E9F7319798
:10173000AF01461B570BDC01ED91FC910280F38158
:10174000E02D09948F929F92AF92BF92EF92FF92F9
:101750000F931F93CF93DF93CDB7DEB7A1970FB64B
:10176000F894DEBF0FBECDBF7C01FA01CB0119A2F8
:10177000223008F42AE08E010F5D1F4F822E912C3B
:10178000B12CA12CBF01A50194010E94881AF90176
:10179000CA016A300CF5605DD8016E938D01232B70
:1017A000242B252B79F790E080E0109721F0BD01E4
:1017B000C7010E94930BA1960FB6F894DEBF0FBE2F
:1017C000CDBFDF91CF911F910F91FF90EF90BF9010
:1017D000AF909F908F900895695CDECF462F50E0C8
:1017E00070E060E02AE00C94A20BCF93C82F8A30FF
:1017F00028F460E385E693E00E9460076C2F85E69D
:1018000093E0CF910C94EE0BCF93DF93EC018E819C
:101810008536D0F062E385E693E00E9460078E8112
:101820000E94F50B6DE285E693E00E9460078D81D2
:101830000E94F50B6DE285E693E00E9460078C81C3
:10184000DF91CF910C94F50B6EE975E085E693E09E
:101850000E946707E4CFCF93DF93EC018A810E9457
:10186000F50B6AE385E693E00E94600789810E9498
:10187000F50B6AE385E693E00E9460078881DF91BB
:10188000CF910C94F50BCF92DF92EF92FF92CF9312
:10189000DF936C01990FEE08FF08F7FE1BC06DE2A5
:1018A00085E693E00E946007EC0144275527BA01C2
:1018B0004C195D096E097F092AE085E693E00E94D4
:1018C000A20B8C0F9D1FDF91CF91FF90EF90DF90C7
:1018D000CF9008952AE0B701A60185E693E0DF9155
:1018E000CF91FF90EF90DF90CF900C94A20BBC01B2
:1018F00085E693E00C94930B63E571E00C94930BF5
:10190000CF93DF93BC0185E693E00E94930BEC013B
:1019100085E693E00E947C0C8C0F9D1FDF91CF9198
:1019200008956F927F928F929F92AF92BF92CF92C3
:10193000DF92EF92FF920F931F93CF93DF93CDB778
:10194000DEB729970FB6F894DEBF0FBECDBF20914A
:1019500071023091720221153105C1F486E591E0E2
:1019600029960FB6F894DEBF0FBECDBFDF91CF91A1
:101970001F910F91FF90EF90DF90CF90BF90AF90AD
:101980009F908F907F906F900C94800C60906F026E
:10199000709070028C01281739070CF48901D12C42
:1019A000C12CC016D1060CF089C05301730189E027
:1019B000E81AF1083701FE0131964F01C7010E9474
:1019C0003B19F40181934F01FFEFEF1AFF0AAE14A8
:1019D000BF04A1F78FEFC81AD80AC6010E94430CB2
:1019E0008EE591E00E94770C6F8185E693E00E947E
:1019F000EE0B80E691E00E94770C6E8185E693E025
:101A00000E94EE0B80E691E00E94770C6D8185E6E6
:101A100093E00E94EE0B8BE691E00E94770C6B81C5
:101A200085E693E00E94EE0B82E691E00E94770C3F
:101A30006A8185E693E00E94EE0B82E691E00E94C7
:101A4000770C698185E693E00E94EE0B8BE691E0CE
:101A50000E94770CF8848F2D0F2C000C990B0E949C
:101A6000430C84E691E00E94770C6F2DFF0C770BFE
:101A7000880B990B0E94421826E636E646EE5FE395
:101A80000E947D1820E030E040E052E40E94681996
:101A90000E94461A862F660F990B0E94430C88E617
:101AA00091E00E94770C8985082E000C990B0E940A
:101AB000430C8DE691E00E94800C73CF29960FB6FF
:101AC000F894DEBF0FBECDBFDF91CF911F910F9174
:101AD000FF90EF90DF90CF90BF90AF909F908F904E
:101AE0007F906F9008950F931F93CF93DF93EC0136
:101AF0000E9467078C01CE010E947C0C800F911F11
:101B0000DF91CF911F910F9108951F920F920FB601
:101B10000F9211242F933F934F935F936F937F9373
:101B20008F939F93AF93BF93EF93FF938091B900EF
:101B3000887F803609F44AC0F0F5883209F4A7C0DE
:101B400018F5803109F49BC0B8F4882309F4F9C072
:101B5000883009F494C0FF91EF91BF91AF919F91AC
:101B60008F917F916F915F914F913F912F910F9046
:101B70000FBE0F901F901895883109F488C08032ED
:101B800051F78093420314C0803409F49DC040F49F
:101B90008033B9F38833F9F68093420385ECB0C003
:101BA000803509F485C0883509F496C0883499F6E3
:101BB0000E94BE03D0CF883909F48CC038F588372D
:101BC00029F050F4883611F0803729F683E08093AD
:101BD00044031092DA0257C0883809F47BC0803978
:101BE00019F0803809F0B7CF8091DA02803208F01E
:101BF00071C0E091DA0281E08E0F8093DA02809169
:101C0000BB00F0E0E654FD4F80833DC0803B39F0DF
:101C1000E0F4803A09F479C0883A09F09CCF84E076
:101C2000809344031092B9021092B802E091DB0253
:101C3000F091DC0209958091B80281110FC081E01A
:101C40008093B8021092980209C0803C09F4A6CF94
:101C5000883C09F4A3CF883B09F07DCFE091B9021D
:101C600081E08E0F8093B902F0E0E856FD4F80814D
:101C70008093BB009091B9028091B80229C08091F5
:101C80003F038093BB0085EC8093BC0064CF9091B0
:101C9000410380914003981758F5E091410381E09A
:101CA0008E0F80934103F0E0E25EFC4F8081E9CF2C
:101CB000E091410381E08E0F809341038091BB004E
:101CC000F0E0E25EFC4F80839091410380914003FD
:101CD0009817C8F285E8D8CFE091410381E08E0FD4
:101CE000809341038091BB00F0E0E25EFC4F808373
:101CF0008091430381115CCF81E080933E0384EAAD
:101D00008093BC001092440326CF85EC8093BC00E6
:101D1000109244038091DA02803230F4E091DA02CA
:101D2000F0E0E654FD4F10826091DA0270E0E0913D
:101D3000DD02F091DE028AEB92E009951092DA0260
:101D40000ACF1092420334CF1F920F920FB60F9218
:101D500011242F933F934F935F936F937F938F93B0
:101D60009F93AF93BF93EF93FF9385E693E00E9419
:101D7000BD06FF91EF91BF91AF919F918F917F91A0
:101D80006F915F914F913F912F910F900FBE0F90E8
:101D90001F9018951F920F920FB60F9211242F9338
:101DA0008F939F93EF93FF93E0917503F0917603E8
:101DB0008081E0917B03F0917C0382FD1BC09081C8
:101DC00080917E038F5F8F7320917F03821741F094
:101DD000E0917E03F0E0EB59FC4F958F80937E03FA
:101DE000FF91EF919F918F912F910F900FBE0F90C8
:101DF0001F9018958081F4CF1F920F920FB60F920B
:101E000011242F933F938F939F93AF93BF93809110
:101E1000590290915A02A0915B02B0915C023091FC
:101E2000580223E0230F2D3758F50196A11DB11D4F
:101E3000209358028093590290935A02A0935B0218
:101E4000B0935C0280915D0290915E02A0915F026E
:101E5000B09160020196A11DB11D80935D02909327
:101E60005E02A0935F02B0936002BF91AF919F9119
:101E70008F913F912F910F900FBE0F901F9018954B
:101E800026E8230F0296A11DB11DD2CFEEEEF2E09F
:101E90001382128288EE93E0A0E0B0E08483958301
:101EA000A683B78385E491E0918380830895E5E676
:101EB000F3E01382128288EE93E0A0E0B0E0848326
:101EC0009583A683B78383E391E09183808385EC38
:101ED00090E09587848784EC90E09787868780ECF4
:101EE00090E0918B808B81EC90E0938B828B82ECE5
:101EF00090E0958B848B86EC90E0978B868B118E8F
:101F0000128E138E148E0895CF93DF93C1E6D2E024
:101F10008BE091E09983888380E49BE4ACE4B0E0BB
:101F20008A839B83AC83BD838FEF9FEF9F838E83D8
:101F30008887898762E070E0CE010E9495058FE175
:101F400091E099838883DF91CF910895CF93DF93B8
:101F500000D000D0CDB7DEB710926C0210926B02A9
:101F60008FEF93E090936E0280936D021092700257
:101F700010926F021092720210927102BE016D5F98
:101F80007F4F90E080E00E94F10FBE016F5F7F4FB6
:101F900082E090E00E94F10F2B813C81309370022F
:101FA00020936F0289819A819093720280937102CB
:101FB0001092750280916B0290916C02069690933C
:101FC0007402809373022817390724F490937002E7
:101FD00080936F020F900F900F900F90DF91CF9131
:101FE00008950F931F93CF93DF938C01EB010E9411
:101FF0003B198883C80101960E943B198983CE0151
:10200000DF91CF911F910F9108950E94460F0E947A
:10201000570F0E94840F0C94A60FCF93DF93CDB778
:10202000DEB764970FB6F894DEBF0FBECDBF0E9437
:102030008508E0917503F091760312E01083E0913A
:102040007103F09172031082E0917303F0917403B5
:102050008FEC808310927D03E0917903F0917A03F5
:1020600086E08083E0917703F0917803808180613E
:102070008083E0917703F09178038081886080838A
:10208000E0917703F0917803808180688083E0910C
:102090007703F091780380818F7D80831092ED0229
:1020A0001092EC021092FB021092FD020E94360880
:1020B0000E94B6030E94AE0360E08EE00E944106DB
:1020C0000E94D40929833A834B835C838F838FE1F9
:1020D0008D831E8362E0CE0101960E945C0A61E05E
:1020E000CE0101960E945C0A1C8A1A86BE01665FB8
:1020F0007F4F8FE00E94470A6A85862F837021F008
:102100006C7F8FE00E9441068C89882369F0BE01B4
:102110006C5E7F4F8EE00E94470A882329F06C890D
:102120006F778EE00E9441061092DF0261E08DE041
:102130000E94540861E084E00E94540861E085E058
:102140000E9454086CE770E085E693E00E94730DEE
:102150008E010F5E1F4F3E0122E1620E711C33E0C3
:10216000332E40E1442E512C0E944C09709397026B
:10217000609396022091810230918202621B730B60
:1021800068387341E0F130E020E047E852E068E869
:1021900072E081E692E00E94E6057C01892B59F00D
:1021A0008FE691E00E94770CC7010E94430C85E600
:1021B00093E00E947C0C8091880290910101891724
:1021C00014F48093010190910301981714F4809303
:1021D00003018091870290910001891714F4809384
:1021E000000190910201981714F4809302018091EC
:1021F000960290919702909382028093810220919F
:1022000096023091970280917F0290918002A901FD
:10221000481B590B4838534120F42817390708F058
:102220007BC00E94D40920937602309377024093BA
:1022300078025093790260937A0270937B028093C4
:102240007C028091880280937D0280918702809336
:102250007E0289E0E6E7F2E0DE01119601900D9240
:102260008A95E1F780906F0290907002CE010196FE
:102270006C01F12CE12CF60121906F015401AE0CA0
:10228000BF1CC5010E943B19281621F0622DC50113
:102290000E944319FFEFEF1AFF0A29E0E216F1044A
:1022A00051F780917502811109C08091710290915E
:1022B00072020196909372028093710280916F0274
:1022C0009091700209969093700280936F02209112
:1022D0006D0230916E02295031092817390740F4F8
:1022E00080917302909174029093700280936F02B8
:1022F0006FE672E090E080E00E946F0B61E772E0B1
:1023000082E090E00E946F0B80919602909197027C
:102310009093800280937F0280919502882319F127
:10232000E0909602F090970280918302909184024F
:102330009701281B390B8091050190910601281700
:10234000390788F00E94E40761E0892B29F00E9498
:10235000E407019721F460E08DE00E940808F09204
:102360008402E092830280919402811104C08091E2
:102370009302882301F1E0909602F09097028091F9
:102380008502909186029701281B390B80910501E7
:10239000909106012817390770F0809104019091FF
:1023A0009302992379F1883039F50E94AC09F092B3
:1023B0008602E092850285E693E00E94B106892BB1
:1023C00071F085E693E00E948F060E945619809373
:1023D0009202803201F59091910291113BC080E010
:1023E00090E0892B09F4C0CE0E944C07882309F4A1
:1023F000B6CE0E940000B3CE8730C9F688E00E94B6
:10240000B909D5CF90918902891302C080E0F7CF36
:102410009111CDCFF4CF8F37E9F485E693E00E9498
:102420007C0C63E475E085E693E00E94730D1092E6
:10243000DF021092910210928C0210928B02109285
:102440008E0210928D021092900210928F021092C2
:102450008A02C5CF682F85E693E00E946007C0908E
:102460009202E091910230E2C31619F06DE0C612BB
:10247000B7C5F0E0E152FD4F1082E0908A0282E0A1
:102480008E1538F167E871E08FED92E00E945E19D9
:10249000DD24D394DE0CF12CEE0CFF1CF701E55784
:1024A000FD4F7F01892B39F4D0928A028DE090E0B4
:1024B000918380830EC06BE871E08FED92E00E9403
:1024C0005E19892B09F02EC0D0928A02F701118281
:1024D00010821092DF02109291023DE0C3127FCF72
:1024E00085E693E00E947C0CE0918B02F0918C02D7
:1024F000E231F10508F071C5E058FD4E0C94AA1ABE
:102500006414EA13FF138E13B713ED17ED17ED17CD
:10251000ED17ED17ED17ED17ED174614ED17ED1745
:10252000A1142D176FE871E08FED92E00E945E1903
:10253000892B31F4D0928A0289E090E0F701B8CF7C
:1025400064E971E08FED92E00E945E19892B29F415
:10255000D0928A0281E090E0F1CF68E971E08FEDDE
:1025600092E00E945E19892B29F4D0928A0282E0BF
:1025700090E0E4CF6FE971E08FED92E00E945E1988
:10258000892B29F4D0928A0283E090E0D7CF67EAC2
:1025900071E08FED92E00E945E19892B29F4D092B0
:1025A0008A0284E090E0CACF64EA71E08FED92E0A5
:1025B0000E945E19892B29F4D0928A028AE090E069
:1025C000BDCF6CEA71E08FED92E00E945E19892B1D
:1025D00029F4D0928A028BE090E0B0CF60EB71E0FA
:1025E0008FED92E00E945E19892B29F4D0928A0225
:1025F0008CE090E0A3CF66EB71E08FED92E00E945B
:102600005E19892B29F4D0928A0286E090E096CF59
:102610006BEB71E08FED92E00E945E19892B29F43B
:10262000D0928A0288E090E089CF6FEB71E08FED65
:1026300092E00E945E19892B29F4D0928A0287E0E9
:1026400090E07CCF65EC71E08FED92E00E945E1926
:10265000892B29F4D0928A028EE090E06FCF6BEC48
:1026600071E08FED92E00E945E19892B29F4D092DF
:102670008A028FE090E062CF60ED71E08FED92E032
:102680000E945E19892B31F4D0928A02F70151829F
:1026900040821FCF64ED71E08FED92E00E945E19E1
:1026A000892B41F4D0928A0221E130E0F701318395
:1026B00020830FCF68ED71E08FED92E00E945E19EC
:1026C000892B29F4D0928A0222E130E0EFCF60EE2C
:1026D00071E08FED92E00E945E19892B29F4D0926F
:1026E0008A0223E130E0E2CF66EE71E08FED92E006
:1026F0000E945E19892B29F4D0928A0224E130E0ED
:10270000D5CF0E940118D0928A028038910519F025
:102710000E94011813CF25E030E0C8CF69E375E0CF
:1027200085E693E00E9467072AE042E050E060E01F
:1027300070E085E693E00E94A20B6EE285E693E0EE
:102740000E9460072AE040E050E0BA0185E693E08D
:102750000E94A20B2AE040E050E0BA0185E693E037
:102760000E94A20B85E693E00E947C0C64CE69E097
:1027700075E085E693E00E94730D60ED74E085E6F8
:1027800093E00E94730D68E774E085E693E00E9491
:10279000730D6BE474E085E693E00E94670782E3C3
:1027A00090E00E94430C85E693E00E947C0C6CE272
:1027B00074E085E693E00E94730D65EA73E085E6B8
:1027C00093E00E94730D66E473E085E693E00E9457
:1027D000730D31CE80918D0290918E020C9761F431
:1027E00080918F02909190028233910528F090930E
:1027F0000601809305011FCE6BE273E0E6CF809166
:102800008D0290918E02069709F015CE8091950267
:102810006EE173E0811108C00E94E40766E173E095
:10282000892B11F06FE073E085E693E00E94730D51
:102830008091930290919402911102C08823B9F083
:1028400090910401973041F460E073E0882309F42B
:10285000BCCF69ED72E0B9CF983029F463EF72E034
:102860008111F7CFB2CF882309F4E5CDF2CF809163
:10287000890261ED72E0882309F4A7CF67EC72E06A
:10288000873009F4A2CF6FEB72E09FCF80918D0269
:1028900090918E028B30910579F08C30910581F00A
:1028A00064EA72E00A9709F090CF1092950261E015
:1028B0008DE00E940808BFCD1092950260E0F8CF2D
:1028C00081E080939502B7CD80918D0290918E0228
:1028D0008930910519F140F487309105C1F00897CE
:1028E00071F069E872E071CF8B30910521F10C979E
:1028F000C1F781E080939402109293029CCD1092D4
:1029000093021092940288E00E94B90994CD10922B
:102910009302109294020E94AC098DCD80918F0297
:10292000909190020C9709F086CD1092940281E06C
:102930008093930280CD109293021092940280E0D3
:10294000E3CF80918D0290918E028E30910531F00F
:102950000F9709F462C26EE672E037CF198A1A8ABD
:102960001B8A65EF71E085E693E00E94730DF80124
:10297000232D11922A95E9F785E693E00E947C0CBD
:102980006EEC71E085E693E00E946707E0916503D5
:10299000F09166030084F185E02D85E693E00995CA
:1029A000892BA1F362E070E0C8010E945809E09110
:1029B0006503F09166030084F185E02D85E693E0E0
:1029C0000995892B59F0E0916503F0916603028423
:1029D000F385E02D85E693E00995E9CF8989803379
:1029E000D9F5C3010E9417188E87F801232D119283
:1029F0002A95E9F785E693E00E947C0C6EEA71E087
:102A000085E693E00E946707E0916503F091660315
:102A10000084F185E02D85E693E00995892BA1F3EB
:102A200062E070E0C8010E945809E0916503F091EE
:102A300066030084F185E02D85E693E00995892BF6
:102A400069F0E0916503F09166030284F385E02D5F
:102A500085E693E00995E9CFC801C4CF8989803321
:102A6000D9F5C3010E9417188F87F801232D119201
:102A70002A95E9F785E693E00E947C0C6FE871E007
:102A800085E693E00E946707E0916503F091660395
:102A90000084F185E02D85E693E00995892BA1F36B
:102AA00062E070E0C8010E945809E0916503F0916E
:102AB00066030084F185E02D85E693E00995892B76
:102AC00069F0E0916503F09166030284F385E02DDF
:102AD00085E693E00995E9CFC801C4CF89898033A1
:102AE000D9F5C3010E941718888BF801232D119284
:102AF0002A95E9F785E693E00E947C0C61E671E097
:102B000085E693E00E946707E0916503F091660314
:102B10000084F185E02D85E693E00995892BA1F3EA
:102B200062E070E0C8010E945809E0916503F091ED
:102B300066030084F185E02D85E693E00995892BF5
:102B400069F0E0916503F09166030284F385E02D5E
:102B500085E693E00995E9CFC801C4CF8989803320
:102B6000D9F5C3010E9417188C87F801232D119203
:102B70002A95E9F785E693E00E947C0C60E471E019
:102B800085E693E00E946707E0916503F091660394
:102B90000084F185E02D85E693E00995892BA1F36A
:102BA00062E070E0C8010E945809E0916503F0916D
:102BB00066030084F185E02D85E693E00995892B75
:102BC00069F0E0916503F09166030284F385E02DDE
:102BD00085E693E00995E9CFC801C4CF89898033A0
:102BE000D9F5C3010E9417188B87F801232D119284
:102BF0002A95E9F785E693E00E947C0C6FE171E08D
:102C000085E693E00E946707E0916503F091660313
:102C10000084F185E02D85E693E00995892BA1F3E9
:102C200062E070E0C8010E945809E0916503F091EC
:102C300066030084F185E02D85E693E00995892BF4
:102C400069F0E0916503F09166030284F385E02D5D
:102C500085E693E00995E9CFC801C4CF898980331F
:102C6000D9F5C3010E9417188A87F801232D119204
:102C70002A95E9F785E693E00E947C0C6EED70E002
:102C800085E693E00E94730DE0916503F091660381
:102C90000084F185E02D85E693E00995892BA1F369
:102CA00061E070E0C8010E945809E0916503F0916D
:102CB00066030084F185E02D85E693E00995892B74
:102CC00069F0E0916503F09166030284F385E02DDD
:102CD00085E693E00995E9CFC801C4CFC8010E94F9
:102CE00017188D8785E693E00E947C0C6AEC70E0F3
:102CF00085E693E00E946707CE010A960E94040CC5
:102D000064E585E693E00E946007CE010A960E9482
:102D10002B0C85E693E00E947C0C65E970E085E66B
:102D200093E00E946707E0916503F09166030084D9
:102D3000F185E02D85E693E00995892BA1F361E00B
:102D400070E0C8010E945809E0916503F0916603A4
:102D50000084F185E02D85E693E00995892B59F0F3
:102D6000E0916503F09166030284F385E02D85E62A
:102D700093E00995E9CF89898F7D893509F0F7CDF1
:102D800081E08093FA0288E68093FC021092FB02B5
:102D90001092FD0290E080E00E94A3038A850E94C9
:102DA0006D06682F8EEE92E00E9446048B850E948D
:102DB0006D06682F8EEE92E00E9446048C850E947C
:102DC0006D06682F8EEE92E00E9446048D8581117B
:102DD00001C081E00E946D06682F8EEE92E00E9495
:102DE00046048E850E946D06682F8EEE92E00E944A
:102DF00046048F850E946D06682F8EEE92E00E9439
:102E0000460488890E946D06682F8EEE92E00E942B
:102E1000460481E00E9495030ECB0E94D4092A87C4
:102E20003B874C875D876E877F87888BCE010A96AC
:102E30000E94040C60E285E693E00E9460070E9415
:102E4000D4092A873B874C875D876E877F87888B6D
:102E5000CE010A960E942B0C85CC80918D02909118
:102E60008E028331910509F444C08431910509F43F
:102E70004CC063E572E0429709F0A7CC8EEE91E07A
:102E80000E94770C80918802082E000C990B0E94FA
:102E9000430C84E691E00E94770C60918802062E34
:102EA000000C770B880B990B0E94421826E636E639
:102EB00046EE5FE30E947D1820E030E040E052E4FF
:102EC0000E9468190E94461A862F660F990B0E946D
:102ED000430C88E691E00E94770C80918702082ECF
:102EE000000C990B0E94430C8DE691E00E94800C2F
:102EF000A2CA80918F0290919002009719F00E94CF
:102F0000910C99CA8AE090E0FACF8AE092E00E94A0
:102F1000770C80910301082E000C990B0E94430C42
:102F200084E691E00E94770C60910301062E000C6C
:102F3000770B880B990B0E94421826E636E646EE80
:102F40005FE30E947D1820E030E040E052E40E9400
:102F500068190E94461A862F660F990B0E94430C2F
:102F600088E691E00E94770C80910201082E000C07
:102F7000990B0E94430C8FE292E00E94770C8091A3
:102F80000101082E000C990B0E94430C84E691E08D
:102F90000E94770C60910101062E000C770B880BC4
:102FA000990B0E94421826E636E646EE5FE30E9441
:102FB0007D1820E030E040E052E40E9468190E9451
:102FC000461A862F660F990B0E94430C88E691E003
:102FD0000E94770C8091000182CF68E372E0F5CB0C
:102FE000EC3008F0FCC981E08E0F80939102F0E094
:102FF000E152FD4FC082E82FF0E0E152FD4F108218
:10300000EEC9EFEDF2E08191882351F0082E000C1B
:10301000990BC0970A9740F482E0EB3EF80799F7C6
:103020008FED92E00C94171880E890E00895FC0171
:1030300088279927E89421912032E9F3293010F06C
:103040002E30C8F32B3241F02D3239F4689404C08D
:103050000E943818820F911D219120532A30C0F30D
:103060001EF4909581959F4F0895F8940C94B01A92
:103070007AE0979F902D879F802D910D11240895C0
:10308000E89409C097FB3EF4909580957095619502
:103090007F4F8F4F9F4F9923A9F0F92F96E9BB27B8
:1030A0009395F695879577956795B795F111F8CF34
:1030B000FAF4BB0F11F460FF1BC06F5F7F4F8F4F9F
:1030C0009F4F16C0882311F096E911C0772321F095
:1030D0009EE8872F762F05C0662371F096E8862F2D
:1030E00070E060E02AF09A95660F771F881FDAF784
:1030F000880F9695879597F908950E9490180C94DB
:1031000001190E94F31838F00E94FA1820F0952354
:1031100011F00C94EA180C94F01811240C94351941
:103120000E94121970F3959FC1F3950F50E0551F3F
:10313000629FF001729FBB27F00DB11D639FAA270C
:10314000F00DB11DAA1F649F6627B00DA11D661F5B
:10315000829F2227B00DA11D621F739FB00DA11D7C
:10316000621F839FA00D611D221F749F3327A00D36
:10317000611D231F849F600D211D822F762F6A2FD2
:1031800011249F5750409AF0F1F088234AF0EE0F37
:10319000FF1FBB1F661F771F881F91505040A9F764
:1031A0009E3F510580F00C94EA180C9435195F3F4E
:1031B000E4F3983ED4F3869577956795B795F795A0
:1031C000E7959F5FC1F7FE2B880F911D9695879518
:1031D00097F9089597F99F6780E870E060E0089597
:1031E0009FEF80EC089500240A941616170618061F
:1031F0000906089500240A941216130614060506FB
:103200000895092E0394000C11F4882352F0BB0F8B
:1032100040F4BF2B11F460FF04C06F5F7F4F8F4FEE
:103220009F4F089557FD9058440F551F59F05F3F29
:1032300071F04795880F97FB991F61F09F3F79F0D8
:1032400087950895121613061406551FF2CF46955A
:10325000F1DF08C0161617061806991FF1CF8695DC
:103260007105610508940895E894BB2766277727C0
:10327000CB0197F90895F999FECF92BD81BDF89AD7
:10328000992780B50895262FF999FECF1FBA92BDD0
:1032900081BD20BD0FB6F894FA9AF99A0FBE019637
:1032A000089581E090E0F8940C94B01A911108957B
:1032B00081568A5108F4805285580895FB01DC013B
:1032C0008D91019080190110D9F3990B08955058F0
:1032D000BB27AA270E947F190C9401190E94F3189A
:1032E00038F00E94FA1820F039F49F3F19F426F4C0
:1032F0000C94F0180EF4E095E7FB0C94EA18E92F13
:103300000E94121958F3BA176207730784079507CA
:1033100020F079F4A6F50C9434190EF4E0950B2EF8
:10332000BA2FA02D0B01B90190010C01CA01A00117
:103330001124FF27591B99F0593F50F4503E68F172
:103340001A16F040A22F232F342F4427585FF3CFB3
:10335000469537952795A795F0405395C9F77EF484
:103360001F16BA0B620B730B840BBAF09150A1F0CD
:10337000FF0FBB1F661F771F881FC2F70EC0BA0F53
:10338000621F731F841F48F4879577956795B795DB
:10339000F7959E3F08F0B0CF9395880F08F09927D6
:1033A000EE0F9795879508950E94E8190C940119DE
:1033B0000E94FA1858F00E94F31840F029F45F3F79
:1033C00029F00C94EA1851110C9435190C94F0184A
:1033D0000E94121968F39923B1F3552391F3951BB9
:1033E000550BBB27AA2762177307840738F09F5F26
:1033F0005F4F220F331F441FAA1FA9F335D00E2E93
:103400003AF0E0E832D091505040E695001CCAF7FF
:103410002BD0FE2F29D0660F771F881FBB1F2617C2
:1034200037074807AB07B0E809F0BB0B802DBF0199
:10343000FF2793585F4F3AF09E3F510578F00C9468
:10344000EA180C9435195F3FE4F3983ED4F386955F
:1034500077956795B795F7959F5FC9F7880F911D89
:103460009695879597F90895E1E0660F771F881F75
:10347000BB1F621773078407BA0720F0621B730B28
:10348000840BBA0BEE1F88F7E09508950E944D1A41
:103490006894B1110C94351908950E941A1988F096
:1034A0009F5798F0B92F9927B751B0F0E1F0660F08
:1034B000771F881F991F1AF0BA95C9F714C0B13049
:1034C00091F00E943419B1E008950C943419672FDB
:1034D000782F8827B85F39F0B93FCCF38695779578
:1034E0006795B395D9F73EF4909580957095619561
:1034F0007F4F8F4F9F4F0895991B79E004C0991F0C
:10350000961708F0961B881F7A95C9F7809508953D
:10351000A1E21A2EAA1BBB1BFD010DC0AA1FBB1FD7
:10352000EE1FFF1FA217B307E407F50720F0A21B49
:10353000B30BE40BF50B661F771F881F991F1A94B6
:1035400069F760957095809590959B01AC01BD01E0
:10355000CF010895EE0FFF1F0590F491E02D09941F
:04356000F894FFCF0D
:103564007F7F808008F40100000000E605C705BAEB
:103574000ABA0AF0088505BA0A210500000000E627
:1035840005C7057504A805F0088505BC0A210500D2
:10359400000000DF068B0780062C07B1068F06A308
:1035A400060000000046041904B807EF031204FFE4
:1035B40003F0030D0A004E6F20646174610009007A
:1035C4002F003A004320280046292C2000250052D1
:1035D400656164204448543232206661696C6564D4
:1035E4002C206572723D00443133004C4544004444
:1035F40055414C00534554005354415455530056BF
:10360400455253494F4E0048454C50004F464600E2
:10361400424C494E4B004C454453005245440047EC
:103624005245454E005752495445005245414400C5
:10363400525443004448540043555252454E54009A
:1036440053415645440045585452454D4500437531
:103654007272656E742074656D70202F2068756DAC
:10366400696469747920697320004D6178696D75A6
:103674006D207265636F726465642074656D70207B
:103684002F2068756D696469747920697320002539
:103694000A0D4D696D696D756D207265636F726495
:1036A40065642074656D70202F2068756D69646988
:0836B400747920697320000005
:00000001FF
