:100000000C94C4020C94EC020C94EC020C94EC02E0
:100010000C94EC020C94EC020C94EC020C94EC02A8
:100020000C94EC020C94EC020C94EC020C94EC0298
:100030000C94EC020C94EC020C94EC020C94EC0288
:100040000C94BA0F0C94EC020C94880F0C94620F71
:100050000C94EC020C94EC020C94EC020C94EC0268
:100060000C94430E0C94EC020000000024002700C6
:100070002A0000000000250028002B00456E746552
:100080007220636F6D6D616E6473206F72202748FC
:10009000454C50270053656E642027592720746F04
:1000A000207365742074686520636C6F636B2C200B
:1000B00073656E6420274E2720746F2073746172FD
:1000C0007420616761696E3A2000456E74657265DF
:1000D000642054696D657374616D703A2000456EDB
:1000E00074657220446179204F66205765656B20E6
:1000F00028312064696769742C20312D372C2061E8
:1001000072626974726172696C792031203D204D90
:100110006F6E2C2037203D2053756E293A20004504
:100120006E746572205365636F6E6420283220649C
:1001300069676974732C2030302D3539293A2000D5
:10014000456E746572204D696E7574652028322085
:100150006469676974732C2030302D3539293A2051
:1001600000456E74657220486F75722028322064D5
:1001700069676974732C20323420686F757220634C
:100180006C6F636B2C2030302D3233293A200045C0
:100190006E74657220596561722028322064696727
:1001A0006974732C2030302D3939293A2000456E7E
:1001B000746572204D6F6E74682028322064696700
:1001C0006974732C2030312D3132293A2000456E6C
:1001D00074657220446179206F66204D6F6E74687B
:1001E000202832206469676974732C2030312D33E4
:1001F00031293A2000436C6F636B2069732073656B
:1002000074207768656E20616C6C20646174612075
:10021000697320656E746572656420616E6420790F
:100220006F752073656E642027592720746F2063D3
:100230006F6E6669726D2E00496E76616C6964201E
:10024000636F6D6D616E642C207479706520484514
:100250004C5000496E76616C696420636F6D6D610E
:100260006E642C20747970652048454C5000496EAE
:1002700076616C696420636F6D6D616E642C2074AF
:100280007970652048454C5000496E76616C696410
:1002900020636F6D6D616E642C20747970652048E9
:1002A000454C5000496E76616C696420636F6D6DDA
:1002B000616E642C20747970652048454C50004C68
:1002C000454420526564004C454420477265656E84
:1002D000004C4544206F666600426C696E6B696E27
:1002E0006720626F7468206F6E206475616C204CAB
:1002F000454400426C696E6B696E672072656400EC
:10030000426C696E6B696E6720677265656E00444A
:100310003133206F6E00443133206F666600426CCB
:10032000696E6B696E67204431330052544320522A
:10033000454144207C205254432057524954450A99
:100340000D757064617465202F207265616420747E
:10035000696D650A0A0D56455253494F4E0A0D63A1
:10036000757272656E742076657273696F6E0A0DB0
:100370002D2D2D2D2D2D2D2D2D2D2D2D2D2D2D2DAD
:100380002D2D2D2D2D2D2D2D2D0044485420435540
:100390005252454E54207C204448542053415645E7
:1003A0004420287829207C20444854204558545221
:1003B000454D450A0D73686F772074686520637535
:1003C0007272656E742C20736176656420286C618E
:1003D00073742078207265636F7264732C206F7061
:1003E00074696F6E616C2C2064656661756C742035
:1003F0006973203130292C2065787472656D652011
:1004000074656D70202F2068756D69646974790A50
:10041000000A0D535441545553204C4544530A0D82
:10042000666F72206C6564207374617475730A0062
:1004300053455420424C494E4B20580A0D73657465
:10044000207468652064656C617920746F20582081
:100450006D732C206D696E696D756D20004C45447F
:1004600020475245454E207C204C4544205245446F
:10047000207C204C4544204F4646207C204C45445F
:1004800020424C494E4B207C204C45442044554151
:100490004C20424C494E4B0A0D636F6E74726F6C68
:1004A00020746865206475616C20636F6C6F7220C6
:1004B0004C45440A00443133204F4E207C204431C7
:1004C00033204F4646207C2044313320424C494E55
:1004D0004B0A0D636F6E74726F6C20746865204CEC
:1004E0004544206F6E2070696E2031330A000D2D57
:1004F0002D2D2D2D2D2D2D2D2D2D2D2D2D2D2D2D2C
:100500002D2D2D2D2D2D2D2D0A0D417661696C611E
:10051000626C6520636F6D6D616E64733A00566541
:100520007273696F6E3A200052652D656E74657244
:100530002074686520636F6D6D616E64000000005B
:100540000023002600290004040404040404040217
:100550000202020202030303030303010204081060
:10056000204080010204081020010204081020002D
:100570000000080002010000030407000000000062
:10058000000000323000641011241FBECFEFD8E00D
:10059000DEBFCDBF24E0A0E7B2E001C01D92A332D0
:1005A000B207E1F712E0A0E0B1E0E0E7F7E302C054
:1005B00005900D92A037B107D9F712E0C4ECD2E054
:1005C00004C02197FE010E94B01BC33CD107C9F7AC
:1005D0000E946A100C9408190C940000813208F0F3
:1005E00041C0909165039111FCCF91E09093650318
:1005F000909364032FEF2093630310926203280FFC
:10060000209361039093600390916003906D9093A9
:10061000600390915F039130F9F410925F03909121
:1006200060039093BB009091BC0093FDF8CF95ECD4
:100630009093BC00909165039130E1F39091620337
:10064000981710F480916203AFE3B3E0E6E6F3E0BD
:1006500090E0981303C0089595EEEACF2D91219371
:100660009F5FF7CF80E00895613208F048C0909115
:1006700065039111FCCF92E090936503409364036E
:100680009FEF909363031092620360936103AFE165
:10069000B3E0EFE3F3E090E069132BC01092600346
:1006A00090916003880F892B8093600380915F0392
:1006B000813019F510925F03809160038093BB0035
:1006C0008091BC0083FDF8CF85EC8093BC008091C5
:1006D00065038230E1F3809163038F3F91F0809155
:1006E0006303803281F080916303803371F084E092
:1006F00008952D9121939F5FCFCF85EEE6CF81E0C6
:10070000089580E0089582E0089583E00895482FD9
:1007100060911E0380911D030E94340310921C03FC
:1007200010921E0310921B030895E0910F03F091A5
:1007300010030190F081E02D682F8FE093E0099481
:1007400087EA93E09093FF028093FE020895089554
:100750008FEA93E09093FD028093FC020895089540
:1007600085ED8093BC008091BC0084FDFCCF10928D
:10077000650308952091D902260F3327331F2132B4
:100780003105ECF420916503FC0190E080E0243019
:1007900069F082E00895A091D9022191AC014754FB
:1007A0005D4FA40FB52FB11D2C930196861798F3BA
:1007B0008091D902680F6093D90280E0089581E0AA
:1007C00008950895E0910E0380910D03E81730F429
:1007D000F0E0EA59FC4F808190E008958FEF9FEFA1
:1007E000089590910E0380910D032FEF3FEF98171E
:1007F00048F4E92FF0E0EA59FC4F208130E09F5F98
:1008000090930E03C901089580910D0390910E03FA
:10081000891B990B0895CF92DF92EF92FF920F936D
:100820001F93CF93DF937C01CB018A0120911B039F
:10083000222389F0EB016B01C40ED51ECC15DD051A
:1008400069F06991D701ED91FC910190F081E02D63
:10085000C7010995F3CF642F0E94BA03C801DF9145
:10086000CF911F910F91FF90EF90DF90CF9008955F
:10087000CF93DF931F92CDB7DEB7698320911B031F
:100880002223F9F020911E03203258F021E030E0BD
:10089000FC013383228390E080E00F90DF91CF91C1
:1008A000089580911C03E82FF0E0E15EFC4F9981F0
:1008B00090838F5F80931C0380931E0381E090E000
:1008C000ECCF61E0CE0101960E94BA03F7CF6F92A0
:1008D0007F928F929F92AF92BF92CF92DF92EF92D0
:1008E000FF920F931F93CF93DF93CDB7DEB7AC97F3
:1008F0000FB6F894DEBF0FBECDBFDC011696ED91AA
:10090000FC91319609F48BC059013A016B018C01BD
:10091000FE0131964F0188E2DF011D928A95E9F7C9
:10092000D801ED91FC910484F585E02DB401C80156
:1009300009957C01892B09F05CC01AA619A61CA692
:100940001BA6D801ED91FC910684F785E02D9E0150
:10095000255D3F4FAE01475D5F4FB401C80109956A
:100960007C01892B09F045C0A114B10439F088E25B
:10097000F401D50101900D928A95E1F7C114D104DB
:1009800009F189A59AA521E030E097FF02C02FEF79
:100990003FEF9F77829FB001839F700D929F700DF4
:1009A0001124072E000C880B990B0E941A1920E0C5
:1009B00030E040E251E40E94D01AF6016083718376
:1009C0008283938361147104A1F06BA57CA5072E2B
:1009D000000C880B990B0E941A1920E030E040E2CD
:1009E00051E40E94D01AD3016D937D938D939C9313
:1009F0001397C701AC960FB6F894DEBF0FBECDBFFC
:100A0000DF91CF911F910F91FF90EF90DF90CF90EA
:100A1000BF90AF909F908F907F906F90089587E1E7
:100A2000E82EF12CE6CF8F929F92AF92BF92CF9299
:100A3000DF92EF92FF920F931F93CF93DF93EC011E
:100A40008B016A017901E881F9810284F385E02D47
:100A50000995B82EB801685F7F4FE881F98102845B
:100A6000F385E02DCE010995982EB801605F7F4F88
:100A7000E881F9810284F385E02DCE010995A82E45
:100A8000B801685E7F4FE881F9810284F385E02D2B
:100A9000CE010995882EB801605E7F4FE881F9810B
:100AA0000284F385E02DCE0109959B2D990D9A0DB9
:100AB000980D891319C09A2D882DF6019183808392
:100AC0009B2D892DF7019183808390E080E0DF9159
:100AD000CF911F910F91FF90EF90DF90CF90BF903B
:100AE000AF909F908F90089585E190E0F0CF47E020
:100AF00050E080E0FB012191BF01042E01C0220FD4
:100B00000A94EAF7820F41505109A0F70895DC01D9
:100B100017967C936E931697FB01E55AFA4FE49172
:100B20001896EC931897695B7A4FFB0164911996BC
:100B30006C930895CF92DF92EF92FF920F931F93E1
:100B4000CF93DF93EC017A0169010E948705E88168
:100B5000F9810480F581E02D9801A601B701CE014D
:100B6000DF91CF911F910F91FF90EF90DF90CF9089
:100B70000994CF92DF92EF92FF920F931F93CF933E
:100B8000DF93EC017A0169010E948705E881F98110
:100B90000190F081E02D9801A601B701CE01DF910F
:100BA000CF911F910F91FF90EF90DF90CF9009941C
:100BB000CF92DF92EF92FF920F931F93CF93DF9329
:100BC000CDB7DEB728970FB6F894DEBF0FBECDBF06
:100BD000DC011696ED91FC91319609F440C08A0132
:100BE0007B0119821A821B821C821D821E821F8237
:100BF0001886DC01ED91FC910480F581E02DAE01B9
:100C00004B5F5F4FBE016F5F7F4F09956C01892B72
:100C1000B1F4E114F10441F069817A818B819C8106
:100C20000E94421BF70160830115110541F06D819F
:100C30007E818F8198850E94421BD8016C93C601EA
:100C400028960FB6F894DEBF0FBECDBFDF91CF91CF
:100C50001F910F91FF90EF90DF90CF90089587E163
:100C6000C82ED12CECCFCF93C62F91E090931B03CD
:100C700098E690931D0310921C0310921E03682F98
:100C80008FE093E00E9438046C2F8FE093E00E9485
:100C9000380481E0CF910C94870391E090931B037B
:100CA00098E690931D0310921C0310921E03682F68
:100CB0008FE093E00E94380481E00C9487036AE09F
:100CC0000E94821B292F30E1839FC0011124822BB7
:100CD0000895982F92959F708F702AE0929F800DB3
:100CE00011240895FC01538D448D252F30E0842F6D
:100CF00090E0821B930B541710F0CF960895019744
:100D00000895FC01918D828D981761F0A28DAE0F30
:100D1000BF2FB11D5D968C91928D9F5F9F73928FB7
:100D200090E008958FEF9FEF0895FC01918D828DE3
:100D3000981731F0828DE80FF11D858D90E00895B0
:100D40008FEF9FEF0895FC01918D228D892F90E008
:100D5000805C9F4F821B91098F7399270895FC0136
:100D6000A48DA80FB92FB11DA35ABF4F2C91848D0C
:100D700090E001968F739927848FA689B7892C9369
:100D8000A089B1898C91837080648C93938D848DBC
:100D9000981306C00288F389E02D80818F7D8083BF
:100DA0000895EF92FF920F931F93CF93DF93EC017F
:100DB00081E0888F9B8D8C8D98131AC0E889F98902
:100DC000808185FF15C09FB7F894EE89FF89608305
:100DD000E889F98980818370806480839FBF81E086
:100DE00090E0DF91CF911F910F91FF90EF900895C8
:100DF000F62E0B8D10E00F5F1F4F0F731127E02EA3
:100E00008C8D8E110CC00FB607FCFACFE889F989DA
:100E1000808185FFF5CFCE010E94AF06F1CFEB8D2B
:100E2000EC0FFD2FF11DE35AFF4FF0829FB7F894AE
:100E30000B8FEA89FB8980818062CFCFCF93DF93CC
:100E4000EC01888D8823B9F0AA89BB89E889F989E2
:100E50008C9185FD03C0808186FD0DC00FB607FC17
:100E6000F7CF8C9185FFF2CF808185FFEDCFCE014A
:100E70000E94AF06E9CFDF91CF91089586E893E015
:100E80000E94A30621E0892B09F420E0822F089517
:100E900080E090E0892B29F00E943E0781110C949C
:100EA00000000895DC01ED91FC910190F081E02DAE
:100EB0000994EF92FF920F931F93CF93DF938C01CE
:100EC0007B01D0E0C0E0F701EC0FFD1F64916623C9
:100ED00061F0D801ED91FC910190F081E02DC80105
:100EE0000995892B11F02196EECFCE01DF91CF919C
:100EF0001F910F91FF90EF900895AF92BF92CF9204
:100F0000DF92EF92FF920F931F93CF93DF936C01C9
:100F10007B018B01040F151FEB015E01AE18BF08AA
:100F2000C017D10759F06991D601ED91FC9101905C
:100F3000F081E02DC6010995892B79F7C501DF9174
:100F4000CF911F910F91FF90EF90DF90CF90BF90C6
:100F5000AF90089590E080E00895833081F028F408
:100F6000813099F08230A9F008958730A9F0883057
:100F7000C9F08430B1F4809180008F7D03C08091EE
:100F800080008F7780938000089584B58F7784BD2B
:100F9000089584B58F7DFBCF8091B0008F778093CB
:100FA000B00008958091B0008F7DF9CFCF93DF938B
:100FB000ECE7F5E08491E8E6F5E0D491E4E5F5E0CE
:100FC000C491CC23A1F081110E94AD07EC2FF0E079
:100FD000EE0FFF1FE35CFA4FA591B491EC91ED2366
:100FE00081E090E009F480E0DF91CF91089580E006
:100FF00090E0FACF1F93CF93DF93282F30E0F901D1
:10100000E159FA4F8491F901E55AFA4FD491F90167
:10101000E95BFA4FC491CC23A9F0162F81110E94ED
:10102000AD07EC2FF0E0EE0FFF1FEE58FF4FA5913C
:10103000B4918FB7F894EC91111108C0D095DE23CC
:10104000DC938FBFDF91CF911F910895DE2BF8CFF6
:101050001092650381E08093640310925F0361E066
:1010600082E10E94FA0761E083E10E94FA07E9EB5E
:10107000F0E080818E7F808380818D7F808388E413
:101080008093B80085E48093BC000895CF93DF93EC
:1010900090E0FC01E55AFA4F2491895B9A4FFC01DC
:1010A00084918823D1F090E0880F991FFC01E859C2
:1010B000FF4FA591B491FC01EE58FF4FC591D4911B
:1010C00061110EC09FB7F8948C91E22FE0958E23AA
:1010D0008C932881E223E8839FBFDF91CF9108950D
:1010E0008FB7F894EC91E22BEC938FBFF6CF789406
:1010F00084B5826084BD84B5816084BD85B582601D
:1011000085BD85B5816085BDEEE6F0E080818160BA
:101110008083E1E8F0E010828081826080838081BA
:1011200081608083E0E8F0E0808181608083E1EB92
:10113000F0E0808184608083E0EBF0E0808181607A
:101140008083EAE7F0E08081846080838081826030
:101150008083808181608083808180688083109219
:10116000C10008958130910539F0880F991F880FCB
:10117000991F05970197F1F708953FB7F89480916B
:10118000750290917602A0917702B091780226B50F
:10119000A89B05C02F3F19F00196A11DB11D3FBFAF
:1011A000BA2FA92F982F8827BC01CD01620F711D7E
:1011B000811D911D42E0660F771F881F991F4A9578
:1011C000D1F708957F928F929F92AF92BF92CF9264
:1011D000DF92EF92FF920F931F93CF93DF93EC0177
:1011E000162F7A0169010E94BD084B015C01712C28
:1011F0001111788410E000E060E070E0CB012A81FA
:101200003B814C815D812617370748075907F4F069
:101210000115110561F5C7011E141F0464F10E9438
:10122000BD08681979098A099B09E985F0E0EE0F84
:10123000FF1FE35CFA4FA591B4912C910F5F1F4FF4
:1012400038852323271105C097FFD9CF6FEF7FEF94
:10125000CB01DF91CF911F910F91FF90EF90DF9025
:10126000CF90BF90AF909F908F907F9008951C1467
:101270001D04ACF6C6010E94B208D1CF2FB7F89476
:101280006091710270917202809173029091740268
:101290002FBF08958F929F92AF92BF92EF92FF92CD
:1012A0000F931F93CF93DF937B018C01D0E0C0E0BD
:1012B0000E943E0960938E0370938F038093900386
:1012C00090939103E0918603F09187030284F38564
:1012D000E02D86E893E0099597FF27C00E943E091C
:1012E00080908E0390908F03A0909003B090910314
:1012F000681979098A099B0980908A0390908B0369
:10130000A0908C03B0908D03681579058A059B0524
:10131000C8F2CE01DF91CF911F910F91FF90EF9016
:10132000BF90AF909F908F900895F80181938F01A7
:101330002196EC16FD0609F0BBCFEBCF87E080933A
:1013400010018093AA0261E084E00E94FA0760E045
:1013500085E00C94FA0781110AC01092AA0260E09D
:1013600084E00E94FA0760E085E00C94FA07873079
:1013700011F40C949E0988E0809310018093AA02D6
:1013800060E084E00E94FA0761E0EECFBF92CF9266
:10139000DF92EF92FF920F931F93CF93DF9300D0D2
:1013A00000D000D01F92CDB7DEB780E00E944D067E
:1013B00087E00E94EE0210920E0380930D038730A7
:1013C000E1F58FE093E00E94F1030E946906B82ED8
:1013D0008FE093E00E94F1030E946906C82E8FE01F
:1013E00093E00E94F103182F86FF3EC08F710E9488
:1013F00069060CE015FD00E0080F8FE093E00E9405
:10140000F1030E946906D82E8FE093E00E94F10359
:101410000E946906E82E8FE093E00E94F10310E03D
:1014200087FD14E68F770E946906F82E8FE093E01F
:101430000E94F1030E946906180F2B2D3C2D402FAE
:101440005D2DB701812F90E027960FB6F894DEBF8F
:101450000FBECDBFDF91CF911F910F91FF90EF9005
:10146000DF90CF90BF9008958F730E946906082F78
:10147000C4CFCF93DF93EB010E944D0681E00E9421
:10148000EE0210920E0380930D038FE093E00E9412
:10149000F103888381E0DF91CF910895EF92FF926D
:1014A0001F93CF93DF931F92CDB7DEB77C01162F2A
:1014B000BE016F5F7F4F8EE00E94390A811108C024
:1014C00080E00F90DF91CF911F91FF90EF900895F2
:1014D00081E080931B0388E680931D0310921C0318
:1014E00010921E03113089F587E090E00E94950369
:1014F000F70180810E945F0690E00E949503898138
:1015000085608983F70181810E945F0690E00E94D7
:101510009503F70182810E945F0690E00E94950387
:10152000F70184810E945F0690E00E94950381E0AC
:101530000E9487038111C4CF69818EE00E94330627
:101540008111BECF812F8770BCCF8BE090E00E94CD
:10155000950389818660D5CF0E944D1AEF92FF9244
:101560000F931F93CF93DF93EC018B0188E2FB0174
:1015700011928A95E9F761E08E810E94460860E049
:101580008E810E94FA0788EE93E00E94B20861E023
:101590008E810E94FA0760E08E810E94460888E2F0
:1015A00090E00E94B208E881F9810084F185E02D85
:1015B00026E030E04AE050E060E0CE0109956E316F
:1015C0007105810591056CF4982F872F762F66277A
:1015D0006061CB01DF91CF911F910F91FF90EF9050
:1015E0000895E881F9810084F185E02D26E030E05E
:1015F0004AE050E061E0CE0109957801F8E2EF0E93
:10160000F11C623371058105910534F4982F872F01
:10161000762F66276161DDCFE881F9810084F1854D
:10162000E02D26E030E04AE050E060E0CE01099590
:10163000683171058105910534F4982F872F762F35
:1016400066276261C6CFE881F9810084F185E02DCB
:1016500026E030E04AE050E061E0CE0109956B30D1
:1016600071058105910534F4982F872F762F662711
:101670006361AFCF21E069327105810591050CF4FA
:1016800020E0F80121938F01EE16FF0629F6E8818C
:10169000F9810084F185E02D26E030E04AE050E059
:1016A00060E0CE010995683171058105910534F43A
:1016B000982F872F762F662764618BCF70E060E0CC
:1016C00088CFFB0101900020E9F73197AF01461B5D
:1016D000570BDC01ED91FC910280F381E02D099420
:1016E0008F929F92AF92BF92EF92FF920F931F93B0
:1016F000CF93DF93CDB7DEB7A1970FB6F894DEBFD7
:101700000FBECDBF7C01FA01CB0119A2223008F433
:101710002AE08E010F5D1F4F822E912CB12CA12C3F
:10172000BF01A50194010E948E1BF901CA016A3014
:101730000CF5605DD8016E938D01232B242B252B96
:1017400079F790E080E0109721F0BD01C7010E9479
:10175000610BA1960FB6F894DEBF0FBECDBFDF912F
:10176000CF911F910F91FF90EF90BF90AF909F90FE
:101770008F900895695CDECF462F50E070E060E006
:101780002AE00C94700BCF93C82F8A3028F460E3C2
:1017900086E893E00E9452076C2F86E893E0CF9191
:1017A0000C94BC0BCF93DF93EC018E818536D0F087
:1017B00062E386E893E00E9452078E810E94C30B89
:1017C0006DE286E893E00E9452078D810E94C30B70
:1017D0006DE286E893E00E9452078C81DF91CF9101
:1017E0000C94C30B63E875E086E893E00E94590708
:1017F000E4CFCF93DF93EC018A810E94C30B6AE3AD
:1018000086E893E00E94520789810E94C30B6AE335
:1018100086E893E00E9452078881DF91CF910C9473
:10182000C30B8F929F92AF92BF92CF92DF92EF92B3
:10183000FF921F93CF93DF936B017C01B42E20E0C6
:1018400030E0A9010E941319D0E0C0E087FF0AC070
:101850006DE286E893E00E945207EC01F7FAF094FB
:10186000F7F8F09410E060E070E080E09FE31B1573
:1018700041F020E030E040E251E40E94D01A1F5FC6
:10188000F6CFA70196010E94641A6B017C010E94A9
:10189000491B4B015C012AE0BC01A40186E893E0EE
:1018A0000E94700BC80FD91F1123D1F1C501B401DB
:1018B0000E9418199B01AC01C701B6010E94631A6E
:1018C0006B017C016EE286E893E00E945207C80F2C
:1018D000D91F115028F120E030E040E251E4C70167
:1018E000B6010E9479194B015C010E94491B6B01F2
:1018F000F12CE12C2AE0B701A60186E893E00E94D2
:10190000700BC80FD91FC701B6010E9418199B019F
:10191000AC01C501B4010E94631A6B017C01D9CFEF
:10192000CE01DF91CF911F91FF90EF90DF90CF908C
:10193000BF90AF909F908F9008958F929F92AF929B
:10194000BF92CF92DF92EF92FF926B017C01AC01CC
:101950009B010E947D1B6FE571E081111AC0460159
:101960005701E894B7F82FEF3FEF4FE75FE7C50166
:10197000B4010E947D1B811118C02FEF3FEF4FE78C
:101980005FE7C501B4010E941319181674F463E6E9
:1019900071E086E893E0FF90EF90DF90CF90BF90EA
:1019A000AF909F908F900C94610B2FEF3FEF4FE71C
:1019B0005FE4C701B6010E94781B18161CF467E6A5
:1019C00071E0E7CF2FEF3FEF4FE75FECC701B601C4
:1019D0000E94131987FDF3CF42E0C701B601FF90C3
:1019E000EF90DF90CF90BF90AF909F908F900C942E
:1019F000110CBC0186E893E00C94610B6BE671E07E
:101A00000C94610BCF93DF93BC0186E893E00E94B6
:101A1000610BEC0186E893E00E94FE0C8C0F9D1F89
:101A2000DF91CF9108954F925F926F927F928F9244
:101A30009F92AF92BF92CF92DF92EF92FF920F935D
:101A40001F93CF93DF93CDB7DEB72F970FB6F894E0
:101A5000DEBF0FBECDBF0091890210918A02011531
:101A60001105D1F48EE691E02F960FB6F894DEBF03
:101A70000FBECDBFDF91CF911F910F91FF90EF90DF
:101A8000DF90CF90BF90AF909F908F907F906F909E
:101A90005F904F900C94020DC0908702D090880206
:101AA000801791070CF48C01412C512C3201439486
:101AB000C2010197801791070CF086C0560176018C
:101AC0008FE0E81AF1086701FE0131964F01C70166
:101AD0000E94371AF40181934F01FFEFEF1AFF0ABA
:101AE000EA14FB04A1F72AE0B301A20186E893E01F
:101AF0000E94700B86E791E00E94F90C6F8186E8E6
:101B000093E00E94BC0B88E791E00E94F90C6E8183
:101B100086E893E00E94BC0B88E791E00E94F90CF4
:101B20006D8186E893E00E94BC0B83E891E00E94FF
:101B3000F90C6B8186E893E00E94BC0B8AE791E088
:101B40000E94F90C6A8186E893E00E94BC0B8AE748
:101B500091E00E94F90C698186E893E00E94BC0B39
:101B600083E891E00E94F90C88849984AA84BB845C
:101B7000C501B4010E949D0C8CE791E00E94F90C14
:101B800026E636E646EE5FE3C501B4010E94791908
:101B900020E030E040E052E40E94641A0E949D0C74
:101BA00080E891E00E94F90C6C857D858E859F858B
:101BB0000E949D0C85E891E00E94020D8FEF481A6B
:101BC000580A680A780A74CF2F960FB6F894DEBFC9
:101BD0000FBECDBFDF91CF911F910F91FF90EF907E
:101BE000DF90CF90BF90AF909F908F907F906F903D
:101BF0005F904F900895CF92DF92EF92FF92CF9334
:101C0000DF936C01990FEE08FF08F7FE21C06DE22B
:101C100086E893E00E945207EC0144275527BA0159
:101C20004C195D096E097F092AE086E893E00E945D
:101C3000700BC80FD91F86E893E00E94FE0C8C0F32
:101C40009D1FDF91CF91FF90EF90DF90CF9008958F
:101C50002AE0B701A60186E893E00E94700BEC0130
:101C6000EACF0F931F93CF93DF93EC010E945907A4
:101C70008C01CE010E94FE0C800F911FDF91CF914D
:101C80001F910F9108951F920F920FB60F9211247A
:101C90002F933F934F935F936F937F938F939F9374
:101CA000AF93BF93EF93FF938091B900887F803605
:101CB00009F44AC0F0F5883209F4A7C018F580315C
:101CC00009F49BC0B8F4882309F4F9C0883009F4FA
:101CD00094C0FF91EF91BF91AF919F918F917F91B0
:101CE0006F915F914F913F912F910F900FBE0F9089
:101CF0001F901895883109F488C0803251F780937D
:101D0000630314C0803409F49DC040F48033B9F3F8
:101D10008833F9F68093630385ECB0C0803509F40D
:101D200085C0883509F496C0883499F60E94B003BE
:101D3000D0CF883909F48CC038F5883729F050F4B1
:101D4000883611F0803729F683E08093650310927E
:101D5000FB0257C0883809F47BC0803919F08038FD
:101D600009F0B7CF8091FB02803208F071C0E0919A
:101D7000FB0281E08E0F8093FB028091BB00F0E0BC
:101D8000E552FD4F80833DC0803B39F0E0F4803A5E
:101D900009F479C0883A09F09CCF84E08093650308
:101DA0001092DA021092D902E091FC02F091FD0249
:101DB00009958091D90281110FC081E08093D902E9
:101DC0001092B90209C0803C09F4A6CF883C09F4FE
:101DD000A3CF883B09F07DCFE091DA0281E08E0F3E
:101DE0008093DA02F0E0E754FD4F80818093BB00DE
:101DF0009091DA028091D90229C08091600380938A
:101E0000BB0085EC8093BC0064CF9091620380910D
:101E10006103981758F5E091620381E08E0F80937B
:101E20006203F0E0E15CFC4F8081E9CFE091620366
:101E300081E08E0F809362038091BB00F0E0E15C53
:101E4000FC4F808390916203809161039817C8F2E0
:101E500085E8D8CFE091620381E08E0F8093620322
:101E60008091BB00F0E0E15CFC4F808380916403D3
:101E700081115CCF81E080935F0384EA8093BC0092
:101E80001092650326CF85EC8093BC001092650309
:101E90008091FB02803230F4E091FB02F0E0E552E9
:101EA000FD4F10826091FB0270E0E091FE02F09124
:101EB000FF028BED92E009951092FB020ACF10927F
:101EC000630334CF1F920F920FB60F9211242F93FA
:101ED0003F934F935F936F937F938F939F93AF93B2
:101EE000BF93EF93FF9386E893E00E94AF06FF91C4
:101EF000EF91BF91AF919F918F917F916F915F9182
:101F00004F913F912F910F900FBE0F901F901895FA
:101F10001F920F920FB60F9211242F938F939F93BE
:101F2000EF93FF93E0919603F09197038081E09106
:101F30009C03F0919D0382FD1BC0908180919F03C3
:101F40008F5F8F732091A003821741F0E0919F0370
:101F5000F0E0EA57FC4F958F80939F03FF91EF913C
:101F60009F918F912F910F900FBE0F901F901895FA
:101F70008081F4CF1F920F920FB60F9211242F93EE
:101F80003F938F939F93AF93BF93809171029091F2
:101F90007202A0917302B09174023091700223E03A
:101FA000230F2D3758F50196A11DB11D2093700206
:101FB0008093710290937202A0937302B0937402A3
:101FC0008091750290917602A0917702B09178028B
:101FD0000196A11DB11D8093750290937602A09386
:101FE0007702B0937802BF91AF919F918F913F910B
:101FF0002F910F900FBE0F901F90189526E8230F7A
:102000000296A11DB11DD2CFEFE0F3E01382128240
:1020100088EE93E0A0E0B0E084839583A683B78345
:1020200081E591E0918380830895E6E8F3E01382EF
:10203000128288EE93E0A0E0B0E084839583A683CB
:10204000B7838FE391E09183808385EC90E095875F
:10205000848784EC90E09787868780EC90E0918B72
:10206000808B81EC90E0938B828B82EC90E0958B5F
:10207000848B86EC90E0978B868B118E128E138E5C
:10208000148E0895CF93DF93C9E7D2E087E191E002
:102090009983888380E49BE4ACE4B0E08A839B83EB
:1020A000AC83BD838FEF9FEF9F838E838887898763
:1020B00062E070E0CE010E9487058BE291E0998397
:1020C0008883DF91CF9108950E9404100E9415101B
:1020D0000C944210CF93DF93CDB7DEB72B970FB69A
:1020E000F894DEBF0FBECDBF0E947708E091960343
:1020F000F091970312E01083E0919203F091930323
:102100001082E0919403F09195038FEC80831092FC
:102110009E03E0919A03F0919B0386E08083E09117
:102120009803F0919903808180618083E091980306
:10213000F0919903808188608083E0919803F09109
:102140009903808180688083E0919803F0919903DE
:1021500080818F7D808310920E0310920D03109268
:102160001C0310921E030E9428080E94A8030E94CC
:10217000A00360E08EE00E9433060E94C609298316
:102180003A834B835C838F838FE18D831E8362E070
:10219000CE0101960E944E0A61E0CE0101960E9496
:1021A0004E0A1B8618863E0128E0620E711CB301A0
:1021B0008FE00E94390A6885862F837021F06C7F3A
:1021C0008FE00E9433068B85882369F0BE01655F2E
:1021D0007F4F8EE00E94390A882329F06B856F7744
:1021E0008EE00E9433068FEF93E0909386028093F7
:1021F00085021092000361E08DE00E94460861E0D4
:1022000084E00E94460861E085E00E9446086CE791
:1022100070E086E893E00E94310E2E0139E0430E13
:10222000511C8E01085F1F4F43E0342E0E943E096F
:102230007093B8026093B70220919C0230919D0286
:10224000621B730B6838734108F4C8C030E020E0AB
:1022500042EA52E066EA72E089E792E00E9467048F
:102260007C01892B39F087E891E00E94F90CC701C5
:102270000E94FB0DC090A602D090A702E090A80299
:10228000F090A90220E030E04EEF52E4C701B60121
:102290000E94781B181684F420E030E040E853E4F4
:1022A000C701B6010E94631A6093A6027093A70249
:1022B0008093A8029093A902C090A202D090A3029A
:1022C000E090A402F090A50220E030E04EEF52E44E
:1022D000C701B6010E94781B181684F420E030E094
:1022E00040E853E4C701B6010E94631A6093A2025A
:1022F0007093A3028093A4029093A502C090A602BB
:10230000D090A702E090A802F090A90220910401C9
:10231000309105014091060150910701C701B601B6
:102320000E94131987FF08C0C0920401D0920501D2
:10233000E0920601F092070120910C0130910D010D
:1023400040910E0150910F01C701B6010E94781B08
:10235000181644F4C0920C01D0920D01E0920E01C7
:10236000F0920F01C090A202D090A302E090A402CC
:10237000F090A502209100013091010140910201ED
:1023800050910301C701B6010E94131987FF08C0CD
:10239000C0920001D0920101E0920201F09203018B
:1023A000209108013091090140910A0150910B01DF
:1023B000C701B6010E94781B181644F4C0920801A8
:1023C000D0920901E0920A01F0920B018091B702CC
:1023D0009091B80290939D0280939C022091B70245
:1023E0003091B80280919A0290919B02A901481BFA
:1023F000590B403A5B4B20F42817390708F07BC093
:102400000E94C60920938B0230938C0240938D0268
:1024100050938E0260938F0270939002809391028A
:102420008091A6029091A702A091A802B091A90262
:102430008093920290939302A0939402B09395029A
:102440008091A2029091A302A091A402B091A50252
:102450008093960290939702A0939802B09399026A
:1024600080908702909088023BE8C32E32E0D32E02
:10247000F12CE12CF60121906F015401AE0CBF1C30
:10248000C5010E94371A281621F0622DC5010E944D
:102490003F1AFFEFEF1AFF0A2FE0E216F10451F79F
:1024A0008091890290918A02019690938A0280938A
:1024B000890280918702909188020F9690938802FA
:1024C0008093870220918502309186022F50310936
:1024D0002817390740F410928A021092890210924C
:1024E0008802109287028091B7029091B80290936F
:1024F0009B0280939A028091B602882319F1E090A2
:10250000B702F090B80280919E0290919F029701CD
:10251000281B390B8091110190911201281739075E
:1025200088F00E94D60761E0892B29F00E94D60727
:10253000019721F460E08DE00E94FA07F0929F027B
:10254000E0929E028091B502811104C08091B40294
:10255000882301F1E090B702F090B8028091A002C8
:102560009091A1029701281B390B80911101909144
:1025700012012817390770F0809110019091B40270
:10258000992379F1883039F50E949E09F092A102D1
:10259000E092A00286E893E00E94A306892B71F0E6
:1025A00086E893E00E9481060E94521A8093B3024B
:1025B000803201F59091B20291113BC080E090E031
:1025C000892B09F433CE0E943E07882309F42CCED0
:1025D0000E94000029CE8730C9F688E00E94AB092E
:1025E000D5CF9091AA02981302C080E0F7CF911145
:1025F000CDCFF4CF8F37E9F486E893E00E94FE0C4C
:1026000068E275E086E893E00E94310E10920003C4
:102610001092B2021092AD021092AC021092AF0270
:102620001092AE021092B1021092B0021092AB0260
:10263000C5CF682F86E893E00E945207C090B3028E
:10264000E091B20230E2C31619F06DE0C6129BC5EC
:10265000F0E0E050FD4F1082E090AB0282E08E157A
:1026600038F16FE971E080E093E00E945A1ADD24AE
:10267000D394DE0CF12CEE0CFF1CF701E455FD4F5A
:102680007F01892B39F4D092AB028DE090E09183E9
:1026900080830EC063EA71E080E093E00E945A1AE2
:1026A000892B09F02EC0D092AB02F7011182108263
:1026B000109200031092B2023DE0C3127FCF86E871
:1026C00093E00E94FE0CE091AC02F091AD02E23189
:1026D000F10508F055C5E159FC4E0C94B01B3315BB
:1026E000BC14CE147B148D14C018C018C018C018A8
:1026F000C018C018C018C0181515C018C01870151B
:10270000FC1767EA71E080E093E00E945A1A892B77
:1027100031F4D092AB0289E090E0F701B8CF6CEAD7
:1027200071E080E093E00E945A1A892B29F4D0923C
:10273000AB0281E090E0F1CF60EB71E080E093E0EC
:102740000E945A1A892B29F4D092AB0282E090E0C1
:10275000E4CF67EB71E080E093E00E945A1A892B86
:1027600029F4D092AB0283E090E0D7CF6FEB71E019
:1027700080E093E00E945A1A892B29F4D092AB0290
:1027800084E090E0CACF6CEB71E080E093E00E94BF
:102790005A1A892B29F4D092AB028AE090E0BDCF7F
:1027A00064EC71E080E093E00E945A1A892B29F4CE
:1027B000D092AB028BE090E0B0CF68EC71E080E0AB
:1027C00093E00E945A1A892B29F4D092AB028CE034
:1027D00090E0A3CF6EEC71E080E093E00E945A1A83
:1027E000892B29F4D092AB0286E090E096CF63ED7E
:1027F00071E080E093E00E945A1A892B29F4D0926C
:10280000AB0288E090E089CF67ED71E080E093E073
:102810000E945A1A892B29F4D092AB0287E090E0EB
:102820007CCF6DED71E080E093E00E945A1A892B15
:1028300029F4D092AB028EE090E06FCF63EE71E0AE
:1028400080E093E00E945A1A892B29F4D092AB02BF
:102850008FE090E062CF68EE71E080E093E00E944C
:102860005A1A892B41F4D092AB0220E130E0F701F3
:10287000318320831DCF6CEE71E080E093E00E94F5
:102880005A1A892B29F4D092AB0221E130E0EFCF24
:1028900060EF71E080E093E00E945A1A892B29F4DE
:1028A000D092AB0222E130E0E2CF68EF71E080E04D
:1028B00093E00E945A1A892B29F4D092AB0223E1AB
:1028C00030E0D5CF6EEF71E080E093E00E945A1ABD
:1028D000892B29F4D092AB0224E130E0C8CF0E94CA
:1028E000D418D092AB02019619F00E94D41815CFDB
:1028F00025E030E0BCCF6EE175E086E893E00E9411
:10290000590742E060E070E080E090E40E94110C22
:1029100086E893E00E94FE0C7DCE6EEE74E086E8C1
:1029200093E00E94310E65EB74E086E893E00E942C
:10293000310E6DE574E086E893E00E94310E60E3AD
:1029400074E086E893E00E94590784E690E00E94D4
:10295000FB0D61E174E086E893E00E94310E6AE8C5
:1029600073E086E893E00E94310E6BE273E086E844
:1029700093E00E94310E4ECE8091AE029091AF0254
:102980000C9761F48091B0029091B1028436910568
:102990002CF090931201809311013CCE8091AE02F5
:1029A0009091AF02069709F035CE8091B6026EE1A4
:1029B00073E0811108C00E94D60766E173E0892B9D
:1029C00011F06FE073E086E893E00E94310E809191
:1029D000B4029091B502911102C08823B9F0909190
:1029E0001001973041F460E073E0882309F4BFCF11
:1029F00069ED72E0BCCF983029F463EF72E0811189
:102A0000F7CFB5CF882309F405CEF2CF8091AA0283
:102A100061ED72E0882309F4AACF67EC72E0873099
:102A200009F4A5CF6FEB72E0A2CF8091AE02909136
:102A3000AF028B30910579F08C30910581F064EA1A
:102A400072E00A9709F093CF1092B60261E08DE030
:102A50000E94FA07DFCD1092B60260E0F8CF81E065
:102A60008093B602D7CD8091AE029091AF028930AB
:102A7000910519F144F487309105C1F0089771F080
:102A800069E872E074CF8B30910521F10C97C1F7A2
:102A900081E08093B5021092B402BCCD1092B402D2
:102AA0001092B50288E00E94AB09B4CD1092B40236
:102AB0001092B5020E949E09ADCD8091B002909116
:102AC000B1020C9709F0A6CD1092B50281E0809377
:102AD000B402A0CD1092B4021092B50280E0E3CF10
:102AE0008091AE029091AF028E30910531F00F9738
:102AF00009F462C26EE672E03ACF188619861A8629
:102B000065EF71E086E893E00E94310EF301232D1A
:102B100011922A95E9F786E893E00E94FE0C6EEC8C
:102B200071E086E893E00E945907E0918603F091F6
:102B300087030084F185E02D86E893E00995892BD1
:102B4000A1F362E070E0C3010E944A09E0918603AC
:102B5000F09187030084F185E02D86E893E00995E4
:102B6000892B59F0E0918603F09187030284F38565
:102B7000E02D86E893E00995E9CF88858033D9F583
:102B8000C2010E94EA188D83F301232D11922A9528
:102B9000E9F786E893E00E94FE0C6EEA71E086E8B1
:102BA00093E00E945907E0918603F0918703008427
:102BB000F185E02D86E893E00995892BA1F362E089
:102BC00070E0C3010E944A09E0918603F0918703F7
:102BD0000084F185E02D86E893E00995892B69F062
:102BE000E0918603F09187030284F385E02D86E867
:102BF00093E00995E9CFC301C4CF88858033D9F527
:102C0000C2010E94EA188E83F301232D11922A95A6
:102C1000E9F786E893E00E94FE0C6FE871E086E831
:102C200093E00E945907E0918603F09187030084A6
:102C3000F185E02D86E893E00995892BA1F362E008
:102C400070E0C3010E944A09E0918603F091870376
:102C50000084F185E02D86E893E00995892B69F0E1
:102C6000E0918603F09187030284F385E02D86E8E6
:102C700093E00995E9CFC301C4CF88858033D9F5A6
:102C8000C2010E94EA188F83F801232D11922A9520
:102C9000E9F786E893E00E94FE0C61E671E086E8C1
:102CA00093E00E945907E0918603F0918703008426
:102CB000F185E02D86E893E00995892BA1F362E088
:102CC00070E0C8010E944A09E0918603F0918703F1
:102CD0000084F185E02D86E893E00995892B69F061
:102CE000E0918603F09187030284F385E02D86E866
:102CF00093E00995E9CFC801C4CF88858033D9F521
:102D0000C2010E94EA188B83F801232D11922A95A3
:102D1000E9F786E893E00E94FE0C60E471E086E843
:102D200093E00E945907E0918603F09187030084A5
:102D3000F185E02D86E893E00995892BA1F362E007
:102D400070E0C8010E944A09E0918603F091870370
:102D50000084F185E02D86E893E00995892B69F0E0
:102D6000E0918603F09187030284F385E02D86E8E5
:102D700093E00995E9CFC801C4CF88858033D9F5A0
:102D8000C2010E94EA188A83F801232D11922A9524
:102D9000E9F786E893E00E94FE0C6FE171E086E8B7
:102DA00093E00E945907E0918603F0918703008425
:102DB000F185E02D86E893E00995892BA1F362E087
:102DC00070E0C8010E944A09E0918603F0918703F0
:102DD0000084F185E02D86E893E00995892B69F060
:102DE000E0918603F09187030284F385E02D86E865
:102DF00093E00995E9CFC801C4CF88858033D9F520
:102E0000C2010E94EA188983F801232D11922A95A4
:102E1000E9F786E893E00E94FE0C6EED70E086E82C
:102E200093E00E94310EE0918603F09187030084C5
:102E3000F185E02D86E893E00995892BA1F361E007
:102E400070E0C8010E944A09E0918603F09187036F
:102E50000084F185E02D86E893E00995892B69F0DF
:102E6000E0918603F09187030284F385E02D86E8E4
:102E700093E00995E9CFC801C4CFC8010E94EA18C0
:102E80008C8386E893E00E94FE0C6AEC70E086E892
:102E900093E00E945907CE0101960E94D20B64E58F
:102EA00086E893E00E945207CE0101960E94F90B3A
:102EB00086E893E00E94FE0C65E970E086E893E006
:102EC0000E945907E0918603F09187030084F18501
:102ED000E02D86E893E00995892BA1F361E070E08D
:102EE000C8010E944A09E0918603F091870300849B
:102EF000F185E02D86E893E00995892B59F0E09162
:102F00008603F09187030284F385E02D86E893E041
:102F10000995E9CF88858F7D893509F0F7CD81E066
:102F200080931B0388E680931D0310921C0310926C
:102F30001E0390E080E00E94950389810E945F0655
:102F4000682F8FE093E00E9438048A810E945F0618
:102F5000682F8FE093E00E9438048B810E945F0607
:102F6000682F8FE093E00E9438048C81811101C0AA
:102F700081E00E945F06682F8FE093E00E94380492
:102F80008D810E945F06682F8FE093E00E943804D5
:102F90008E810E945F06682F8FE093E00E943804C4
:102FA0008F810E945F06682F8FE093E00E943804B3
:102FB00081E00E9487032ECB0E94C60929833A83B1
:102FC0004B835C836D837E838F83CE0101960E9449
:102FD000D20B60E286E893E00E9452070E94C60985
:102FE00029833A834B835C836D837E838F83CE01F9
:102FF00001960E94F90B8CCC8091AE029091AF02A9
:103000008331910509F444C08431910509F44DC020
:1030100063E572E0429709F0AACC86E092E00E9454
:10302000F90C6091A6027091A7028091A80290917C
:10303000A9020E949D0C8CE791E00E94F90C26E603
:1030400036E646EE5FE36091A6027091A70280919A
:10305000A8029091A9020E94791920E030E040E096
:1030600052E40E94641A0E949D0C80E891E00E9444
:10307000F90C6091A2027091A3028091A402909138
:10308000A5020E949D0C85E891E00E94020DC2CA33
:103090008091B0029091B102181619061CF40E949A
:1030A000130DB8CA8AE090E0FACF82E292E00E9463
:1030B000F90C60910C0170910D0180910E019091BD
:1030C0000F010E949D0C8CE791E00E94F90C26E60E
:1030D00036E646EE5FE360910C0170910D01809140
:1030E0000E0190910F010E94791920E030E040E03C
:1030F00052E40E94641A0E949D0C80E891E00E94B4
:10310000F90C609108017091090180910A01909178
:103110000B010E949D0C87E492E00E94F90C6091E3
:1031200004017091050180910601909107010E94B0
:103130009D0C8CE791E00E94F90C26E636E646EEFF
:103140005FE3609104017091050180910601909107
:1031500007010E94791920E030E040E052E40E942B
:10316000641A0E949D0C80E891E00E94F90C609125
:10317000000170910101809102019091030181CFC2
:1031800068E372E0F4CBEC3008F018CA81E08E0FEF
:103190008093B202F0E0E050FD4FC082E82FF0E0F3
:1031A000E050FD4F10820ACAE0E0F3E081918823ED
:1031B00051F0082E000C990BC0970A9740F483E059
:1031C000EC30F80799F780E093E00C94EA188FEF61
:1031D0009FEF0895FC0188279927E89421912032D8
:1031E000E9F3293010F02E30C8F32B3241F02D32A4
:1031F00039F4689404C00E940B19820F911D21912B
:1032000020532A30C0F31EF4909581959F4F089566
:10321000F8940C94B61B7AE0979F902D879F802D91
:10322000910D112408950E94551908F481E0089524
:10323000E89409C097FB3EF4909580957095619550
:103240007F4F8F4F9F4F9923A9F0F92F96E9BB2706
:103250009395F695879577956795B795F111F8CF82
:10326000FAF4BB0F11F460FF1BC06F5F7F4F8F4FED
:103270009F4F16C0882311F096E911C0772321F0E3
:103280009EE8872F762F05C0662371F096E8862F7B
:1032900070E060E02AF09A95660F771F881FDAF7D2
:1032A000880F9695879597F90895990F0008550FFF
:1032B000AA0BE0E8FEEF16161706E807F907C0F0BC
:1032C00012161306E407F50798F0621B730B840BC4
:1032D000950B39F40A2661F0232B242B252B21F49E
:1032E00008950A2609F4A140A6958FEF811D811D3E
:1032F00008950E948C190C94FD190E94EF1938F062
:103300000E94F61920F0952311F00C94E6190C9404
:10331000EC1911240C94311A0E940E1A70F3959F27
:10332000C1F3950F50E0551F629FF001729FBB27BC
:10333000F00DB11D639FAA27F00DB11DAA1F649F58
:103340006627B00DA11D661F829F2227B00DA11D0B
:10335000621F739FB00DA11D621F839FA00D611D91
:10336000221F749F3327A00D611D231F849F600DB2
:10337000211D822F762F6A2F11249F5750409AF0DB
:10338000F1F088234AF0EE0FFF1FBB1F661F771F67
:10339000881F91505040A9F79E3F510580F00C9432
:1033A000E6190C94311A5F3FE4F3983ED4F3869506
:1033B00077956795B795F795E7959F5FC1F7FE2BD2
:1033C000880F911D9695879597F9089597F99F67AE
:1033D00080E870E060E008959FEF80EC089500249D
:1033E0000A941616170618060906089500240A946A
:1033F00012161306140605060895092E0394000CF0
:1034000011F4882352F0BB0F40F4BF2B11F460FF7E
:1034100004C06F5F7F4F8F4F9F4F089557FD9058A7
:10342000440F551F59F05F3F71F04795880F97FB88
:10343000991F61F09F3F79F0879508951216130642
:103440001406551FF2CF4695F1DF08C01616170671
:103450001806991FF1CF86957105610508940895A6
:10346000E894BB2766277727CB0197F90895F99948
:10347000FECF92BD81BDF89A992780B50895262F79
:10348000F999FECF1FBA92BD81BD20BD0FB6F89449
:10349000FA9AF99A0FBE0196089581E090E0F894A7
:1034A0000C94B61B9111089581568A5108F48052EC
:1034B00085580895FB01DC018D9101908019011060
:1034C000D9F3990B08955058BB27AA270E947B1A5D
:1034D0000C94FD190E94EF1938F00E94F61920F0A3
:1034E00039F49F3F19F426F40C94EC190EF4E0958E
:1034F000E7FB0C94E619E92F0E940E1A58F3BA174D
:10350000620773078407950720F079F4A6F50C94F9
:10351000301A0EF4E0950B2EBA2FA02D0B01B90135
:1035200090010C01CA01A0011124FF27591B99F039
:10353000593F50F4503E68F11A16F040A22F232F45
:10354000342F4427585FF3CF469537952795A79595
:10355000F0405395C9F77EF41F16BA0B620B730B3C
:10356000840BBAF09150A1F0FF0FBB1F661F771FAD
:10357000881FC2F70EC0BA0F621F731F841F48F462
:10358000879577956795B795F7959E3F08F0B0CFEB
:103590009395880F08F09927EE0F979587950895D2
:1035A0000E94E41A0C94FD190E94F61958F00E942A
:1035B000EF1940F029F45F3F29F00C94E6195111FE
:1035C0000C94311A0C94EC190E940E1A68F399238A
:1035D000B1F3552391F3951B550BBB27AA2762170F
:1035E0007307840738F09F5F5F4F220F331F441F1C
:1035F000AA1FA9F335D00E2E3AF0E0E832D0915050
:103600005040E695001CCAF72BD0FE2F29D0660F3C
:10361000771F881FBB1F261737074807AB07B0E87F
:1036200009F0BB0B802DBF01FF2793585F4F3AF085
:103630009E3F510578F00C94E6190C94311A5F3FC7
:10364000E4F3983ED4F3869577956795B795F7950B
:103650009F5FC9F7880F911D9695879597F90895F3
:10366000E1E0660F771F881FBB1F6217730784078F
:10367000BA0720F0621B730B840BBA0BEE1F88F79E
:10368000E09508950E94491B6894B1110C94311A79
:1036900008950E94161A88F09F5798F0B92F99271D
:1036A000B751B0F0E1F0660F771F881F991F1AF02D
:1036B000BA95C9F714C0B13091F00E94301AB1E048
:1036C00008950C94301A672F782F8827B85F39F047
:1036D000B93FCCF3869577956795B395D9F73EF4C6
:1036E00090958095709561957F4F8F4F9F4F08956E
:1036F0000E94551908F48FEF08950E945519880B00
:10370000990B0895991B79E004C0991F961708F04A
:10371000961B881F7A95C9F780950895A1E21A2E05
:10372000AA1BBB1BFD010DC0AA1FBB1FEE1FFF1F65
:10373000A217B307E407F50720F0A21BB30BE40BB5
:10374000F50B661F771F881F991F1A9469F76095FC
:103750007095809590959B01AC01BD01CF010895B6
:10376000EE0FFF1F0590F491E02D0994F894FFCF20
:103770000000FE420000FE42000000C3000000C343
:1037800008F40100000000D805B905AC0AAC0AE253
:10379000087705AC0A130500000000D805B90567D5
:1037A000049A05E2087705AE0A130500000000D16F
:1037B000067D0772061E07A3068106950600000017
:1037C0000038040B04AA07E1030404F103E2036ECA
:1037D000616E00696E66006F7666000D0A004E6FBE
:1037E00020646174610009002F003A004320280022
:1037F00046292C200025005265616420444854323B
:1038000032206661696C65642C206572723D0044EB
:103810003133004C4544004455414C00534554005D
:103820005354415455530056455253494F4E004846
:10383000454C50004F464600424C494E4B004C45CB
:1038400044530052454400475245454E00575249A3
:1038500054450052454144005254430044485400EA
:1038600043555252454E5400534156454400455825
:103870005452454D450043757272656E74207465EF
:103880006D70202F2068756D696469747920697383
:1038900020004D6178696D756D207265636F72648B
:1038A00065642074656D70202F2068756D6964698A
:1038B00074792069732000250A0D4D696D696D7555
:1038C0006D207265636F726465642074656D70202D
:1038D0002F2068756D696469747920697320000010
:00000001FF
