:100000000C9433030C945B030C945B030C945B0320
:100010000C945B030C945B030C945B030C945B03E8
:100020000C945B030C945B030C945B030C945B03D8
:100030000C945B030C945B030C945B030C945B03C8
:100040000C942D2A0C945B030C94FB290C94D52959
:100050000C945B030C945B030C945B030C945B03A8
:100060000C94B6280C945B03496E76616C6964202D
:10007000636F6D6D616E642C2074797065204845E6
:100080004C500053656E642027592720746F2073ED
:1000900065742074686520636C6F636B2C207365D6
:1000A0006E6420274E2720746F2073746172742051
:1000B000616761696E3A2000456E746572656420FF
:1000C00054696D657374616D703A2000456E746596
:1000D0007220446179204F66205765656B20283176
:1000E0002064696769742C20312D372C206172627D
:1000F0006974726172696C792031203D204D6F6E98
:100100002C2037203D2053756E293A2000456E740F
:100110006572205365636F6E6420283220646967BE
:100120006974732C2030302D3539293A2000456E02
:10013000746572204D696E7574652028322064697B
:10014000676974732C2030302D3539293A200045E9
:100150006E74657220486F7572202832206469675A
:100160006974732C20323420686F757220636C6F51
:10017000636B2C2030302D3233293A2000456E74C9
:10018000657220596561722028322064696769743C
:10019000732C2030302D3939293A2000456E746592
:1001A00072204D6F6E74682028322064696769740C
:1001B000732C2030312D3132293A2000456E746580
:1001C0007220446179206F66204D6F6E746820281C
:1001D00032206469676974732C2030312D333129E2
:1001E0003A2000436C6F636B206973207365742041
:1001F0007768656E20616C6C20646174612069733E
:1002000020656E746572656420616E6420796F7517
:100210002073656E642027592720746F20636F6EEA
:100220006669726D2E004C454420526564004C4551
:100230004420477265656E004C4544206F66660039
:10024000426C696E6B696E6720626F7468206F6EB6
:10025000206475616C204C454400426C696E6B698A
:100260006E672072656400426C696E6B696E672010
:10027000677265656E00443133206F6E0044313320
:10028000206F666600426C696E6B696E6720443150
:100290003300E2949CE29480E29480204144442024
:1002A0005820590A0DE2949CE29480E29480204404
:1002B00031330A0DE29482C2A0C2A020E2949CE2F3
:1002C0009480E2948020424C494E4B0A0DE2948285
:1002D000C2A0C2A020E2949CE29480E29480204FCD
:1002E00046460A0DE29482C2A0C2A020E29494E2A3
:1002F0009480E29480204F4E0A0DE2949CE2948018
:10030000E29480205247420A0DE29482C2A0C2A029
:1003100020E2949CE29480E2948020312052204795
:100320002042202852474220636F6C6F7220312098
:10033000302D323535290A0DE29482C2A0C2A020A8
:10034000E2949CE29480E294802032205220472064
:1003500042202852474220636F6C6F722032203057
:100360002D3235350A0DE29482C2A0C2A020E2945B
:1003700094E29480E294802053455420424C494EAC
:100380004B2058202864656C617920696E206D735C
:10039000290A0DE2949CE29480E29480204448541F
:1003A000202874656D706572617475726520616E68
:1003B000642068756D69646974792073656E736F04
:1003C0007273290A0DE29482C2A0C2A020E2949C1A
:1003D000E29480E294802043555252454E540A0DD7
:1003E000E29482C2A0C2A020E2949CE29480E294B3
:1003F000802045585452454D450A0DE29482C2A0D2
:10040000C2A020E2949CE29480E294802053415662
:1004100045442058202858206973206F7074696FF4
:100420006E616C2C20686F77206D616E792064613D
:10043000746120706F696E747320746F20707269BC
:100440006E74290A0DE29482C2A0C2A020E29494A4
:10045000E29480E294802052455345540A0DE29480
:100460009CE29480E29480204C45440A0DE2948200
:10047000C2A0C2A020E2949CE29480E29480204238
:100480004C494E4B0A0DE29482C2A0C2A020E294D5
:1004900082C2A0C2A020E2949CE29480E2948020D8
:1004A0004455414C0A0DE29482C2A0C2A020E294BD
:1004B00082C2A0C2A020E2949CE29480E2948020B8
:1004C000475245454E0A0DE29482C2A0C2A020E2E6
:1004D0009482C2A0C2A020E29494E29480E294802C
:1004E000205245440A0DE29482C2A0C2A020E294A8
:1004F0009CE29480E2948020475245454E0A0DE2EA
:100500009482C2A0C2A020E2949CE29480E29480F3
:10051000204F46460A0DE29482C2A0C2A020E29477
:1005200094E29480E29480205245440A0DE2949C27
:10053000E29480E2948020525443202874696D65CF
:1005400020636C6F636B290A0DE29482C2A0C2A083
:1005500020E2949CE29480E2948020524541440A37
:100560000DE29482C2A0C2A020E29494E29480E2C0
:1005700094802057524954450A0DE2949CE294809D
:10058000E294802053455420424C494E4B20582041
:10059000287365747320666F7220616C6C204C4503
:1005A00044732C206D696E200056657273696F6EFE
:1005B0003A2000457865637574696E6720636F6DD6
:1005C0006D616E642066726F6D205544502E00453B
:1005D0006E74657220636F6D6D616E6473206F72EF
:1005E000202748454C50270052652D656E74657272
:1005F0002074686520636F6D6D616E6400436F6E7B
:1006000074656E74733A0000000000250028002B0A
:100610000000000000240027002A00000000002342
:100620000026002900040404040404040402020255
:100630000202020303030303030102040810204023
:1006400080010204081020010204081020000000AC
:100650000800020100000304070000000000000081
:1006600000323000212C11241FBECFEFD8E0DEBFB6
:10067000CDBF13E0A0E0B1E0ECE0F7E602C00590EA
:100680000D92A83DB107D9F726E0A8EDB3E001C06F
:100690001D92AE37B207E1F713E0C3E3D3E004C025
:1006A0002197FE010E947733C233D107C9F70E9418
:1006B000432C0C9455300C940000813208F041C05A
:1006C0009091C0059111FCCF91E09093C00590935B
:1006D000BF052FEF2093BE051092BD05280F209374
:1006E000BC059093BB059091BB05906D9093BB05A5
:1006F0009091BA059130F9F41092BA059091BB052A
:100700009093BB009091BC0093FDF8CF95EC909333
:10071000BC009091C0059130E1F39091BD05981710
:1007200010F48091BD05AAE9B5E0E1ECF5E090E0B8
:10073000981303C0089595EEEACF2D9121939F5F02
:10074000F7CF80E00895613208F048C09091C0056D
:100750009111FCCF92E09093C0054093BF059FEFAD
:100760009093BE051092BD056093BC05AAE7B5E065
:10077000EAE9F5E090E069132BC01092BB05909177
:10078000BB05880F892B8093BB058091BA0581300A
:1007900019F51092BA058091BB058093BB0080913A
:1007A000BC0083FDF8CF85EC8093BC008091C00530
:1007B0008230E1F38091BE058F3F91F08091BE05BC
:1007C000803281F08091BE05803371F084E008951D
:1007D0002D9121939F5FCFCF85EEE6CF81E00895E5
:1007E00080E0089582E0089583E00895482F6091A5
:1007F0007905809178050E94A303109277051092E5
:1008000079051092760508958CBD9DBD0895E091FF
:100810006A05F0916B050190F081E02D682F8AE662
:1008200095E0099489E194E090933505809334052F
:100830000895089581E294E0909333058093320502
:1008400008950895FC0120812EBD9B01215031099E
:1008500041F051810DB407FEFDCF4EB55EBD419311
:10086000F5CF61507109860F971F0DB407FEFDCFBC
:100870002EB5FC0120830895E091F904F091FA046B
:1008800080819091F804892B80830895E091F90488
:10089000F091FA0490818091F804809589238083F7
:1008A00008958EBD00000DB407FEFDCF8EB50895EE
:1008B000AF92BF92CF92DF92EF92FF920F931F936E
:1008C000CF93DF93CDB7DEB728970FB6F894DEBF8E
:1008D0000FBECDBF8C017B016A0180912A05833355
:1008E000E1F45801A40EB51EA016B10609F46FC0BC
:1008F0000E94460480EF0E945104812F0E945104FF
:10090000802F0E9451040F5F1F4FF70181917F01DB
:100910000E9451040E943C04E7CF5B01A40EB51E67
:100920008433C1F40E94460419830A838D2D8068A4
:100930008B83CC8264E070E0CE0101960E94220499
:10094000AE14BF0409F441C0F70181917F010E94F8
:100950005104F6CF0E9446040F3F110509F028F418
:1009600019820A8384E08B830CC017FD17C019829B
:100970000A8333E0169507953A95E1F7007E0C60FF
:100980000B8386E0C816D104A0F5F701DE011496AA
:10099000EA15FB0599F081918D93FACFC80126E005
:1009A000969587952A95E1F7807E19830A8301152C
:1009B000104C10F48461D7CF8C61D5CFB6016D5F38
:1009C0007F4FCE0101960E9422040E943C04C60182
:1009D00028960FB6F894DEBF0FBECDBFDF91CF9142
:1009E0001F910F91FF90EF90DF90CF90BF90AF904D
:1009F000089563E070E0CE0101960E942204F701A1
:100A000081917F010E945104AE14BF04C1F7DDCF74
:100A1000CF93DF931F92CDB7DEB7898341E050E0DB
:100A2000BE016F5F7F4F90E080E00E9458040F90FE
:100A3000DF91CF91089590E020912A05233339F476
:100A40000C96982F990F990F990F80E0089548966A
:100A5000F8CFDA01E0913605F0E0FE2FEE27E60F41
:100A6000F71F90E0982F8827A901BD018E0F9F1FC7
:100A70000C945804CF93DF9300D0CDB7DEB77983C1
:100A80006A8322E030E0AE014F5F5F4F64E070E0C8
:100A90000E9429050F900F90DF91CF910895CF9379
:100AA000DF931F92CDB7DEB72091360530E0322FAD
:100AB0002227260F371F90E0982F8827498341E08F
:100AC00050E0BE016F5F7F4F820F931F0E9458045A
:100AD0000F90DF91CF91089585ED8093BC008091B8
:100AE000BC0084FDFCCF1092C00508952091C9047C
:100AF000260F3327331F21323105ECF42091C00536
:100B0000FC0190E080E0243069F082E00895A0913B
:100B1000C9042191AC0147555B4FA40FB52FB11DFE
:100B20002C930196861798F38091C904680F6093FF
:100B3000C90480E0089581E008950895E091690571
:100B400080916805E81730F4F0E0EF53FA4F8081A8
:100B500090E008958FEF9FEF08959091690580913F
:100B600068052FEF3FEF981748F4E92FF0E0EF53B7
:100B7000FA4F208130E09F5F90936905C901089585
:100B80008091680590916905891B990B0895CF9212
:100B9000DF92EF92FF920F931F93CF93DF937C012D
:100BA000CB018A0120917605222389F0EB016B01AC
:100BB000C40ED51ECC15DD0569F06991D701ED9104
:100BC000FC910190F081E02DC7010995F3CF642FCE
:100BD0000E947605C801DF91CF911F910F91FF9080
:100BE000EF90DF90CF900895CF93DF931F92CDB712
:100BF000DEB76983209176052223F9F020917905EB
:100C0000203258F021E030E0FC013383228390E071
:100C100080E00F90DF91CF91089580917705E82FC4
:100C2000F0E0E658FA4F998190838F5F80937705C3
:100C30008093790581E090E0ECCF61E0CE010196F0
:100C40000E947605F7CF0895CF93DF931F92CDB71B
:100C5000DEB76983DC01ED91FC910280F381E02D28
:100C600041E050E0BE016F5F7F4F09950F90DF912B
:100C7000CF910895DF92EF92FF920F931F93CF933E
:100C8000DF9300D0CDB7DEB7FB01DC0157961C9295
:100C90001E9256972281211109C02381211106C07D
:100CA0002481211103C02581222369F141155105B9
:100CB00051F17A018F01FC01D08C80E591E00E9416
:100CC0000404A8014E5F5F4F24E030E06CE070E068
:100CD0008D2D0E942905F982EA8222E030E0AE01E2
:100CE0004F5F5F4F60E170E08D2D0E94290581E02C
:100CF00090E00F900F90DF91CF911F910F91FF9097
:100D0000EF90DF90089580E0F3CFFC01818D928D0C
:100D10000895FC01848595850895FC018489958951
:100D2000089527EC31E0FC0131832083FB014089E9
:100D3000518962897389FC0142835383648375837B
:100D400008956F927F928F929F92AF92BF92CF92AF
:100D5000DF92EF92FF920F931F93CF93DF93CDB764
:100D6000DEB7AC970FB6F894DEBF0FBECDBFDC0187
:100D70001696ED91FC91319609F48BC059013A0118
:100D80006B018C01FE0131964F0188E2DF011D925B
:100D90008A95E9F7D801ED91FC910484F585E02D61
:100DA000B401C80109957C01892B09F05CC01AA621
:100DB00019A61CA61BA6D801ED91FC910684F78507
:100DC000E02D9E01255D3F4FAE01475D5F4FB401B1
:100DD000C80109957C01892B09F045C0A114B10413
:100DE00039F088E2F401D50101900D928A95E1F77E
:100DF000C114D10409F189A59AA521E030E097FF3B
:100E000002C02FEF3FEF9F77829FB001839F700D4D
:100E1000929F700D1124072E000C880B990B0E94D5
:100E2000973020E030E040E251E40E948B32F6013E
:100E3000608371838283938361147104A1F06BA535
:100E40007CA5072E000C880B990B0E94973020E0A0
:100E500030E040E251E40E948B32D3016D937D93E8
:100E60008D939C931397C701AC960FB6F894DEBF91
:100E70000FBECDBFDF91CF911F910F91FF90EF90EB
:100E8000DF90CF90BF90AF909F908F907F906F90AA
:100E9000089587E1E82EF12CE6CF8F929F92AF92D2
:100EA000BF92CF92DF92EF92FF920F931F93CF9357
:100EB000DF93EC018B016A017901E881F9810284F9
:100EC000F385E02D0995B82EB801685F7F4FE88162
:100ED000F9810284F385E02DCE010995982EB801A1
:100EE000605F7F4FE881F9810284F385E02DCE01B8
:100EF0000995A82EB801685E7F4FE881F9810284C8
:100F0000F385E02DCE010995882EB801605E7F4FF4
:100F1000E881F9810284F385E02DCE0109959B2DAE
:100F2000990D9A0D980D891319C09A2D882DF601E7
:100F3000918380839B2D892DF7019183808390E09D
:100F400080E0DF91CF911F910F91FF90EF90DF90A4
:100F5000CF90BF90AF909F908F90089585E190E0E3
:100F6000F0CF47E050E080E0FB012191BF01042E6B
:100F700001C0220F0A94EAF7820F41505109A0F7ED
:100F80000895DC0117967C936E931697FB01E75C3E
:100F9000F94FE4911896EC9318976B5D794FFB012C
:100FA000649119966C930895CF92DF92EF92FF921D
:100FB0000F931F93CF93DF93EC017A0169010E9495
:100FC000C107E881F9810480F581E02D9801A6012F
:100FD000B701CE01DF91CF911F910F91FF90EF905C
:100FE000DF90CF900994CF92DF92EF92FF920F9310
:100FF0001F93CF93DF93EC017A0169010E94C1072F
:10100000E881F9810190F081E02D9801A601B701F6
:10101000CE01DF91CF911F910F91FF90EF90DF9064
:10102000CF900994CF92DF92EF92FF920F931F938C
:10103000CF93DF93CDB7DEB728970FB6F894DEBF16
:101040000FBECDBFDC011696ED91FC91319609F4EF
:1010500040C08A017B0119821A821B821C821D8278
:101060001E821F821886DC01ED91FC910480F581BF
:10107000E02DAE014B5F5F4FBE016F5F7F4F099563
:101080006C01892BB1F4E114F10441F069817A819A
:101090008B819C810E94FD32F7016083011511054F
:1010A00041F06D817E818F8198850E94FD32D8014B
:1010B0006C93C60128960FB6F894DEBF0FBECDBF65
:1010C000DF91CF911F910F91FF90EF90DF90CF9024
:1010D000089587E1C82ED12CECCFCF93C62F91E095
:1010E0009093760598E69093780510927705109284
:1010F0007905682F8AE695E00E94F4056C2F8AE650
:1011000095E00E94F40581E0CF910C94F60391E004
:101110009093760598E69093780510927705109253
:101120007905682F8AE695E00E94F40581E00C9429
:10113000F6036AE00E944333292F30E1839FC00108
:101140001124822B0895982F92959F708F702AE01A
:10115000929F800D11240895FC01538D448D252FFD
:1011600030E0842F90E0821B930B541710F0CF9641
:10117000089501970895FC01918D828D981761F073
:10118000A28DAE0FBF2FB11D5D968C91928D9F5F8A
:101190009F73928F90E008958FEF9FEF0895FC0169
:1011A000918D828D981731F0828DE80FF11D858D1C
:1011B00090E008958FEF9FEF0895FC01918D228DAF
:1011C000892F90E0805C9F4F821B91098F73992734
:1011D0000895FC01A48DA80FB92FB11DA35ABF4FCC
:1011E0002C91848D90E001968F739927848FA68926
:1011F000B7892C93A089B1898C91837080648C937A
:10120000938D848D981306C00288F389E02D808128
:101210008F7D80830895EF92FF920F931F93CF935A
:10122000DF93EC0181E0888F9B8D8C8D98131AC021
:10123000E889F989808185FF15C09FB7F894EE8908
:10124000FF896083E889F989808183708064808365
:101250009FBF81E090E0DF91CF911F910F91FF90B0
:10126000EF900895F62E0B8D10E00F5F1F4F0F7358
:101270001127E02E8C8D8E110CC00FB607FCFACF13
:10128000E889F989808185FFF5CFCE010E94E908C0
:10129000F1CFEB8DEC0FFD2FF11DE35AFF4FF082E4
:1012A0009FB7F8940B8FEA89FB8980818062CFCF4A
:1012B000CF93DF93EC01888D8823B9F0AA89BB898D
:1012C000E889F9898C9185FD03C0808186FD0DC078
:1012D0000FB607FCF7CF8C9185FFF2CF808185FF99
:1012E000EDCFCE010E94E908E9CFDF91CF910895BB
:1012F00081EE95E00E94DD0821E0892B09F420E0D1
:10130000822F089580E090E0892B29F00E947809CF
:1013100081110C9400000895DC01ED91FC91019085
:10132000F081E02D0994EF92FF920F931F93CF93DA
:10133000DF938C017B01D0E0C0E0F701EC0FFD1FD3
:101340006491662361F0D801ED91FC910190F081E8
:10135000E02DC8010995892B11F02196EECFCE0121
:10136000DF91CF911F910F91FF90EF900895AF9271
:10137000BF92CF92DF92EF92FF920F931F93CF9382
:10138000DF936C017B018B01040F151FEB015E01E4
:10139000AE18BF08C017D10759F06991D601ED9179
:1013A000FC910190F081E02DC6010995892B79F718
:1013B000C501DF91CF911F910F91FF90EF90DF90CA
:1013C000CF90BF90AF9008950895833081F028F4B6
:1013D000813099F08230A9F008958730A9F08830E3
:1013E000C9F08430B1F4809180008F7D03C080917A
:1013F00080008F7780938000089584B58F7784BDB7
:10140000089584B58F7DFBCF8091B0008F77809356
:10141000B00008958091B0008F7DF9CFCF93DF9316
:10142000EAE5F6E08491E6E4F6E0D491E2E3F6E062
:10143000C491CC23A1F081110E94E509EC2FF0E0CA
:10144000EE0FFF1FE55EF94FA591B491EC91ED23EE
:1014500081E090E009F480E0DF91CF91089580E091
:1014600090E0FACF1F93CF93DF93282F30E0F9015C
:10147000E35BF94F8491F901E75CF94FD491F901ED
:10148000EB5DF94FC491CC23A9F0162F81110E9476
:10149000E509EC2FF0E0EE0FFF1FE95FF94FA59192
:1014A000B4918FB7F894EC91111108C0D095DE2358
:1014B000DC938FBFDF91CF911F910895DE2BF8CF82
:1014C0001092C00581E08093BF051092BA0561E0DB
:1014D00082E10E94320A61E083E10E94320AE9EB74
:1014E000F0E080818E7F808380818D7F808388E49F
:1014F0008093B80085E48093BC000895CF93DF9378
:1015000090E0FC01E75CF94F24918B5D994FFC0161
:1015100084918823D1F090E0880F991FFC01EF5E41
:10152000F94FA591B491FC01E95FF94FC591D491B0
:1015300061110EC09FB7F8948C91E22FE0958E2335
:101540008C932881E223E8839FBFDF91CF91089598
:101550008FB7F894EC91E22BEC938FBFF6CF789491
:1015600084B5826084BD84B5816084BD85B58260A8
:1015700085BD85B5816085BDEEE6F0E08081816046
:101580008083E1E8F0E01082808182608083808146
:1015900081608083E0E8F0E0808181608083E1EB1E
:1015A000F0E0808184608083E0EBF0E08081816006
:1015B0008083EAE7F0E080818460808380818260BC
:1015C00080838081816080838081806880831092A5
:1015D000C10008958130910539F0880F991F880F57
:1015E000991F05970197F1F708953FB7F8948091F7
:1015F000030490910404A0910504B091060426B55B
:10160000A89B05C02F3F19F00196A11DB11D3FBF3A
:10161000BA2FA92F982F8827BC01CD01620F711D09
:10162000811D911D42E0660F771F881F991F4A9503
:10163000D1F708957F928F929F92AF92BF92CF92EF
:10164000DF92EF92FF920F931F93CF93DF93EC0102
:10165000162F7A0169010E94F50A4B015C01712C79
:101660001111788410E000E060E070E0CB012A8185
:101670003B814C815D812617370748075907F4F0F5
:101680000115110561F5C7011E141F0464F10E94C4
:10169000F50A681979098A099B09E985F0E0EE0FD6
:1016A000FF1FE55EF94FA591B4912C910F5F1F4F7D
:1016B00038852323271105C097FFD9CF6FEF7FEF20
:1016C000CB01DF91CF911F910F91FF90EF90DF90B1
:1016D000CF90BF90AF909F908F907F9008951C14F3
:1016E0001D04ACF6C6010E94EA0AD1CF8F929F92E8
:1016F000AF92BF92CF92DF92EF92FF924B015C01CB
:101700000E94F50A6B017C010E94F50A6C197D09A3
:101710008E099F09683E734081059105A8F321E079
:10172000821A9108A108B10888EEC80E83E0D81E7D
:10173000E11CF11C81149104A104B10429F7FF906C
:10174000EF90DF90CF90BF90AF909F908F900895D3
:101750002FB7F8946091FF03709100048091010409
:10176000909102042FBF08958F929F92AF92BF92E3
:10177000EF92FF920F931F93CF93DF937B018C0126
:10178000D0E0C0E00E94A80B6093E9057093EA05E1
:101790008093EB059093EC05E091E105F091E20573
:1017A0000284F385E02D81EE95E0099597FF27C02F
:1017B0000E94A80B8090E9059090EA05A090EB05A7
:1017C000B090EC05681979098A099B098090E505B4
:1017D0009090E605A090E705B090E80568157905BA
:1017E0008A059B05C8F2CE01DF91CF911F910F9121
:1017F000FF90EF90BF90AF909F908F900895F80169
:1018000081938F012196EC16FD0609F0BBCFEBCF3B
:101810004F925F926F927F929F92AF92BF92CF92C0
:10182000DF92EF92FF920F931F93CF93DF9300D03D
:101830001F92CDB7DEB7F82E8091580590915905CB
:10184000A0915A05B0915B05892B8A2B8B2BD9F07F
:101850000E94F50A009164051091650520916605C6
:1018600030916705601B710B820B930B009158053B
:101870001091590520915A0530915B056017710749
:1018800082079307C8F20E94F50A6093640570937B
:1018900065058093660590936705E0916005F0917A
:1018A0006105309759F040915C0550915D0560915C
:1018B0005E0570915F058F2D0995F82E00916205E8
:1018C000109163054F2C512C712C612C01151105C1
:1018D00009F45EC0D8011C96EC901C9780915605C7
:1018E000909157058436910510F41C961C92D801EE
:1018F000ED91FC91A280B38019821A821B82FF2095
:1019000089F1F8013696D12CC12C2191222319F1AD
:101910009280992001F130E050E040E02F5F3F4F8E
:101920004F4F5F4FC301B2010E9433339B01AC01A3
:10193000892D90E0B0E0A0E0BC01CD016F5F7F4F4A
:101940008F4F9F4F0E943333A1E0B0E0AC0FBD1F1B
:10195000AC0DBD1D8C93BFEFCB1ADB0A83E0C8161C
:10196000D10499F6D8011D964D915C911E9712965F
:101970006D917C919E012F5F3F4FC801F501099544
:10198000D8011C96EC921C9714960D911C919ECF39
:1019900080915305909154058C010F5F1F4F109358
:1019A00054050093530549978CF10E94A80B9B01A5
:1019B000AC0188EE93E0089FB001099F700D189F5D
:1019C000700D1124072E000C880B990BC0904F0549
:1019D000D0905005E0905105F09052052C193D092A
:1019E0004E095F090E94BA3130935705209356057E
:1019F00010925405109253050E94A80B60934F0556
:101A00007093500580935105909352050F900F905D
:101A10000F90DF91CF911F910F91FF90EF90DF908A
:101A2000CF90BF90AF909F907F906F905F904F90BE
:101A300008950F931F93CF93DF932091F1032F5FAE
:101A4000322F37703093F10320FF2BC020E831FD97
:101A50002064347009F02062205FFC01EC012396C1
:101A600000E011E06485662329F070E0C8010E945F
:101A700063336F5F6187322F369F030E30E0311D75
:101A80001124311110C01682662311F06150618754
:101A90003196EC17FD0731F7DF91CF911F910F9130
:101AA000089520E0D4CF31503683EECF4F925F922D
:101AB0006F927F928F92AF92BF92CF92DF92EF920E
:101AC0000F931F93CF93DF933C01EB010E94F50A24
:101AD000F30127853089621B730B6A307105B0F3FF
:101AE000F894E881F9817BB170646BB16F7B6BB95D
:101AF000CA848F812C2D281B822F2F83BF844A807C
:101B00005B801D850C85DE841F5F0F5FD3949E81F3
:101B10003885A984EB844181D20120E0C32F522F64
:101B2000322F3181442788943111380F08F43FEF68
:101B30008195889410FD430F4795889411FD430FBC
:101B40004795889412FD430F4795889413FD430FE2
:101B50004795889414FD430F4795889415FD430FCE
:101B60004795889416FD430F4795889417FD430FBA
:101B700047958894232F1111242F8C0D422F002C70
:101B80007BB900C047FF6BB930812227889400C021
:101B900000C0002C6BB93111390F00C0002C7BB98B
:101BA00000C046FF6BB908F43FEF9195889400C0E0
:101BB00000C0002C6BB900FD230F00C0002C7BB9C6
:101BC00000C045FF6BB92795889401FD230F00C025
:101BD00000C0002C6BB92795889400C0002C7BB9FD
:101BE00000C044FF6BB902FD230F2795889400C005
:101BF00000C0002C6BB903FD230F00C0002C7BB983
:101C000000C043FF6BB92795889404FD230F00C0E3
:101C100000C0002C6BB92795889400C0002C7BB9BC
:101C200000C042FF6BB905FD230F2795889400C0C3
:101C300000C0002C6BB906FD230F00C0002C7BB93F
:101C400000C041FF6BB92795889407FD230F00C0A2
:101C500000C0002C6BB92795889400C0002C7BB97C
:101C600000C040FF6BB9432F0111422F9A0D00C0F5
:101C700000C0002C6BB900C000C0002C7BB900C0B4
:101C800047FF6BB932812227889400C000C0002C26
:101C90006BB931113C0F00C0002C7BB900C046FF6E
:101CA0006BB908F43FEFEB0DF11D00C000C0002C34
:101CB0006BB9D0FC230F00C0002C7BB900C045FFDE
:101CC0006BB927958894D1FC230F00C000C0002C6D
:101CD0006BB92795889400C0002C7BB900C044FFE5
:101CE0006BB9D2FC230F2795889400C000C0002C4C
:101CF0006BB9D3FC230F00C0002C7BB900C043FF9D
:101D00006BB927958894D4FC230F00C000C0002C29
:101D10006BB92795889400C0002C7BB900C042FFA6
:101D20006BB9D5FC230F2795889400C000C0002C08
:101D30006BB9D6FC230F00C0002C7BB900C041FF5B
:101D40006BB927958894D7FC230F00C000C0002CE6
:101D50006BB92795889400C0002C7BB900C040FF68
:101D60006BB9432FD110422FC19500C000C0002C89
:101D70006BB9CE0D00C000C07BB900C047FF6BB986
:101D800031812227889400C000C0002C6BB931112A
:101D9000380F00C0002C7BB900C046FF6BB908F4B7
:101DA0003FEF8195889400C000C0002C6BB910FDF6
:101DB000230F00C0002C7BB900C045FF6BB92795ED
:101DC000889411FD230F00C000C0002C6BB927952B
:101DD000889400C0002C7BB900C044FF6BB912FD91
:101DE000230F2795889400C000C0002C6BB913FD09
:101DF000230F00C0002C7BB900C043FF6BB92795AF
:101E0000889414FD230F00C000C0002C6BB92795E7
:101E1000889400C0002C7BB900C042FF6BB915FD4F
:101E2000230F2795889400C000C0002C6BB916FDC5
:101E3000230F00C0002C7BB900C041FF6BB9279570
:101E4000889417FD230F00C000C0002C6BB92795A4
:101E5000889400C0002C7BB900C040FF6BB9432FB1
:101E60001111422F8C0D00C000C0002C6BB91197CE
:101E700009F086CE20EE31E0D2010E947D33DC01F4
:101E8000CB01F4E0B695A79597958795FA95D1F78C
:101E900030E020E0B901EAE94E9E040C611D5E9E2F
:101EA000600D711D1124650D711D860F971FA11DF9
:101EB000B11D893E43E09407A105B10508F434C083
:101EC000885E9340A109B10942E0B695A795979520
:101ED00087954A95D1F747E0849F080E211D949F6E
:101EE000200D311D1124290F311D6091F00370E088
:101EF000860F971F820F931F4091FF03509100049C
:101F00006091010470910204292F3327420F531F5F
:101F1000611D711D4093FF03509300046093010401
:101F2000709302048093F00378940E94F50AF30101
:101F3000708B6787DF91CF911F910F91EF90DF90AA
:101F4000CF90BF90AF908F907F906F905F904F90A9
:101F5000089580E991E00895569A08950F931F938C
:101F6000CF93DF93CDB7DEB762970FB6F894DEBF9D
:101F70000FBECDBF8C01F901DC011C968C917A83D8
:101F800069835C834B835E834D8390819D879181C0
:101F90009E8792819F878130F1F4CE0101960E9445
:101FA000190D83E0888B1A8A198AD801ED91FC916A
:101FB0000484F585E02DBE016F5F7F4FC801099550
:101FC00062960FB6F894DEBF0FBECDBFDF91CF9102
:101FD0001F910F9108951C861B861A8619861886F4
:101FE0001F82DFCF0F931F93CF93DF93CDB7DEB761
:101FF00062970FB6F894DEBF0FBECDBF8C01F9011A
:10200000DC011C968C917A8369835C834B835E83AD
:102010004D8390819D8791819E8792819F8781309A
:10202000E9F4CE0101960E94190D188A1A8A198ABC
:10203000D801ED91FC910484F585E02DBE016F5F20
:102040007F4FC801099562960FB6F894DEBF0FBEA8
:10205000CDBFDF91CF911F910F9108951C861B86F4
:102060001A86198618861F82E0CF90E080E00895D6
:10207000FC01858596850895CF93DF9300D000D02D
:1020800000D0CDB7DEB7AB011C821D821E82DC0101
:10209000ED91FC910190F081E02D19821A821B8252
:1020A0009E012F5F3F4FBE016C5F7F4F09952696C3
:1020B0000FB6F894DEBF0FBECDBFDF91CF9108956C
:1020C00090E080E00895DC01ED91FC91048CF58DA9
:1020D000E02D0994BF92CF92DF92EF92FF920F937F
:1020E0001F93CF93DF9300D000D000D01F92CDB7C5
:1020F000DEB780E00E94870887E00E945D031092AF
:102100006905809368058730E1F58AE695E00E94CD
:10211000AD050E94A308B82E8AE695E00E94AD05A1
:102120000E94A308C82E8AE695E00E94AD05182FEC
:1021300086FF3EC08F710E94A3080CE015FD00E0F1
:10214000080F8AE695E00E94AD050E94A308D82EEC
:102150008AE695E00E94AD050E94A308E82E8AE673
:1021600095E00E94AD0510E087FD14E68F770E9490
:10217000A308F82E8AE695E00E94AD050E94A30808
:10218000180F2B2D3C2D402F5D2DB701812F90E096
:1021900027960FB6F894DEBF0FBECDBFDF91CF916B
:1021A0001F910F91FF90EF90DF90CF90BF90089517
:1021B0008F730E94A308082FC4CFCF93DF93EB0146
:1021C0000E94870881E00E945D0310926905809358
:1021D00068058AE695E00E94AD05888381E0DF917D
:1021E000CF910895EF92FF921F93CF93DF931F92A9
:1021F000CDB7DEB77C01162FBE016F5F7F4F8EE03B
:102200000E94DD10811108C080E00F90DF91CF9116
:102210001F91FF90EF90089581E08093760588E606
:10222000809378051092770510927905113089F521
:1022300087E090E00E940704F70180810E949908DE
:1022400090E00E940704898185608983F70181817C
:102250000E94990890E00E940704F70182810E9481
:10226000990890E00E940704F70184810E94990870
:1022700090E00E94070481E00E94F6038111C4CF20
:1022800069818EE00E946D088111BECF812F877019
:10229000BCCF8BE090E00E94070489818660D5CF97
:1022A000CF93C0914E05C530B0F469EC71E081E484
:1022B00095E00E941532892B81F481E08C0F809388
:1022C0004E05EC2FF0E0EE0FFF1FE95CFA4F80E8BF
:1022D0009FEF91838083CF9108956DEC71E081E44D
:1022E00095E00E941532892B69F481E08C0F809370
:1022F0004E05EC2FF0E0EE0FFF1FE95CFA4F88E887
:102300009FEFE7CF69E272E081E495E00E94153229
:10231000892B69F481E08C0F80934E05EC2FF0E05F
:10232000EE0FFF1FE95CFA4F81E89FEFD2CF62ED1D
:1023300071E081E495E00E941532892B69F481E017
:102340008C0F80934E05EC2FF0E0EE0FFF1FE95C41
:10235000FA4F82E89FEFBDCF64EC72E081E495E034
:102360000E941532892B69F481E08C0F80934E0511
:10237000EC2FF0E0EE0FFF1FE95CFA4F83E89FEFD0
:10238000A8CF69ED71E081E495E00E941532892BB8
:1023900069F481E08C0F80934E05EC2FF0E0EE0F96
:1023A000FF1FE95CFA4F84E89FEF93CF69EC72E07E
:1023B00081E495E00E941532892B69F481E08C0F4D
:1023C00080934E05EC2FF0E0EE0FFF1FE95CFA4F13
:1023D00089E89FEF7ECF6EED71E081E495E00E9489
:1023E0001532892B69F481E08C0F80934E05EC2F18
:1023F000F0E0EE0FFF1FE95CFA4F8AE89FEF69CF2C
:1024000062EE71E081E495E00E941532892B69F457
:1024100081E08C0F80934E05EC2FF0E0EE0FFF1F54
:10242000E95CFA4F8BE89FEF54CF68EE71E081E4EE
:1024300095E00E941532892B69F481E08C0F80931E
:102440004E05EC2FF0E0EE0FFF1FE95CFA4F85E838
:102450009FEF3FCF6DEE71E081E495E00E94153271
:10246000892B69F481E08C0F80934E05EC2FF0E00E
:10247000EE0FFF1FE95CFA4F87E89FEF2ACF61EF6D
:1024800071E081E495E00E941532892B69F481E0C6
:102490008C0F80934E05EC2FF0E0EE0FFF1FE95CF0
:1024A000FA4F86E89FEF15CF67EF71E081E495E082
:1024B0000E941532892B69F481E08C0F80934E05C0
:1024C000EC2FF0E0EE0FFF1FE95CFA4F8DE89FEF75
:1024D00000CF69E972E081E495E00E941532892B12
:1024E00069F481E08C0F80934E05EC2FF0E0EE0F45
:1024F000FF1FE95CFA4F8EE89FEFEBCE6DEF71E0C6
:1025000081E495E00E941532892B69F481E08C0FFB
:1025100080934E05EC2FF0E0EE0FFF1FE95CFA4FC1
:102520008FE89FEFD6CE61E072E081E495E00E94F3
:102530001532892B69F481E08C0F80934E05EC2FC6
:10254000F0E0EE0FFF1FE95CFA4F80E99FEFC1CE8C
:1025500065E072E081E495E00E941532892B69F410
:1025600081E08C0F80934E05EC2FF0E0EE0FFF1F03
:10257000E95CFA4F81E99FEFACCE6DE072E081E457
:1025800095E00E941532892B69F481E08C0F8093CD
:102590004E05EC2FF0E0EE0FFF1FE95CFA4F82E9E9
:1025A0009FEF97CE63E172E081E495E00E941532DF
:1025B000892B69F481E08C0F80934E05EC2FF0E0BD
:1025C000EE0FFF1FE95CFA4F83E99FEF82CE6BE1CC
:1025D00072E081E495E00E941532892B69F481E074
:1025E0008C0F80934E05EC2FF0E0EE0FFF1FE95C9F
:1025F000FA4F84E99FEF6DCE6FE172E081E495E0E0
:102600000E941532892B69F481E08C0F80934E056E
:10261000EC2FF0E0EE0FFF1FE95CFA4F8CE89FEF24
:1026200058CE63E272E081E495E00E941532892B76
:1026300069F481E08C0F80934E05EC2FF0E0EE0FF3
:10264000FF1FE95CFA4F85E99FEF43CE67E272E036
:1026500081E495E00E941532892B69F481E08C0FAA
:1026600080934E05EC2FF0E0EE0FFF1FE95CFA4F70
:1026700086E99FEF2ECE80913705909138059C0119
:1026800024593F4F2230310558F081382FEF9207FF
:1026900061F58091390590913A058B389F4F79F516
:1026A00030914105E1E4F5E020E08191882371F06B
:1026B0003D3211F4222339F0082E000C990BC097FB
:1026C0000A9708F008CE2F5F2C3079F781E495E067
:1026D0000E94373021E02C0F20934E05EC2FF0E0C4
:1026E000EE0FFF1FE95CFA4FF4CD80399F4F39F4AC
:1026F0008091390590913A0582399F4F89F281E0A6
:102700008C0F80934E05EC2FF0E0EE0FFF1FE95C7D
:10271000FA4F80E090E8DDCDAF92BF92CF92DF928A
:10272000EF92FF920F931F93CF93DF9300D000D0CF
:10273000CDB7DEB78C016B017A0180912A05833316
:10274000E9F45B016801C40ED51EC016D106A9F1DB
:102750000E9446048FE00E945104812F0E94510480
:10276000802F0E9451040F5F1F4F80E00E94510490
:10277000F50181935F010E943C04E7CF843369F542
:102780000E94460419830A838F2D8F778B83EC82F6
:1027900064E070E0CE0101960E942204A70170E07F
:1027A00060E0C6010E940E32E114F10421F0B7018D
:1027B000C6010E9422040E943C04C7010F900F90A2
:1027C0000F900F90DF91CF911F910F91FF90EF909D
:1027D000DF90CF90BF90AF9008950E9446040F3FC6
:1027E000110509F030F419820A831B8263E070E05E
:1027F000D1CF17FD0BC019820A8333E016950795D8
:102800003A95E1F7007E08600B83F0CFC80126E01F
:10281000969587952A95E1F7807E19830A8301159D
:10282000104C18F480618B83E1CF8861FCCFFA01F2
:102830002091360530E0322F2227260F371F90E0F7
:10284000982F882742E050E0BF01820F931F0C941D
:102850008C13FF920F931F93CF93DF9300D0CDB7CC
:10286000DEB7F82EAE014F5F5F4F66E270E00E9468
:10287000171409811A81102701271027AE014F5F15
:102880005F4F66E270E08F2D0E94171489819A8154
:102890009827892798270817190749F4C8010F9026
:1028A0000F90DF91CF911F910F91FF9008958C01B0
:1028B000E5CF3F924F925F926F927F928F929F925D
:1028C000AF92BF92CF92DF92EF92FF920F931F933E
:1028D000CF93DF9300D0CDB7DEB75C014B01342E30
:1028E000452EFC0166887788508C80E591E00E9437
:1028F0000404AE014F5F5F4F60E270E0852D0E94DF
:102900001714C980DA80DC24CD24DC24AE014F5FAB
:102910005F4F60E270E0852D0E94171489819A81D3
:10292000982789279827C816D90609F077C0E52C7B
:10293000F12C67E0569EF0011124E25FFA4FD58238
:10294000C482032D142DC016D10608F48601AE01F1
:102950004F5F5F4F64E270E0852D0E9417148981FC
:102960009A81982789279827680E791E93013770D6
:1029700040912A05433309F053C088E0E80EF11C6A
:10298000FE2CEE24FF0CFF0CFF0CC9018E0D9F1DC9
:10299000473309F449C0A901400F511F4130584045
:1029A00008F442C060E078E06B01C21AD30AA601C5
:1029B000B4010E945804A8014C195D09B4016C0DC2
:1029C0007D1DC7010E945804600E711E79826A82C3
:1029D00022E030E0AE014F5F5F4F64E270E0852D92
:1029E0000E942905F50186899789800F911F978B91
:1029F000868BC8010F900F90DF91CF911F910F919F
:102A0000FF90EF90DF90CF90BF90AF909F908F900E
:102A10007F906F905F904F903F9008956C0176CFBC
:102A2000E0E1EE0EF11CACCFA801B401CBCFCF9307
:102A3000DF931F92CDB7DEB741E050E0BE016F5F7C
:102A40007F4F0E948C1389810F90DF91CF91089561
:102A500090E080E00C941715CF93DF93C4E1D0E0B1
:102A60000E942815882361F061E070E080E090E02A
:102A70000E94760B2197A1F780E0DF91CF91089516
:102A800081E0FBCF1F93CF93DF9300D0CDB7DEB7AC
:102A900060E372E080E090E00E94760B1FB7F8944C
:102AA0008091FB04811127C0EFE2F6E08491E3E41A
:102AB000F6E09491E82FF0E0EE0FFF1FEF5EF94F84
:102AC000A591B491EC91E92321F461E08AE00E94A0
:102AD000320A61E08AE00E947E0A8CB580618CBD7A
:102AE0008CB580648CBD61E08DE00E947E0A61E05F
:102AF0008BE00E947E0A8091FB048F5F8093FB0431
:102B00001FBF80911701282F30E0F901EB5DF94FCD
:102B1000E491F0E0EE0FFF1FE95FF94F459154910A
:102B20005093FA044093F904F901E75CF94FE491FA
:102B3000E093F80461E00E947E0A0E943C0480E574
:102B400091E00E94040484E380932A0580E80E94B7
:102B500008050E942C15882309F441C088E00E94D2
:102B600008050E9428158830D1F580E10E940805EB
:102B70000E942815803199F580E00E9408050E9486
:102B80002815182F81112BC08FE190E00E94171596
:102B9000833029F580E48093360542E06EE170E0F1
:102BA000812F0E944F0542E06FE170E0812F0E946B
:102BB0004F051F5F143089F740E06EE170E0812F10
:102BC0000E944F0540E06FE170E0812F0E944F05A9
:102BD0001F5F183089F781E08093310564C087E377
:102BE00080932A0580E80E9408050E942C158823FE
:102BF000F9F088E00E9408050E9428158830C1F489
:102C000080E10E9408050E942815182F803181F468
:102C100080E00E9408050E942815811109C089E3FF
:102C200090E00E941715843019F410933605D3CF25
:102C300083E380932A0580E80E9408050E942C15F2
:102C4000882371F180E10E9408050E9428158031D7
:102C500039F582E10E9408050E942815823101F5AC
:102C600080E00E9408050E942815811119C084E0A7
:102C70008093360515E51A8341E050E0BE016E5F92
:102C80007F4F8BE190E00E945804198341E050E0AF
:102C9000BE016F5F7F4F8AE190E00E9458049BCF96
:102CA00010922A0580E00F900F90DF91CF911F9135
:102CB0000895CF92DF92EF92FF92CF93DF93CDB73B
:102CC000DEB7C254D1090FB6F894DEBF0FBECDBF38
:102CD000FC01428153816481758123964CAF5DAFC5
:102CE0006EAF7FAF239781E023968FAF2397239614
:102CF000CCACDDACEEACFFAC2397CBAADCAAEDAA42
:102D0000FEAA4DA75EA76FA778AB88ABCDA4DEA4C3
:102D1000EFA4F8A8CFA2D8A6E9A6FAA68EABCBA8B6
:102D2000DCA8EDA8FEA8C9A2DAA2EBA2FCA227ECBF
:102D300031E03C8B2B8B9FEF9D8B9E8B9F8B188E56
:102D40003E872D878AA7CFA0D8A4E9A4FAA4CF866E
:102D5000D88AE98AFA8A8CA389A19AA1ABA1BCA1DD
:102D600089879A87AB87BC873A8329834B835C83A7
:102D70006D837E8380913105882309F443C080E50B
:102D800091E00E94040446E050E06AE171E089E0CD
:102D900090E00E94580444E050E0BE016D5F7F4F18
:102DA0008FE090E00E94580444E050E0BE01615F73
:102DB0007F4F81E090E00E94580444E050E0BE0163
:102DC0006B5E7F4F85E090E00E94580481E08C8725
:102DD00089859A85AB85BC8580932D0590932E05BA
:102DE000A0932F05B0933005CE5BDF4F0FB6F8945C
:102DF000DEBF0FBECDBFDF91CF91FF90EF90DF9090
:102E0000CF9008950E944215882371F3B8CF209186
:102E1000360530E0322F2227620F731F90E0982F83
:102E20008827860F971F0C941715CF93C82F462F0E
:102E300061E070E00E944F0561E070E08C2F0E941D
:102E400007178111F9CFCF9108958F929F92AF927A
:102E5000BF92CF92DF92EF92FF921F93CF93DF93B7
:102E6000CDB7DEB72C970FB6F894DEBF0FBECDBF3F
:102E700020912A0514E0222339F16B017C0180E5C1
:102E800091E00E9404045E0127E0A20EB11C4501FE
:102E900010E063E070E0812F0E940717F401819336
:102EA0004F01882349F11F5F143099F710E0F501B5
:102EB00081915F018D31D9F08831C9F08A5182301A
:102EC000B0F01F5F143099F7812F2C960FB6F8944D
:102ED000DEBF0FBECDBFDF91CF911F91FF90EF906E
:102EE000DF90CF90BF90AF909F908F90089560E15A
:102EF00070E0812F0E941517A12EB12C8AEF90E06F
:102F00000E94EA0A42E870E060E0812F0E944F05CB
:102F10004FEF62E070E0812F0E944F05B601C114AF
:102F2000D10491F4809118019091190101968115B5
:102F3000F0EC9F0708F462C0909319018093180188
:102F40006091180170911901812F0E943A0586E065
:102F5000E0E2F1E0DE01119601900D928A95E1F731
:102F6000F70183818F778C8384818D8385818E8324
:102F7000A7014E5F5F4F24E030E06CE070E0812FEE
:102F80000E942905DB86CC8622E030E0AE01455F59
:102F90005F4F60E170E0812F0E94290526E030E05C
:102FA000AE014F5F5F4F66E070E0812F0E94290500
:102FB00061E070E0812F0E94151727E02A9DC00173
:102FC0002B9D900D11249C01225F3A4F7901F9014C
:102FD00011821082AE01455F5F4F68E270E0812F81
:102FE0000E9417148B859C85982789279827F701BD
:102FF0009383828316821582148266CF80E090ECE0
:103000009BCF4F925F927F928F929F92AF92BF928F
:10301000CF92DF92EF92FF920F931F93CF93DF93A4
:1030200000D0CDB7DEB7782E6B014A01A82EB12CA7
:1030300027E0829FC0011124FC01E25FFA4F7F016B
:103040000081118180E591E00E94040408151905B2
:1030500054F4872D0E942914F70126818C01021B4C
:103060001109118300830115110529F563E070E052
:10307000872D0E940717843159F0882349F001E019
:1030800010E08C3111F410E000E011950195110968
:10309000C8010F900F90DF91CF911F910F91FF907A
:1030A000EF90DF90CF90BF90AF909F908F907F90E8
:1030B0005F904F900895801691060CF4840187E08C
:1030C0008A9DF0018B9DF00D1124E25FFA4FE280A2
:1030D000F380C114D10451F12701F7E05F22872D5D
:1030E0000E941B05840D951D20912A05273309F4A4
:1030F00053C09801240D351D2130384008F44CC0D0
:1031000020E038E0490184189508A401B6010E9426
:103110008C132601480C591C6801C818D908872D42
:103120000E941B05A601B2010E948C13E00EF11E45
:1031300087E08A9DF0018B9DF00D1124E25FFA4F2C
:10314000F382E28220813181201B310B3183208385
:103150008681800F912F911D8A3F910510F4232BBA
:10316000F1F487E08A9DF0018B9DF00D1124E25F60
:10317000FA4F1682F982EA8222E030E0AE014F5F18
:103180005F4F68E270E0872D0E94290560E470E0DF
:10319000872D0E9415177CCFA801B601C5CF868365
:1031A00077CFCF93DF93FC01218D328D211531052F
:1031B00029F48FEF9FEFDF91CF910895EC01808D7F
:1031C0004217530708F0A9010E94011818161906A2
:1031D00084F7298D3A8D281B390B3A8F298FEBCF35
:1031E0000F931F93CF93DF931F92CDB7DEB7FC01F0
:1031F000218D328D232B41F48FEF9FEF0F90DF91C4
:10320000CF911F910F9108958C0141E050E0BE01D4
:103210006F5F7F4FFC01808D0E9401181816190600
:103220005CF7F801818D928D0197928F818F898152
:1032300090E0E4CFCF93C82F80E591E00E94040492
:1032400060E170E08C2FCF910C941517CF92DF9234
:10325000EF92FF920F931F93CF93DF9300D000D094
:1032600000D0CDB7DEB78C016B017A01FC01808DF7
:10327000843010F40E941A1987EC91E09A838983B4
:10328000F60182819381A481B5818B839C83AD8378
:10329000BE83B701CE0101960E942517F801808FE9
:1032A0008430A0F4F586E486128E118E81E0269695
:1032B0000FB6F894DEBF0FBECDBFDF91CF911F9147
:1032C0000F91FF90EF90DF90CF90089580E0EFCFC7
:1032D000CF93DF93EC01888D843020F40E941A197B
:1032E00084E0888FDF91CF910895CF93FC01C08D4A
:1032F00080E591E00E94040460E270E08C2F0E945F
:10330000151762E070E08C2F0E94071784FD16C02D
:1033100062E070E08C2F0E94071783FF0AC048E12B
:1033200062E070E08C2F0E944F0580E090E0CF912A
:10333000089580E591E00E940404E3CF40E162E05B
:1033400070E08C2F0E944F0581E0F0CF8F929F920A
:10335000AF92BF92CF92DF92EF92FF921F93CF93E3
:10336000DF9300D000D000D0CDB7DEB76C015B0199
:10337000FC01808D843010F40E941A1980912A0576
:10338000811115C094E0F601908F26960FB6F8943F
:10339000DEBF0FBECDBFDF91CF911F91FF90EF90A9
:1033A000DF90CF90BF90AF909F908F90089580E571
:1033B00091E00E9404049E012F5F3F4F7901490173
:1033C00010E063E070E0812F0E940717F401819301
:1033D0004F01882309F11F5F143099F710E0F701BE
:1033E00081917F018D3199F0883189F08A51823045
:1033F00070F01F5F143099F7F601108F80E01430E1
:1034000021F2B586A486128E118E81E0BECF60E1D6
:1034100070E0812F0E941517812E912C8AEF90E089
:103420000E94EA0A42E070E060E0812F0E944F05AE
:103430004FEF62E070E0812F0E944F05B501A114AB
:10344000B10489F4809118019091190101968115B8
:10345000F0EC9F0788F19093190180931801609117
:10346000180170911901812F0E943A0561E070E006
:10347000812F0E94151727E0289DC001299D900DDE
:1034800011249C01225F3A4F7901F90111821082C7
:10349000AE014B5F5F4F68E270E0812F0E9417140E
:1034A0008D819E81982789279827F70193838283AE
:1034B000168215821482A0CF80E090ECCCCF809150
:1034C0003105882349F080912A05843351F08733F0
:1034D000A9F090E080E008950E9442158823C9F386
:1034E000F2CF80E591E00E94040485E390E00E9421
:1034F000171585FD0DC082E090E0089580E591E00C
:103500000E9404048EE290E00E94171580FFF3CF22
:1035100081E090E008951F93CF93DF931F92CDB782
:10352000DEB7FC01108D143020F5818D928D892B32
:1035300001F180E591E00E940404812F0E941B05A7
:1035400027E0129FF0011124E25FFA4F22813381BC
:10355000377041E050E0BE016F5F7F4F820F931FD5
:103560000E948C13898190E00F90DF91CF911F9181
:1035700008958FEF9FEFF8CFEF92FF920F931F9375
:10358000CF93DF93EC018B0188E2FB0111928A95C6
:10359000E9F761E08E810E947E0A60E08E810E94E0
:1035A000320A88EE93E00E94EA0A61E08E810E946E
:1035B000320A60E08E810E947E0A88E290E00E94DA
:1035C000EA0AE881F9810084F185E02D26E030E007
:1035D0004AE050E060E0CE0109956E317105810549
:1035E00091056CF4982F872F762F66276061CB01A9
:1035F000DF91CF911F910F91FF90EF900895E88197
:10360000F9810084F185E02D26E030E04AE050E0C9
:1036100061E0CE0109957801F8E2EF0EF11C62330A
:1036200071058105910534F4982F872F762F662731
:103630006161DDCFE881F9810084F185E02D26E02C
:1036400030E04AE050E060E0CE0109956831710554
:103650008105910534F4982F872F762F66276261B4
:10366000C6CFE881F9810084F185E02D26E030E0C5
:103670004AE050E061E0CE0109956B3071058105AB
:10368000910534F4982F872F762F66276361AFCF8B
:1036900021E069327105810591050CF420E0F80103
:1036A00021938F01EE16FF0629F6E881F981008447
:1036B000F185E02D26E030E04AE050E060E0CE0108
:1036C0000995683171058105910534F4982F872F8C
:1036D000762F662764618BCF70E060E088CFDF9241
:1036E000EF92FF920F931F93CF93DF93CDB7DEB787
:1036F00028970FB6F894DEBF0FBECDBF8C01D8015E
:1037000059964D915C915A974115510551F0ED91A3
:10371000FC91048CF58DE02D70E060E0C801099506
:10372000EECFF801D08CF7E0DF9EC00111249C01A0
:10373000225F3A4F7901D9018D919C91892B59F1E2
:1037400048E050E0BE016F5F7F4FF801808D0E941E
:1037500001181816190694F5D801509684E0FE0158
:10376000319601900D928A95E1F78D8190E0982F26
:1037700088272E81820F911DF801958B848B8F8174
:10378000282F30E0322F22278885820F932F911D1A
:10379000928F818F13C080E591E00E9404048D2DEB
:1037A0000E942914D70116962C911697821B910915
:1037B0008D939C93892B21F690E080E028960FB69C
:1037C000F894DEBF0FBECDBFDF91CF911F910F9157
:1037D000FF90EF90DF9008956F927F928F929F926B
:1037E000AF92BF92CF92DF92EF92FF920F931F930F
:1037F000CF93DF93CDB7DEB7EC970FB6F894DEBF6B
:103800000FBECDBF4C018B013A0187EC91E09A834A
:1038100089831C861B8648EE53E060E070E04D878C
:103820005E876F87788B2BE831E03A872987988FFE
:103830008F8B198E1A8E1B8E1C8E24E029A399ABB8
:1038400088AB1AAA1BAA1CAA1DAA80912D059091CB
:103850002E05A0912F05B09130058EA39FA3A8A798
:10386000B9A78B839C83AD83BE8318861F82F80122
:1038700020E090E080E06AE03191332309F47AC0DF
:1038800040ED430F4A3008F064C0689FA001699F73
:10389000500D1124CA01C097830F911D37FD9A95D1
:1038A0008F3F910549F340F34B815C816D817E81AF
:1038B0008091A5049091A604A091A704B091A804BA
:1038C000481759076A077B0709F428C20E94A80B0A
:1038D0006F7077277C5FCE0109960E94A619813010
:1038E00009F01FC287EC91E09DA38CA38B819C8182
:1038F000AD81BE818EA39FA3A8A7B9A745E350E0E1
:10390000BE016C5D7F4FCE0109960E943A06892B5D
:1039100009F04EC010E000E0CE0109960E9468193F
:103920000130110559F1C801EC960FB6F894DEBFCD
:103930000FBECDBFDF91CF911F910F91FF90EF9000
:10394000DF90CF90BF90AF909F908F907F906F90BF
:1039500008953E3209F0A8CF233009F4A5CFA2E3A1
:10396000B0E0AC0FBD1FA20FB11D8C932F5F90E094
:1039700080E082CF233009F097CF8DABD401ED9159
:10398000FC910488F589E02D87EC91E09DA38CA340
:103990008AA99BA9ACA9BDA98EA39FA3A8A7B9A7D3
:1039A000A301BE016C5D7F4FC40109958C01BBCFA3
:1039B0000E94A80B78876F8342E050E0BE01695FE8
:1039C0007F4FCE0109960E94591481E090E09DA39B
:1039D0008CA342E050E0BE016C5D7F4FCE010996A2
:1039E0000E94591480E091E09DA38CA342E050E036
:1039F000BE016C5D7F4FCE0109960E9459141DA235
:103A00001CA242E050E0BE016C5D7F4FCE010996E2
:103A10000E94591442E050E0BE016C5D7F4FCE0120
:103A200009960E94591442E050E0BE016C5D7F4F40
:103A3000CE0109960E9459147801D8018C918823EF
:103A400011F18701F80181916F01882311F08E3205
:103A5000C1F45801AE18BF081A141B0484F4AEAAAE
:103A600041E050E0BE016A5C7F4FCE0109960E94A2
:103A70005914A501B701CE0109960E945914760187
:103A8000DCCF8601DFCF1EAA41E050E0BE016A5CB8
:103A90007F4FCE0109960E94591400E011E01DA34A
:103AA0000CA342E050E0BE016C5D7F4FCE01099651
:103AB0000E9459141DA30CA342E050E0BE016C5DAE
:103AC0007F4FCE0109960E945914CE0109960E949B
:103AD0007519892B09F41ECF83E0E82EF12CD7C08D
:103AE0004B815C816D817E81898D9A8DAB8DBC8D82
:103AF000481759076A077B0709F00AC18D8D9E8D0B
:103B0000C59709F005C18AA19BA10DEF1FEF0C9786
:103B10000CF4B4C04CE050E0BE016C5D7F4FCE01B0
:103B200009960E94D1188EA19FA1982789279827CE
:103B30009BAF8AAF4F8158852CA13DA142175307F7
:103B400009F0E9C097FFE7C08F7092700BEF1FEF8D
:103B5000892B09F093C0AAA4BBA4BA24AB24BA242D
:103B60000AEF1FEFA114B10409F488C010E000E0CF
:103B700088A599A59827892798270817190708F570
:103B800041E050E0BE016A5C7F4FCE0109960E9481
:103B9000D1184EA9442339F050E070E060E0CE0126
:103BA00009960E94D1188EA98111EACF44E050E015
:103BB00070E060E0CE0109960E94D1180F5F1F4FA0
:103BC000D7CFD12CC12C41E050E0BE01645C7F4FC7
:103BD000CE0109960E94D1184CAD842F807C09F04B
:103BE00074C0442339F050E070E060E0CE010996E3
:103BF0000E94D1188CAD8111E6CF42E050E0BE01A9
:103C0000685C7F4FCE0109960E94D11842E050E0D7
:103C1000BE016A5C7F4FCE0109960E94D11844E034
:103C200050E070E060E0CE0109960E94D11842E0B9
:103C300050E0BE01665C7F4FCE0109960E94D1180C
:103C400088AD99AD4AAD5BAD8115914009F047C093
:103C50000EA91FA91027012710270130110509F00F
:103C60003EC04115544009F04DC044E050E0BE0153
:103C70006E5C7F4FCE0109960E94D118F1E0EF1AD9
:103C8000F10809F449CE0F3F100709F045CE0E9414
:103C9000A80B5B016C01CE0109960E946F1B1816E0
:103CA00019060CF41DCF0E94A80B6A197B098C0918
:103CB0009D09693873418105910538F562E370E02B
:103CC00080E090E00E94760BE6CF41E050E070E0AB
:103CD00060E0CE0109960E94D1181CAE8BCF54270C
:103CE0004527542770E060E0CE0109960E94D11864
:103CF000EFEFCE1ADE0AAC14BD0409F064CF06EF74
:103D00001FEFBCCF07EF1FEFB9CF0FEF1FEFB6CFFD
:103D10000EEF1FEFB3CF0CEF1FEFB0CF0EEF1FEF83
:103D200002CE10E000E0FFCDFF920F931F93CF93E0
:103D3000DF93EC018B01FB01F0800E94EB31F81660
:103D400021F06F2DCE010E94F331F801F180219610
:103D5000CE010E94EB31F81621F06F2DCE010E94AA
:103D6000F331C801DF91CF911F910F91FF9008951A
:103D7000FB0101900020E9F73197AF01461B570B7B
:103D8000DC01ED91FC910280F381E02D09946DE25C
:103D900072E00C94B81E0F931F93CF93DF93EC0146
:103DA0000E9493098C01CE010E94C71E800F911FB3
:103DB000DF91CF911F910F9108956115710511F059
:103DC0000C94B81E90E080E00895BC0181EE95E06F
:103DD0000C94DD1E8F929F92AF92BF92EF92FF9252
:103DE0000F931F93CF93DF93CDB7DEB7A1970FB695
:103DF000F894DEBF0FBECDBF7C01FA01CB0119A242
:103E0000223008F42AE08E010F5D1F4F822E912C84
:103E1000B12CA12CBF01A50194010E94BA31F90176
:103E2000CA016A30ECF4605DD8016E938D01232BDA
:103E3000242B252B79F7BD01C7010E94DD1EA19619
:103E40000FB6F894DEBF0FBECDBFDF91CF911F91AB
:103E50000F91FF90EF90BF90AF909F908F9008953B
:103E6000695CE2CF462F50E070E060E02AE00C94FD
:103E7000EA1ECF93C82F8A3028F460E381EE95E0E4
:103E80000E948C096C2F81EE95E0CF910C94321F2B
:103E9000CF93DF93EC018E818536D0F062E381EE23
:103EA00095E00E948C098E810E94391F6DE281EE9F
:103EB00095E00E948C098D810E94391F6DE281EE90
:103EC00095E00E948C098C81DF91CF910C94391F71
:103ED00061E676E081EE95E00E949309E4CFCF930E
:103EE000DF93EC018A810E94391F6AE381EE95E03D
:103EF0000E948C0989810E94391F6AE381EE95E056
:103F00000E948C098881DF91CF910C94391F8F9288
:103F10009F92AF92BF92CF92DF92EF92FF920F9358
:103F20001F93CF93DF937C018B014C0182E0880EBD
:103F3000911C5701E5E0AE0EB11CD0E0C0E0F401E9
:103F400061914F01C8010E94321F6C016EE2C801ED
:103F50000E948C098C0D9D1DC80FD91F8A149B04CB
:103F600071F7F7016581C8010E94321F8C0F9D1FF8
:103F7000DF91CF911F910F91FF90EF90DF90CF9045
:103F8000BF90AF909F908F900895CF92DF92EF9265
:103F9000FF92CF93DF936C01990FEE08FF08F7FEB5
:103FA0001BC06DE281EE95E00E948C09EC01442774
:103FB0005527BA014C195D096E097F092AE081EE87
:103FC00095E00E94EA1E8C0F9D1FDF91CF91FF901C
:103FD000EF90DF90CF9008952AE0B701A60181EE1F
:103FE00095E0DF91CF91FF90EF90DF90CF900C9410
:103FF000EA1ECF93DF930E94C51FEC0181EE95E08E
:104000000E94C71E8C0F9D1FDF91CF9108950F93C3
:104010001F93CF93DF93EC010E94DD1E8C01CE0134
:104020000E94C71E800F911FDF91CF911F910F91AA
:1040300008952F923F924F925F926F927F928F924C
:104040009F92AF92BF92CF92DF92EF92FF920F9327
:104050001F93CF93DF93CDB7DEB729970FB6F894B0
:10406000DEBF0FBECDBF7C01809138049091390432
:104070000097F1F460E372E081EE95E029960FB6C7
:10408000F894DEBF0FBECDBFDF91CF911F910F918E
:10409000FF90EF90DF90CF90BF90AF909F908F9068
:1040A0007F906F905F904F903F902F900C940720DF
:1040B00000913604109137040E94C51F68E372E036
:1040C00081EE95E00E94072086E492E00E94E51EC2
:1040D00080913604909137040E94F91FA090380413
:1040E000B0903904EA14FB040CF45701F12CE12CD4
:1040F00089E0282E312CCE0101963C012E019AE058
:10410000490E511CEA14FB040CF099C00950110926
:1041100020913A0430913B04021713075CF480911C
:10412000340490913504821B930BB1010E944F33EC
:10413000060F171F6301480186189708C4018C0DEC
:104140009D1D0E94EB31F60181936F014E165F06B3
:10415000A9F7FFEFEF1AFF0AC7010E94C51F88E504
:1041600092E00E94E51E6F8181EE95E00E94321F71
:104170008AE592E00E94E51E6E8181EE95E00E9444
:10418000321F8AE592E00E94E51E6D8181EE95E086
:104190000E94321F85E692E00E94E51E6B8181EE4F
:1041A00095E00E94321F8CE592E00E94E51E6A8134
:1041B00081EE95E00E94321F8CE592E00E94E51EA0
:1041C000698181EE95E00E94321F85E692E00E94AF
:1041D000E51ED8848D2D0D2C000C990B0E94C51F57
:1041E0008EE592E00E94E51E6D2DDD0C770B880BAD
:1041F000990B0E94973026E636E646EE5FE30E9472
:10420000D23020E030E040E052E40E941F320E94B1
:10421000FD32862F660F990B0E94C51F82E692E041
:104220000E94E51E8985082E000C990B0E94C51F6F
:1042300067E672E081EE95E00E94072063CF299641
:104240000FB6F894DEBF0FBECDBFDF91CF911F91A7
:104250000F91FF90EF90DF90CF90BF90AF909F9025
:104260008F907F906F905F904F903F902F90089528
:104270001F93CF93DF9300D000D000D0CDB7DEB72F
:10428000182F68E670E081EE95E00E94CB1E1123A6
:1042900029F140918A0450918B0487EC91E09A8334
:1042A00089838091860490918704A0918804B091BD
:1042B00089048B839C83AD83BE83BE016F5F7F4F78
:1042C00086E794E00E943A0669E672E086E794E0A9
:1042D0000E94DD1E86E794E00E94751926960FB6AF
:1042E000F894DEBF0FBECDBFDF91CF911F9108952F
:1042F0000E940132DF92EF92FF920F931F93CF93B0
:10430000DF93CDB7DEB7E1970FB6F894DEBF0FBEEF
:10431000CDBF182F81EE95E00E94C71E112331F00A
:1043200063EB75E081EE95E00E94CB1EE0913705CE
:10433000F0913805E058FF4FE631F10508F025C14E
:10434000EC55FE4D0C947733B9221C225C22BA2125
:10435000E421C522C522C522C522C522C522C52207
:104360009B22C522C522EA222A26C522C522C522B1
:104370006228792869EA75E081EE95E00E94930948
:104380002AE042E050E060E070E081EE95E00E94BB
:10439000EA1E6EE281EE95E00E948C092AE043E07D
:1043A00050E060E070E081EE95E00E94EA1E2AE0B5
:1043B00040E050E0BA0181EE95E00E94EA1E81EEF5
:1043C00095E00E94C71E54C0112329F140918A0430
:1043D00050918B0487EC91E09A83898380918604C5
:1043E00090918704A0918804B09189048B839C8369
:1043F000AD83BE83BE016F5F7F4F86E794E00E946E
:104400003A0669E772E086E794E00E94DD1E86E7DF
:1044100094E00E94751962E972E081EE95E00E94D5
:10442000930982E390E00E94C51F6EE972E081EE7D
:1044300095E00E9407201CC08091390590913A05B3
:104440008B389F4F09F0A1C080913B0590913C05AE
:10445000823391050CF499C090930901809308016F
:1044600090930701809306019093050180930401C6
:10447000109238051092370510923A0510923905BE
:1044800010923C0510923B0510923E0510923D059E
:104490001092400510923F0510924E05E1960FB61E
:1044A000F894DEBF0FBECDBFDF91CF911F910F916A
:1044B000FF90EF90DF9008958091390590913A0533
:1044C00085389F4FA9F68091940465E872E08111C8
:1044D00008C00E940E0A6DE772E0892B11F066E7B2
:1044E00072E081EE95E00E94CB1E809193048232AF
:1044F00011F0883839F467E672E081EE95E00E94A9
:10450000CB1EB6CF813111F0843419F46AE572E024
:10451000F4CF863611F0893919F460E472E0EDCFFA
:1045200068E372E0882349F36EE272E08A3A29F385
:1045300066E272E0E2CF8091390590913A058A38BF
:10454000EFEF9E0771F08B38FFEF9F0771F089380E
:104550009F4FD9F41092940461E08DE00E94320ADA
:1045600087CF1092940460E0F8CF81E080939404A8
:104570007FCF8091390590913A0587384FEF9407A6
:10458000C9F03CF486389F4FC9F0812F0E94382132
:104590006FCF8A382FEF9207D1F08B389F4FA9F752
:1045A00080913B0590913C058638EFEF9E0741F4E2
:1045B00082E201C085E5809393045ACF8AEAFBCF5B
:1045C00088389F4F11F486E6F6CF81E1F4CF109240
:1045D00093044ECF8091390590913A058D382FEF95
:1045E000920709F4CFC08E389F4F79F6112309F452
:1045F000A9C040918A0450918B0487EC91E09A8382
:1046000089838091860490918704A0918804B09159
:1046100089048B839C83AD83BE83BE016F5F7F4F14
:1046200086E794E00E943A060E946A104AE0BE01C2
:104630006F5F7F4F90E00E945830BE016F5F7F4FE9
:1046400086E794E00E94DD1E6AE572E086E794E06A
:104650000E94DD1E0E946A10872F4AE0BE016F5F34
:104660007F4F90E00E945830BE016F5F7F4F86E71A
:1046700094E00E94DD1E6AE572E086E794E00E9405
:10468000DD1E0E946A10862F4AE0BE016F5F7F4FD9
:1046900090E00E945830BE016F5F7F4F86E794E044
:1046A0000E94DD1E65E672E086E794E00E94DD1E52
:1046B0000E946A10842F4AE0BE016F5F7F4F90E036
:1046C0000E945830BE016F5F7F4F86E794E00E94E2
:1046D000DD1E6CE572E086E794E00E94DD1E0E941C
:1046E0006A104AE0BE016F5F7F4F832F90E00E9407
:1046F0005830BE016F5F7F4F86E794E00E94DD1E59
:104700006CE572E086E794E00E94DD1E0E946A106C
:10471000288739874A875B876C877D878E874AE041
:10472000BE016F5F7F4F822F90E00E945830BE0124
:104730006F5F7F4F86E794E00E94DD1E86E794E07E
:104740000E9475190E946A1029833A834B835C8307
:104750006D837E838F83CE0101960E94481F60E2A5
:1047600081EE95E00E948C090E946A1029833A83A9
:104770004B835C836D837E838F83CE0101960E9481
:104780006F1F1DCE188619861A8663EE71E081EEC2
:1047900095E00E94CB1E8E01085F1F4F83E0D82E4C
:1047A0007E0189E0E80EF11CF8012D2D11922A9569
:1047B000E9F781EE95E00E94C71E6CEB71E081EE97
:1047C00095E00E949309E091E105F091E2050084F3
:1047D000F185E02D81EE95E00995892BA1F362E04A
:1047E00070E0C8010E94B40BE091E105F091E20590
:1047F0000084F185E02D81EE95E00995892B59F033
:10480000E091E105F091E2050284F385E02D81EE6F
:1048100095E00995E9CF88858033D9F1C8010E94D8
:1048200037308D83F8012D2D11922A95E9F781EE0D
:1048300095E00E94C71E6CE971E081EE95E00E9450
:104840009309E091E105F091E2050084F185E02D06
:1048500081EE95E00995892BA1F362E070E0C80133
:104860000E94B40BE091E105F091E2050084F1852E
:10487000E02D81EE95E00995892B69F0E091E10545
:10488000F091E2050284F385E02D81EE95E0099533
:10489000E9CFC701C4CF88858033D9F1C8010E9410
:1048A00037308E83F8012D2D11922A95E9F781EE8C
:1048B00095E00E94C71E6DE771E081EE95E00E94D1
:1048C0009309E091E105F091E2050084F185E02D86
:1048D00081EE95E00995892BA1F362E070E0C801B3
:1048E0000E94B40BE091E105F091E2050084F185AE
:1048F000E02D81EE95E00995892B69F0E091E105C5
:10490000F091E2050284F385E02D81EE95E00995B2
:10491000E9CFC701C4CF88858033D9F1C8010E948F
:1049200037308F83F8012D2D11922A95E9F781EE0A
:1049300095E00E94C71E6FE471E081EE95E00E9451
:104940009309E091E105F091E2050084F185E02D05
:1049500081EE95E00995892BA1F362E070E0C80132
:104960000E94B40BE091E105F091E2050084F1852D
:10497000E02D81EE95E00995892B69F0E091E10544
:10498000F091E2050284F385E02D81EE95E0099532
:10499000E9CFC701C4CF88858033D9F1C8010E940F
:1049A00037308B83F8012D2D11922A95E9F781EE8E
:1049B00095E00E94C71E6EE271E081EE95E00E94D4
:1049C0009309E091E105F091E2050084F185E02D85
:1049D00081EE95E00995892BA1F362E070E0C801B2
:1049E0000E94B40BE091E105F091E2050084F185AD
:1049F000E02D81EE95E00995892B69F0E091E105C4
:104A0000F091E2050284F385E02D81EE95E00995B1
:104A1000E9CFC701C4CF88858033D9F1C8010E948E
:104A200037308A83F8012D2D11922A95E9F781EE0E
:104A300095E00E94C71E6DE071E081EE95E00E9456
:104A40009309E091E105F091E2050084F185E02D04
:104A500081EE95E00995892BA1F362E070E0C80131
:104A60000E94B40BE091E105F091E2050084F1852C
:104A7000E02D81EE95E00995892B69F0E091E10543
:104A8000F091E2050284F385E02D81EE95E0099531
:104A9000E9CFC701C4CF88858033D9F1C8010E940E
:104AA00037308983F8012D2D11922A95E9F781EE8F
:104AB00095E00E94C71E6CEC70E081EE95E00E94CC
:104AC000CB1EE091E105F091E2050084F185E02D37
:104AD00081EE95E00995892BA1F361E070E0C801B2
:104AE0000E94B40BE091E105F091E2050084F185AC
:104AF000E02D81EE95E00995892B69F0E091E105C3
:104B0000F091E2050284F385E02D81EE95E00995B0
:104B1000E9CFC701C4CFC8010E9437308C8381EE32
:104B200095E00E94C71E68EB70E081EE95E00E9460
:104B30009309CE0101960E94481F64E581EE95E03D
:104B40000E948C09CE0101960E946F1F81EE95E0B4
:104B50000E94C71E63E870E081EE95E00E94930911
:104B6000E091E105F091E2050084F185E02D81EE10
:104B700095E00995892BA1F361E070E0C8010E94DE
:104B8000B40BE091E105F091E2050084F185E02DA0
:104B900081EE95E00995892B59F0E091E105F091BE
:104BA000E2050284F385E02D81EE95E00995E9CFD9
:104BB00088858F7D893509F0F7CD81E08093760572
:104BC00088E680937805109277051092790590E039
:104BD00080E00E94070489810E949908682F8AE674
:104BE00095E00E94F4058A810E949908682F8AE660
:104BF00095E00E94F4058B810E949908682F8AE64F
:104C000095E00E94F4058C81811101C081E00E9431
:104C10009908682F8AE695E00E94F4058D810E942C
:104C20009908682F8AE695E00E94F4058E810E941B
:104C30009908682F8AE695E00E94F4058F810E940A
:104C40009908682F8AE695E00E94F40581E00E94A9
:104C5000F6030ECC8091390590913A0582394FEFD9
:104C6000940709F4D6C00CF0BDC081399F4F09F0FC
:104C70008CCC112309F47DC040918A0450918B049F
:104C800087EC91E09A8389838091860490918704D0
:104C9000A0918804B09189048B839C83AD83BE83EB
:104CA000BE016F5F7F4F86E794E00E943A068091D5
:104CB00049044AE0BE016F5F7F4F082E000C990B3C
:104CC0000E945830BE016F5F7F4F86E794E00E94DC
:104CD000DD1E6EE572E086E794E00E94DD1E6091C5
:104CE0004904062E000C770B880B990B0E94973015
:104CF00026E636E646EE5FE30E94D23020E030E062
:104D000040E052E40E941F320E94FD32862F4AE0AA
:104D1000BE016F5F7F4F082E000C990B0E94583028
:104D2000BE016F5F7F4F86E794E00E94DD1E62E662
:104D300072E086E794E00E94DD1E809148044AE01C
:104D4000BE016F5F7F4F082E000C990B0E945830F8
:104D5000BE016F5F7F4F86E794E00E94DD1E67E62D
:104D600072E086E794E00E94DD1E86E794E00E94F0
:104D700075198CEC92E00E94E51E80914904082E82
:104D8000000C990B0E94C51F8EE592E00E94E51E63
:104D900060914904062E000C770B880B990B0E943A
:104DA000973026E636E646EE5FE30E94D23020E0FA
:104DB00030E040E052E40E941F320E94FD32862F14
:104DC000660F990B0E94C51F82E692E00E94E51EC5
:104DD00080914804082E000C990B0E94C51F67E6BD
:104DE00072E025CB83392FEF920701F186399F4F6F
:104DF00009F0CBCB80913A0490913B049093370417
:104E000080933604109239041092380410923C04B6
:104E10002FCB80913B0590913C05181619061CF488
:104E20000E94192025CB8AE090E0FACF112309F4E3
:104E3000E1C040918A0450918B0487EC91E09A8301
:104E400089838091860490918704A0918804B09111
:104E500089048B839C83AD83BE83BE016F5F7F4FCC
:104E600086E794E00E943A0668EE72E086E794E0F6
:104E70000E94DD1E809102014AE0BE016F5F7F4FFC
:104E8000082E000C990B0E945830BE016F5F7F4FB7
:104E900086E794E00E94DD1E6EE572E086E794E00E
:104EA0000E94DD1E60910201062E000C770B880B1C
:104EB000990B0E94973026E636E646EE5FE30E94A5
:104EC000D23020E030E040E052E40E941F320E94E5
:104ED000FD32862F4AE0BE016F5F7F4F082E000C27
:104EE000990B0E945830BE016F5F7F4F86E794E0B8
:104EF0000E94DD1E62E672E086E794E00E94DD1EFD
:104F0000809100014AE0BE016F5F7F4F082E000CC8
:104F1000990B0E945830BE016F5F7F4F86E794E087
:104F20000E94DD1E6DEF72E086E794E00E94DD1EB8
:104F3000809103014AE0BE016F5F7F4F082E000C95
:104F4000990B0E945830BE016F5F7F4F86E794E057
:104F50000E94DD1E6EE572E086E794E00E94DD1E91
:104F600060910301062E000C770B880B990B0E94B1
:104F7000973026E636E646EE5FE30E94D23020E028
:104F800030E040E052E40E941F320E94FD32862F42
:104F90004AE0BE016F5F7F4F082E000C990B0E9404
:104FA0005830BE016F5F7F4F86E794E00E94DD1EA0
:104FB00062E672E086E794E00E94DD1E80910101C6
:104FC0004AE0BE016F5F7F4F082E000C990B0E94D4
:104FD0005830BE016F5F7F4F86E794E00E94DD1E70
:104FE00067E672E086E794E00E94DD1E86E794E0C3
:104FF0000E94751985E193E00E94E51E80910201EF
:10500000082E000C990B0E94C51F8EE592E00E94AD
:10501000E51E60910201062E000C770B880B990BA0
:105020000E94973026E636E646EE5FE30E94D230D5
:1050300020E030E040E052E40E941F320E94FD3246
:10504000862F660F990B0E94C51F82E692E00E9490
:10505000E51E80910001082E000C990B0E94C51FCF
:105060008AE393E00E94E51E80910301082E000C64
:10507000990B0E94C51F8EE592E00E94E51E60918B
:105080000301062E000C770B880B990B0E949730BA
:1050900026E636E646EE5FE30E94D23020E030E0BE
:1050A00040E052E40E941F320E94FD32862F660FBC
:1050B000990B0E94C51F82E692E00E94E51E809136
:1050C000010188CE2091390530913A05211580E8FB
:1050D000380709F45ACA80913B0590913C05811527
:1050E000E0E89E0709F451CA820F931F0E94F91F3E
:1050F000BFC98091390590913A0581309105E1F061
:105100008230910531F181389F4F09F03ECA80917C
:105110003B0590913C058B389F4F09F0A9C98091C0
:105120003D0590913E05823391050CF4A1C9909301
:105130000901809308019CC980913B058093560426
:1051400080913D058093570480913F0580935804DA
:105150008FC980913B058093500480913D058093D9
:10516000510480913F058093520482C91F920F928F
:105170000FB60F9211242F933F934F935F936F932A
:105180007F938F939F93AF93BF93EF93FF93809100
:10519000B900887F803609F44AC0F0F5883209F4F6
:1051A000A7C018F5803109F49BC0B8F4882309F42E
:1051B000F9C0883009F494C0FF91EF91BF91AF918D
:1051C0009F918F917F916F915F914F913F912F911F
:1051D0000F900FBE0F901F901895883109F488C06A
:1051E000803251F78093BE0514C0803409F49DC00D
:1051F00040F48033B9F38833F9F68093BE0585EC2B
:10520000B0C0803509F485C0883509F496C088346B
:1052100099F60E946C05D0CF883909F48CC038F516
:10522000883729F050F4883611F0803729F683E06A
:105230008093C0051092EB0457C0883809F47BC0F6
:10524000803919F0803809F0B7CF8091EB048032B3
:1052500008F071C0E091EB0481E08E0F8093EB04C5
:105260008091BB00F0E0E553FB4F80833DC0803B65
:1052700039F0E0F4803A09F479C0883A09F09CCF1B
:1052800084E08093C0051092CA041092C904E09192
:105290003205F091330509958091C90481110FC041
:1052A00081E08093C9041092A90409C0803C09F4EC
:1052B000A6CF883C09F4A3CF883B09F07DCFE091CD
:1052C000CA0481E08E0F8093CA04F0E0E755FB4FDB
:1052D00080818093BB009091CA048091C90429C049
:1052E0008091BB058093BB0085EC8093BC0064CFAC
:1052F0009091BD058091BC05981758F5E091BD05CA
:1053000081E08E0F8093BD05F0E0E656FA4F808174
:10531000E9CFE091BD0581E08E0F8093BD058091BE
:10532000BB00F0E0E656FA4F80839091BD05809176
:10533000BC059817C8F285E8D8CFE091BD0581E09B
:105340008E0F8093BD058091BB00F0E0E656FA4FCA
:1053500080838091BF0581115CCF81E08093BA0585
:1053600084EA8093BC001092C00526CF85EC809320
:10537000BC001092C0058091EB04803230F4E091C3
:10538000EB04F0E0E553FB4F10826091EB0470E01A
:10539000E0913405F09135058BEC94E0099510927D
:1053A000EB040ACF1092BE0534CF1F920F920FB6B6
:1053B0000F9211242F933F934F935F936F937F939B
:1053C0008F939F93AF93BF93EF93FF9381EE95E0FD
:1053D0000E94E908FF91EF91BF91AF919F918F914A
:1053E0007F916F915F914F913F912F910F900FBEE1
:1053F0000F901F9018951F920F920FB60F921124C5
:105400002F938F939F93EF93FF93E091F105F0918A
:10541000F2058081E091F705F091F80582FD1BC04F
:1054200090818091FA058F5F8F732091FB05821721
:1054300041F0E091FA05F0E0EF51FA4F958F80933B
:10544000FA05FF91EF919F918F912F910F900FBED1
:105450000F901F9018958081F4CF1F920F920FB676
:105460000F9211242F933F938F939F93AF93BF93EA
:105470008091FF0390910004A0910104B091020477
:105480003091FE0323E0230F2D3758F50196A11D1F
:10549000B11D2093FE038093FF0390930004A0931B
:1054A0000104B09302048091030490910404A0913C
:1054B0000504B09106040196A11DB11D809303045B
:1054C00090930404A0930504B0930604BF91AF9198
:1054D0009F918F913F912F910F900FBE0F901F9032
:1054E000189526E8230F0296A11DB11DD2CFE8E042
:1054F000F5E087EC91E0918380831282138214821D
:1055000015820895E2E0F5E087EC91E091838083D5
:1055100012821382148215820895ECEFF4E087EC76
:1055200091E0918380831282138214821582089500
:10553000E2EFF4E087EC91E09183808312821382A2
:10554000148215820895ECEEF4E087EC91E09183EB
:10555000808312821382148215820895EAE6F5E0B0
:105560001382128288EE93E0A0E0B0E084839583FA
:10557000A683B78385EB91E0918380830895E3EA66
:10558000F4E087EC91E0918380831282138214828D
:1055900015820895EDE9F4E087EC91E09183808332
:1055A0001282138214821582EBE2F5E091838083EC
:1055B00012821382148215820895E7E9F4E087ECE1
:1055C00091E0918380831282138214821582089560
:1055D000E5E5F5E08FEF8083128211821486138651
:1055E0008FEF9FEFDC0187839087A187B2870895B3
:1055F000E1EEF5E01382128288EE93E0A0E0B0E0E5
:1056000084839583A683B78382E591E09183808329
:1056100085EC90E09587848784EC90E09787868777
:1056200080EC90E0918B808B81EC90E0938B828B6F
:1056300082EC90E0958B848B86EC90E0978B868B48
:10564000118E128E138E148E08950895E8EFF3E0F4
:1056500087EC91E0918380831282138214821582F9
:105660000895FF920F931F93CF93DF93E2EFF3E040
:1056700007EC11E0118300831282138214821582D9
:10568000C8E2D4E08AE291E09983888380E49BE4D5
:10569000ACE4B0E08A839B83AC83BD838FEF9FEF44
:1056A0009F838E83FF24FA94F886F98662E070E087
:1056B000CE010E94C1078EE391E099838883E6E5DD
:1056C000F4E010821182F282E0E5F4E010821182AF
:1056D0001282E2E2F4E01183008380EC828388EAA4
:1056E000838381E0848381EB8583E6E7F4E01382A2
:1056F000128288EE93E0A0E0B0E084839583A683D5
:10570000B7838BE891E09183808317870687108A9F
:10571000118A128A138A84E0808FDF91CF911F91C2
:105720000F91FF900895CF93DF9300D000D0CDB7B5
:10573000DEB787EC91E09093EB038093EA0310923D
:10574000EC031092ED031092EE031092EF0310920F
:105750003304109232048FEF93E0909335048093DA
:1057600034041092370410923604109239041092C7
:105770003804BE016D5F7F4F90E080E00E940D2CE9
:10578000BE016F5F7F4F82E090E00E940D2C2B8165
:105790003C81309337042093360489819A81909319
:1057A00039048093380410923C0480913204909123
:1057B0003304069690933B0480933A0428173907E4
:1057C00024F490933704809336040F900F900F9039
:1057D0000F90DF91CF910895E4EEF3E087EC91E034
:1057E0009183808312821382148215820895EEEDD4
:1057F000F3E087EC91E0918380831282138214821C
:1058000015820895E8EDF3E087EC91E091838083C1
:10581000128213821482158208950F931F93CF93DF
:10582000DF938C01EB010E94EB318883C801019664
:105830000E94EB318983CE01DF91CF911F910F91AF
:1058400008950E94772A0E94822A0E948D2A0E942F
:10585000982A0E94A32A0E94AE2A0E94BF2A0E9470
:10586000CA2A0E94DD2A0E94E82A0E94F82A0E9481
:10587000262B0E94312B0E94932B0E94EC2B0E941E
:10588000F72B0C94022CCF93DF93CDB7DEB7609744
:105890000FB6F894DEBF0FBECDBF0E94AF0A8AE0FC
:1058A0008093170187EC91E09A8389838091240487
:1058B00090912504A0912604B09127048B839C83AA
:1058C000AD83BE83CE0101960E945916E091F10589
:1058D000F091F20582E08083E091ED05F091EE0514
:1058E0001082E091EF05F091F0058FEC808310922B
:1058F000F905E091F505F091F60586E08083E091E9
:10590000F305F091F405808180618083E091F305D7
:10591000F091F405808188608083E091F305F09137
:10592000F405808180688083E091F305F091F405AF
:1059300080818F7D8083E0912A05E353E53030F448
:10594000F0E0E05AFE4F8081811106C062E673E00C
:1059500081EE95E00E9407200E945F1A029731F4C1
:1059600061E873E081EE95E00E94072068EB72E247
:1059700086E794E00E94A6191092690510926805C6
:1059800010927705109279050E94600A0E941A040D
:105990000E94120460E08EE00E946D080E946A106E
:1059A00029833A834B835C838F838FE18D8382E0ED
:1059B0008E8362E0CE0101960E94F21061E0CE017A
:1059C00001960E94F210188A1A86BE01665F7F4F08
:1059D0008FE00E94DD106A85862F837021F06C7F36
:1059E0008FE00E946D088889882369F0BE01605F9E
:1059F0007F4F8EE00E94DD10882329F068896F7741
:105A00008EE00E946D0880911A04811145C01092A9
:105A10000C0410920B048FEF80930F0480931004FA
:105A200080931104809312048093130480931404D0
:105A300081E08093150410921704109216041092BE
:105A40000E0410920D048091620590916305892BDC
:105A500031F489E094E09093630580936205E091CE
:105A60000704F0910804309721F089E094E09583D1
:105A7000848389E094E09093080480930704109253
:105A800019041092180489E791E090930A04809316
:105A9000090481E080931A04E0910904F0910A045A
:105AA0000480F581E02D89E094E0099583E594E098
:105AB00090930C0480930B0481E090E09093170482
:105AC00080931604E0910904F0910A040284F3859E
:105AD000E02D89E094E00995009701F19C0150E0E8
